{
  "contractName": "FractionTokenLite",
  "abi": [
    {
      "inputs": [
        {
          "internalType": "string",
          "name": "name_",
          "type": "string"
        },
        {
          "internalType": "string",
          "name": "symbol_",
          "type": "string"
        },
        {
          "internalType": "address",
          "name": "admin_",
          "type": "address"
        },
        {
          "internalType": "address",
          "name": "initialHolder_",
          "type": "address"
        },
        {
          "internalType": "uint256",
          "name": "initialSupply_",
          "type": "uint256"
        }
      ],
      "stateMutability": "nonpayable",
      "type": "constructor"
    },
    {
      "inputs": [],
      "name": "CheckpointUnorderedInsertion",
      "type": "error"
    },
    {
      "inputs": [],
      "name": "ECDSAInvalidSignature",
      "type": "error"
    },
    {
      "inputs": [
        {
          "internalType": "uint256",
          "name": "length",
          "type": "uint256"
        }
      ],
      "name": "ECDSAInvalidSignatureLength",
      "type": "error"
    },
    {
      "inputs": [
        {
          "internalType": "bytes32",
          "name": "s",
          "type": "bytes32"
        }
      ],
      "name": "ECDSAInvalidSignatureS",
      "type": "error"
    },
    {
      "inputs": [
        {
          "internalType": "uint256",
          "name": "increasedSupply",
          "type": "uint256"
        },
        {
          "internalType": "uint256",
          "name": "cap",
          "type": "uint256"
        }
      ],
      "name": "ERC20ExceededSafeSupply",
      "type": "error"
    },
    {
      "inputs": [
        {
          "internalType": "address",
          "name": "spender",
          "type": "address"
        },
        {
          "internalType": "uint256",
          "name": "allowance",
          "type": "uint256"
        },
        {
          "internalType": "uint256",
          "name": "needed",
          "type": "uint256"
        }
      ],
      "name": "ERC20InsufficientAllowance",
      "type": "error"
    },
    {
      "inputs": [
        {
          "internalType": "address",
          "name": "sender",
          "type": "address"
        },
        {
          "internalType": "uint256",
          "name": "balance",
          "type": "uint256"
        },
        {
          "internalType": "uint256",
          "name": "needed",
          "type": "uint256"
        }
      ],
      "name": "ERC20InsufficientBalance",
      "type": "error"
    },
    {
      "inputs": [
        {
          "internalType": "address",
          "name": "approver",
          "type": "address"
        }
      ],
      "name": "ERC20InvalidApprover",
      "type": "error"
    },
    {
      "inputs": [
        {
          "internalType": "address",
          "name": "receiver",
          "type": "address"
        }
      ],
      "name": "ERC20InvalidReceiver",
      "type": "error"
    },
    {
      "inputs": [
        {
          "internalType": "address",
          "name": "sender",
          "type": "address"
        }
      ],
      "name": "ERC20InvalidSender",
      "type": "error"
    },
    {
      "inputs": [
        {
          "internalType": "address",
          "name": "spender",
          "type": "address"
        }
      ],
      "name": "ERC20InvalidSpender",
      "type": "error"
    },
    {
      "inputs": [
        {
          "internalType": "uint256",
          "name": "deadline",
          "type": "uint256"
        }
      ],
      "name": "ERC2612ExpiredSignature",
      "type": "error"
    },
    {
      "inputs": [
        {
          "internalType": "address",
          "name": "signer",
          "type": "address"
        },
        {
          "internalType": "address",
          "name": "owner",
          "type": "address"
        }
      ],
      "name": "ERC2612InvalidSigner",
      "type": "error"
    },
    {
      "inputs": [
        {
          "internalType": "uint256",
          "name": "timepoint",
          "type": "uint256"
        },
        {
          "internalType": "uint48",
          "name": "clock",
          "type": "uint48"
        }
      ],
      "name": "ERC5805FutureLookup",
      "type": "error"
    },
    {
      "inputs": [],
      "name": "ERC6372InconsistentClock",
      "type": "error"
    },
    {
      "inputs": [
        {
          "internalType": "address",
          "name": "account",
          "type": "address"
        },
        {
          "internalType": "uint256",
          "name": "currentNonce",
          "type": "uint256"
        }
      ],
      "name": "InvalidAccountNonce",
      "type": "error"
    },
    {
      "inputs": [],
      "name": "InvalidShortString",
      "type": "error"
    },
    {
      "inputs": [
        {
          "internalType": "address",
          "name": "owner",
          "type": "address"
        }
      ],
      "name": "OwnableInvalidOwner",
      "type": "error"
    },
    {
      "inputs": [
        {
          "internalType": "address",
          "name": "account",
          "type": "address"
        }
      ],
      "name": "OwnableUnauthorizedAccount",
      "type": "error"
    },
    {
      "inputs": [
        {
          "internalType": "uint8",
          "name": "bits",
          "type": "uint8"
        },
        {
          "internalType": "uint256",
          "name": "value",
          "type": "uint256"
        }
      ],
      "name": "SafeCastOverflowedUintDowncast",
      "type": "error"
    },
    {
      "inputs": [
        {
          "internalType": "string",
          "name": "str",
          "type": "string"
        }
      ],
      "name": "StringTooLong",
      "type": "error"
    },
    {
      "inputs": [
        {
          "internalType": "uint256",
          "name": "expiry",
          "type": "uint256"
        }
      ],
      "name": "VotesExpiredSignature",
      "type": "error"
    },
    {
      "anonymous": false,
      "inputs": [
        {
          "indexed": true,
          "internalType": "address",
          "name": "owner",
          "type": "address"
        },
        {
          "indexed": true,
          "internalType": "address",
          "name": "spender",
          "type": "address"
        },
        {
          "indexed": false,
          "internalType": "uint256",
          "name": "value",
          "type": "uint256"
        }
      ],
      "name": "Approval",
      "type": "event"
    },
    {
      "anonymous": false,
      "inputs": [
        {
          "indexed": true,
          "internalType": "address",
          "name": "delegator",
          "type": "address"
        },
        {
          "indexed": true,
          "internalType": "address",
          "name": "fromDelegate",
          "type": "address"
        },
        {
          "indexed": true,
          "internalType": "address",
          "name": "toDelegate",
          "type": "address"
        }
      ],
      "name": "DelegateChanged",
      "type": "event"
    },
    {
      "anonymous": false,
      "inputs": [
        {
          "indexed": true,
          "internalType": "address",
          "name": "delegate",
          "type": "address"
        },
        {
          "indexed": false,
          "internalType": "uint256",
          "name": "previousVotes",
          "type": "uint256"
        },
        {
          "indexed": false,
          "internalType": "uint256",
          "name": "newVotes",
          "type": "uint256"
        }
      ],
      "name": "DelegateVotesChanged",
      "type": "event"
    },
    {
      "anonymous": false,
      "inputs": [],
      "name": "EIP712DomainChanged",
      "type": "event"
    },
    {
      "anonymous": false,
      "inputs": [
        {
          "indexed": true,
          "internalType": "address",
          "name": "previousOwner",
          "type": "address"
        },
        {
          "indexed": true,
          "internalType": "address",
          "name": "newOwner",
          "type": "address"
        }
      ],
      "name": "OwnershipTransferred",
      "type": "event"
    },
    {
      "anonymous": false,
      "inputs": [
        {
          "indexed": true,
          "internalType": "address",
          "name": "from",
          "type": "address"
        },
        {
          "indexed": true,
          "internalType": "address",
          "name": "to",
          "type": "address"
        },
        {
          "indexed": false,
          "internalType": "uint256",
          "name": "value",
          "type": "uint256"
        }
      ],
      "name": "Transfer",
      "type": "event"
    },
    {
      "inputs": [],
      "name": "CLOCK_MODE",
      "outputs": [
        {
          "internalType": "string",
          "name": "",
          "type": "string"
        }
      ],
      "stateMutability": "view",
      "type": "function"
    },
    {
      "inputs": [],
      "name": "DOMAIN_SEPARATOR",
      "outputs": [
        {
          "internalType": "bytes32",
          "name": "",
          "type": "bytes32"
        }
      ],
      "stateMutability": "view",
      "type": "function"
    },
    {
      "inputs": [
        {
          "internalType": "address",
          "name": "owner",
          "type": "address"
        },
        {
          "internalType": "address",
          "name": "spender",
          "type": "address"
        }
      ],
      "name": "allowance",
      "outputs": [
        {
          "internalType": "uint256",
          "name": "",
          "type": "uint256"
        }
      ],
      "stateMutability": "view",
      "type": "function"
    },
    {
      "inputs": [
        {
          "internalType": "address",
          "name": "spender",
          "type": "address"
        },
        {
          "internalType": "uint256",
          "name": "value",
          "type": "uint256"
        }
      ],
      "name": "approve",
      "outputs": [
        {
          "internalType": "bool",
          "name": "",
          "type": "bool"
        }
      ],
      "stateMutability": "nonpayable",
      "type": "function"
    },
    {
      "inputs": [
        {
          "internalType": "address",
          "name": "account",
          "type": "address"
        }
      ],
      "name": "balanceOf",
      "outputs": [
        {
          "internalType": "uint256",
          "name": "",
          "type": "uint256"
        }
      ],
      "stateMutability": "view",
      "type": "function"
    },
    {
      "inputs": [
        {
          "internalType": "address",
          "name": "account",
          "type": "address"
        },
        {
          "internalType": "uint32",
          "name": "pos",
          "type": "uint32"
        }
      ],
      "name": "checkpoints",
      "outputs": [
        {
          "components": [
            {
              "internalType": "uint48",
              "name": "_key",
              "type": "uint48"
            },
            {
              "internalType": "uint208",
              "name": "_value",
              "type": "uint208"
            }
          ],
          "internalType": "struct Checkpoints.Checkpoint208",
          "name": "",
          "type": "tuple"
        }
      ],
      "stateMutability": "view",
      "type": "function"
    },
    {
      "inputs": [],
      "name": "clock",
      "outputs": [
        {
          "internalType": "uint48",
          "name": "",
          "type": "uint48"
        }
      ],
      "stateMutability": "view",
      "type": "function"
    },
    {
      "inputs": [],
      "name": "decimals",
      "outputs": [
        {
          "internalType": "uint8",
          "name": "",
          "type": "uint8"
        }
      ],
      "stateMutability": "view",
      "type": "function"
    },
    {
      "inputs": [
        {
          "internalType": "address",
          "name": "delegatee",
          "type": "address"
        }
      ],
      "name": "delegate",
      "outputs": [],
      "stateMutability": "nonpayable",
      "type": "function"
    },
    {
      "inputs": [
        {
          "internalType": "address",
          "name": "delegatee",
          "type": "address"
        },
        {
          "internalType": "uint256",
          "name": "nonce",
          "type": "uint256"
        },
        {
          "internalType": "uint256",
          "name": "expiry",
          "type": "uint256"
        },
        {
          "internalType": "uint8",
          "name": "v",
          "type": "uint8"
        },
        {
          "internalType": "bytes32",
          "name": "r",
          "type": "bytes32"
        },
        {
          "internalType": "bytes32",
          "name": "s",
          "type": "bytes32"
        }
      ],
      "name": "delegateBySig",
      "outputs": [],
      "stateMutability": "nonpayable",
      "type": "function"
    },
    {
      "inputs": [
        {
          "internalType": "address",
          "name": "account",
          "type": "address"
        }
      ],
      "name": "delegates",
      "outputs": [
        {
          "internalType": "address",
          "name": "",
          "type": "address"
        }
      ],
      "stateMutability": "view",
      "type": "function"
    },
    {
      "inputs": [],
      "name": "distributor",
      "outputs": [
        {
          "internalType": "address",
          "name": "",
          "type": "address"
        }
      ],
      "stateMutability": "view",
      "type": "function"
    },
    {
      "inputs": [],
      "name": "eip712Domain",
      "outputs": [
        {
          "internalType": "bytes1",
          "name": "fields",
          "type": "bytes1"
        },
        {
          "internalType": "string",
          "name": "name",
          "type": "string"
        },
        {
          "internalType": "string",
          "name": "version",
          "type": "string"
        },
        {
          "internalType": "uint256",
          "name": "chainId",
          "type": "uint256"
        },
        {
          "internalType": "address",
          "name": "verifyingContract",
          "type": "address"
        },
        {
          "internalType": "bytes32",
          "name": "salt",
          "type": "bytes32"
        },
        {
          "internalType": "uint256[]",
          "name": "extensions",
          "type": "uint256[]"
        }
      ],
      "stateMutability": "view",
      "type": "function"
    },
    {
      "inputs": [
        {
          "internalType": "uint256",
          "name": "timepoint",
          "type": "uint256"
        }
      ],
      "name": "getPastTotalSupply",
      "outputs": [
        {
          "internalType": "uint256",
          "name": "",
          "type": "uint256"
        }
      ],
      "stateMutability": "view",
      "type": "function"
    },
    {
      "inputs": [
        {
          "internalType": "address",
          "name": "account",
          "type": "address"
        },
        {
          "internalType": "uint256",
          "name": "timepoint",
          "type": "uint256"
        }
      ],
      "name": "getPastVotes",
      "outputs": [
        {
          "internalType": "uint256",
          "name": "",
          "type": "uint256"
        }
      ],
      "stateMutability": "view",
      "type": "function"
    },
    {
      "inputs": [
        {
          "internalType": "address",
          "name": "account",
          "type": "address"
        }
      ],
      "name": "getVotes",
      "outputs": [
        {
          "internalType": "uint256",
          "name": "",
          "type": "uint256"
        }
      ],
      "stateMutability": "view",
      "type": "function"
    },
    {
      "inputs": [],
      "name": "name",
      "outputs": [
        {
          "internalType": "string",
          "name": "",
          "type": "string"
        }
      ],
      "stateMutability": "view",
      "type": "function"
    },
    {
      "inputs": [
        {
          "internalType": "address",
          "name": "account",
          "type": "address"
        }
      ],
      "name": "numCheckpoints",
      "outputs": [
        {
          "internalType": "uint32",
          "name": "",
          "type": "uint32"
        }
      ],
      "stateMutability": "view",
      "type": "function"
    },
    {
      "inputs": [],
      "name": "owner",
      "outputs": [
        {
          "internalType": "address",
          "name": "",
          "type": "address"
        }
      ],
      "stateMutability": "view",
      "type": "function"
    },
    {
      "inputs": [
        {
          "internalType": "address",
          "name": "owner",
          "type": "address"
        },
        {
          "internalType": "address",
          "name": "spender",
          "type": "address"
        },
        {
          "internalType": "uint256",
          "name": "value",
          "type": "uint256"
        },
        {
          "internalType": "uint256",
          "name": "deadline",
          "type": "uint256"
        },
        {
          "internalType": "uint8",
          "name": "v",
          "type": "uint8"
        },
        {
          "internalType": "bytes32",
          "name": "r",
          "type": "bytes32"
        },
        {
          "internalType": "bytes32",
          "name": "s",
          "type": "bytes32"
        }
      ],
      "name": "permit",
      "outputs": [],
      "stateMutability": "nonpayable",
      "type": "function"
    },
    {
      "inputs": [],
      "name": "renounceOwnership",
      "outputs": [],
      "stateMutability": "nonpayable",
      "type": "function"
    },
    {
      "inputs": [],
      "name": "symbol",
      "outputs": [
        {
          "internalType": "string",
          "name": "",
          "type": "string"
        }
      ],
      "stateMutability": "view",
      "type": "function"
    },
    {
      "inputs": [],
      "name": "totalSupply",
      "outputs": [
        {
          "internalType": "uint256",
          "name": "",
          "type": "uint256"
        }
      ],
      "stateMutability": "view",
      "type": "function"
    },
    {
      "inputs": [
        {
          "internalType": "address",
          "name": "to",
          "type": "address"
        },
        {
          "internalType": "uint256",
          "name": "value",
          "type": "uint256"
        }
      ],
      "name": "transfer",
      "outputs": [
        {
          "internalType": "bool",
          "name": "",
          "type": "bool"
        }
      ],
      "stateMutability": "nonpayable",
      "type": "function"
    },
    {
      "inputs": [
        {
          "internalType": "address",
          "name": "from",
          "type": "address"
        },
        {
          "internalType": "address",
          "name": "to",
          "type": "address"
        },
        {
          "internalType": "uint256",
          "name": "value",
          "type": "uint256"
        }
      ],
      "name": "transferFrom",
      "outputs": [
        {
          "internalType": "bool",
          "name": "",
          "type": "bool"
        }
      ],
      "stateMutability": "nonpayable",
      "type": "function"
    },
    {
      "inputs": [
        {
          "internalType": "address",
          "name": "newOwner",
          "type": "address"
        }
      ],
      "name": "transferOwnership",
      "outputs": [],
      "stateMutability": "nonpayable",
      "type": "function"
    },
    {
      "inputs": [
        {
          "internalType": "address",
          "name": "distributor_",
          "type": "address"
        }
      ],
      "name": "setDistributor",
      "outputs": [],
      "stateMutability": "nonpayable",
      "type": "function"
    },
    {
      "inputs": [
        {
          "internalType": "address",
          "name": "owner",
          "type": "address"
        }
      ],
      "name": "nonces",
      "outputs": [
        {
          "internalType": "uint256",
          "name": "",
          "type": "uint256"
        }
      ],
      "stateMutability": "view",
      "type": "function"
    }
  ],
  "bytecode": "0x610160604052348015610010575f80fd5b50604051612abf380380612abf83398101604081905261002f91610911565b828580604051806040016040528060018152602001603160f81b8152508888816003908161005d9190610a1c565b50600461006a8282610a1c565b5061007a9150839050600561016b565b6101205261008981600661016b565b61014052815160208084019190912060e052815190820120610100524660a05261011560e05161010051604080517f8b73c3c69bb8fe3d512ecc4cf759cc79239f7b179b0ffacaa9a75d522b39400f60208201529081019290925260608201524660808201523060a08201525f9060c00160405160208183030381529060405280519060200120905090565b60805250503060c052506001600160a01b03811661014d57604051631e4fbdf760e01b81525f60048201526024015b60405180910390fd5b6101568161019d565b5061016182826101ee565b5050505050610bb4565b5f6020835110156101865761017f83610226565b9050610197565b816101918482610a1c565b5060ff90505b92915050565b600b80546001600160a01b038381166001600160a01b0319831681179093556040519116919082907f8be0079c531659141344cd1fd0a4f28419497f9722a3daafe3b4186f6b6457e0905f90a35050565b6001600160a01b0382166102175760405163ec442f0560e01b81525f6004820152602401610144565b6102225f8383610263565b5050565b5f80829050601f81511115610250578260405163305a27a960e01b81526004016101449190610adb565b805161025b82610b10565b179392505050565b61026e838383610273565b505050565b61027e8383836102d9565b6001600160a01b0383166102ce575f61029660025490565b90506001600160d01b03808211156102cb57604051630e58ae9360e11b81526004810183905260248101829052604401610144565b50505b61026e8383836103ff565b6001600160a01b038316610303578060025f8282546102f89190610b47565b909155506103739050565b6001600160a01b0383165f90815260208190526040902054818110156103555760405163391434e360e21b81526001600160a01b03851660048201526024810182905260448101839052606401610144565b6001600160a01b0384165f9081526020819052604090209082900390555b6001600160a01b03821661038f576002805482900390556103ad565b6001600160a01b0382165f9081526020819052604090208054820190555b816001600160a01b0316836001600160a01b03167fddf252ad1be2c89b69c2b068fc378daa952ba7f163c4a11628f55a4df523b3ef836040516103f291815260200190565b60405180910390a3505050565b6001600160a01b03831661042d5761042a600a61096b61048760201b1761042584610499565b6104d0565b50505b6001600160a01b03821661045657610453600a61097661050560201b1761042584610499565b50505b6001600160a01b038381165f9081526008602052604080822054858416835291205461026e92918216911683610510565b5f6104928284610b5a565b9392505050565b5f6001600160d01b038211156104cc576040516306dfcc6560e41b815260d0600482015260248101839052604401610144565b5090565b5f806104f86104dd610660565b6104f06104e98861066e565b868860201c565b8791906106b5565b915091505b935093915050565b5f6104928284610b81565b816001600160a01b0316836001600160a01b03161415801561053157505f81115b1561026e576001600160a01b038316156105c9576001600160a01b0383165f908152600960209081526040822082916105779190610505901b6109761761042586610499565b6001600160d01b031691506001600160d01b03169150846001600160a01b03165f80516020612a9f83398151915283836040516105be929190918252602082015260400190565b60405180910390a250505b6001600160a01b0382161561026e576001600160a01b0382165f9081526009602090815260408220829161060a9190610487901b61096b1761042586610499565b6001600160d01b031691506001600160d01b03169150836001600160a01b03165f80516020612a9f8339815191528383604051610651929190918252602082015260400190565b60405180910390a25050505050565b5f6106696106c2565b905090565b80545f9080156106ad5761069483610687600184610ba1565b5f91825260209091200190565b54660100000000000090046001600160d01b0316610492565b5f9392505050565b5f806104f88585856106cc565b5f61066943610828565b82545f90819080156107cb575f6106e887610687600185610ba1565b805490915065ffffffffffff80821691660100000000000090046001600160d01b031690881682111561072e57604051632520601d60e01b815260040160405180910390fd5b8765ffffffffffff168265ffffffffffff160361076a57825465ffffffffffff1666010000000000006001600160d01b038916021783556107bd565b6040805180820190915265ffffffffffff808a1682526001600160d01b03808a1660208085019182528d54600181018f555f8f815291909120945191519092166601000000000000029216919091179101555b94508593506104fd92505050565b50506040805180820190915265ffffffffffff80851682526001600160d01b0380851660208085019182528854600181018a555f8a81529182209551925190931666010000000000000291909316179201919091559050816104fd565b5f65ffffffffffff8211156104cc576040516306dfcc6560e41b81526030600482015260248101839052604401610144565b634e487b7160e01b5f52604160045260245ffd5b5f82601f83011261087d575f80fd5b81516001600160401b03808211156108975761089761085a565b604051601f8301601f19908116603f011681019082821181831017156108bf576108bf61085a565b816040528381528660208588010111156108d7575f80fd5b8360208701602083015e5f602085830101528094505050505092915050565b80516001600160a01b038116811461090c575f80fd5b919050565b5f805f805f60a08688031215610925575f80fd5b85516001600160401b038082111561093b575f80fd5b61094789838a0161086e565b9650602088015191508082111561095c575f80fd5b506109698882890161086e565b945050610978604087016108f6565b9250610986606087016108f6565b9150608086015190509295509295909350565b600181811c908216806109ad57607f821691505b6020821081036109cb57634e487b7160e01b5f52602260045260245ffd5b50919050565b601f82111561026e57805f5260205f20601f840160051c810160208510156109f65750805b601f840160051c820191505b81811015610a15575f8155600101610a02565b5050505050565b81516001600160401b03811115610a3557610a3561085a565b610a4981610a438454610999565b846109d1565b602080601f831160018114610a7c575f8415610a655750858301515b5f19600386901b1c1916600185901b178555610ad3565b5f85815260208120601f198616915b82811015610aaa57888601518255948401946001909101908401610a8b565b5085821015610ac757878501515f19600388901b60f8161c191681555b505060018460011b0185555b505050505050565b602081525f82518060208401528060208501604085015e5f604082850101526040601f19601f83011684010191505092915050565b805160208083015191908110156109cb575f1960209190910360031b1b16919050565b634e487b7160e01b5f52601160045260245ffd5b8082018082111561019757610197610b33565b6001600160d01b03818116838216019080821115610b7a57610b7a610b33565b5092915050565b6001600160d01b03828116828216039080821115610b7a57610b7a610b33565b8181038181111561019757610197610b33565b60805160a05160c05160e051610100516101205161014051611e9a610c055f395f610dfe01525f610dd101525f610b4501525f610b1d01525f610a7801525f610aa201525f610acc0152611e9a5ff3fe608060405234801561000f575f80fd5b50600436106101bb575f3560e01c80637ecebe00116100f3578063a9059cbb11610093578063d505accf1161006e578063d505accf146103df578063dd62ed3e146103f2578063f1127ed81461042a578063f2fde38b14610469575f80fd5b8063a9059cbb146103a6578063bfe10928146103b9578063c3cda520146103cc575f80fd5b80638e539e8c116100ce5780638e539e8c1461035957806391ddadf41461036c57806395d89b411461038b5780639ab24eb014610393575f80fd5b80637ecebe001461031a57806384b0196e1461032d5780638da5cb5b14610348575f80fd5b80634bf5d7e91161015e5780636fcfff45116101395780636fcfff45146102af57806370a08231146102d7578063715018a6146102ff57806375619ab514610307575f80fd5b80634bf5d7e91461024f578063587cde1e146102575780635c19a95c1461029a575f80fd5b806323b872dd1161019957806323b872dd14610212578063313ce567146102255780633644e515146102345780633a46b1a81461023c575f80fd5b806306fdde03146101bf578063095ea7b3146101dd57806318160ddd14610200575b5f80fd5b6101c761047c565b6040516101d49190611ac4565b60405180910390f35b6101f06101eb366004611af1565b61050c565b60405190151581526020016101d4565b6002545b6040519081526020016101d4565b6101f0610220366004611b19565b610525565b604051601281526020016101d4565b610204610548565b61020461024a366004611af1565b610556565b6101c7610590565b610282610265366004611b52565b6001600160a01b039081165f908152600860205260409020541690565b6040516001600160a01b0390911681526020016101d4565b6102ad6102a8366004611b52565b610608565b005b6102c26102bd366004611b52565b610617565b60405163ffffffff90911681526020016101d4565b6102046102e5366004611b52565b6001600160a01b03165f9081526020819052604090205490565b6102ad610621565b6102ad610315366004611b52565b610634565b610204610328366004611b52565b61065e565b610335610668565b6040516101d49796959493929190611b6b565b600b546001600160a01b0316610282565b610204610367366004611c02565b6106aa565b6103746106ce565b60405165ffffffffffff90911681526020016101d4565b6101c76106d7565b6102046103a1366004611b52565b6106e6565b6101f06103b4366004611af1565b610706565b600c54610282906001600160a01b031681565b6102ad6103da366004611c29565b610713565b6102ad6103ed366004611c7d565b6107d4565b610204610400366004611ce2565b6001600160a01b039182165f90815260016020908152604080832093909416825291909152205490565b61043d610438366004611d13565b61090a565b60408051825165ffffffffffff1681526020928301516001600160d01b031692810192909252016101d4565b6102ad610477366004611b52565b61092e565b60606003805461048b90611d50565b80601f01602080910402602001604051908101604052809291908181526020018280546104b790611d50565b80156105025780601f106104d957610100808354040283529160200191610502565b820191905f5260205f20905b8154815290600101906020018083116104e557829003601f168201915b5050505050905090565b5f33610519818585610981565b60019150505b92915050565b5f33610532858285610993565b61053d858585610a0f565b506001949350505050565b5f610551610a6c565b905090565b5f61058061056383610b95565b6001600160a01b0385165f90815260096020526040902090610be3565b6001600160d01b03169392505050565b606061059a610c93565b65ffffffffffff166105aa6106ce565b65ffffffffffff16146105d0576040516301bfc1c560e61b815260040160405180910390fd5b5060408051808201909152601d81527f6d6f64653d626c6f636b6e756d6265722666726f6d3d64656661756c74000000602082015290565b336106138183610c9d565b5050565b5f61051f82610d0e565b610629610d2f565b6106325f610d5c565b565b61063c610d2f565b600c80546001600160a01b0319166001600160a01b0392909216919091179055565b5f61051f82610dad565b5f6060805f805f6060610679610dca565b610681610df7565b604080515f80825260208201909252600f60f81b9b939a50919850469750309650945092509050565b5f6106bf6106b783610b95565b600a90610be3565b6001600160d01b031692915050565b5f610551610c93565b60606004805461048b90611d50565b6001600160a01b0381165f9081526009602052604081206106bf90610e24565b5f33610519818585610a0f565b8342111561073c57604051632341d78760e11b8152600481018590526024015b60405180910390fd5b604080517fe48329057bfd03d55e49b547132e39cffd9c1820ad7b9d4c5307691425d15adf60208201526001600160a01b0388169181019190915260608101869052608081018590525f906107b5906107ad9060a00160405160208183030381529060405280519060200120610e5b565b858585610e87565b90506107c18187610eb3565b6107cb8188610c9d565b50505050505050565b834211156107f85760405163313c898160e11b815260048101859052602401610733565b5f7f6e71edae12b1b97f4d1f60370fef10105fa2faae0126114a169c64845d6126c98888886108438c6001600160a01b03165f90815260076020526040902080546001810190915590565b6040805160208101969096526001600160a01b0394851690860152929091166060840152608083015260a082015260c0810186905260e0016040516020818303038152906040528051906020012090505f61089d82610e5b565b90505f6108ac82878787610e87565b9050896001600160a01b0316816001600160a01b0316146108f3576040516325c0072360e11b81526001600160a01b0380831660048301528b166024820152604401610733565b6108fe8a8a8a610981565b50505050505050505050565b604080518082019091525f80825260208201526109278383610f05565b9392505050565b610936610d2f565b6001600160a01b03811661095f57604051631e4fbdf760e01b81525f6004820152602401610733565b61096881610d5c565b50565b5f6109278284611d9c565b5f6109278284611dc3565b61098e8383836001610f39565b505050565b6001600160a01b038381165f908152600160209081526040808320938616835292905220545f19811015610a0957818110156109fb57604051637dc7a0d960e11b81526001600160a01b03841660048201526024810182905260448101839052606401610733565b610a0984848484035f610f39565b50505050565b6001600160a01b038316610a3857604051634b637e8f60e11b81525f6004820152602401610733565b6001600160a01b038216610a615760405163ec442f0560e01b81525f6004820152602401610733565b61098e83838361100b565b5f306001600160a01b037f000000000000000000000000000000000000000000000000000000000000000016148015610ac457507f000000000000000000000000000000000000000000000000000000000000000046145b15610aee57507f000000000000000000000000000000000000000000000000000000000000000090565b610551604080517f8b73c3c69bb8fe3d512ecc4cf759cc79239f7b179b0ffacaa9a75d522b39400f60208201527f0000000000000000000000000000000000000000000000000000000000000000918101919091527f000000000000000000000000000000000000000000000000000000000000000060608201524660808201523060a08201525f9060c00160405160208183030381529060405280519060200120905090565b5f80610b9f6106ce565b90508065ffffffffffff168310610bda57604051637669fc0f60e11b81526004810184905265ffffffffffff82166024820152604401610733565b61092783611016565b81545f9081816005811115610c3f575f610bfc8461104c565b610c069085611de3565b5f8881526020902090915081015465ffffffffffff9081169087161015610c2f57809150610c3d565b610c3a816001611df6565b92505b505b5f610c4c878785856111a4565b90508015610c8657610c7087610c63600184611de3565b5f91825260209091200190565b54600160301b90046001600160d01b0316610c88565b5f5b979650505050505050565b5f61055143611016565b6001600160a01b038281165f8181526008602052604080822080548686166001600160a01b0319821681179092559151919094169392849290917f3134e8a2e6d97e929a7e54011ea5485d7d196dd5f0ba4d4ef95803e8e3fc257f9190a461098e8183610d0986611203565b611220565b6001600160a01b0381165f9081526009602052604081205461051f90611389565b600b546001600160a01b031633146106325760405163118cdaa760e01b8152336004820152602401610733565b600b80546001600160a01b038381166001600160a01b0319831681179093556040519116919082907f8be0079c531659141344cd1fd0a4f28419497f9722a3daafe3b4186f6b6457e0905f90a35050565b6001600160a01b0381165f9081526007602052604081205461051f565b60606105517f000000000000000000000000000000000000000000000000000000000000000060056113b9565b60606105517f000000000000000000000000000000000000000000000000000000000000000060066113b9565b80545f908015610e5357610e3d83610c63600184611de3565b54600160301b90046001600160d01b0316610927565b5f9392505050565b5f61051f610e67610a6c565b8360405161190160f01b8152600281019290925260228201526042902090565b5f805f80610e9788888888611462565b925092509250610ea7828261152a565b50909695505050505050565b6001600160a01b0382165f90815260076020526040902080546001810190915581811461098e576040516301d4b62360e61b81526001600160a01b038416600482015260248101829052604401610733565b604080518082019091525f80825260208201526001600160a01b0383165f90815260096020526040902061092790836115e2565b6001600160a01b038416610f625760405163e602df0560e01b81525f6004820152602401610733565b6001600160a01b038316610f8b57604051634a1406b160e11b81525f6004820152602401610733565b6001600160a01b038085165f9081526001602090815260408083209387168352929052208290558015610a0957826001600160a01b0316846001600160a01b03167f8c5be1e5ebec7d5bd14f71427d1e84f3dd0314c0f7b2291e5b200ac8c7c3b92584604051610ffd91815260200190565b60405180910390a350505050565b61098e83838361164f565b5f65ffffffffffff821115611048576040516306dfcc6560e41b81526030600482015260248101839052604401610733565b5090565b5f60018211611059575090565b816001600160801b82106110725760809190911c9060401b5b68010000000000000000821061108d5760409190911c9060201b5b64010000000082106110a45760209190911c9060101b5b6201000082106110b95760109190911c9060081b5b61010082106110cd5760089190911c9060041b5b601082106110e05760049190911c9060021b5b600482106110ec5760011b5b600302600190811c9081858161110457611104611e09565b048201901c9050600181858161111c5761111c611e09565b048201901c9050600181858161113457611134611e09565b048201901c9050600181858161114c5761114c611e09565b048201901c9050600181858161116457611164611e09565b048201901c9050600181858161117c5761117c611e09565b048201901c905061119b81858161119557611195611e09565b04821190565b90039392505050565b5f5b818310156111fb575f6111b984846116b5565b5f8781526020902090915065ffffffffffff86169082015465ffffffffffff1611156111e7578092506111f5565b6111f2816001611df6565b93505b506111a6565b509392505050565b6001600160a01b0381165f9081526020819052604081205461051f565b816001600160a01b0316836001600160a01b03161415801561124157505f81115b1561098e576001600160a01b038316156112e8576001600160a01b0383165f90815260096020526040812081906112839061097661127e866116cf565b611702565b6001600160d01b031691506001600160d01b03169150846001600160a01b03167fdec2bacdd2f05b59de34da9b523dff8be42e5e38e818c82fdb0bae774387a72483836040516112dd929190918252602082015260400190565b60405180910390a250505b6001600160a01b0382161561098e576001600160a01b0382165f90815260096020526040812081906113209061096b61127e866116cf565b6001600160d01b031691506001600160d01b03169150836001600160a01b03167fdec2bacdd2f05b59de34da9b523dff8be42e5e38e818c82fdb0bae774387a724838360405161137a929190918252602082015260400190565b60405180910390a25050505050565b5f63ffffffff821115611048576040516306dfcc6560e41b81526020600482015260248101839052604401610733565b606060ff83146113d3576113cc8361173a565b905061051f565b8180546113df90611d50565b80601f016020809104026020016040519081016040528092919081815260200182805461140b90611d50565b80156114565780601f1061142d57610100808354040283529160200191611456565b820191905f5260205f20905b81548152906001019060200180831161143957829003601f168201915b5050505050905061051f565b5f80807f7fffffffffffffffffffffffffffffff5d576e7357a4501ddfe92f46681b20a084111561149b57505f91506003905082611520565b604080515f808252602082018084528a905260ff891692820192909252606081018790526080810186905260019060a0016020604051602081039080840390855afa1580156114ec573d5f803e3d5ffd5b5050604051601f1901519150506001600160a01b03811661151757505f925060019150829050611520565b92505f91508190505b9450945094915050565b5f82600381111561153d5761153d611e1d565b03611546575050565b600182600381111561155a5761155a611e1d565b036115785760405163f645eedf60e01b815260040160405180910390fd5b600282600381111561158c5761158c611e1d565b036115ad5760405163fce698f760e01b815260048101829052602401610733565b60038260038111156115c1576115c1611e1d565b03610613576040516335e2f38360e21b815260048101829052602401610733565b604080518082019091525f8082526020820152825f018263ffffffff168154811061160f5761160f611e31565b5f9182526020918290206040805180820190915291015465ffffffffffff81168252600160301b90046001600160d01b0316918101919091529392505050565b61165a838383611777565b6001600160a01b0383166116aa575f61167260025490565b90506001600160d01b03808211156116a757604051630e58ae9360e11b81526004810183905260248101829052604401610733565b50505b61098e83838361189d565b5f6116c36002848418611e45565b61092790848416611df6565b5f6001600160d01b03821115611048576040516306dfcc6560e41b815260d0600482015260248101839052604401610733565b5f8061172d61170f6106ce565b61172561171b88610e24565b868863ffffffff16565b879190611912565b915091505b935093915050565b60605f6117468361191f565b6040805160208082528183019092529192505f91906020820181803683375050509182525060208101929092525090565b6001600160a01b0383166117a1578060025f8282546117969190611df6565b909155506118119050565b6001600160a01b0383165f90815260208190526040902054818110156117f35760405163391434e360e21b81526001600160a01b03851660048201526024810182905260448101839052606401610733565b6001600160a01b0384165f9081526020819052604090209082900390555b6001600160a01b03821661182d5760028054829003905561184b565b6001600160a01b0382165f9081526020819052604090208054820190555b816001600160a01b0316836001600160a01b03167fddf252ad1be2c89b69c2b068fc378daa952ba7f163c4a11628f55a4df523b3ef8360405161189091815260200190565b60405180910390a3505050565b6001600160a01b0383166118bf576118bc600a61096b61127e846116cf565b50505b6001600160a01b0382166118e1576118de600a61097661127e846116cf565b50505b6001600160a01b038381165f9081526008602052604080822054858416835291205461098e92918216911683611220565b5f8061172d858585611946565b5f60ff8216601f81111561051f57604051632cd44ac360e21b815260040160405180910390fd5b82545f9081908015611a3c575f61196287610c63600185611de3565b805490915065ffffffffffff80821691600160301b90046001600160d01b03169088168211156119a557604051632520601d60e01b815260040160405180910390fd5b8765ffffffffffff168265ffffffffffff16036119de57825465ffffffffffff16600160301b6001600160d01b03891602178355611a2e565b6040805180820190915265ffffffffffff808a1682526001600160d01b03808a1660208085019182528d54600181018f555f8f81529190912094519151909216600160301b029216919091179101555b945085935061173292505050565b50506040805180820190915265ffffffffffff80851682526001600160d01b0380851660208085019182528854600181018a555f8a815291822095519251909316600160301b029190931617920191909155905081611732565b5f81518084528060208401602086015e5f602082860101526020601f19601f83011685010191505092915050565b602081525f6109276020830184611a96565b80356001600160a01b0381168114611aec575f80fd5b919050565b5f8060408385031215611b02575f80fd5b611b0b83611ad6565b946020939093013593505050565b5f805f60608486031215611b2b575f80fd5b611b3484611ad6565b9250611b4260208501611ad6565b9150604084013590509250925092565b5f60208284031215611b62575f80fd5b61092782611ad6565b60ff60f81b881681525f602060e06020840152611b8b60e084018a611a96565b8381036040850152611b9d818a611a96565b606085018990526001600160a01b038816608086015260a0850187905284810360c0860152855180825260208088019350909101905f5b81811015611bf057835183529284019291840191600101611bd4565b50909c9b505050505050505050505050565b5f60208284031215611c12575f80fd5b5035919050565b803560ff81168114611aec575f80fd5b5f805f805f8060c08789031215611c3e575f80fd5b611c4787611ad6565b95506020870135945060408701359350611c6360608801611c19565b92506080870135915060a087013590509295509295509295565b5f805f805f805f60e0888a031215611c93575f80fd5b611c9c88611ad6565b9650611caa60208901611ad6565b95506040880135945060608801359350611cc660808901611c19565b925060a0880135915060c0880135905092959891949750929550565b5f8060408385031215611cf3575f80fd5b611cfc83611ad6565b9150611d0a60208401611ad6565b90509250929050565b5f8060408385031215611d24575f80fd5b611d2d83611ad6565b9150602083013563ffffffff81168114611d45575f80fd5b809150509250929050565b600181811c90821680611d6457607f821691505b602082108103611d8257634e487b7160e01b5f52602260045260245ffd5b50919050565b634e487b7160e01b5f52601160045260245ffd5b6001600160d01b03818116838216019080821115611dbc57611dbc611d88565b5092915050565b6001600160d01b03828116828216039080821115611dbc57611dbc611d88565b8181038181111561051f5761051f611d88565b8082018082111561051f5761051f611d88565b634e487b7160e01b5f52601260045260245ffd5b634e487b7160e01b5f52602160045260245ffd5b634e487b7160e01b5f52603260045260245ffd5b5f82611e5f57634e487b7160e01b5f52601260045260245ffd5b50049056fea26469706673582212203a0b0f1c9886e9a93d480764fd804975ca34c7a063f221010566cf221321bbc664736f6c63430008190033dec2bacdd2f05b59de34da9b523dff8be42e5e38e818c82fdb0bae774387a724",
  "immutableReferences": {
    "9849": [
      {
        "length": 32,
        "start": 2764
      }
    ],
    "9851": [
      {
        "length": 32,
        "start": 2722
      }
    ],
    "9853": [
      {
        "length": 32,
        "start": 2680
      }
    ],
    "9855": [
      {
        "length": 32,
        "start": 2845
      }
    ],
    "9857": [
      {
        "length": 32,
        "start": 2885
      }
    ],
    "9860": [
      {
        "length": 32,
        "start": 3537
      }
    ],
    "9863": [
      {
        "length": 32,
        "start": 3582
      }
    ]
  },
  "source": "// SPDX-License-Identifier: MIT\r\npragma solidity ^0.8.20;\r\n\r\nimport \"@openzeppelin/contracts/access/Ownable.sol\";\r\nimport \"@openzeppelin/contracts/token/ERC20/ERC20.sol\";\r\nimport \"@openzeppelin/contracts/token/ERC20/extensions/ERC20Permit.sol\";\r\nimport \"@openzeppelin/contracts/token/ERC20/extensions/ERC20Votes.sol\";\r\nimport \"@openzeppelin/contracts/utils/Nonces.sol\";\r\n\r\ncontract FractionTokenLite is ERC20, ERC20Permit, ERC20Votes, Ownable {\r\n    address public distributor;\r\n\r\n    constructor(\r\n        string memory name_,\r\n        string memory symbol_,\r\n        address admin_,\r\n        address initialHolder_,\r\n        uint256 initialSupply_\r\n    )\r\n        ERC20(name_, symbol_)\r\n        ERC20Permit(name_)\r\n        Ownable(admin_)            //    \r\n    {\r\n        _mint(initialHolder_, initialSupply_);\r\n    }\r\n\r\n    function setDistributor(address distributor_) external onlyOwner {\r\n        distributor = distributor_;\r\n    }\r\n\r\n    // OZ v5 overrides\r\n    function _update(address from, address to, uint256 value)\r\n        internal\r\n        override(ERC20, ERC20Votes)\r\n    {\r\n        super._update(from, to, value);\r\n    }\r\n\r\n    function nonces(address owner)\r\n        public\r\n        view\r\n        override(ERC20Permit, Nonces)\r\n        returns (uint256)\r\n    {\r\n        return super.nonces(owner);\r\n    }\r\n}\r\n",
  "sourcePath": "C:\\Users\\moham\\Desktop\\course\\15-BlockChain\\brix\\brix-truffle-frontend-web\\brix\\contracts\\FractionTokenLite.sol",
  "compiler": {
    "name": "solc",
    "version": "0.8.25+commit.b61c2a91.Emscripten.clang"
  },
  "schemaVersion": "3.4.16",
  "updatedAt": "2025-12-18T07:42:44.898Z",
  "devdoc": {
    "errors": {
      "CheckpointUnorderedInsertion()": [
        {
          "details": "A value was attempted to be inserted on a past checkpoint."
        }
      ],
      "ECDSAInvalidSignature()": [
        {
          "details": "The signature derives the `address(0)`."
        }
      ],
      "ECDSAInvalidSignatureLength(uint256)": [
        {
          "details": "The signature has an invalid length."
        }
      ],
      "ECDSAInvalidSignatureS(bytes32)": [
        {
          "details": "The signature has an S value that is in the upper half order."
        }
      ],
      "ERC20ExceededSafeSupply(uint256,uint256)": [
        {
          "details": "Total supply cap has been exceeded, introducing a risk of votes overflowing."
        }
      ],
      "ERC20InsufficientAllowance(address,uint256,uint256)": [
        {
          "details": "Indicates a failure with the `spender`s `allowance`. Used in transfers.",
          "params": {
            "allowance": "Amount of tokens a `spender` is allowed to operate with.",
            "needed": "Minimum amount required to perform a transfer.",
            "spender": "Address that may be allowed to operate on tokens without being their owner."
          }
        }
      ],
      "ERC20InsufficientBalance(address,uint256,uint256)": [
        {
          "details": "Indicates an error related to the current `balance` of a `sender`. Used in transfers.",
          "params": {
            "balance": "Current balance for the interacting account.",
            "needed": "Minimum amount required to perform a transfer.",
            "sender": "Address whose tokens are being transferred."
          }
        }
      ],
      "ERC20InvalidApprover(address)": [
        {
          "details": "Indicates a failure with the `approver` of a token to be approved. Used in approvals.",
          "params": {
            "approver": "Address initiating an approval operation."
          }
        }
      ],
      "ERC20InvalidReceiver(address)": [
        {
          "details": "Indicates a failure with the token `receiver`. Used in transfers.",
          "params": {
            "receiver": "Address to which tokens are being transferred."
          }
        }
      ],
      "ERC20InvalidSender(address)": [
        {
          "details": "Indicates a failure with the token `sender`. Used in transfers.",
          "params": {
            "sender": "Address whose tokens are being transferred."
          }
        }
      ],
      "ERC20InvalidSpender(address)": [
        {
          "details": "Indicates a failure with the `spender` to be approved. Used in approvals.",
          "params": {
            "spender": "Address that may be allowed to operate on tokens without being their owner."
          }
        }
      ],
      "ERC2612ExpiredSignature(uint256)": [
        {
          "details": "Permit deadline has expired."
        }
      ],
      "ERC2612InvalidSigner(address,address)": [
        {
          "details": "Mismatched signature."
        }
      ],
      "ERC5805FutureLookup(uint256,uint48)": [
        {
          "details": "Lookup to future votes is not available."
        }
      ],
      "ERC6372InconsistentClock()": [
        {
          "details": "The clock was incorrectly modified."
        }
      ],
      "InvalidAccountNonce(address,uint256)": [
        {
          "details": "The nonce used for an `account` is not the expected current nonce."
        }
      ],
      "OwnableInvalidOwner(address)": [
        {
          "details": "The owner is not a valid owner account. (eg. `address(0)`)"
        }
      ],
      "OwnableUnauthorizedAccount(address)": [
        {
          "details": "The caller account is not authorized to perform an operation."
        }
      ],
      "SafeCastOverflowedUintDowncast(uint8,uint256)": [
        {
          "details": "Value doesn't fit in an uint of `bits` size."
        }
      ],
      "VotesExpiredSignature(uint256)": [
        {
          "details": "The signature used has expired."
        }
      ]
    },
    "events": {
      "Approval(address,address,uint256)": {
        "details": "Emitted when the allowance of a `spender` for an `owner` is set by a call to {approve}. `value` is the new allowance."
      },
      "DelegateChanged(address,address,address)": {
        "details": "Emitted when an account changes their delegate."
      },
      "DelegateVotesChanged(address,uint256,uint256)": {
        "details": "Emitted when a token transfer or delegate change results in changes to a delegate's number of voting units."
      },
      "EIP712DomainChanged()": {
        "details": "MAY be emitted to signal that the domain could have changed."
      },
      "Transfer(address,address,uint256)": {
        "details": "Emitted when `value` tokens are moved from one account (`from`) to another (`to`). Note that `value` may be zero."
      }
    },
    "kind": "dev",
    "methods": {
      "CLOCK_MODE()": {
        "details": "Machine-readable description of the clock as specified in ERC-6372."
      },
      "DOMAIN_SEPARATOR()": {
        "details": "Returns the domain separator used in the encoding of the signature for {permit}, as defined by {EIP712}."
      },
      "allowance(address,address)": {
        "details": "Returns the remaining number of tokens that `spender` will be allowed to spend on behalf of `owner` through {transferFrom}. This is zero by default. This value changes when {approve} or {transferFrom} are called."
      },
      "approve(address,uint256)": {
        "details": "See {IERC20-approve}. NOTE: If `value` is the maximum `uint256`, the allowance is not updated on `transferFrom`. This is semantically equivalent to an infinite approval. Requirements: - `spender` cannot be the zero address."
      },
      "balanceOf(address)": {
        "details": "Returns the value of tokens owned by `account`."
      },
      "checkpoints(address,uint32)": {
        "details": "Get the `pos`-th checkpoint for `account`."
      },
      "clock()": {
        "details": "Clock used for flagging checkpoints. Can be overridden to implement timestamp based checkpoints (and voting), in which case {CLOCK_MODE} should be overridden as well to match."
      },
      "decimals()": {
        "details": "Returns the number of decimals used to get its user representation. For example, if `decimals` equals `2`, a balance of `505` tokens should be displayed to a user as `5.05` (`505 / 10 ** 2`). Tokens usually opt for a value of 18, imitating the relationship between Ether and Wei. This is the default value returned by this function, unless it's overridden. NOTE: This information is only used for _display_ purposes: it in no way affects any of the arithmetic of the contract, including {IERC20-balanceOf} and {IERC20-transfer}."
      },
      "delegate(address)": {
        "details": "Delegates votes from the sender to `delegatee`."
      },
      "delegateBySig(address,uint256,uint256,uint8,bytes32,bytes32)": {
        "details": "Delegates votes from signer to `delegatee`."
      },
      "delegates(address)": {
        "details": "Returns the delegate that `account` has chosen."
      },
      "eip712Domain()": {
        "details": "returns the fields and values that describe the domain separator used by this contract for EIP-712 signature."
      },
      "getPastTotalSupply(uint256)": {
        "details": "Returns the total supply of votes available at a specific moment in the past. If the `clock()` is configured to use block numbers, this will return the value at the end of the corresponding block. NOTE: This value is the sum of all available votes, which is not necessarily the sum of all delegated votes. Votes that have not been delegated are still part of total supply, even though they would not participate in a vote. Requirements: - `timepoint` must be in the past. If operating using block numbers, the block must be already mined."
      },
      "getPastVotes(address,uint256)": {
        "details": "Returns the amount of votes that `account` had at a specific moment in the past. If the `clock()` is configured to use block numbers, this will return the value at the end of the corresponding block. Requirements: - `timepoint` must be in the past. If operating using block numbers, the block must be already mined."
      },
      "getVotes(address)": {
        "details": "Returns the current amount of votes that `account` has."
      },
      "name()": {
        "details": "Returns the name of the token."
      },
      "numCheckpoints(address)": {
        "details": "Get number of checkpoints for `account`."
      },
      "owner()": {
        "details": "Returns the address of the current owner."
      },
      "permit(address,address,uint256,uint256,uint8,bytes32,bytes32)": {
        "details": "Sets `value` as the allowance of `spender` over ``owner``'s tokens, given ``owner``'s signed approval. IMPORTANT: The same issues {IERC20-approve} has related to transaction ordering also apply here. Emits an {Approval} event. Requirements: - `spender` cannot be the zero address. - `deadline` must be a timestamp in the future. - `v`, `r` and `s` must be a valid `secp256k1` signature from `owner` over the EIP712-formatted function arguments. - the signature must use ``owner``'s current nonce (see {nonces}). For more information on the signature format, see the https://eips.ethereum.org/EIPS/eip-2612#specification[relevant EIP section]. CAUTION: See Security Considerations above."
      },
      "renounceOwnership()": {
        "details": "Leaves the contract without owner. It will not be possible to call `onlyOwner` functions. Can only be called by the current owner. NOTE: Renouncing ownership will leave the contract without an owner, thereby disabling any functionality that is only available to the owner."
      },
      "symbol()": {
        "details": "Returns the symbol of the token, usually a shorter version of the name."
      },
      "totalSupply()": {
        "details": "Returns the value of tokens in existence."
      },
      "transfer(address,uint256)": {
        "details": "See {IERC20-transfer}. Requirements: - `to` cannot be the zero address. - the caller must have a balance of at least `value`."
      },
      "transferFrom(address,address,uint256)": {
        "details": "See {IERC20-transferFrom}. Skips emitting an {Approval} event indicating an allowance update. This is not required by the ERC. See {xref-ERC20-_approve-address-address-uint256-bool-}[_approve]. NOTE: Does not update the allowance if the current allowance is the maximum `uint256`. Requirements: - `from` and `to` cannot be the zero address. - `from` must have a balance of at least `value`. - the caller must have allowance for ``from``'s tokens of at least `value`."
      },
      "transferOwnership(address)": {
        "details": "Transfers ownership of the contract to a new account (`newOwner`). Can only be called by the current owner."
      }
    },
    "version": 1
  },
  "userdoc": {
    "kind": "user",
    "methods": {},
    "version": 1
  }
}