{
  "contractName": "FractionToken",
  "abi": [
    {
      "inputs": [
        {
          "internalType": "string",
          "name": "name_",
          "type": "string"
        },
        {
          "internalType": "string",
          "name": "symbol_",
          "type": "string"
        },
        {
          "internalType": "address",
          "name": "admin_",
          "type": "address"
        },
        {
          "internalType": "address",
          "name": "initialHolder_",
          "type": "address"
        },
        {
          "internalType": "uint256",
          "name": "initialSupply_",
          "type": "uint256"
        }
      ],
      "stateMutability": "nonpayable",
      "type": "constructor"
    },
    {
      "inputs": [],
      "name": "AccessControlBadConfirmation",
      "type": "error"
    },
    {
      "inputs": [
        {
          "internalType": "address",
          "name": "account",
          "type": "address"
        },
        {
          "internalType": "bytes32",
          "name": "neededRole",
          "type": "bytes32"
        }
      ],
      "name": "AccessControlUnauthorizedAccount",
      "type": "error"
    },
    {
      "inputs": [],
      "name": "CheckpointUnorderedInsertion",
      "type": "error"
    },
    {
      "inputs": [],
      "name": "DistributorAlreadySet",
      "type": "error"
    },
    {
      "inputs": [],
      "name": "ECDSAInvalidSignature",
      "type": "error"
    },
    {
      "inputs": [
        {
          "internalType": "uint256",
          "name": "length",
          "type": "uint256"
        }
      ],
      "name": "ECDSAInvalidSignatureLength",
      "type": "error"
    },
    {
      "inputs": [
        {
          "internalType": "bytes32",
          "name": "s",
          "type": "bytes32"
        }
      ],
      "name": "ECDSAInvalidSignatureS",
      "type": "error"
    },
    {
      "inputs": [
        {
          "internalType": "uint256",
          "name": "increasedSupply",
          "type": "uint256"
        },
        {
          "internalType": "uint256",
          "name": "cap",
          "type": "uint256"
        }
      ],
      "name": "ERC20ExceededSafeSupply",
      "type": "error"
    },
    {
      "inputs": [
        {
          "internalType": "address",
          "name": "spender",
          "type": "address"
        },
        {
          "internalType": "uint256",
          "name": "allowance",
          "type": "uint256"
        },
        {
          "internalType": "uint256",
          "name": "needed",
          "type": "uint256"
        }
      ],
      "name": "ERC20InsufficientAllowance",
      "type": "error"
    },
    {
      "inputs": [
        {
          "internalType": "address",
          "name": "sender",
          "type": "address"
        },
        {
          "internalType": "uint256",
          "name": "balance",
          "type": "uint256"
        },
        {
          "internalType": "uint256",
          "name": "needed",
          "type": "uint256"
        }
      ],
      "name": "ERC20InsufficientBalance",
      "type": "error"
    },
    {
      "inputs": [
        {
          "internalType": "address",
          "name": "approver",
          "type": "address"
        }
      ],
      "name": "ERC20InvalidApprover",
      "type": "error"
    },
    {
      "inputs": [
        {
          "internalType": "address",
          "name": "receiver",
          "type": "address"
        }
      ],
      "name": "ERC20InvalidReceiver",
      "type": "error"
    },
    {
      "inputs": [
        {
          "internalType": "address",
          "name": "sender",
          "type": "address"
        }
      ],
      "name": "ERC20InvalidSender",
      "type": "error"
    },
    {
      "inputs": [
        {
          "internalType": "address",
          "name": "spender",
          "type": "address"
        }
      ],
      "name": "ERC20InvalidSpender",
      "type": "error"
    },
    {
      "inputs": [
        {
          "internalType": "uint256",
          "name": "deadline",
          "type": "uint256"
        }
      ],
      "name": "ERC2612ExpiredSignature",
      "type": "error"
    },
    {
      "inputs": [
        {
          "internalType": "address",
          "name": "signer",
          "type": "address"
        },
        {
          "internalType": "address",
          "name": "owner",
          "type": "address"
        }
      ],
      "name": "ERC2612InvalidSigner",
      "type": "error"
    },
    {
      "inputs": [
        {
          "internalType": "uint256",
          "name": "timepoint",
          "type": "uint256"
        },
        {
          "internalType": "uint48",
          "name": "clock",
          "type": "uint48"
        }
      ],
      "name": "ERC5805FutureLookup",
      "type": "error"
    },
    {
      "inputs": [],
      "name": "ERC6372InconsistentClock",
      "type": "error"
    },
    {
      "inputs": [],
      "name": "EnforcedPause",
      "type": "error"
    },
    {
      "inputs": [],
      "name": "ExpectedPause",
      "type": "error"
    },
    {
      "inputs": [
        {
          "internalType": "address",
          "name": "account",
          "type": "address"
        },
        {
          "internalType": "uint256",
          "name": "currentNonce",
          "type": "uint256"
        }
      ],
      "name": "InvalidAccountNonce",
      "type": "error"
    },
    {
      "inputs": [],
      "name": "InvalidShortString",
      "type": "error"
    },
    {
      "inputs": [
        {
          "internalType": "uint8",
          "name": "bits",
          "type": "uint8"
        },
        {
          "internalType": "uint256",
          "name": "value",
          "type": "uint256"
        }
      ],
      "name": "SafeCastOverflowedUintDowncast",
      "type": "error"
    },
    {
      "inputs": [
        {
          "internalType": "string",
          "name": "str",
          "type": "string"
        }
      ],
      "name": "StringTooLong",
      "type": "error"
    },
    {
      "inputs": [],
      "name": "TransfersRestricted",
      "type": "error"
    },
    {
      "inputs": [
        {
          "internalType": "uint256",
          "name": "expiry",
          "type": "uint256"
        }
      ],
      "name": "VotesExpiredSignature",
      "type": "error"
    },
    {
      "inputs": [],
      "name": "ZeroAddress",
      "type": "error"
    },
    {
      "anonymous": false,
      "inputs": [
        {
          "indexed": true,
          "internalType": "address",
          "name": "owner",
          "type": "address"
        },
        {
          "indexed": true,
          "internalType": "address",
          "name": "spender",
          "type": "address"
        },
        {
          "indexed": false,
          "internalType": "uint256",
          "name": "value",
          "type": "uint256"
        }
      ],
      "name": "Approval",
      "type": "event"
    },
    {
      "anonymous": false,
      "inputs": [
        {
          "indexed": true,
          "internalType": "address",
          "name": "delegator",
          "type": "address"
        },
        {
          "indexed": true,
          "internalType": "address",
          "name": "fromDelegate",
          "type": "address"
        },
        {
          "indexed": true,
          "internalType": "address",
          "name": "toDelegate",
          "type": "address"
        }
      ],
      "name": "DelegateChanged",
      "type": "event"
    },
    {
      "anonymous": false,
      "inputs": [
        {
          "indexed": true,
          "internalType": "address",
          "name": "delegate",
          "type": "address"
        },
        {
          "indexed": false,
          "internalType": "uint256",
          "name": "previousVotes",
          "type": "uint256"
        },
        {
          "indexed": false,
          "internalType": "uint256",
          "name": "newVotes",
          "type": "uint256"
        }
      ],
      "name": "DelegateVotesChanged",
      "type": "event"
    },
    {
      "anonymous": false,
      "inputs": [
        {
          "indexed": true,
          "internalType": "address",
          "name": "distributor",
          "type": "address"
        }
      ],
      "name": "DistributorSet",
      "type": "event"
    },
    {
      "anonymous": false,
      "inputs": [],
      "name": "EIP712DomainChanged",
      "type": "event"
    },
    {
      "anonymous": false,
      "inputs": [
        {
          "indexed": false,
          "internalType": "address",
          "name": "account",
          "type": "address"
        }
      ],
      "name": "Paused",
      "type": "event"
    },
    {
      "anonymous": false,
      "inputs": [
        {
          "indexed": true,
          "internalType": "bytes32",
          "name": "role",
          "type": "bytes32"
        },
        {
          "indexed": true,
          "internalType": "bytes32",
          "name": "previousAdminRole",
          "type": "bytes32"
        },
        {
          "indexed": true,
          "internalType": "bytes32",
          "name": "newAdminRole",
          "type": "bytes32"
        }
      ],
      "name": "RoleAdminChanged",
      "type": "event"
    },
    {
      "anonymous": false,
      "inputs": [
        {
          "indexed": true,
          "internalType": "bytes32",
          "name": "role",
          "type": "bytes32"
        },
        {
          "indexed": true,
          "internalType": "address",
          "name": "account",
          "type": "address"
        },
        {
          "indexed": true,
          "internalType": "address",
          "name": "sender",
          "type": "address"
        }
      ],
      "name": "RoleGranted",
      "type": "event"
    },
    {
      "anonymous": false,
      "inputs": [
        {
          "indexed": true,
          "internalType": "bytes32",
          "name": "role",
          "type": "bytes32"
        },
        {
          "indexed": true,
          "internalType": "address",
          "name": "account",
          "type": "address"
        },
        {
          "indexed": true,
          "internalType": "address",
          "name": "sender",
          "type": "address"
        }
      ],
      "name": "RoleRevoked",
      "type": "event"
    },
    {
      "anonymous": false,
      "inputs": [
        {
          "indexed": true,
          "internalType": "address",
          "name": "from",
          "type": "address"
        },
        {
          "indexed": true,
          "internalType": "address",
          "name": "to",
          "type": "address"
        },
        {
          "indexed": false,
          "internalType": "uint256",
          "name": "value",
          "type": "uint256"
        }
      ],
      "name": "Transfer",
      "type": "event"
    },
    {
      "anonymous": false,
      "inputs": [
        {
          "indexed": false,
          "internalType": "bool",
          "name": "restricted",
          "type": "bool"
        }
      ],
      "name": "TransfersRestrictionSet",
      "type": "event"
    },
    {
      "anonymous": false,
      "inputs": [
        {
          "indexed": false,
          "internalType": "address",
          "name": "account",
          "type": "address"
        }
      ],
      "name": "Unpaused",
      "type": "event"
    },
    {
      "anonymous": false,
      "inputs": [
        {
          "indexed": true,
          "internalType": "address",
          "name": "account",
          "type": "address"
        },
        {
          "indexed": false,
          "internalType": "bool",
          "name": "allowed",
          "type": "bool"
        }
      ],
      "name": "WhitelistSet",
      "type": "event"
    },
    {
      "inputs": [],
      "name": "CLOCK_MODE",
      "outputs": [
        {
          "internalType": "string",
          "name": "",
          "type": "string"
        }
      ],
      "stateMutability": "view",
      "type": "function"
    },
    {
      "inputs": [],
      "name": "DEFAULT_ADMIN_ROLE",
      "outputs": [
        {
          "internalType": "bytes32",
          "name": "",
          "type": "bytes32"
        }
      ],
      "stateMutability": "view",
      "type": "function"
    },
    {
      "inputs": [],
      "name": "DOMAIN_SEPARATOR",
      "outputs": [
        {
          "internalType": "bytes32",
          "name": "",
          "type": "bytes32"
        }
      ],
      "stateMutability": "view",
      "type": "function"
    },
    {
      "inputs": [],
      "name": "PAUSER_ROLE",
      "outputs": [
        {
          "internalType": "bytes32",
          "name": "",
          "type": "bytes32"
        }
      ],
      "stateMutability": "view",
      "type": "function"
    },
    {
      "inputs": [],
      "name": "WHITELIST_ADMIN_ROLE",
      "outputs": [
        {
          "internalType": "bytes32",
          "name": "",
          "type": "bytes32"
        }
      ],
      "stateMutability": "view",
      "type": "function"
    },
    {
      "inputs": [
        {
          "internalType": "address",
          "name": "owner",
          "type": "address"
        },
        {
          "internalType": "address",
          "name": "spender",
          "type": "address"
        }
      ],
      "name": "allowance",
      "outputs": [
        {
          "internalType": "uint256",
          "name": "",
          "type": "uint256"
        }
      ],
      "stateMutability": "view",
      "type": "function"
    },
    {
      "inputs": [
        {
          "internalType": "address",
          "name": "spender",
          "type": "address"
        },
        {
          "internalType": "uint256",
          "name": "value",
          "type": "uint256"
        }
      ],
      "name": "approve",
      "outputs": [
        {
          "internalType": "bool",
          "name": "",
          "type": "bool"
        }
      ],
      "stateMutability": "nonpayable",
      "type": "function"
    },
    {
      "inputs": [
        {
          "internalType": "address",
          "name": "account",
          "type": "address"
        }
      ],
      "name": "balanceOf",
      "outputs": [
        {
          "internalType": "uint256",
          "name": "",
          "type": "uint256"
        }
      ],
      "stateMutability": "view",
      "type": "function"
    },
    {
      "inputs": [
        {
          "internalType": "address",
          "name": "account",
          "type": "address"
        },
        {
          "internalType": "uint32",
          "name": "pos",
          "type": "uint32"
        }
      ],
      "name": "checkpoints",
      "outputs": [
        {
          "components": [
            {
              "internalType": "uint48",
              "name": "_key",
              "type": "uint48"
            },
            {
              "internalType": "uint208",
              "name": "_value",
              "type": "uint208"
            }
          ],
          "internalType": "struct Checkpoints.Checkpoint208",
          "name": "",
          "type": "tuple"
        }
      ],
      "stateMutability": "view",
      "type": "function"
    },
    {
      "inputs": [],
      "name": "clock",
      "outputs": [
        {
          "internalType": "uint48",
          "name": "",
          "type": "uint48"
        }
      ],
      "stateMutability": "view",
      "type": "function"
    },
    {
      "inputs": [],
      "name": "decimals",
      "outputs": [
        {
          "internalType": "uint8",
          "name": "",
          "type": "uint8"
        }
      ],
      "stateMutability": "view",
      "type": "function"
    },
    {
      "inputs": [
        {
          "internalType": "address",
          "name": "delegatee",
          "type": "address"
        }
      ],
      "name": "delegate",
      "outputs": [],
      "stateMutability": "nonpayable",
      "type": "function"
    },
    {
      "inputs": [
        {
          "internalType": "address",
          "name": "delegatee",
          "type": "address"
        },
        {
          "internalType": "uint256",
          "name": "nonce",
          "type": "uint256"
        },
        {
          "internalType": "uint256",
          "name": "expiry",
          "type": "uint256"
        },
        {
          "internalType": "uint8",
          "name": "v",
          "type": "uint8"
        },
        {
          "internalType": "bytes32",
          "name": "r",
          "type": "bytes32"
        },
        {
          "internalType": "bytes32",
          "name": "s",
          "type": "bytes32"
        }
      ],
      "name": "delegateBySig",
      "outputs": [],
      "stateMutability": "nonpayable",
      "type": "function"
    },
    {
      "inputs": [
        {
          "internalType": "address",
          "name": "account",
          "type": "address"
        }
      ],
      "name": "delegates",
      "outputs": [
        {
          "internalType": "address",
          "name": "",
          "type": "address"
        }
      ],
      "stateMutability": "view",
      "type": "function"
    },
    {
      "inputs": [],
      "name": "distributor",
      "outputs": [
        {
          "internalType": "address",
          "name": "",
          "type": "address"
        }
      ],
      "stateMutability": "view",
      "type": "function"
    },
    {
      "inputs": [],
      "name": "eip712Domain",
      "outputs": [
        {
          "internalType": "bytes1",
          "name": "fields",
          "type": "bytes1"
        },
        {
          "internalType": "string",
          "name": "name",
          "type": "string"
        },
        {
          "internalType": "string",
          "name": "version",
          "type": "string"
        },
        {
          "internalType": "uint256",
          "name": "chainId",
          "type": "uint256"
        },
        {
          "internalType": "address",
          "name": "verifyingContract",
          "type": "address"
        },
        {
          "internalType": "bytes32",
          "name": "salt",
          "type": "bytes32"
        },
        {
          "internalType": "uint256[]",
          "name": "extensions",
          "type": "uint256[]"
        }
      ],
      "stateMutability": "view",
      "type": "function"
    },
    {
      "inputs": [
        {
          "internalType": "uint256",
          "name": "timepoint",
          "type": "uint256"
        }
      ],
      "name": "getPastTotalSupply",
      "outputs": [
        {
          "internalType": "uint256",
          "name": "",
          "type": "uint256"
        }
      ],
      "stateMutability": "view",
      "type": "function"
    },
    {
      "inputs": [
        {
          "internalType": "address",
          "name": "account",
          "type": "address"
        },
        {
          "internalType": "uint256",
          "name": "timepoint",
          "type": "uint256"
        }
      ],
      "name": "getPastVotes",
      "outputs": [
        {
          "internalType": "uint256",
          "name": "",
          "type": "uint256"
        }
      ],
      "stateMutability": "view",
      "type": "function"
    },
    {
      "inputs": [
        {
          "internalType": "bytes32",
          "name": "role",
          "type": "bytes32"
        }
      ],
      "name": "getRoleAdmin",
      "outputs": [
        {
          "internalType": "bytes32",
          "name": "",
          "type": "bytes32"
        }
      ],
      "stateMutability": "view",
      "type": "function"
    },
    {
      "inputs": [
        {
          "internalType": "address",
          "name": "account",
          "type": "address"
        }
      ],
      "name": "getVotes",
      "outputs": [
        {
          "internalType": "uint256",
          "name": "",
          "type": "uint256"
        }
      ],
      "stateMutability": "view",
      "type": "function"
    },
    {
      "inputs": [
        {
          "internalType": "bytes32",
          "name": "role",
          "type": "bytes32"
        },
        {
          "internalType": "address",
          "name": "account",
          "type": "address"
        }
      ],
      "name": "grantRole",
      "outputs": [],
      "stateMutability": "nonpayable",
      "type": "function"
    },
    {
      "inputs": [
        {
          "internalType": "bytes32",
          "name": "role",
          "type": "bytes32"
        },
        {
          "internalType": "address",
          "name": "account",
          "type": "address"
        }
      ],
      "name": "hasRole",
      "outputs": [
        {
          "internalType": "bool",
          "name": "",
          "type": "bool"
        }
      ],
      "stateMutability": "view",
      "type": "function"
    },
    {
      "inputs": [
        {
          "internalType": "address",
          "name": "",
          "type": "address"
        }
      ],
      "name": "isWhitelisted",
      "outputs": [
        {
          "internalType": "bool",
          "name": "",
          "type": "bool"
        }
      ],
      "stateMutability": "view",
      "type": "function"
    },
    {
      "inputs": [],
      "name": "name",
      "outputs": [
        {
          "internalType": "string",
          "name": "",
          "type": "string"
        }
      ],
      "stateMutability": "view",
      "type": "function"
    },
    {
      "inputs": [
        {
          "internalType": "address",
          "name": "account",
          "type": "address"
        }
      ],
      "name": "numCheckpoints",
      "outputs": [
        {
          "internalType": "uint32",
          "name": "",
          "type": "uint32"
        }
      ],
      "stateMutability": "view",
      "type": "function"
    },
    {
      "inputs": [],
      "name": "paused",
      "outputs": [
        {
          "internalType": "bool",
          "name": "",
          "type": "bool"
        }
      ],
      "stateMutability": "view",
      "type": "function"
    },
    {
      "inputs": [
        {
          "internalType": "address",
          "name": "owner",
          "type": "address"
        },
        {
          "internalType": "address",
          "name": "spender",
          "type": "address"
        },
        {
          "internalType": "uint256",
          "name": "value",
          "type": "uint256"
        },
        {
          "internalType": "uint256",
          "name": "deadline",
          "type": "uint256"
        },
        {
          "internalType": "uint8",
          "name": "v",
          "type": "uint8"
        },
        {
          "internalType": "bytes32",
          "name": "r",
          "type": "bytes32"
        },
        {
          "internalType": "bytes32",
          "name": "s",
          "type": "bytes32"
        }
      ],
      "name": "permit",
      "outputs": [],
      "stateMutability": "nonpayable",
      "type": "function"
    },
    {
      "inputs": [
        {
          "internalType": "bytes32",
          "name": "role",
          "type": "bytes32"
        },
        {
          "internalType": "address",
          "name": "callerConfirmation",
          "type": "address"
        }
      ],
      "name": "renounceRole",
      "outputs": [],
      "stateMutability": "nonpayable",
      "type": "function"
    },
    {
      "inputs": [
        {
          "internalType": "bytes32",
          "name": "role",
          "type": "bytes32"
        },
        {
          "internalType": "address",
          "name": "account",
          "type": "address"
        }
      ],
      "name": "revokeRole",
      "outputs": [],
      "stateMutability": "nonpayable",
      "type": "function"
    },
    {
      "inputs": [
        {
          "internalType": "bytes4",
          "name": "interfaceId",
          "type": "bytes4"
        }
      ],
      "name": "supportsInterface",
      "outputs": [
        {
          "internalType": "bool",
          "name": "",
          "type": "bool"
        }
      ],
      "stateMutability": "view",
      "type": "function"
    },
    {
      "inputs": [],
      "name": "symbol",
      "outputs": [
        {
          "internalType": "string",
          "name": "",
          "type": "string"
        }
      ],
      "stateMutability": "view",
      "type": "function"
    },
    {
      "inputs": [],
      "name": "totalSupply",
      "outputs": [
        {
          "internalType": "uint256",
          "name": "",
          "type": "uint256"
        }
      ],
      "stateMutability": "view",
      "type": "function"
    },
    {
      "inputs": [
        {
          "internalType": "address",
          "name": "to",
          "type": "address"
        },
        {
          "internalType": "uint256",
          "name": "value",
          "type": "uint256"
        }
      ],
      "name": "transfer",
      "outputs": [
        {
          "internalType": "bool",
          "name": "",
          "type": "bool"
        }
      ],
      "stateMutability": "nonpayable",
      "type": "function"
    },
    {
      "inputs": [
        {
          "internalType": "address",
          "name": "from",
          "type": "address"
        },
        {
          "internalType": "address",
          "name": "to",
          "type": "address"
        },
        {
          "internalType": "uint256",
          "name": "value",
          "type": "uint256"
        }
      ],
      "name": "transferFrom",
      "outputs": [
        {
          "internalType": "bool",
          "name": "",
          "type": "bool"
        }
      ],
      "stateMutability": "nonpayable",
      "type": "function"
    },
    {
      "inputs": [],
      "name": "transfersRestricted",
      "outputs": [
        {
          "internalType": "bool",
          "name": "",
          "type": "bool"
        }
      ],
      "stateMutability": "view",
      "type": "function"
    },
    {
      "inputs": [],
      "name": "pause",
      "outputs": [],
      "stateMutability": "nonpayable",
      "type": "function"
    },
    {
      "inputs": [],
      "name": "unpause",
      "outputs": [],
      "stateMutability": "nonpayable",
      "type": "function"
    },
    {
      "inputs": [
        {
          "internalType": "bool",
          "name": "restricted",
          "type": "bool"
        }
      ],
      "name": "setTransfersRestricted",
      "outputs": [],
      "stateMutability": "nonpayable",
      "type": "function"
    },
    {
      "inputs": [
        {
          "internalType": "address",
          "name": "account",
          "type": "address"
        },
        {
          "internalType": "bool",
          "name": "allowed",
          "type": "bool"
        }
      ],
      "name": "setWhitelist",
      "outputs": [],
      "stateMutability": "nonpayable",
      "type": "function"
    },
    {
      "inputs": [
        {
          "internalType": "address",
          "name": "distributor_",
          "type": "address"
        }
      ],
      "name": "setDistributor",
      "outputs": [],
      "stateMutability": "nonpayable",
      "type": "function"
    },
    {
      "inputs": [
        {
          "internalType": "address",
          "name": "owner",
          "type": "address"
        }
      ],
      "name": "nonces",
      "outputs": [
        {
          "internalType": "uint256",
          "name": "",
          "type": "uint256"
        }
      ],
      "stateMutability": "view",
      "type": "function"
    }
  ],
  "bytecode": "0x610160604052348015610010575f80fd5b5060405161355938038061355983398101604081905261002f91610bba565b6040805180820190915260018152603160f81b602082015285908190818760036100598382610cc5565b5060046100668282610cc5565b506100769150839050600561020e565b6101205261008581600661020e565b61014052815160208084019190912060e052815190820120610100524660a05261011160e05161010051604080517f8b73c3c69bb8fe3d512ecc4cf759cc79239f7b179b0ffacaa9a75d522b39400f60208201529081019290925260608201524660808201523060a08201525f9060c00160405160208183030381529060405280519060200120905090565b60805250503060c052506001600160a01b038316158061013857506001600160a01b038216155b156101565760405163d92e233d60e01b815260040160405180910390fd5b6101605f84610240565b5061018b7f65d7a28e3265b37a6474929f336521b332c1681b933f6cb9f3376673440d862a84610240565b506101b67f28f5a99355973cc89255b8c4ac88405f27c78ded7608b040ee77a8bdf44d15e284610240565b50600c805461ff00191690556001600160a01b038084165f908152600d6020526040808220805460ff19908116600190811790925593861683529120805490921617905561020482826102eb565b5050505050610e5d565b5f6020835110156102295761022283610328565b905061023a565b816102348482610cc5565b5060ff90505b92915050565b5f828152600b602090815260408083206001600160a01b038516845290915281205460ff166102e4575f838152600b602090815260408083206001600160a01b03861684529091529020805460ff1916600117905561029c3390565b6001600160a01b0316826001600160a01b0316847f2f8788117e7eff1d82e926ec794901d17c78024a50270940304540a733656f0d60405160405180910390a450600161023a565b505f61023a565b6001600160a01b0382166103195760405163ec442f0560e01b81525f60048201526024015b60405180910390fd5b6103245f8383610365565b5050565b5f80829050601f81511115610352578260405163305a27a960e01b81526004016103109190610d84565b805161035d82610db9565b179392505050565b61036d6104f6565b600c54610100900460ff161561046b576001600160a01b0383166103c8576001600160a01b0382165f908152600d602052604090205460ff166103c357604051637be07bbd60e11b815260040160405180910390fd5b61046b565b6001600160a01b03821661040e576001600160a01b0383165f908152600d602052604090205460ff166103c357604051637be07bbd60e11b815260040160405180910390fd5b6001600160a01b0383165f908152600d602052604090205460ff16158061044d57506001600160a01b0382165f908152600d602052604090205460ff16155b1561046b57604051637be07bbd60e11b815260040160405180910390fd5b61047683838361051c565b600e546001600160a01b0316156104f157600e5460405163677ba3d360e01b81526001600160a01b0385811660048301528481166024830152604482018490529091169063677ba3d3906064015f604051808303815f87803b1580156104da575f80fd5b505af11580156104ec573d5f803e3d5ffd5b505050505b505050565b600c5460ff161561051a5760405163d93c066560e01b815260040160405180910390fd5b565b610527838383610582565b6001600160a01b038316610577575f61053f60025490565b90506001600160d01b038082111561057457604051630e58ae9360e11b81526004810183905260248101829052604401610310565b50505b6104f18383836106a8565b6001600160a01b0383166105ac578060025f8282546105a19190610df0565b9091555061061c9050565b6001600160a01b0383165f90815260208190526040902054818110156105fe5760405163391434e360e21b81526001600160a01b03851660048201526024810182905260448101839052606401610310565b6001600160a01b0384165f9081526020819052604090209082900390555b6001600160a01b03821661063857600280548290039055610656565b6001600160a01b0382165f9081526020819052604090208054820190555b816001600160a01b0316836001600160a01b03167fddf252ad1be2c89b69c2b068fc378daa952ba7f163c4a11628f55a4df523b3ef8360405161069b91815260200190565b60405180910390a3505050565b6001600160a01b0383166106d6576106d3600a610dba61073060201b176106ce84610742565b610779565b50505b6001600160a01b0382166106ff576106fc600a610dc56107ae60201b176106ce84610742565b50505b6001600160a01b038381165f908152600860205260408082205485841683529120546104f1929182169116836107b9565b5f61073b8284610e03565b9392505050565b5f6001600160d01b03821115610775576040516306dfcc6560e41b815260d0600482015260248101839052604401610310565b5090565b5f806107a1610786610909565b61079961079288610917565b868860201c565b87919061095e565b915091505b935093915050565b5f61073b8284610e2a565b816001600160a01b0316836001600160a01b0316141580156107da57505f81115b156104f1576001600160a01b03831615610872576001600160a01b0383165f9081526009602090815260408220829161082091906107ae901b610dc5176106ce86610742565b6001600160d01b031691506001600160d01b03169150846001600160a01b03165f805160206135398339815191528383604051610867929190918252602082015260400190565b60405180910390a250505b6001600160a01b038216156104f1576001600160a01b0382165f908152600960209081526040822082916108b39190610730901b610dba176106ce86610742565b6001600160d01b031691506001600160d01b03169150836001600160a01b03165f8051602061353983398151915283836040516108fa929190918252602082015260400190565b60405180910390a25050505050565b5f61091261096b565b905090565b80545f9080156109565761093d83610930600184610e4a565b5f91825260209091200190565b54660100000000000090046001600160d01b031661073b565b5f9392505050565b5f806107a1858585610975565b5f61091243610ad1565b82545f9081908015610a74575f61099187610930600185610e4a565b805490915065ffffffffffff80821691660100000000000090046001600160d01b03169088168211156109d757604051632520601d60e01b815260040160405180910390fd5b8765ffffffffffff168265ffffffffffff1603610a1357825465ffffffffffff1666010000000000006001600160d01b03891602178355610a66565b6040805180820190915265ffffffffffff808a1682526001600160d01b03808a1660208085019182528d54600181018f555f8f815291909120945191519092166601000000000000029216919091179101555b94508593506107a692505050565b50506040805180820190915265ffffffffffff80851682526001600160d01b0380851660208085019182528854600181018a555f8a81529182209551925190931666010000000000000291909316179201919091559050816107a6565b5f65ffffffffffff821115610775576040516306dfcc6560e41b81526030600482015260248101839052604401610310565b634e487b7160e01b5f52604160045260245ffd5b5f82601f830112610b26575f80fd5b81516001600160401b0380821115610b4057610b40610b03565b604051601f8301601f19908116603f01168101908282118183101715610b6857610b68610b03565b81604052838152866020858801011115610b80575f80fd5b8360208701602083015e5f602085830101528094505050505092915050565b80516001600160a01b0381168114610bb5575f80fd5b919050565b5f805f805f60a08688031215610bce575f80fd5b85516001600160401b0380821115610be4575f80fd5b610bf089838a01610b17565b96506020880151915080821115610c05575f80fd5b50610c1288828901610b17565b945050610c2160408701610b9f565b9250610c2f60608701610b9f565b9150608086015190509295509295909350565b600181811c90821680610c5657607f821691505b602082108103610c7457634e487b7160e01b5f52602260045260245ffd5b50919050565b601f8211156104f157805f5260205f20601f840160051c81016020851015610c9f5750805b601f840160051c820191505b81811015610cbe575f8155600101610cab565b5050505050565b81516001600160401b03811115610cde57610cde610b03565b610cf281610cec8454610c42565b84610c7a565b602080601f831160018114610d25575f8415610d0e5750858301515b5f19600386901b1c1916600185901b178555610d7c565b5f85815260208120601f198616915b82811015610d5357888601518255948401946001909101908401610d34565b5085821015610d7057878501515f19600388901b60f8161c191681555b505060018460011b0185555b505050505050565b602081525f82518060208401528060208501604085015e5f604082850101526040601f19601f83011684010191505092915050565b80516020808301519190811015610c74575f1960209190910360031b1b16919050565b634e487b7160e01b5f52601160045260245ffd5b8082018082111561023a5761023a610ddc565b6001600160d01b03818116838216019080821115610e2357610e23610ddc565b5092915050565b6001600160d01b03828116828216039080821115610e2357610e23610ddc565b8181038181111561023a5761023a610ddc565b60805160a05160c05160e05161010051610120516101405161268b610eae5f395f61135901525f61132c01525f61102401525f610ffc01525f610f5701525f610f8101525f610fab015261268b5ff3fe608060405234801561000f575f80fd5b506004361061024a575f3560e01c806370a08231116101405780639ab24eb0116100bf578063c3cda52011610084578063c3cda5201461054f578063d505accf14610562578063d547741f14610575578063dd62ed3e14610588578063e63ab1e9146105c0578063f1127ed8146105e7575f80fd5b80639ab24eb0146104fc578063a217fddf1461050f578063a9059cbb14610516578063bfe1092814610529578063c22dc7e71461053c575f80fd5b806384b0196e1161010557806384b0196e146104945780638e539e8c146104af57806391d14854146104c257806391ddadf4146104d557806395d89b41146104f4575f80fd5b806370a082311461042c57806375619ab5146104545780637ecebe00146104675780638423df791461047a5780638456cb591461048c575f80fd5b80633a46b1a8116101cc57806354202c4e1161019157806354202c4e1461037c578063587cde1e146103a35780635c19a95c146103e65780635c975abb146103f95780636fcfff4514610404575f80fd5b80633a46b1a8146103245780633af32abf146103375780633f4ba83a146103595780634bf5d7e91461036157806353d6fd5914610369575f80fd5b8063248a9ca311610212578063248a9ca3146102c35780632f2ff15d146102e5578063313ce567146102fa5780633644e5151461030957806336568abe14610311575f80fd5b806301ffc9a71461024e57806306fdde0314610276578063095ea7b31461028b57806318160ddd1461029e57806323b872dd146102b0575b5f80fd5b61026161025c3660046121ef565b610626565b60405190151581526020015b60405180910390f35b61027e61065c565b60405161026d9190612244565b610261610299366004612271565b6106ec565b6002545b60405190815260200161026d565b6102616102be366004612299565b610703565b6102a26102d13660046122d2565b5f908152600b602052604090206001015490565b6102f86102f33660046122e9565b610726565b005b6040516012815260200161026d565b6102a2610750565b6102f861031f3660046122e9565b61075e565b6102a2610332366004612271565b610796565b610261610345366004612313565b600d6020525f908152604090205460ff1681565b6102f86107d0565b61027e610805565b6102f861037736600461233b565b61087d565b6102a27f28f5a99355973cc89255b8c4ac88405f27c78ded7608b040ee77a8bdf44d15e281565b6103ce6103b1366004612313565b6001600160a01b039081165f908152600860205260409020541690565b6040516001600160a01b03909116815260200161026d565b6102f86103f4366004612313565b61092d565b600c5460ff16610261565b610417610412366004612313565b61093c565b60405163ffffffff909116815260200161026d565b6102a261043a366004612313565b6001600160a01b03165f9081526020819052604090205490565b6102f8610462366004612313565b610946565b6102a2610475366004612313565b6109eb565b600c5461026190610100900460ff1681565b6102f86109f5565b61049c610a27565b60405161026d9796959493929190612363565b6102a26104bd3660046122d2565b610a69565b6102616104d03660046122e9565b610a8d565b6104dd610ab7565b60405165ffffffffffff909116815260200161026d565b61027e610ac0565b6102a261050a366004612313565b610acf565b6102a25f81565b610261610524366004612271565b610aef565b600e546103ce906001600160a01b031681565b6102f861054a3660046123fa565b610afc565b6102f861055d366004612423565b610b7b565b6102f8610570366004612477565b610c3c565b6102f86105833660046122e9565b610d72565b6102a26105963660046124dc565b6001600160a01b039182165f90815260016020908152604080832093909416825291909152205490565b6102a27f65d7a28e3265b37a6474929f336521b332c1681b933f6cb9f3376673440d862a81565b6105fa6105f5366004612504565b610d96565b60408051825165ffffffffffff1681526020928301516001600160d01b0316928101929092520161026d565b5f6001600160e01b03198216637965db0b60e01b148061065657506301ffc9a760e01b6001600160e01b03198316145b92915050565b60606003805461066b90612541565b80601f016020809104026020016040519081016040528092919081815260200182805461069790612541565b80156106e25780601f106106b9576101008083540402835291602001916106e2565b820191905f5260205f20905b8154815290600101906020018083116106c557829003601f168201915b5050505050905090565b5f336106f9818585610dd0565b5060019392505050565b5f33610710858285610ddd565b61071b858585610e53565b506001949350505050565b5f828152600b602052604090206001015461074081610eb0565b61074a8383610eba565b50505050565b5f610759610f4b565b905090565b6001600160a01b03811633146107875760405163334bd91960e11b815260040160405180910390fd5b6107918282611074565b505050565b5f6107c06107a3836110df565b6001600160a01b0385165f9081526009602052604090209061112d565b6001600160d01b03169392505050565b7f65d7a28e3265b37a6474929f336521b332c1681b933f6cb9f3376673440d862a6107fa81610eb0565b6108026111dd565b50565b606061080f61122f565b65ffffffffffff1661081f610ab7565b65ffffffffffff1614610845576040516301bfc1c560e61b815260040160405180910390fd5b5060408051808201909152601d81527f6d6f64653d626c6f636b6e756d6265722666726f6d3d64656661756c74000000602082015290565b7f28f5a99355973cc89255b8c4ac88405f27c78ded7608b040ee77a8bdf44d15e26108a781610eb0565b6001600160a01b0383166108ce5760405163d92e233d60e01b815260040160405180910390fd5b6001600160a01b0383165f818152600d6020908152604091829020805460ff191686151590811790915591519182527f0aa5ec5ffdc7f6f9c4d0dded489d7450297155cb2f71cb771e02427f7dff4f51910160405180910390a2505050565b336109388183611239565b5050565b5f610656826112aa565b5f61095081610eb0565b6001600160a01b0382166109775760405163d92e233d60e01b815260040160405180910390fd5b600e546001600160a01b0316156109a1576040516396a8418f60e01b815260040160405180910390fd5b600e80546001600160a01b0319166001600160a01b0384169081179091556040517f86719c518c7d99ac94b3d405d462ea876ba5cd0a978461dc9a7c9862a9485886905f90a25050565b5f610656826112cb565b7f65d7a28e3265b37a6474929f336521b332c1681b933f6cb9f3376673440d862a610a1f81610eb0565b6108026112e8565b5f6060805f805f6060610a38611325565b610a40611352565b604080515f80825260208201909252600f60f81b9b939a50919850469750309650945092509050565b5f610a7e610a76836110df565b600a9061112d565b6001600160d01b031692915050565b5f918252600b602090815260408084206001600160a01b0393909316845291905290205460ff1690565b5f61075961122f565b60606004805461066b90612541565b6001600160a01b0381165f908152600960205260408120610a7e9061137f565b5f336106f9818585610e53565b7f28f5a99355973cc89255b8c4ac88405f27c78ded7608b040ee77a8bdf44d15e2610b2681610eb0565b600c80548315156101000261ff00199091161790556040517f284e583115033338d6dc38207ce916b2905a7ae4aa1e0b79a48345b0615fdfaf90610b6f90841515815260200190565b60405180910390a15050565b83421115610ba457604051632341d78760e11b8152600481018590526024015b60405180910390fd5b604080517fe48329057bfd03d55e49b547132e39cffd9c1820ad7b9d4c5307691425d15adf60208201526001600160a01b0388169181019190915260608101869052608081018590525f90610c1d90610c159060a001604051602081830303815290604052805190602001206113b6565b8585856113e2565b9050610c29818761140e565b610c338188611239565b50505050505050565b83421115610c605760405163313c898160e11b815260048101859052602401610b9b565b5f7f6e71edae12b1b97f4d1f60370fef10105fa2faae0126114a169c64845d6126c9888888610cab8c6001600160a01b03165f90815260076020526040902080546001810190915590565b6040805160208101969096526001600160a01b0394851690860152929091166060840152608083015260a082015260c0810186905260e0016040516020818303038152906040528051906020012090505f610d05826113b6565b90505f610d14828787876113e2565b9050896001600160a01b0316816001600160a01b031614610d5b576040516325c0072360e11b81526001600160a01b0380831660048301528b166024820152604401610b9b565b610d668a8a8a610dd0565b50505050505050505050565b5f828152600b6020526040902060010154610d8c81610eb0565b61074a8383611074565b604080518082019091525f8082526020820152610db38383611460565b9392505050565b5f610db3828461258d565b5f610db382846125b4565b6107918383836001611494565b6001600160a01b038381165f908152600160209081526040808320938616835292905220545f1981101561074a5781811015610e4557604051637dc7a0d960e11b81526001600160a01b03841660048201526024810182905260448101839052606401610b9b565b61074a84848484035f611494565b6001600160a01b038316610e7c57604051634b637e8f60e11b81525f6004820152602401610b9b565b6001600160a01b038216610ea55760405163ec442f0560e01b81525f6004820152602401610b9b565b610791838383611566565b61080281336116ed565b5f610ec58383610a8d565b610f44575f838152600b602090815260408083206001600160a01b03861684529091529020805460ff19166001179055610efc3390565b6001600160a01b0316826001600160a01b0316847f2f8788117e7eff1d82e926ec794901d17c78024a50270940304540a733656f0d60405160405180910390a4506001610656565b505f610656565b5f306001600160a01b037f000000000000000000000000000000000000000000000000000000000000000016148015610fa357507f000000000000000000000000000000000000000000000000000000000000000046145b15610fcd57507f000000000000000000000000000000000000000000000000000000000000000090565b610759604080517f8b73c3c69bb8fe3d512ecc4cf759cc79239f7b179b0ffacaa9a75d522b39400f60208201527f0000000000000000000000000000000000000000000000000000000000000000918101919091527f000000000000000000000000000000000000000000000000000000000000000060608201524660808201523060a08201525f9060c00160405160208183030381529060405280519060200120905090565b5f61107f8383610a8d565b15610f44575f838152600b602090815260408083206001600160a01b0386168085529252808320805460ff1916905551339286917ff6391f5c32d9c69d2a47ea670b442974b53935d1edc7fd64eb21e047a839171b9190a4506001610656565b5f806110e9610ab7565b90508065ffffffffffff16831061112457604051637669fc0f60e11b81526004810184905265ffffffffffff82166024820152604401610b9b565b610db383611726565b81545f9081816005811115611189575f6111468461175c565b61115090856125d4565b5f8881526020902090915081015465ffffffffffff908116908716101561117957809150611187565b6111848160016125e7565b92505b505b5f611196878785856118b4565b905080156111d0576111ba876111ad6001846125d4565b5f91825260209091200190565b54600160301b90046001600160d01b03166111d2565b5f5b979650505050505050565b6111e5611913565b600c805460ff191690557f5db9ee0a495bf2e6ff9c91a7834c1ba4fdd244a5e8aa4e537bd38aeae4b073aa335b6040516001600160a01b03909116815260200160405180910390a1565b5f61075943611726565b6001600160a01b038281165f8181526008602052604080822080548686166001600160a01b0319821681179092559151919094169392849290917f3134e8a2e6d97e929a7e54011ea5485d7d196dd5f0ba4d4ef95803e8e3fc257f9190a461079181836112a586611938565b611955565b6001600160a01b0381165f9081526009602052604081205461065690611abe565b6001600160a01b0381165f90815260076020526040812054610656565b6112f0611aee565b600c805460ff191660011790557f62e78cea01bee320cd4e420270b5ea74000d11b0c9f74754ebdbfc544b05a2586112123390565b60606107597f00000000000000000000000000000000000000000000000000000000000000006005611b12565b60606107597f00000000000000000000000000000000000000000000000000000000000000006006611b12565b80545f9080156113ae57611398836111ad6001846125d4565b54600160301b90046001600160d01b0316610db3565b5f9392505050565b5f6106566113c2610f4b565b8360405161190160f01b8152600281019290925260228201526042902090565b5f805f806113f288888888611bbb565b9250925092506114028282611c83565b50909695505050505050565b6001600160a01b0382165f908152600760205260409020805460018101909155818114610791576040516301d4b62360e61b81526001600160a01b038416600482015260248101829052604401610b9b565b604080518082019091525f80825260208201526001600160a01b0383165f908152600960205260409020610db39083611d3b565b6001600160a01b0384166114bd5760405163e602df0560e01b81525f6004820152602401610b9b565b6001600160a01b0383166114e657604051634a1406b160e11b81525f6004820152602401610b9b565b6001600160a01b038085165f908152600160209081526040808320938716835292905220829055801561074a57826001600160a01b0316846001600160a01b03167f8c5be1e5ebec7d5bd14f71427d1e84f3dd0314c0f7b2291e5b200ac8c7c3b9258460405161155891815260200190565b60405180910390a350505050565b61156e611aee565b600c54610100900460ff161561166c576001600160a01b0383166115c9576001600160a01b0382165f908152600d602052604090205460ff166115c457604051637be07bbd60e11b815260040160405180910390fd5b61166c565b6001600160a01b03821661160f576001600160a01b0383165f908152600d602052604090205460ff166115c457604051637be07bbd60e11b815260040160405180910390fd5b6001600160a01b0383165f908152600d602052604090205460ff16158061164e57506001600160a01b0382165f908152600d602052604090205460ff16155b1561166c57604051637be07bbd60e11b815260040160405180910390fd5b611677838383611da8565b600e546001600160a01b03161561079157600e5460405163677ba3d360e01b81526001600160a01b0385811660048301528481166024830152604482018490529091169063677ba3d3906064015f604051808303815f87803b1580156116db575f80fd5b505af1158015610c33573d5f803e3d5ffd5b6116f78282610a8d565b6109385760405163e2517d3f60e01b81526001600160a01b038216600482015260248101839052604401610b9b565b5f65ffffffffffff821115611758576040516306dfcc6560e41b81526030600482015260248101839052604401610b9b565b5090565b5f60018211611769575090565b816001600160801b82106117825760809190911c9060401b5b68010000000000000000821061179d5760409190911c9060201b5b64010000000082106117b45760209190911c9060101b5b6201000082106117c95760109190911c9060081b5b61010082106117dd5760089190911c9060041b5b601082106117f05760049190911c9060021b5b600482106117fc5760011b5b600302600190811c90818581611814576118146125fa565b048201901c9050600181858161182c5761182c6125fa565b048201901c90506001818581611844576118446125fa565b048201901c9050600181858161185c5761185c6125fa565b048201901c90506001818581611874576118746125fa565b048201901c9050600181858161188c5761188c6125fa565b048201901c90506118ab8185816118a5576118a56125fa565b04821190565b90039392505050565b5f5b8183101561190b575f6118c98484611e0e565b5f8781526020902090915065ffffffffffff86169082015465ffffffffffff1611156118f757809250611905565b6119028160016125e7565b93505b506118b6565b509392505050565b600c5460ff1661193657604051638dfc202b60e01b815260040160405180910390fd5b565b6001600160a01b0381165f90815260208190526040812054610656565b816001600160a01b0316836001600160a01b03161415801561197657505f81115b15610791576001600160a01b03831615611a1d576001600160a01b0383165f90815260096020526040812081906119b890610dc56119b386611e28565b611e5b565b6001600160d01b031691506001600160d01b03169150846001600160a01b03167fdec2bacdd2f05b59de34da9b523dff8be42e5e38e818c82fdb0bae774387a7248383604051611a12929190918252602082015260400190565b60405180910390a250505b6001600160a01b03821615610791576001600160a01b0382165f9081526009602052604081208190611a5590610dba6119b386611e28565b6001600160d01b031691506001600160d01b03169150836001600160a01b03167fdec2bacdd2f05b59de34da9b523dff8be42e5e38e818c82fdb0bae774387a7248383604051611aaf929190918252602082015260400190565b60405180910390a25050505050565b5f63ffffffff821115611758576040516306dfcc6560e41b81526020600482015260248101839052604401610b9b565b600c5460ff16156119365760405163d93c066560e01b815260040160405180910390fd5b606060ff8314611b2c57611b2583611e93565b9050610656565b818054611b3890612541565b80601f0160208091040260200160405190810160405280929190818152602001828054611b6490612541565b8015611baf5780601f10611b8657610100808354040283529160200191611baf565b820191905f5260205f20905b815481529060010190602001808311611b9257829003601f168201915b50505050509050610656565b5f80807f7fffffffffffffffffffffffffffffff5d576e7357a4501ddfe92f46681b20a0841115611bf457505f91506003905082611c79565b604080515f808252602082018084528a905260ff891692820192909252606081018790526080810186905260019060a0016020604051602081039080840390855afa158015611c45573d5f803e3d5ffd5b5050604051601f1901519150506001600160a01b038116611c7057505f925060019150829050611c79565b92505f91508190505b9450945094915050565b5f826003811115611c9657611c9661260e565b03611c9f575050565b6001826003811115611cb357611cb361260e565b03611cd15760405163f645eedf60e01b815260040160405180910390fd5b6002826003811115611ce557611ce561260e565b03611d065760405163fce698f760e01b815260048101829052602401610b9b565b6003826003811115611d1a57611d1a61260e565b03610938576040516335e2f38360e21b815260048101829052602401610b9b565b604080518082019091525f8082526020820152825f018263ffffffff1681548110611d6857611d68612622565b5f9182526020918290206040805180820190915291015465ffffffffffff81168252600160301b90046001600160d01b0316918101919091529392505050565b611db3838383611ed0565b6001600160a01b038316611e03575f611dcb60025490565b90506001600160d01b0380821115611e0057604051630e58ae9360e11b81526004810183905260248101829052604401610b9b565b50505b610791838383611ff6565b5f611e1c6002848418612636565b610db3908484166125e7565b5f6001600160d01b03821115611758576040516306dfcc6560e41b815260d0600482015260248101839052604401610b9b565b5f80611e86611e68610ab7565b611e7e611e748861137f565b868863ffffffff16565b87919061206b565b915091505b935093915050565b60605f611e9f83612078565b6040805160208082528183019092529192505f91906020820181803683375050509182525060208101929092525090565b6001600160a01b038316611efa578060025f828254611eef91906125e7565b90915550611f6a9050565b6001600160a01b0383165f9081526020819052604090205481811015611f4c5760405163391434e360e21b81526001600160a01b03851660048201526024810182905260448101839052606401610b9b565b6001600160a01b0384165f9081526020819052604090209082900390555b6001600160a01b038216611f8657600280548290039055611fa4565b6001600160a01b0382165f9081526020819052604090208054820190555b816001600160a01b0316836001600160a01b03167fddf252ad1be2c89b69c2b068fc378daa952ba7f163c4a11628f55a4df523b3ef83604051611fe991815260200190565b60405180910390a3505050565b6001600160a01b03831661201857612015600a610dba6119b384611e28565b50505b6001600160a01b03821661203a57612037600a610dc56119b384611e28565b50505b6001600160a01b038381165f9081526008602052604080822054858416835291205461079192918216911683611955565b5f80611e8685858561209f565b5f60ff8216601f81111561065657604051632cd44ac360e21b815260040160405180910390fd5b82545f9081908015612195575f6120bb876111ad6001856125d4565b805490915065ffffffffffff80821691600160301b90046001600160d01b03169088168211156120fe57604051632520601d60e01b815260040160405180910390fd5b8765ffffffffffff168265ffffffffffff160361213757825465ffffffffffff16600160301b6001600160d01b03891602178355612187565b6040805180820190915265ffffffffffff808a1682526001600160d01b03808a1660208085019182528d54600181018f555f8f81529190912094519151909216600160301b029216919091179101555b9450859350611e8b92505050565b50506040805180820190915265ffffffffffff80851682526001600160d01b0380851660208085019182528854600181018a555f8a815291822095519251909316600160301b029190931617920191909155905081611e8b565b5f602082840312156121ff575f80fd5b81356001600160e01b031981168114610db3575f80fd5b5f81518084528060208401602086015e5f602082860101526020601f19601f83011685010191505092915050565b602081525f610db36020830184612216565b80356001600160a01b038116811461226c575f80fd5b919050565b5f8060408385031215612282575f80fd5b61228b83612256565b946020939093013593505050565b5f805f606084860312156122ab575f80fd5b6122b484612256565b92506122c260208501612256565b9150604084013590509250925092565b5f602082840312156122e2575f80fd5b5035919050565b5f80604083850312156122fa575f80fd5b8235915061230a60208401612256565b90509250929050565b5f60208284031215612323575f80fd5b610db382612256565b8035801515811461226c575f80fd5b5f806040838503121561234c575f80fd5b61235583612256565b915061230a6020840161232c565b60ff60f81b881681525f602060e0602084015261238360e084018a612216565b8381036040850152612395818a612216565b606085018990526001600160a01b038816608086015260a0850187905284810360c0860152855180825260208088019350909101905f5b818110156123e8578351835292840192918401916001016123cc565b50909c9b505050505050505050505050565b5f6020828403121561240a575f80fd5b610db38261232c565b803560ff8116811461226c575f80fd5b5f805f805f8060c08789031215612438575f80fd5b61244187612256565b9550602087013594506040870135935061245d60608801612413565b92506080870135915060a087013590509295509295509295565b5f805f805f805f60e0888a03121561248d575f80fd5b61249688612256565b96506124a460208901612256565b955060408801359450606088013593506124c060808901612413565b925060a0880135915060c0880135905092959891949750929550565b5f80604083850312156124ed575f80fd5b6124f683612256565b915061230a60208401612256565b5f8060408385031215612515575f80fd5b61251e83612256565b9150602083013563ffffffff81168114612536575f80fd5b809150509250929050565b600181811c9082168061255557607f821691505b60208210810361257357634e487b7160e01b5f52602260045260245ffd5b50919050565b634e487b7160e01b5f52601160045260245ffd5b6001600160d01b038181168382160190808211156125ad576125ad612579565b5092915050565b6001600160d01b038281168282160390808211156125ad576125ad612579565b8181038181111561065657610656612579565b8082018082111561065657610656612579565b634e487b7160e01b5f52601260045260245ffd5b634e487b7160e01b5f52602160045260245ffd5b634e487b7160e01b5f52603260045260245ffd5b5f8261265057634e487b7160e01b5f52601260045260245ffd5b50049056fea2646970667358221220e2118986bbb7cc5d0ab7722528eba3f0600014eb09c2af382bb83227d2a0270f64736f6c63430008190033dec2bacdd2f05b59de34da9b523dff8be42e5e38e818c82fdb0bae774387a724",
  "immutableReferences": {
    "9849": [
      {
        "length": 32,
        "start": 4011
      }
    ],
    "9851": [
      {
        "length": 32,
        "start": 3969
      }
    ],
    "9853": [
      {
        "length": 32,
        "start": 3927
      }
    ],
    "9855": [
      {
        "length": 32,
        "start": 4092
      }
    ],
    "9857": [
      {
        "length": 32,
        "start": 4132
      }
    ],
    "9860": [
      {
        "length": 32,
        "start": 4908
      }
    ],
    "9863": [
      {
        "length": 32,
        "start": 4953
      }
    ]
  },
  "source": "// SPDX-License-Identifier: MIT\npragma solidity ^0.8.25;\nimport \"./FractionTokenLite.sol\";\nimport { IVotes } from \"@openzeppelin/contracts/governance/utils/IVotes.sol\";\nimport { Nonces } from \"@openzeppelin/contracts/utils/Nonces.sol\";\nimport { AccessControl } from \"@openzeppelin/contracts/access/AccessControl.sol\";\nimport { Pausable } from \"@openzeppelin/contracts/utils/Pausable.sol\";\nimport { ReentrancyGuard } from \"@openzeppelin/contracts/utils/ReentrancyGuard.sol\";\nimport { SafeCast } from \"@openzeppelin/contracts/utils/math/SafeCast.sol\";\nimport { Math } from \"@openzeppelin/contracts/utils/math/Math.sol\";\n\nimport { ERC20 } from \"@openzeppelin/contracts/token/ERC20/ERC20.sol\";\nimport { ERC20Permit } from \"@openzeppelin/contracts/token/ERC20/extensions/ERC20Permit.sol\";\nimport { ERC20Votes } from \"@openzeppelin/contracts/token/ERC20/extensions/ERC20Votes.sol\";\n\nimport { TimelockController } from \"@openzeppelin/contracts/governance/TimelockController.sol\";\nimport { Governor } from \"@openzeppelin/contracts/governance/Governor.sol\";\nimport { GovernorSettings } from \"@openzeppelin/contracts/governance/extensions/GovernorSettings.sol\";\nimport { GovernorCountingSimple } from \"@openzeppelin/contracts/governance/extensions/GovernorCountingSimple.sol\";\nimport { GovernorVotes } from \"@openzeppelin/contracts/governance/extensions/GovernorVotes.sol\";\nimport { GovernorVotesQuorumFraction } from \"@openzeppelin/contracts/governance/extensions/GovernorVotesQuorumFraction.sol\";\nimport { GovernorTimelockControl } from \"@openzeppelin/contracts/governance/extensions/GovernorTimelockControl.sol\";\n\ninterface IFractionTokenLite {\n  function setDistributor(address distributor) external;\n  function setWhitelist(address account, bool allowed) external;\n\n  function DEFAULT_ADMIN_ROLE() external view returns (bytes32);\n  function PAUSER_ROLE() external view returns (bytes32);\n  function WHITELIST_ADMIN_ROLE() external view returns (bytes32);\n\n  function grantRole(bytes32 role, address account) external;\n  function revokeRole(bytes32 role, address account) external;\n}\n\n\n\ninterface IRentDistributorHook {\n  function onTokenTransfer(address from, address to, uint256 amount) external;\n}\n\ninterface IRentAccounting {\n  function totalDividendsAccrued() external view returns (uint256);\n  function totalDividendsClaimed() external view returns (uint256);\n}\n\ninterface IRentAccountingFull is IRentAccounting {\n  function pendingUndistributed() external view returns (uint256);\n}\n\n/*//////////////////////////////////////////////////////////////\n                        FRACTION TOKEN\n//////////////////////////////////////////////////////////////*/\ncontract FractionToken is ERC20, ERC20Permit, ERC20Votes, AccessControl, Pausable {\n  bytes32 public constant PAUSER_ROLE = keccak256(\"PAUSER_ROLE\");\n  bytes32 public constant WHITELIST_ADMIN_ROLE = keccak256(\"WHITELIST_ADMIN_ROLE\");\n\n  bool public transfersRestricted;\n  mapping(address => bool) public isWhitelisted;\n\n  address public distributor;\n\n  error DistributorAlreadySet();\n  error TransfersRestricted();\n  error ZeroAddress();\n\n  event DistributorSet(address indexed distributor);\n  event TransfersRestrictionSet(bool restricted);\n  event WhitelistSet(address indexed account, bool allowed);\n\n  constructor(\n    string memory name_,\n    string memory symbol_,\n    address admin_,\n    address initialHolder_,\n    uint256 initialSupply_\n  ) ERC20(name_, symbol_) ERC20Permit(name_) {\n    if (admin_ == address(0) || initialHolder_ == address(0)) revert ZeroAddress();\n\n    _grantRole(DEFAULT_ADMIN_ROLE, admin_);\n    _grantRole(PAUSER_ROLE, admin_);\n    _grantRole(WHITELIST_ADMIN_ROLE, admin_);\n\n    transfersRestricted = false;\n\n    isWhitelisted[admin_] = true;\n    isWhitelisted[initialHolder_] = true;\n\n    _mint(initialHolder_, initialSupply_);\n  }\n\n  function pause() external onlyRole(PAUSER_ROLE) { _pause(); }\n  function unpause() external onlyRole(PAUSER_ROLE) { _unpause(); }\n\n  function setTransfersRestricted(bool restricted) external onlyRole(WHITELIST_ADMIN_ROLE) {\n    transfersRestricted = restricted;\n    emit TransfersRestrictionSet(restricted);\n  }\n\n  function setWhitelist(address account, bool allowed) external onlyRole(WHITELIST_ADMIN_ROLE) {\n    if (account == address(0)) revert ZeroAddress();\n    isWhitelisted[account] = allowed;\n    emit WhitelistSet(account, allowed);\n  }\n\n  function setDistributor(address distributor_) external onlyRole(DEFAULT_ADMIN_ROLE) {\n    if (distributor_ == address(0)) revert ZeroAddress();\n    if (distributor != address(0)) revert DistributorAlreadySet();\n    distributor = distributor_;\n    emit DistributorSet(distributor_);\n  }\n\n  function _update(address from, address to, uint256 value)\n    internal\n    override(ERC20, ERC20Votes)\n    whenNotPaused\n  {\n    if (transfersRestricted) {\n      if (from == address(0)) {\n        if (!isWhitelisted[to]) revert TransfersRestricted();\n      } else if (to == address(0)) {\n        if (!isWhitelisted[from]) revert TransfersRestricted();\n      } else {\n        if (!isWhitelisted[from] || !isWhitelisted[to]) revert TransfersRestricted();\n      }\n    }\n\n    super._update(from, to, value);\n\n    if (distributor != address(0)) {\n      IRentDistributorHook(distributor).onTokenTransfer(from, to, value);\n    }\n  }\n\n  function nonces(address owner)\n    public\n    view\n    override(ERC20Permit, Nonces)\n    returns (uint256)\n  {\n    return super.nonces(owner);\n  }\n}\n\n/*//////////////////////////////////////////////////////////////\n                          PROPERTY VAULT (ETH)\n//////////////////////////////////////////////////////////////*/\ncontract PropertyVault is AccessControl, Pausable, ReentrancyGuard {\n  bytes32 public constant PROPERTY_MANAGER_ROLE = keccak256(\"PROPERTY_MANAGER_ROLE\");\n  bytes32 public constant GOVERNANCE_ROLE = keccak256(\"GOVERNANCE_ROLE\");\n\n  address public distributor;\n  uint16 public reserveBps;\n\n  error DistributorAlreadySet();\n  error ZeroAddress();\n  error InvalidBps();\n  error InsufficientUnencumberedBalance();\n  error EthTransferFailed();\n\n  event DistributorSet(address indexed distributor);\n  event ReserveBpsSet(uint16 bps);\n  event IncomeDeposited(address indexed from, uint256 amount, uint256 reserved, uint256 distributed);\n  event GovernancePayment(address indexed to, uint256 amount, string memo);\n  event DividendPaid(address indexed to, uint256 amount);\n\n  constructor(address admin_, address propertyManager_) {\n    if (admin_ == address(0) || propertyManager_ == address(0)) revert ZeroAddress();\n\n    _grantRole(DEFAULT_ADMIN_ROLE, admin_);\n    _grantRole(PROPERTY_MANAGER_ROLE, propertyManager_);\n    _grantRole(GOVERNANCE_ROLE, admin_);\n\n    reserveBps = 0;\n  }\n\n  function pause() external onlyRole(DEFAULT_ADMIN_ROLE) { _pause(); }\n  function unpause() external onlyRole(DEFAULT_ADMIN_ROLE) { _unpause(); }\n\n  function setDistributor(address distributor_) external onlyRole(DEFAULT_ADMIN_ROLE) {\n    if (distributor_ == address(0)) revert ZeroAddress();\n    if (distributor != address(0)) revert DistributorAlreadySet();\n    distributor = distributor_;\n    emit DistributorSet(distributor_);\n  }\n\n  function setReserveBps(uint16 bps) external onlyRole(GOVERNANCE_ROLE) {\n    if (bps > 10_000) revert InvalidBps();\n    reserveBps = bps;\n    emit ReserveBpsSet(bps);\n  }\n\n  function depositIncome() external payable onlyRole(PROPERTY_MANAGER_ROLE) whenNotPaused nonReentrant {\n    require(distributor != address(0), \"Distributor not set\");\n    uint256 amount = msg.value;\n    require(amount > 0, \"amount=0\");\n\n    uint256 reserved = Math.mulDiv(amount, reserveBps, 10_000);\n    uint256 distributed = amount - reserved;\n    RentDistributor(distributor).notifyRent(distributed);\n\n    emit IncomeDeposited(msg.sender, amount, reserved, distributed);\n  }\n\n  function payDividend(address payable to, uint256 amount) external whenNotPaused nonReentrant {\n    require(msg.sender == distributor, \"only distributor\");\n    if (amount == 0) return;\n\n    (bool ok, ) = to.call{value: amount}(\"\");\n    if (!ok) revert EthTransferFailed();\n\n    emit DividendPaid(to, amount);\n  }\n\n  function executeGovernancePayment(address payable to, uint256 amount, string calldata memo)\n    external\n    onlyRole(GOVERNANCE_ROLE)\n    whenNotPaused\n    nonReentrant\n  {\n    if (to == address(0)) revert ZeroAddress();\n    require(distributor != address(0), \"Distributor not set\");\n    require(amount > 0, \"amount=0\");\n\n    uint256 balance = address(this).balance;\n\n    uint256 accrued = IRentAccounting(distributor).totalDividendsAccrued();\n    uint256 claimed = IRentAccounting(distributor).totalDividendsClaimed();\n    uint256 pending = IRentAccountingFull(distributor).pendingUndistributed();\n    uint256 owed = (accrued + pending) - claimed;\n\n    if (balance < owed) revert InsufficientUnencumberedBalance();\n    uint256 available = balance - owed;\n\n    if (amount > available) revert InsufficientUnencumberedBalance();\n\n    (bool ok, ) = to.call{value: amount}(\"\");\n    if (!ok) revert EthTransferFailed();\n\n    emit GovernancePayment(to, amount, memo);\n  }\n}\n\n/*//////////////////////////////////////////////////////////////\n                        RENT DISTRIBUTOR (ETH)\n//////////////////////////////////////////////////////////////*/\ncontract RentDistributor is IRentDistributorHook, IRentAccounting, ReentrancyGuard {\n  using SafeCast for int256;\n  uint256 private constant MAGNIFICATION = 2 ** 128;\n\n  FractionToken public immutable sharesToken;\n  PropertyVault public immutable vault;\n\n  uint256 public magnifiedDividendPerShare;\n  mapping(address => int256) public magnifiedDividendCorrections;\n  mapping(address => uint256) public withdrawnDividends;\n\n  uint256 public pendingUndistributed;\n  uint256 public override totalDividendsAccrued;\n  uint256 public override totalDividendsClaimed;\n\n  error OnlyVault();\n  error OnlySharesToken();\n\n  event RentNotified(uint256 amountDistributed, uint256 newMagnifiedDividendPerShare);\n  event DividendClaimed(address indexed account, uint256 amount);\n\n  constructor(address sharesToken_, address vault_) {\n    require(sharesToken_ != address(0) && vault_ != address(0), \"zero\");\n    sharesToken = FractionToken(sharesToken_);\n    vault = PropertyVault(vault_);\n  }\n\n  modifier onlyVault() {\n    if (msg.sender != address(vault)) revert OnlyVault();\n    _;\n  }\n\n  modifier onlySharesToken() {\n    if (msg.sender != address(sharesToken)) revert OnlySharesToken();\n    _;\n  }\n\n  function notifyRent(uint256 amount) external onlyVault {\n    if (amount == 0) return;\n\n    uint256 supply = sharesToken.totalSupply();\n    if (supply == 0) {\n      pendingUndistributed += amount;\n      return;\n    }\n\n    uint256 distributable = amount + pendingUndistributed;\n    pendingUndistributed = 0;\n\n    magnifiedDividendPerShare += (distributable * MAGNIFICATION) / supply;\n    totalDividendsAccrued += distributable;\n\n    emit RentNotified(distributable, magnifiedDividendPerShare);\n  }\n\n  function onTokenTransfer(address from, address to, uint256 amount) external onlySharesToken {\n    if (amount == 0) return;\n    int256 magCorrection = SafeCast.toInt256(magnifiedDividendPerShare * amount);\n\n    if (from == address(0)) {\n      magnifiedDividendCorrections[to] -= magCorrection;\n    } else if (to == address(0)) {\n      magnifiedDividendCorrections[from] += magCorrection;\n    } else {\n      magnifiedDividendCorrections[from] += magCorrection;\n      magnifiedDividendCorrections[to] -= magCorrection;\n    }\n  }\n\n  function withdrawableDividendOf(address account) public view returns (uint256) {\n    uint256 accumulative = accumulativeDividendOf(account);\n    uint256 alreadyWithdrawn = withdrawnDividends[account];\n    if (accumulative <= alreadyWithdrawn) return 0;\n    return accumulative - alreadyWithdrawn;\n  }\n\n  function accumulativeDividendOf(address account) public view returns (uint256) {\n    uint256 bal = sharesToken.balanceOf(account);\n    int256 magnified = SafeCast.toInt256(magnifiedDividendPerShare * bal);\n    int256 corrected = magnified + magnifiedDividendCorrections[account];\n\n    if (corrected <= 0) return 0;\n    return uint256(corrected) / MAGNIFICATION;\n  }\n\n  function claim() external nonReentrant {\n    uint256 withdrawable = withdrawableDividendOf(msg.sender);\n    if (withdrawable == 0) return;\n\n    withdrawnDividends[msg.sender] += withdrawable;\n    totalDividendsClaimed += withdrawable;\n\n    vault.payDividend(payable(msg.sender), withdrawable);\n\n    emit DividendClaimed(msg.sender, withdrawable);\n  }\n}\n\n/*//////////////////////////////////////////////////////////////\n                      PROPERTY GOVERNOR\n//////////////////////////////////////////////////////////////*/\ncontract PropertyGovernor is\n  Governor,\n  GovernorSettings,\n  GovernorCountingSimple,\n  GovernorVotes,\n  GovernorVotesQuorumFraction,\n  GovernorTimelockControl\n{\n  constructor(\n    IVotes token_,\n    TimelockController timelock_,\n    uint48 votingDelayBlocks_,\n    uint32 votingPeriodBlocks_,\n    uint256 proposalThresholdTokens_,\n    uint256 quorumPercent_\n  )\n    Governor(\"PropertyGovernor\")\n    GovernorSettings(votingDelayBlocks_, votingPeriodBlocks_, proposalThresholdTokens_)\n    GovernorVotes(token_)\n    GovernorVotesQuorumFraction(quorumPercent_)\n    GovernorTimelockControl(timelock_)\n  {}\n\n  function votingDelay() public view override(Governor, GovernorSettings) returns (uint256) {\n    return super.votingDelay();\n  }\n\n  function votingPeriod() public view override(Governor, GovernorSettings) returns (uint256) {\n    return super.votingPeriod();\n  }\n\n  function proposalThreshold() public view override(Governor, GovernorSettings) returns (uint256) {\n    return super.proposalThreshold();\n  }\n\n  function state(uint256 proposalId)\n    public\n    view\n    override(Governor, GovernorTimelockControl)\n    returns (ProposalState)\n  {\n    return super.state(proposalId);\n  }\n\n  function proposalNeedsQueuing(uint256 proposalId)\n    public\n    view\n    override(Governor, GovernorTimelockControl)\n    returns (bool)\n  {\n    return super.proposalNeedsQueuing(proposalId);\n  }\n\n  function _queueOperations(\n    uint256 proposalId,\n    address[] memory targets,\n    uint256[] memory values,\n    bytes[] memory calldatas,\n    bytes32 descriptionHash\n  )\n    internal\n    override(Governor, GovernorTimelockControl)\n    returns (uint48)\n  {\n    return super._queueOperations(proposalId, targets, values, calldatas, descriptionHash);\n  }\n\n  function _executeOperations(\n    uint256 proposalId,\n    address[] memory targets,\n    uint256[] memory values,\n    bytes[] memory calldatas,\n    bytes32 descriptionHash\n  )\n    internal\n    override(Governor, GovernorTimelockControl)\n  {\n    super._executeOperations(proposalId, targets, values, calldatas, descriptionHash);\n  }\n\n  function _cancel(\n    address[] memory targets,\n    uint256[] memory values,\n    bytes[] memory calldatas,\n    bytes32 descriptionHash\n  )\n    internal\n    override(Governor, GovernorTimelockControl)\n    returns (uint256)\n  {\n    return super._cancel(targets, values, calldatas, descriptionHash);\n  }\n\n  function _executor()\n    internal\n    view\n    override(Governor, GovernorTimelockControl)\n    returns (address)\n  {\n    return super._executor();\n  }\n}\n\n/*//////////////////////////////////////////////////////////////\n                       REAL ESTATE DAO (Factory)\n//////////////////////////////////////////////////////////////*/\ncontract RealEstateDAO {\n  struct CreatePropertyArgs {\n    string name;\n    string symbol;\n    address admin;\n    address initialHolder;\n    uint256 initialSupply;\n    address propertyManager;\n    uint16 reserveBps;\n    uint256 timelockDelaySeconds;\n    uint48 votingDelayBlocks;\n    uint32 votingPeriodBlocks;\n    uint256 proposalThresholdTokens;\n    uint256 quorumPercent;\n  }\n\n  struct CreatePropertyLiteArgs {\n    string name;\n    string symbol;\n    address admin;\n    address initialHolder;\n    uint256 initialSupply;\n    address propertyManager;\n    uint16 reserveBps;\n  }\n\n\n  event PropertyCreated(\n    address indexed token,\n    address indexed vault,\n    address indexed distributor,\n    address timelock,\n    address governor\n  );\n\n  //  :        \n  function _emptyAddressArray() internal pure returns (address[] memory) {\n    return new address[](0); // Correct: array of size 0\n  }\n\n  function _anyoneExecutors() internal pure returns (address[] memory arr) {\n    arr = new address[](1); // Correct: array of size 1\n    arr[0] = address(0);\n  }\n\n  function createProperty(CreatePropertyArgs calldata a)\n    external\n    returns (address token, address vault, address distributor, address timelock, address governor)\n  {\n    return _createProperty(a);\n  }\n\n\n  function _createProperty(CreatePropertyArgs memory a)\n    internal\n    returns (address token, address vault, address distributor, address timelock, address governor)\n  {\n    require(\n      a.admin != address(0) &&\n      a.initialHolder != address(0) &&\n      a.propertyManager != address(0),\n      \"zero\"\n    );\n\n    FractionToken t = new FractionToken(a.name, a.symbol, address(this), a.initialHolder, a.initialSupply);\n    PropertyVault v = new PropertyVault(address(this), a.propertyManager);\n    RentDistributor d = new RentDistributor(address(t), address(v));\n\n    t.setDistributor(address(d));\n    v.setDistributor(address(d));\n\n    t.setWhitelist(a.admin, true);\n    v.setReserveBps(a.reserveBps);\n\n    TimelockController tl = new TimelockController(\n      a.timelockDelaySeconds,\n      _emptyAddressArray(),\n      _anyoneExecutors(),\n      address(this)\n    );\n\n    PropertyGovernor g = new PropertyGovernor(\n      IVotes(address(t)),\n      tl,\n      a.votingDelayBlocks,\n      a.votingPeriodBlocks,\n      a.proposalThresholdTokens,\n      a.quorumPercent\n    );\n\n    tl.grantRole(tl.PROPOSER_ROLE(), address(g));\n    tl.grantRole(tl.CANCELLER_ROLE(), a.admin);\n\n    tl.grantRole(tl.DEFAULT_ADMIN_ROLE(), a.admin);\n    tl.revokeRole(tl.DEFAULT_ADMIN_ROLE(), address(this));\n\n    v.grantRole(v.GOVERNANCE_ROLE(), address(tl));\n    v.revokeRole(v.GOVERNANCE_ROLE(), address(this));\n\n    t.grantRole(t.DEFAULT_ADMIN_ROLE(), a.admin);\n    t.grantRole(t.PAUSER_ROLE(), a.admin);\n    t.grantRole(t.WHITELIST_ADMIN_ROLE(), a.admin);\n\n    t.revokeRole(t.PAUSER_ROLE(), address(this));\n    t.revokeRole(t.WHITELIST_ADMIN_ROLE(), address(this));\n    t.revokeRole(t.DEFAULT_ADMIN_ROLE(), address(this));\n\n    v.grantRole(v.DEFAULT_ADMIN_ROLE(), a.admin);\n    v.revokeRole(v.DEFAULT_ADMIN_ROLE(), address(this));\n\n    emit PropertyCreated(address(t), address(v), address(d), address(tl), address(g));\n\n    return (address(t), address(v), address(d), address(tl), address(g));\n  }\n\n  function createPropertyLite(CreatePropertyLiteArgs calldata a)\n    external\n    returns (address token, address vault, address distributor)\n  {\n    return _createPropertyLite(a);\n  }\n\n\n  function _createPropertyLite(CreatePropertyLiteArgs memory a)\n    internal\n    returns (address token, address vault, address distributor)\n  {\n    require(\n      a.admin != address(0) &&\n      a.initialHolder != address(0) &&\n      a.propertyManager != address(0),\n      \"zero\"\n    );\n\n    FractionToken t = new FractionToken(a.name, a.symbol, address(this), a.initialHolder, a.initialSupply);\n    PropertyVault v = new PropertyVault(address(this), a.propertyManager);\n    RentDistributor d = new RentDistributor(address(t), address(v));\n\n    t.setDistributor(address(d));\n    v.setDistributor(address(d));\n\n    t.setWhitelist(a.admin, true);\n    v.setReserveBps(a.reserveBps);\n\n    // Governance handled by admin directly (no timelock/governor)\n    v.grantRole(v.GOVERNANCE_ROLE(), a.admin);\n    v.revokeRole(v.GOVERNANCE_ROLE(), address(this));\n\n    t.grantRole(t.DEFAULT_ADMIN_ROLE(), a.admin);\n    t.grantRole(t.PAUSER_ROLE(), a.admin);\n    t.grantRole(t.WHITELIST_ADMIN_ROLE(), a.admin);\n\n    t.revokeRole(t.PAUSER_ROLE(), address(this));\n    t.revokeRole(t.WHITELIST_ADMIN_ROLE(), address(this));\n    t.revokeRole(t.DEFAULT_ADMIN_ROLE(), address(this));\n\n    v.grantRole(v.DEFAULT_ADMIN_ROLE(), a.admin);\n    v.revokeRole(v.DEFAULT_ADMIN_ROLE(), address(this));\n\n    emit PropertyCreated(address(t), address(v), address(d), address(0), address(0));\n\n    return (address(t), address(v), address(d));\n  }\n\n\n  /// @notice Finalize a \"lite\" property after deploying the child contracts (token/vault/distributor)\n  ///         with `admin_ = address(this)` (the DAO) so the DAO can wire roles and settings.\n  /// @dev This avoids deploying 3 contracts inside one tx, which can hit gas / initcode limits on dev chains.\n  function finalizePropertyLite(\n    address token,\n    address vault,\n    address distributor,\n    address admin,\n    uint16 reserveBps\n  ) external returns (address tokenOut, address vaultOut, address distributorOut) {\n    require(msg.sender == admin, \"only admin\");\n    require(token != address(0) && vault != address(0) && distributor != address(0) && admin != address(0), \"zero addr\");\n\n    IFractionTokenLite t = IFractionTokenLite(token);\n    PropertyVault v = PropertyVault(vault);\n\n    // Wire distributor\n    t.setDistributor(distributor);\n    v.setDistributor(distributor);\n\n    // Allow admin to receive/transfer even when transfers are restricted\n    t.setWhitelist(admin, true);\n\n    // Reserve / governance\n    v.setReserveBps(reserveBps);\n\n    // Hand over vault governance to the admin\n    v.grantRole(v.GOVERNANCE_ROLE(), admin);\n    v.revokeRole(v.GOVERNANCE_ROLE(), address(this));\n\n    // Hand over token admin roles to the admin\n    t.grantRole(t.DEFAULT_ADMIN_ROLE(), admin);\n    t.grantRole(t.PAUSER_ROLE(), admin);\n    t.grantRole(t.WHITELIST_ADMIN_ROLE(), admin);\n\n    // Optional: drop DAO roles on the token\n    t.revokeRole(t.PAUSER_ROLE(), address(this));\n    t.revokeRole(t.WHITELIST_ADMIN_ROLE(), address(this));\n    t.revokeRole(t.DEFAULT_ADMIN_ROLE(), address(this));\n\n    emit PropertyCreated(token, vault, distributor, address(0), address(0));\n    return (token, vault, distributor);\n  }\n\n\n}",
  "sourcePath": "C:\\Users\\moham\\Desktop\\course\\15-BlockChain\\brix\\brix-truffle-frontend-web\\brix\\contracts\\RealEstateDAO.fixed2.sol",
  "compiler": {
    "name": "solc",
    "version": "0.8.25+commit.b61c2a91.Emscripten.clang"
  },
  "schemaVersion": "3.4.16",
  "updatedAt": "2025-12-18T07:42:44.919Z",
  "devdoc": {
    "errors": {
      "AccessControlBadConfirmation()": [
        {
          "details": "The caller of a function is not the expected one. NOTE: Don't confuse with {AccessControlUnauthorizedAccount}."
        }
      ],
      "AccessControlUnauthorizedAccount(address,bytes32)": [
        {
          "details": "The `account` is missing a role."
        }
      ],
      "CheckpointUnorderedInsertion()": [
        {
          "details": "A value was attempted to be inserted on a past checkpoint."
        }
      ],
      "ECDSAInvalidSignature()": [
        {
          "details": "The signature derives the `address(0)`."
        }
      ],
      "ECDSAInvalidSignatureLength(uint256)": [
        {
          "details": "The signature has an invalid length."
        }
      ],
      "ECDSAInvalidSignatureS(bytes32)": [
        {
          "details": "The signature has an S value that is in the upper half order."
        }
      ],
      "ERC20ExceededSafeSupply(uint256,uint256)": [
        {
          "details": "Total supply cap has been exceeded, introducing a risk of votes overflowing."
        }
      ],
      "ERC20InsufficientAllowance(address,uint256,uint256)": [
        {
          "details": "Indicates a failure with the `spender`s `allowance`. Used in transfers.",
          "params": {
            "allowance": "Amount of tokens a `spender` is allowed to operate with.",
            "needed": "Minimum amount required to perform a transfer.",
            "spender": "Address that may be allowed to operate on tokens without being their owner."
          }
        }
      ],
      "ERC20InsufficientBalance(address,uint256,uint256)": [
        {
          "details": "Indicates an error related to the current `balance` of a `sender`. Used in transfers.",
          "params": {
            "balance": "Current balance for the interacting account.",
            "needed": "Minimum amount required to perform a transfer.",
            "sender": "Address whose tokens are being transferred."
          }
        }
      ],
      "ERC20InvalidApprover(address)": [
        {
          "details": "Indicates a failure with the `approver` of a token to be approved. Used in approvals.",
          "params": {
            "approver": "Address initiating an approval operation."
          }
        }
      ],
      "ERC20InvalidReceiver(address)": [
        {
          "details": "Indicates a failure with the token `receiver`. Used in transfers.",
          "params": {
            "receiver": "Address to which tokens are being transferred."
          }
        }
      ],
      "ERC20InvalidSender(address)": [
        {
          "details": "Indicates a failure with the token `sender`. Used in transfers.",
          "params": {
            "sender": "Address whose tokens are being transferred."
          }
        }
      ],
      "ERC20InvalidSpender(address)": [
        {
          "details": "Indicates a failure with the `spender` to be approved. Used in approvals.",
          "params": {
            "spender": "Address that may be allowed to operate on tokens without being their owner."
          }
        }
      ],
      "ERC2612ExpiredSignature(uint256)": [
        {
          "details": "Permit deadline has expired."
        }
      ],
      "ERC2612InvalidSigner(address,address)": [
        {
          "details": "Mismatched signature."
        }
      ],
      "ERC5805FutureLookup(uint256,uint48)": [
        {
          "details": "Lookup to future votes is not available."
        }
      ],
      "ERC6372InconsistentClock()": [
        {
          "details": "The clock was incorrectly modified."
        }
      ],
      "EnforcedPause()": [
        {
          "details": "The operation failed because the contract is paused."
        }
      ],
      "ExpectedPause()": [
        {
          "details": "The operation failed because the contract is not paused."
        }
      ],
      "InvalidAccountNonce(address,uint256)": [
        {
          "details": "The nonce used for an `account` is not the expected current nonce."
        }
      ],
      "SafeCastOverflowedUintDowncast(uint8,uint256)": [
        {
          "details": "Value doesn't fit in an uint of `bits` size."
        }
      ],
      "VotesExpiredSignature(uint256)": [
        {
          "details": "The signature used has expired."
        }
      ]
    },
    "events": {
      "Approval(address,address,uint256)": {
        "details": "Emitted when the allowance of a `spender` for an `owner` is set by a call to {approve}. `value` is the new allowance."
      },
      "DelegateChanged(address,address,address)": {
        "details": "Emitted when an account changes their delegate."
      },
      "DelegateVotesChanged(address,uint256,uint256)": {
        "details": "Emitted when a token transfer or delegate change results in changes to a delegate's number of voting units."
      },
      "EIP712DomainChanged()": {
        "details": "MAY be emitted to signal that the domain could have changed."
      },
      "Paused(address)": {
        "details": "Emitted when the pause is triggered by `account`."
      },
      "RoleAdminChanged(bytes32,bytes32,bytes32)": {
        "details": "Emitted when `newAdminRole` is set as ``role``'s admin role, replacing `previousAdminRole` `DEFAULT_ADMIN_ROLE` is the starting admin for all roles, despite {RoleAdminChanged} not being emitted to signal this."
      },
      "RoleGranted(bytes32,address,address)": {
        "details": "Emitted when `account` is granted `role`. `sender` is the account that originated the contract call. This account bears the admin role (for the granted role). Expected in cases where the role was granted using the internal {AccessControl-_grantRole}."
      },
      "RoleRevoked(bytes32,address,address)": {
        "details": "Emitted when `account` is revoked `role`. `sender` is the account that originated the contract call:   - if using `revokeRole`, it is the admin role bearer   - if using `renounceRole`, it is the role bearer (i.e. `account`)"
      },
      "Transfer(address,address,uint256)": {
        "details": "Emitted when `value` tokens are moved from one account (`from`) to another (`to`). Note that `value` may be zero."
      },
      "Unpaused(address)": {
        "details": "Emitted when the pause is lifted by `account`."
      }
    },
    "kind": "dev",
    "methods": {
      "CLOCK_MODE()": {
        "details": "Machine-readable description of the clock as specified in ERC-6372."
      },
      "DOMAIN_SEPARATOR()": {
        "details": "Returns the domain separator used in the encoding of the signature for {permit}, as defined by {EIP712}."
      },
      "allowance(address,address)": {
        "details": "Returns the remaining number of tokens that `spender` will be allowed to spend on behalf of `owner` through {transferFrom}. This is zero by default. This value changes when {approve} or {transferFrom} are called."
      },
      "approve(address,uint256)": {
        "details": "See {IERC20-approve}. NOTE: If `value` is the maximum `uint256`, the allowance is not updated on `transferFrom`. This is semantically equivalent to an infinite approval. Requirements: - `spender` cannot be the zero address."
      },
      "balanceOf(address)": {
        "details": "Returns the value of tokens owned by `account`."
      },
      "checkpoints(address,uint32)": {
        "details": "Get the `pos`-th checkpoint for `account`."
      },
      "clock()": {
        "details": "Clock used for flagging checkpoints. Can be overridden to implement timestamp based checkpoints (and voting), in which case {CLOCK_MODE} should be overridden as well to match."
      },
      "decimals()": {
        "details": "Returns the number of decimals used to get its user representation. For example, if `decimals` equals `2`, a balance of `505` tokens should be displayed to a user as `5.05` (`505 / 10 ** 2`). Tokens usually opt for a value of 18, imitating the relationship between Ether and Wei. This is the default value returned by this function, unless it's overridden. NOTE: This information is only used for _display_ purposes: it in no way affects any of the arithmetic of the contract, including {IERC20-balanceOf} and {IERC20-transfer}."
      },
      "delegate(address)": {
        "details": "Delegates votes from the sender to `delegatee`."
      },
      "delegateBySig(address,uint256,uint256,uint8,bytes32,bytes32)": {
        "details": "Delegates votes from signer to `delegatee`."
      },
      "delegates(address)": {
        "details": "Returns the delegate that `account` has chosen."
      },
      "eip712Domain()": {
        "details": "returns the fields and values that describe the domain separator used by this contract for EIP-712 signature."
      },
      "getPastTotalSupply(uint256)": {
        "details": "Returns the total supply of votes available at a specific moment in the past. If the `clock()` is configured to use block numbers, this will return the value at the end of the corresponding block. NOTE: This value is the sum of all available votes, which is not necessarily the sum of all delegated votes. Votes that have not been delegated are still part of total supply, even though they would not participate in a vote. Requirements: - `timepoint` must be in the past. If operating using block numbers, the block must be already mined."
      },
      "getPastVotes(address,uint256)": {
        "details": "Returns the amount of votes that `account` had at a specific moment in the past. If the `clock()` is configured to use block numbers, this will return the value at the end of the corresponding block. Requirements: - `timepoint` must be in the past. If operating using block numbers, the block must be already mined."
      },
      "getRoleAdmin(bytes32)": {
        "details": "Returns the admin role that controls `role`. See {grantRole} and {revokeRole}. To change a role's admin, use {_setRoleAdmin}."
      },
      "getVotes(address)": {
        "details": "Returns the current amount of votes that `account` has."
      },
      "grantRole(bytes32,address)": {
        "details": "Grants `role` to `account`. If `account` had not been already granted `role`, emits a {RoleGranted} event. Requirements: - the caller must have ``role``'s admin role. May emit a {RoleGranted} event."
      },
      "hasRole(bytes32,address)": {
        "details": "Returns `true` if `account` has been granted `role`."
      },
      "name()": {
        "details": "Returns the name of the token."
      },
      "numCheckpoints(address)": {
        "details": "Get number of checkpoints for `account`."
      },
      "paused()": {
        "details": "Returns true if the contract is paused, and false otherwise."
      },
      "permit(address,address,uint256,uint256,uint8,bytes32,bytes32)": {
        "details": "Sets `value` as the allowance of `spender` over ``owner``'s tokens, given ``owner``'s signed approval. IMPORTANT: The same issues {IERC20-approve} has related to transaction ordering also apply here. Emits an {Approval} event. Requirements: - `spender` cannot be the zero address. - `deadline` must be a timestamp in the future. - `v`, `r` and `s` must be a valid `secp256k1` signature from `owner` over the EIP712-formatted function arguments. - the signature must use ``owner``'s current nonce (see {nonces}). For more information on the signature format, see the https://eips.ethereum.org/EIPS/eip-2612#specification[relevant EIP section]. CAUTION: See Security Considerations above."
      },
      "renounceRole(bytes32,address)": {
        "details": "Revokes `role` from the calling account. Roles are often managed via {grantRole} and {revokeRole}: this function's purpose is to provide a mechanism for accounts to lose their privileges if they are compromised (such as when a trusted device is misplaced). If the calling account had been revoked `role`, emits a {RoleRevoked} event. Requirements: - the caller must be `callerConfirmation`. May emit a {RoleRevoked} event."
      },
      "revokeRole(bytes32,address)": {
        "details": "Revokes `role` from `account`. If `account` had been granted `role`, emits a {RoleRevoked} event. Requirements: - the caller must have ``role``'s admin role. May emit a {RoleRevoked} event."
      },
      "supportsInterface(bytes4)": {
        "details": "Returns true if this contract implements the interface defined by `interfaceId`. See the corresponding https://eips.ethereum.org/EIPS/eip-165#how-interfaces-are-identified[ERC section] to learn more about how these ids are created. This function call must use less than 30 000 gas."
      },
      "symbol()": {
        "details": "Returns the symbol of the token, usually a shorter version of the name."
      },
      "totalSupply()": {
        "details": "Returns the value of tokens in existence."
      },
      "transfer(address,uint256)": {
        "details": "See {IERC20-transfer}. Requirements: - `to` cannot be the zero address. - the caller must have a balance of at least `value`."
      },
      "transferFrom(address,address,uint256)": {
        "details": "See {IERC20-transferFrom}. Skips emitting an {Approval} event indicating an allowance update. This is not required by the ERC. See {xref-ERC20-_approve-address-address-uint256-bool-}[_approve]. NOTE: Does not update the allowance if the current allowance is the maximum `uint256`. Requirements: - `from` and `to` cannot be the zero address. - `from` must have a balance of at least `value`. - the caller must have allowance for ``from``'s tokens of at least `value`."
      }
    },
    "version": 1
  },
  "userdoc": {
    "kind": "user",
    "methods": {},
    "version": 1
  }
}