{
  "contractName": "PropertyGovernor",
  "abi": [
    {
      "inputs": [
        {
          "internalType": "contract IVotes",
          "name": "token_",
          "type": "address"
        },
        {
          "internalType": "contract TimelockController",
          "name": "timelock_",
          "type": "address"
        },
        {
          "internalType": "uint48",
          "name": "votingDelayBlocks_",
          "type": "uint48"
        },
        {
          "internalType": "uint32",
          "name": "votingPeriodBlocks_",
          "type": "uint32"
        },
        {
          "internalType": "uint256",
          "name": "proposalThresholdTokens_",
          "type": "uint256"
        },
        {
          "internalType": "uint256",
          "name": "quorumPercent_",
          "type": "uint256"
        }
      ],
      "stateMutability": "nonpayable",
      "type": "constructor"
    },
    {
      "inputs": [],
      "name": "CheckpointUnorderedInsertion",
      "type": "error"
    },
    {
      "inputs": [],
      "name": "FailedCall",
      "type": "error"
    },
    {
      "inputs": [
        {
          "internalType": "address",
          "name": "voter",
          "type": "address"
        }
      ],
      "name": "GovernorAlreadyCastVote",
      "type": "error"
    },
    {
      "inputs": [
        {
          "internalType": "uint256",
          "name": "proposalId",
          "type": "uint256"
        }
      ],
      "name": "GovernorAlreadyQueuedProposal",
      "type": "error"
    },
    {
      "inputs": [],
      "name": "GovernorDisabledDeposit",
      "type": "error"
    },
    {
      "inputs": [
        {
          "internalType": "address",
          "name": "proposer",
          "type": "address"
        },
        {
          "internalType": "uint256",
          "name": "votes",
          "type": "uint256"
        },
        {
          "internalType": "uint256",
          "name": "threshold",
          "type": "uint256"
        }
      ],
      "name": "GovernorInsufficientProposerVotes",
      "type": "error"
    },
    {
      "inputs": [
        {
          "internalType": "uint256",
          "name": "targets",
          "type": "uint256"
        },
        {
          "internalType": "uint256",
          "name": "calldatas",
          "type": "uint256"
        },
        {
          "internalType": "uint256",
          "name": "values",
          "type": "uint256"
        }
      ],
      "name": "GovernorInvalidProposalLength",
      "type": "error"
    },
    {
      "inputs": [
        {
          "internalType": "uint256",
          "name": "quorumNumerator",
          "type": "uint256"
        },
        {
          "internalType": "uint256",
          "name": "quorumDenominator",
          "type": "uint256"
        }
      ],
      "name": "GovernorInvalidQuorumFraction",
      "type": "error"
    },
    {
      "inputs": [
        {
          "internalType": "address",
          "name": "voter",
          "type": "address"
        }
      ],
      "name": "GovernorInvalidSignature",
      "type": "error"
    },
    {
      "inputs": [],
      "name": "GovernorInvalidVoteParams",
      "type": "error"
    },
    {
      "inputs": [],
      "name": "GovernorInvalidVoteType",
      "type": "error"
    },
    {
      "inputs": [
        {
          "internalType": "uint256",
          "name": "votingPeriod",
          "type": "uint256"
        }
      ],
      "name": "GovernorInvalidVotingPeriod",
      "type": "error"
    },
    {
      "inputs": [
        {
          "internalType": "uint256",
          "name": "proposalId",
          "type": "uint256"
        }
      ],
      "name": "GovernorNonexistentProposal",
      "type": "error"
    },
    {
      "inputs": [
        {
          "internalType": "uint256",
          "name": "proposalId",
          "type": "uint256"
        }
      ],
      "name": "GovernorNotQueuedProposal",
      "type": "error"
    },
    {
      "inputs": [
        {
          "internalType": "address",
          "name": "account",
          "type": "address"
        }
      ],
      "name": "GovernorOnlyExecutor",
      "type": "error"
    },
    {
      "inputs": [],
      "name": "GovernorQueueNotImplemented",
      "type": "error"
    },
    {
      "inputs": [
        {
          "internalType": "address",
          "name": "proposer",
          "type": "address"
        }
      ],
      "name": "GovernorRestrictedProposer",
      "type": "error"
    },
    {
      "inputs": [
        {
          "internalType": "uint256",
          "name": "proposalId",
          "type": "uint256"
        },
        {
          "internalType": "address",
          "name": "account",
          "type": "address"
        }
      ],
      "name": "GovernorUnableToCancel",
      "type": "error"
    },
    {
      "inputs": [
        {
          "internalType": "uint256",
          "name": "proposalId",
          "type": "uint256"
        },
        {
          "internalType": "enum IGovernor.ProposalState",
          "name": "current",
          "type": "uint8"
        },
        {
          "internalType": "bytes32",
          "name": "expectedStates",
          "type": "bytes32"
        }
      ],
      "name": "GovernorUnexpectedProposalState",
      "type": "error"
    },
    {
      "inputs": [
        {
          "internalType": "address",
          "name": "account",
          "type": "address"
        },
        {
          "internalType": "uint256",
          "name": "currentNonce",
          "type": "uint256"
        }
      ],
      "name": "InvalidAccountNonce",
      "type": "error"
    },
    {
      "inputs": [],
      "name": "InvalidShortString",
      "type": "error"
    },
    {
      "inputs": [
        {
          "internalType": "uint8",
          "name": "bits",
          "type": "uint8"
        },
        {
          "internalType": "uint256",
          "name": "value",
          "type": "uint256"
        }
      ],
      "name": "SafeCastOverflowedUintDowncast",
      "type": "error"
    },
    {
      "inputs": [
        {
          "internalType": "string",
          "name": "str",
          "type": "string"
        }
      ],
      "name": "StringTooLong",
      "type": "error"
    },
    {
      "anonymous": false,
      "inputs": [],
      "name": "EIP712DomainChanged",
      "type": "event"
    },
    {
      "anonymous": false,
      "inputs": [
        {
          "indexed": false,
          "internalType": "uint256",
          "name": "proposalId",
          "type": "uint256"
        }
      ],
      "name": "ProposalCanceled",
      "type": "event"
    },
    {
      "anonymous": false,
      "inputs": [
        {
          "indexed": false,
          "internalType": "uint256",
          "name": "proposalId",
          "type": "uint256"
        },
        {
          "indexed": false,
          "internalType": "address",
          "name": "proposer",
          "type": "address"
        },
        {
          "indexed": false,
          "internalType": "address[]",
          "name": "targets",
          "type": "address[]"
        },
        {
          "indexed": false,
          "internalType": "uint256[]",
          "name": "values",
          "type": "uint256[]"
        },
        {
          "indexed": false,
          "internalType": "string[]",
          "name": "signatures",
          "type": "string[]"
        },
        {
          "indexed": false,
          "internalType": "bytes[]",
          "name": "calldatas",
          "type": "bytes[]"
        },
        {
          "indexed": false,
          "internalType": "uint256",
          "name": "voteStart",
          "type": "uint256"
        },
        {
          "indexed": false,
          "internalType": "uint256",
          "name": "voteEnd",
          "type": "uint256"
        },
        {
          "indexed": false,
          "internalType": "string",
          "name": "description",
          "type": "string"
        }
      ],
      "name": "ProposalCreated",
      "type": "event"
    },
    {
      "anonymous": false,
      "inputs": [
        {
          "indexed": false,
          "internalType": "uint256",
          "name": "proposalId",
          "type": "uint256"
        }
      ],
      "name": "ProposalExecuted",
      "type": "event"
    },
    {
      "anonymous": false,
      "inputs": [
        {
          "indexed": false,
          "internalType": "uint256",
          "name": "proposalId",
          "type": "uint256"
        },
        {
          "indexed": false,
          "internalType": "uint256",
          "name": "etaSeconds",
          "type": "uint256"
        }
      ],
      "name": "ProposalQueued",
      "type": "event"
    },
    {
      "anonymous": false,
      "inputs": [
        {
          "indexed": false,
          "internalType": "uint256",
          "name": "oldProposalThreshold",
          "type": "uint256"
        },
        {
          "indexed": false,
          "internalType": "uint256",
          "name": "newProposalThreshold",
          "type": "uint256"
        }
      ],
      "name": "ProposalThresholdSet",
      "type": "event"
    },
    {
      "anonymous": false,
      "inputs": [
        {
          "indexed": false,
          "internalType": "uint256",
          "name": "oldQuorumNumerator",
          "type": "uint256"
        },
        {
          "indexed": false,
          "internalType": "uint256",
          "name": "newQuorumNumerator",
          "type": "uint256"
        }
      ],
      "name": "QuorumNumeratorUpdated",
      "type": "event"
    },
    {
      "anonymous": false,
      "inputs": [
        {
          "indexed": false,
          "internalType": "address",
          "name": "oldTimelock",
          "type": "address"
        },
        {
          "indexed": false,
          "internalType": "address",
          "name": "newTimelock",
          "type": "address"
        }
      ],
      "name": "TimelockChange",
      "type": "event"
    },
    {
      "anonymous": false,
      "inputs": [
        {
          "indexed": true,
          "internalType": "address",
          "name": "voter",
          "type": "address"
        },
        {
          "indexed": false,
          "internalType": "uint256",
          "name": "proposalId",
          "type": "uint256"
        },
        {
          "indexed": false,
          "internalType": "uint8",
          "name": "support",
          "type": "uint8"
        },
        {
          "indexed": false,
          "internalType": "uint256",
          "name": "weight",
          "type": "uint256"
        },
        {
          "indexed": false,
          "internalType": "string",
          "name": "reason",
          "type": "string"
        }
      ],
      "name": "VoteCast",
      "type": "event"
    },
    {
      "anonymous": false,
      "inputs": [
        {
          "indexed": true,
          "internalType": "address",
          "name": "voter",
          "type": "address"
        },
        {
          "indexed": false,
          "internalType": "uint256",
          "name": "proposalId",
          "type": "uint256"
        },
        {
          "indexed": false,
          "internalType": "uint8",
          "name": "support",
          "type": "uint8"
        },
        {
          "indexed": false,
          "internalType": "uint256",
          "name": "weight",
          "type": "uint256"
        },
        {
          "indexed": false,
          "internalType": "string",
          "name": "reason",
          "type": "string"
        },
        {
          "indexed": false,
          "internalType": "bytes",
          "name": "params",
          "type": "bytes"
        }
      ],
      "name": "VoteCastWithParams",
      "type": "event"
    },
    {
      "anonymous": false,
      "inputs": [
        {
          "indexed": false,
          "internalType": "uint256",
          "name": "oldVotingDelay",
          "type": "uint256"
        },
        {
          "indexed": false,
          "internalType": "uint256",
          "name": "newVotingDelay",
          "type": "uint256"
        }
      ],
      "name": "VotingDelaySet",
      "type": "event"
    },
    {
      "anonymous": false,
      "inputs": [
        {
          "indexed": false,
          "internalType": "uint256",
          "name": "oldVotingPeriod",
          "type": "uint256"
        },
        {
          "indexed": false,
          "internalType": "uint256",
          "name": "newVotingPeriod",
          "type": "uint256"
        }
      ],
      "name": "VotingPeriodSet",
      "type": "event"
    },
    {
      "inputs": [],
      "name": "BALLOT_TYPEHASH",
      "outputs": [
        {
          "internalType": "bytes32",
          "name": "",
          "type": "bytes32"
        }
      ],
      "stateMutability": "view",
      "type": "function"
    },
    {
      "inputs": [],
      "name": "CLOCK_MODE",
      "outputs": [
        {
          "internalType": "string",
          "name": "",
          "type": "string"
        }
      ],
      "stateMutability": "view",
      "type": "function"
    },
    {
      "inputs": [],
      "name": "COUNTING_MODE",
      "outputs": [
        {
          "internalType": "string",
          "name": "",
          "type": "string"
        }
      ],
      "stateMutability": "pure",
      "type": "function"
    },
    {
      "inputs": [],
      "name": "EXTENDED_BALLOT_TYPEHASH",
      "outputs": [
        {
          "internalType": "bytes32",
          "name": "",
          "type": "bytes32"
        }
      ],
      "stateMutability": "view",
      "type": "function"
    },
    {
      "inputs": [
        {
          "internalType": "address[]",
          "name": "targets",
          "type": "address[]"
        },
        {
          "internalType": "uint256[]",
          "name": "values",
          "type": "uint256[]"
        },
        {
          "internalType": "bytes[]",
          "name": "calldatas",
          "type": "bytes[]"
        },
        {
          "internalType": "bytes32",
          "name": "descriptionHash",
          "type": "bytes32"
        }
      ],
      "name": "cancel",
      "outputs": [
        {
          "internalType": "uint256",
          "name": "",
          "type": "uint256"
        }
      ],
      "stateMutability": "nonpayable",
      "type": "function"
    },
    {
      "inputs": [
        {
          "internalType": "uint256",
          "name": "proposalId",
          "type": "uint256"
        },
        {
          "internalType": "uint8",
          "name": "support",
          "type": "uint8"
        }
      ],
      "name": "castVote",
      "outputs": [
        {
          "internalType": "uint256",
          "name": "",
          "type": "uint256"
        }
      ],
      "stateMutability": "nonpayable",
      "type": "function"
    },
    {
      "inputs": [
        {
          "internalType": "uint256",
          "name": "proposalId",
          "type": "uint256"
        },
        {
          "internalType": "uint8",
          "name": "support",
          "type": "uint8"
        },
        {
          "internalType": "address",
          "name": "voter",
          "type": "address"
        },
        {
          "internalType": "bytes",
          "name": "signature",
          "type": "bytes"
        }
      ],
      "name": "castVoteBySig",
      "outputs": [
        {
          "internalType": "uint256",
          "name": "",
          "type": "uint256"
        }
      ],
      "stateMutability": "nonpayable",
      "type": "function"
    },
    {
      "inputs": [
        {
          "internalType": "uint256",
          "name": "proposalId",
          "type": "uint256"
        },
        {
          "internalType": "uint8",
          "name": "support",
          "type": "uint8"
        },
        {
          "internalType": "string",
          "name": "reason",
          "type": "string"
        }
      ],
      "name": "castVoteWithReason",
      "outputs": [
        {
          "internalType": "uint256",
          "name": "",
          "type": "uint256"
        }
      ],
      "stateMutability": "nonpayable",
      "type": "function"
    },
    {
      "inputs": [
        {
          "internalType": "uint256",
          "name": "proposalId",
          "type": "uint256"
        },
        {
          "internalType": "uint8",
          "name": "support",
          "type": "uint8"
        },
        {
          "internalType": "string",
          "name": "reason",
          "type": "string"
        },
        {
          "internalType": "bytes",
          "name": "params",
          "type": "bytes"
        }
      ],
      "name": "castVoteWithReasonAndParams",
      "outputs": [
        {
          "internalType": "uint256",
          "name": "",
          "type": "uint256"
        }
      ],
      "stateMutability": "nonpayable",
      "type": "function"
    },
    {
      "inputs": [
        {
          "internalType": "uint256",
          "name": "proposalId",
          "type": "uint256"
        },
        {
          "internalType": "uint8",
          "name": "support",
          "type": "uint8"
        },
        {
          "internalType": "address",
          "name": "voter",
          "type": "address"
        },
        {
          "internalType": "string",
          "name": "reason",
          "type": "string"
        },
        {
          "internalType": "bytes",
          "name": "params",
          "type": "bytes"
        },
        {
          "internalType": "bytes",
          "name": "signature",
          "type": "bytes"
        }
      ],
      "name": "castVoteWithReasonAndParamsBySig",
      "outputs": [
        {
          "internalType": "uint256",
          "name": "",
          "type": "uint256"
        }
      ],
      "stateMutability": "nonpayable",
      "type": "function"
    },
    {
      "inputs": [],
      "name": "clock",
      "outputs": [
        {
          "internalType": "uint48",
          "name": "",
          "type": "uint48"
        }
      ],
      "stateMutability": "view",
      "type": "function"
    },
    {
      "inputs": [],
      "name": "eip712Domain",
      "outputs": [
        {
          "internalType": "bytes1",
          "name": "fields",
          "type": "bytes1"
        },
        {
          "internalType": "string",
          "name": "name",
          "type": "string"
        },
        {
          "internalType": "string",
          "name": "version",
          "type": "string"
        },
        {
          "internalType": "uint256",
          "name": "chainId",
          "type": "uint256"
        },
        {
          "internalType": "address",
          "name": "verifyingContract",
          "type": "address"
        },
        {
          "internalType": "bytes32",
          "name": "salt",
          "type": "bytes32"
        },
        {
          "internalType": "uint256[]",
          "name": "extensions",
          "type": "uint256[]"
        }
      ],
      "stateMutability": "view",
      "type": "function"
    },
    {
      "inputs": [
        {
          "internalType": "address[]",
          "name": "targets",
          "type": "address[]"
        },
        {
          "internalType": "uint256[]",
          "name": "values",
          "type": "uint256[]"
        },
        {
          "internalType": "bytes[]",
          "name": "calldatas",
          "type": "bytes[]"
        },
        {
          "internalType": "bytes32",
          "name": "descriptionHash",
          "type": "bytes32"
        }
      ],
      "name": "execute",
      "outputs": [
        {
          "internalType": "uint256",
          "name": "",
          "type": "uint256"
        }
      ],
      "stateMutability": "payable",
      "type": "function"
    },
    {
      "inputs": [
        {
          "internalType": "address[]",
          "name": "targets",
          "type": "address[]"
        },
        {
          "internalType": "uint256[]",
          "name": "values",
          "type": "uint256[]"
        },
        {
          "internalType": "bytes[]",
          "name": "calldatas",
          "type": "bytes[]"
        },
        {
          "internalType": "bytes32",
          "name": "descriptionHash",
          "type": "bytes32"
        }
      ],
      "name": "getProposalId",
      "outputs": [
        {
          "internalType": "uint256",
          "name": "",
          "type": "uint256"
        }
      ],
      "stateMutability": "view",
      "type": "function"
    },
    {
      "inputs": [
        {
          "internalType": "address",
          "name": "account",
          "type": "address"
        },
        {
          "internalType": "uint256",
          "name": "timepoint",
          "type": "uint256"
        }
      ],
      "name": "getVotes",
      "outputs": [
        {
          "internalType": "uint256",
          "name": "",
          "type": "uint256"
        }
      ],
      "stateMutability": "view",
      "type": "function"
    },
    {
      "inputs": [
        {
          "internalType": "address",
          "name": "account",
          "type": "address"
        },
        {
          "internalType": "uint256",
          "name": "timepoint",
          "type": "uint256"
        },
        {
          "internalType": "bytes",
          "name": "params",
          "type": "bytes"
        }
      ],
      "name": "getVotesWithParams",
      "outputs": [
        {
          "internalType": "uint256",
          "name": "",
          "type": "uint256"
        }
      ],
      "stateMutability": "view",
      "type": "function"
    },
    {
      "inputs": [
        {
          "internalType": "uint256",
          "name": "proposalId",
          "type": "uint256"
        },
        {
          "internalType": "address",
          "name": "account",
          "type": "address"
        }
      ],
      "name": "hasVoted",
      "outputs": [
        {
          "internalType": "bool",
          "name": "",
          "type": "bool"
        }
      ],
      "stateMutability": "view",
      "type": "function"
    },
    {
      "inputs": [
        {
          "internalType": "address[]",
          "name": "targets",
          "type": "address[]"
        },
        {
          "internalType": "uint256[]",
          "name": "values",
          "type": "uint256[]"
        },
        {
          "internalType": "bytes[]",
          "name": "calldatas",
          "type": "bytes[]"
        },
        {
          "internalType": "bytes32",
          "name": "descriptionHash",
          "type": "bytes32"
        }
      ],
      "name": "hashProposal",
      "outputs": [
        {
          "internalType": "uint256",
          "name": "",
          "type": "uint256"
        }
      ],
      "stateMutability": "pure",
      "type": "function"
    },
    {
      "inputs": [],
      "name": "name",
      "outputs": [
        {
          "internalType": "string",
          "name": "",
          "type": "string"
        }
      ],
      "stateMutability": "view",
      "type": "function"
    },
    {
      "inputs": [
        {
          "internalType": "address",
          "name": "owner",
          "type": "address"
        }
      ],
      "name": "nonces",
      "outputs": [
        {
          "internalType": "uint256",
          "name": "",
          "type": "uint256"
        }
      ],
      "stateMutability": "view",
      "type": "function"
    },
    {
      "inputs": [
        {
          "internalType": "address",
          "name": "",
          "type": "address"
        },
        {
          "internalType": "address",
          "name": "",
          "type": "address"
        },
        {
          "internalType": "uint256[]",
          "name": "",
          "type": "uint256[]"
        },
        {
          "internalType": "uint256[]",
          "name": "",
          "type": "uint256[]"
        },
        {
          "internalType": "bytes",
          "name": "",
          "type": "bytes"
        }
      ],
      "name": "onERC1155BatchReceived",
      "outputs": [
        {
          "internalType": "bytes4",
          "name": "",
          "type": "bytes4"
        }
      ],
      "stateMutability": "nonpayable",
      "type": "function"
    },
    {
      "inputs": [
        {
          "internalType": "address",
          "name": "",
          "type": "address"
        },
        {
          "internalType": "address",
          "name": "",
          "type": "address"
        },
        {
          "internalType": "uint256",
          "name": "",
          "type": "uint256"
        },
        {
          "internalType": "uint256",
          "name": "",
          "type": "uint256"
        },
        {
          "internalType": "bytes",
          "name": "",
          "type": "bytes"
        }
      ],
      "name": "onERC1155Received",
      "outputs": [
        {
          "internalType": "bytes4",
          "name": "",
          "type": "bytes4"
        }
      ],
      "stateMutability": "nonpayable",
      "type": "function"
    },
    {
      "inputs": [
        {
          "internalType": "address",
          "name": "",
          "type": "address"
        },
        {
          "internalType": "address",
          "name": "",
          "type": "address"
        },
        {
          "internalType": "uint256",
          "name": "",
          "type": "uint256"
        },
        {
          "internalType": "bytes",
          "name": "",
          "type": "bytes"
        }
      ],
      "name": "onERC721Received",
      "outputs": [
        {
          "internalType": "bytes4",
          "name": "",
          "type": "bytes4"
        }
      ],
      "stateMutability": "nonpayable",
      "type": "function"
    },
    {
      "inputs": [
        {
          "internalType": "uint256",
          "name": "proposalId",
          "type": "uint256"
        }
      ],
      "name": "proposalDeadline",
      "outputs": [
        {
          "internalType": "uint256",
          "name": "",
          "type": "uint256"
        }
      ],
      "stateMutability": "view",
      "type": "function"
    },
    {
      "inputs": [
        {
          "internalType": "uint256",
          "name": "proposalId",
          "type": "uint256"
        }
      ],
      "name": "proposalEta",
      "outputs": [
        {
          "internalType": "uint256",
          "name": "",
          "type": "uint256"
        }
      ],
      "stateMutability": "view",
      "type": "function"
    },
    {
      "inputs": [
        {
          "internalType": "uint256",
          "name": "proposalId",
          "type": "uint256"
        }
      ],
      "name": "proposalProposer",
      "outputs": [
        {
          "internalType": "address",
          "name": "",
          "type": "address"
        }
      ],
      "stateMutability": "view",
      "type": "function"
    },
    {
      "inputs": [
        {
          "internalType": "uint256",
          "name": "proposalId",
          "type": "uint256"
        }
      ],
      "name": "proposalSnapshot",
      "outputs": [
        {
          "internalType": "uint256",
          "name": "",
          "type": "uint256"
        }
      ],
      "stateMutability": "view",
      "type": "function"
    },
    {
      "inputs": [
        {
          "internalType": "uint256",
          "name": "proposalId",
          "type": "uint256"
        }
      ],
      "name": "proposalVotes",
      "outputs": [
        {
          "internalType": "uint256",
          "name": "againstVotes",
          "type": "uint256"
        },
        {
          "internalType": "uint256",
          "name": "forVotes",
          "type": "uint256"
        },
        {
          "internalType": "uint256",
          "name": "abstainVotes",
          "type": "uint256"
        }
      ],
      "stateMutability": "view",
      "type": "function"
    },
    {
      "inputs": [
        {
          "internalType": "address[]",
          "name": "targets",
          "type": "address[]"
        },
        {
          "internalType": "uint256[]",
          "name": "values",
          "type": "uint256[]"
        },
        {
          "internalType": "bytes[]",
          "name": "calldatas",
          "type": "bytes[]"
        },
        {
          "internalType": "string",
          "name": "description",
          "type": "string"
        }
      ],
      "name": "propose",
      "outputs": [
        {
          "internalType": "uint256",
          "name": "",
          "type": "uint256"
        }
      ],
      "stateMutability": "nonpayable",
      "type": "function"
    },
    {
      "inputs": [
        {
          "internalType": "address[]",
          "name": "targets",
          "type": "address[]"
        },
        {
          "internalType": "uint256[]",
          "name": "values",
          "type": "uint256[]"
        },
        {
          "internalType": "bytes[]",
          "name": "calldatas",
          "type": "bytes[]"
        },
        {
          "internalType": "bytes32",
          "name": "descriptionHash",
          "type": "bytes32"
        }
      ],
      "name": "queue",
      "outputs": [
        {
          "internalType": "uint256",
          "name": "",
          "type": "uint256"
        }
      ],
      "stateMutability": "nonpayable",
      "type": "function"
    },
    {
      "inputs": [
        {
          "internalType": "uint256",
          "name": "timepoint",
          "type": "uint256"
        }
      ],
      "name": "quorum",
      "outputs": [
        {
          "internalType": "uint256",
          "name": "",
          "type": "uint256"
        }
      ],
      "stateMutability": "view",
      "type": "function"
    },
    {
      "inputs": [],
      "name": "quorumDenominator",
      "outputs": [
        {
          "internalType": "uint256",
          "name": "",
          "type": "uint256"
        }
      ],
      "stateMutability": "view",
      "type": "function"
    },
    {
      "inputs": [
        {
          "internalType": "uint256",
          "name": "timepoint",
          "type": "uint256"
        }
      ],
      "name": "quorumNumerator",
      "outputs": [
        {
          "internalType": "uint256",
          "name": "",
          "type": "uint256"
        }
      ],
      "stateMutability": "view",
      "type": "function"
    },
    {
      "inputs": [],
      "name": "quorumNumerator",
      "outputs": [
        {
          "internalType": "uint256",
          "name": "",
          "type": "uint256"
        }
      ],
      "stateMutability": "view",
      "type": "function"
    },
    {
      "inputs": [
        {
          "internalType": "address",
          "name": "target",
          "type": "address"
        },
        {
          "internalType": "uint256",
          "name": "value",
          "type": "uint256"
        },
        {
          "internalType": "bytes",
          "name": "data",
          "type": "bytes"
        }
      ],
      "name": "relay",
      "outputs": [],
      "stateMutability": "payable",
      "type": "function"
    },
    {
      "inputs": [
        {
          "internalType": "uint256",
          "name": "newProposalThreshold",
          "type": "uint256"
        }
      ],
      "name": "setProposalThreshold",
      "outputs": [],
      "stateMutability": "nonpayable",
      "type": "function"
    },
    {
      "inputs": [
        {
          "internalType": "uint48",
          "name": "newVotingDelay",
          "type": "uint48"
        }
      ],
      "name": "setVotingDelay",
      "outputs": [],
      "stateMutability": "nonpayable",
      "type": "function"
    },
    {
      "inputs": [
        {
          "internalType": "uint32",
          "name": "newVotingPeriod",
          "type": "uint32"
        }
      ],
      "name": "setVotingPeriod",
      "outputs": [],
      "stateMutability": "nonpayable",
      "type": "function"
    },
    {
      "inputs": [
        {
          "internalType": "bytes4",
          "name": "interfaceId",
          "type": "bytes4"
        }
      ],
      "name": "supportsInterface",
      "outputs": [
        {
          "internalType": "bool",
          "name": "",
          "type": "bool"
        }
      ],
      "stateMutability": "view",
      "type": "function"
    },
    {
      "inputs": [],
      "name": "timelock",
      "outputs": [
        {
          "internalType": "address",
          "name": "",
          "type": "address"
        }
      ],
      "stateMutability": "view",
      "type": "function"
    },
    {
      "inputs": [],
      "name": "token",
      "outputs": [
        {
          "internalType": "contract IERC5805",
          "name": "",
          "type": "address"
        }
      ],
      "stateMutability": "view",
      "type": "function"
    },
    {
      "inputs": [
        {
          "internalType": "uint256",
          "name": "newQuorumNumerator",
          "type": "uint256"
        }
      ],
      "name": "updateQuorumNumerator",
      "outputs": [],
      "stateMutability": "nonpayable",
      "type": "function"
    },
    {
      "inputs": [
        {
          "internalType": "contract TimelockController",
          "name": "newTimelock",
          "type": "address"
        }
      ],
      "name": "updateTimelock",
      "outputs": [],
      "stateMutability": "nonpayable",
      "type": "function"
    },
    {
      "inputs": [],
      "name": "version",
      "outputs": [
        {
          "internalType": "string",
          "name": "",
          "type": "string"
        }
      ],
      "stateMutability": "view",
      "type": "function"
    },
    {
      "stateMutability": "payable",
      "type": "receive"
    },
    {
      "inputs": [],
      "name": "votingDelay",
      "outputs": [
        {
          "internalType": "uint256",
          "name": "",
          "type": "uint256"
        }
      ],
      "stateMutability": "view",
      "type": "function"
    },
    {
      "inputs": [],
      "name": "votingPeriod",
      "outputs": [
        {
          "internalType": "uint256",
          "name": "",
          "type": "uint256"
        }
      ],
      "stateMutability": "view",
      "type": "function"
    },
    {
      "inputs": [],
      "name": "proposalThreshold",
      "outputs": [
        {
          "internalType": "uint256",
          "name": "",
          "type": "uint256"
        }
      ],
      "stateMutability": "view",
      "type": "function"
    },
    {
      "inputs": [
        {
          "internalType": "uint256",
          "name": "proposalId",
          "type": "uint256"
        }
      ],
      "name": "state",
      "outputs": [
        {
          "internalType": "enum IGovernor.ProposalState",
          "name": "",
          "type": "uint8"
        }
      ],
      "stateMutability": "view",
      "type": "function"
    },
    {
      "inputs": [
        {
          "internalType": "uint256",
          "name": "proposalId",
          "type": "uint256"
        }
      ],
      "name": "proposalNeedsQueuing",
      "outputs": [
        {
          "internalType": "bool",
          "name": "",
          "type": "bool"
        }
      ],
      "stateMutability": "view",
      "type": "function"
    }
  ],
  "bytecode": "0x610180604052348015610010575f80fd5b50604051614da0380380614da083398101604081905261002f91610737565b8481878686866040518060400160405280601081526020016f283937b832b93a3ca3b7bb32b93737b960811b8152508061006d61017460201b60201c565b610077825f61018f565b6101205261008681600161018f565b61014052815160208084019190912060e052815190820120610100524660a05261011260e05161010051604080517f8b73c3c69bb8fe3d512ecc4cf759cc79239f7b179b0ffacaa9a75d522b39400f60208201529081019290925260608201524660808201523060a08201525f9060c00160405160208183030381529060405280519060200120905090565b60805250503060c05260036101278282610842565b506101339050836101c1565b61013c82610227565b610145816102cb565b5050506001600160a01b03166101605261015e8161030c565b50610168816103a1565b50505050505050610991565b6040805180820190915260018152603160f81b602082015290565b5f6020835110156101aa576101a38361040a565b90506101bb565b816101b58482610842565b5060ff90505b92915050565b6008546040805165ffffffffffff928316815291831660208301527fc565b045403dc03c2eea82b81a0465edad9e2e7fc4d97e11421c209da93d7a93910160405180910390a16008805465ffffffffffff191665ffffffffffff92909216919091179055565b8063ffffffff165f036102545760405163f1cfbf0560e01b81525f60048201526024015b60405180910390fd5b6008546040805163ffffffff66010000000000009093048316815291831660208301527f7e3f7f0708a84de9203036abaa450dccc85ad5ff52f78c170f3edb55cf5e8828910160405180910390a16008805463ffffffff90921666010000000000000263ffffffff60301b19909216919091179055565b60075460408051918252602082018390527fccb45da8d5717e6c4544694297c4ba5cf151d455c9bb0ed4fc7a38411bc05461910160405180910390a1600755565b6064808211156103395760405163243e544560e01b8152600481018390526024810182905260440161024b565b5f610342610447565b905061036161034f610460565b610358856104da565b600a9190610511565b505060408051828152602081018590527f0553476bf02ef2726e8ce5ced78d63e26e602e4a2257b1f559418e24b4633997910160405180910390a1505050565b600b54604080516001600160a01b03928316815291831660208301527f08f74ea46ef7894f65eabfb5e6e695de773a000b47c529ab559178069b226401910160405180910390a1600b80546001600160a01b0319166001600160a01b0392909216919091179055565b5f80829050601f81511115610434578260405163305a27a960e01b815260040161024b9190610901565b805161043f82610936565b179392505050565b5f610452600a61052b565b6001600160d01b0316905090565b5f61046b6101605190565b6001600160a01b03166391ddadf46040518163ffffffff1660e01b8152600401602060405180830381865afa9250505080156104c4575060408051601f3d908101601f191682019092526104c191810190610959565b60015b6104d5576104d0610573565b905090565b919050565b5f6001600160d01b0382111561050d576040516306dfcc6560e41b815260d060048201526024810183905260440161024b565b5090565b5f8061051e85858561057d565b915091505b935093915050565b80545f90801561056a5761055183610544600184610972565b5f91825260209091200190565b54660100000000000090046001600160d01b031661056c565b5f5b9392505050565b5f6104d0436106d9565b82545f908190801561067c575f61059987610544600185610972565b805490915065ffffffffffff80821691660100000000000090046001600160d01b03169088168211156105df57604051632520601d60e01b815260040160405180910390fd5b8765ffffffffffff168265ffffffffffff160361061b57825465ffffffffffff1666010000000000006001600160d01b0389160217835561066e565b6040805180820190915265ffffffffffff808a1682526001600160d01b03808a1660208085019182528d54600181018f555f8f815291909120945191519092166601000000000000029216919091179101555b945085935061052392505050565b50506040805180820190915265ffffffffffff80851682526001600160d01b0380851660208085019182528854600181018a555f8a8152918220955192519093166601000000000000029190931617920191909155905081610523565b5f65ffffffffffff82111561050d576040516306dfcc6560e41b8152603060048201526024810183905260440161024b565b6001600160a01b038116811461071f575f80fd5b50565b805165ffffffffffff811681146104d5575f80fd5b5f805f805f8060c0878903121561074c575f80fd5b86516107578161070b565b60208801519096506107688161070b565b945061077660408801610722565b9350606087015163ffffffff8116811461078e575f80fd5b809350506080870151915060a087015190509295509295509295565b634e487b7160e01b5f52604160045260245ffd5b600181811c908216806107d257607f821691505b6020821081036107f057634e487b7160e01b5f52602260045260245ffd5b50919050565b601f82111561083d57805f5260205f20601f840160051c8101602085101561081b5750805b601f840160051c820191505b8181101561083a575f8155600101610827565b50505b505050565b81516001600160401b0381111561085b5761085b6107aa565b61086f8161086984546107be565b846107f6565b602080601f8311600181146108a2575f841561088b5750858301515b5f19600386901b1c1916600185901b1785556108f9565b5f85815260208120601f198616915b828110156108d0578886015182559484019460019091019084016108b1565b50858210156108ed57878501515f19600388901b60f8161c191681555b505060018460011b0185555b505050505050565b602081525f82518060208401528060208501604085015e5f604082850101526040601f19601f83011684010191505092915050565b805160208083015191908110156107f0575f1960209190910360031b1b16919050565b5f60208284031215610969575f80fd5b61056c82610722565b818103818111156101bb57634e487b7160e01b5f52601160045260245ffd5b60805160a05160c05160e05161010051610120516101405161016051614398610a085f395f81816109c101528181610e29015281816111f6015281816114bb0152611ebb01525f611dff01525f611dd301525f612df101525f612dc901525f612d2401525f612d4e01525f612d7801526143985ff3fe6080604052600436106102a8575f3560e01c80637ecebe001161016f578063bc197c81116100d8578063deaaa7cc11610092578063ece40cc11161006d578063ece40cc114610956578063f23a6e6114610975578063f8ce560a14610994578063fc0c546a146109b3575f80fd5b8063deaaa7cc146108e5578063e540d01d14610918578063eb9019d414610937575f80fd5b8063bc197c8114610813578063c01f9e3714610832578063c28bc2fa14610851578063c59057e414610864578063d33219b414610883578063dd4e2ba5146108a0575f80fd5b8063a7713a7011610129578063a7713a7014610758578063a890c9101461076c578063a8f8a6681461078b578063a9a95294146107aa578063ab58fb8e146107c9578063b58131b0146107ff575f80fd5b80637ecebe001461068157806384b0196e146106b55780638ff262e3146106dc57806391ddadf4146106fb57806397c3d334146107265780639a802a6d14610739575f80fd5b806343859632116102115780635b8d0e0d116101cb5780635b8d0e0d146105c75780635f398a14146105e657806360c4247f1461060557806379051887146106245780637b3c71d3146106435780637d5e81e214610662575f80fd5b806343859632146104ca578063452115d6146105125780634bf5d7e914610531578063544ffc9c1461054557806354fd4d501461057f57806356781388146105a8575f80fd5b8063160cbed711610262578063160cbed7146104065780632656227d146104255780632d63f693146104385780632fe3e261146104575780633932abb11461048a5780633e4f49e61461049e575f80fd5b806301ffc9a7146102e357806302a251a31461031757806306f3f9e61461034257806306fdde0314610361578063143489d014610382578063150b7a02146103ce575f80fd5b366102df57306102b66109e5565b6001600160a01b0316146102dd57604051637485328f60e11b815260040160405180910390fd5b005b5f80fd5b3480156102ee575f80fd5b506103026102fd366004613396565b6109fd565b60405190151581526020015b60405180910390f35b348015610322575f80fd5b50600854600160301b900463ffffffff165b60405190815260200161030e565b34801561034d575f80fd5b506102dd61035c3660046133bd565b610a69565b34801561036c575f80fd5b50610375610a7d565b60405161030e9190613402565b34801561038d575f80fd5b506103b661039c3660046133bd565b5f908152600460205260409020546001600160a01b031690565b6040516001600160a01b03909116815260200161030e565b3480156103d9575f80fd5b506103ed6103e83660046134eb565b610b0d565b6040516001600160e01b0319909116815260200161030e565b348015610411575f80fd5b506103346104203660046136ba565b610b4f565b6103346104333660046136ba565b610c1b565b348015610443575f80fd5b506103346104523660046133bd565b610d83565b348015610462575f80fd5b506103347f3e83946653575f9a39005e1545185629e92736b7528ab20ca3816f315424a81181565b348015610495575f80fd5b50610334610da3565b3480156104a9575f80fd5b506104bd6104b83660046133bd565b610db5565b60405161030e9190613777565b3480156104d5575f80fd5b506103026104e4366004613785565b5f8281526009602090815260408083206001600160a01b038516845260030190915290205460ff1692915050565b34801561051d575f80fd5b5061033461052c3660046136ba565b610dbf565b34801561053c575f80fd5b50610375610e25565b348015610550575f80fd5b5061056461055f3660046133bd565b610ee5565b6040805193845260208401929092529082015260600161030e565b34801561058a575f80fd5b506040805180820190915260018152603160f81b6020820152610375565b3480156105b3575f80fd5b506103346105c23660046137c3565b610f0a565b3480156105d2575f80fd5b506103346105e1366004613831565b610f31565b3480156105f1575f80fd5b506103346106003660046138e3565b610fee565b348015610610575f80fd5b5061033461061f3660046133bd565b611036565b34801561062f575f80fd5b506102dd61063e366004613973565b611042565b34801561064e575f80fd5b5061033461065d36600461398e565b611053565b34801561066d575f80fd5b5061033461067c3660046139e3565b6110a3565b34801561068c575f80fd5b5061033461069b366004613a8f565b6001600160a01b03165f9081526002602052604090205490565b3480156106c0575f80fd5b506106c9611159565b60405161030e9796959493929190613ae4565b3480156106e7575f80fd5b506103346106f6366004613b53565b61119b565b348015610706575f80fd5b5061070f6111f3565b60405165ffffffffffff909116815260200161030e565b348015610731575f80fd5b506064610334565b348015610744575f80fd5b50610334610753366004613ba0565b61127a565b348015610763575f80fd5b50610334611290565b348015610777575f80fd5b506102dd610786366004613a8f565b6112a9565b348015610796575f80fd5b506103346107a53660046136ba565b6112ba565b3480156107b5575f80fd5b506103026107c43660046133bd565b6112c7565b3480156107d4575f80fd5b506103346107e33660046133bd565b5f9081526004602052604090206001015465ffffffffffff1690565b34801561080a575f80fd5b506103346112cf565b34801561081e575f80fd5b506103ed61082d366004613bf4565b6112d9565b34801561083d575f80fd5b5061033461084c3660046133bd565b61131c565b6102dd61085f366004613c80565b61135e565b34801561086f575f80fd5b5061033461087e3660046136ba565b6113da565b34801561088e575f80fd5b50600b546001600160a01b03166103b6565b3480156108ab575f80fd5b506040805180820190915260208082527f737570706f72743d627261766f2671756f72756d3d666f722c6162737461696e90820152610375565b3480156108f0575f80fd5b506103347ff2aad550cf55f045cb27e9c559f9889fdfb6e6cdaa032301d6ea397784ae51d781565b348015610923575f80fd5b506102dd610932366004613cbf565b611413565b348015610942575f80fd5b50610334610951366004613ce2565b611424565b348015610961575f80fd5b506102dd6109703660046133bd565b611443565b348015610980575f80fd5b506103ed61098f366004613d0c565b611454565b34801561099f575f80fd5b506103346109ae3660046133bd565b611497565b3480156109be575f80fd5b507f00000000000000000000000000000000000000000000000000000000000000006103b6565b5f6109f8600b546001600160a01b031690565b905090565b5f6001600160e01b031982166366defe7760e11b1480610a2d57506001600160e01b031982166332a2ad4360e11b145b80610a4857506001600160e01b03198216630271189760e51b145b80610a6357506301ffc9a760e01b6001600160e01b03198316145b92915050565b610a71611534565b610a7a816115ad565b50565b606060038054610a8c90613d6f565b80601f0160208091040260200160405190810160405280929190818152602001828054610ab890613d6f565b8015610b035780601f10610ada57610100808354040283529160200191610b03565b820191905f5260205f20905b815481529060010190602001808311610ae657829003601f168201915b5050505050905090565b5f30610b176109e5565b6001600160a01b031614610b3e57604051637485328f60e11b815260040160405180910390fd5b50630a85bd0160e11b949350505050565b5f80610b5d868686866112ba565b9050610b7281610b6d6004611642565b611664565b505f610b8182888888886116a1565b905065ffffffffffff811615610bf8575f82815260046020908152604091829020600101805465ffffffffffff191665ffffffffffff85169081179091558251858152918201527f9a2e42fd6722813d69113e7d0079d3d940171428df7373df9c7f7617cfda2892910160405180910390a1610c11565b604051634844252360e11b815260040160405180910390fd5b5095945050505050565b5f80610c29868686866112ba565b9050610c4981610c396005611642565b610c436004611642565b17611664565b505f818152600460205260409020805460ff60f01b1916600160f01b17905530610c716109e5565b6001600160a01b031614610cfa575f5b8651811015610cf857306001600160a01b0316878281518110610ca657610ca6613da7565b60200260200101516001600160a01b031603610cf057610cf0858281518110610cd157610cd1613da7565b60200260200101518051906020012060056116af90919063ffffffff16565b600101610c81565b505b610d078187878787611710565b30610d106109e5565b6001600160a01b031614158015610d3c57506005546001600160801b03808216600160801b9092041614155b15610d46575f6005555b6040518181527f712ae1383f79ac853f8d882153778e0260ef8f03b504e2866e0593e04d2b291f906020015b60405180910390a195945050505050565b5f90815260046020526040902054600160a01b900465ffffffffffff1690565b5f6109f860085465ffffffffffff1690565b5f610a6382611724565b5f80610dcd868686866112ba565b905033610dda828261185d565b610e0e57604051638fe5d8a960e01b8152600481018390526001600160a01b03821660248201526044015b60405180910390fd5b610e1a878787876118a2565b979650505050505050565b60607f00000000000000000000000000000000000000000000000000000000000000006001600160a01b0316634bf5d7e96040518163ffffffff1660e01b81526004015f60405180830381865afa925050508015610ea457506040513d5f823e601f3d908101601f19168201604052610ea19190810190613dbb565b60015b610ee0575060408051808201909152601d81527f6d6f64653d626c6f636b6e756d6265722666726f6d3d64656661756c74000000602082015290565b919050565b5f818152600960205260409020805460018201546002909201549091905b9193909250565b5f80339050610f2984828560405180602001604052805f8152506118af565b949350505050565b5f610f7788888888888080601f0160208091040260200160405190810160405280939291908181526020018383808284375f920191909152508a92508991506118d09050565b610f9f576040516394ab6c0760e01b81526001600160a01b0387166004820152602401610e05565b610fe288878988888080601f0160208091040260200160405190810160405280939291908181526020018383808284375f920191909152508a925061199d915050565b98975050505050505050565b5f80339050610e1a87828888888080601f0160208091040260200160405190810160405280939291908181526020018383808284375f920191909152508a925061199d915050565b5f610a63600a83611a7b565b61104a611534565b610a7a81611ac8565b5f8033905061109986828787878080601f0160208091040260200160405190810160405280939291908181526020018383808284375f920191909152506118af92505050565b9695505050505050565b5f336110af8184611b2e565b6110d75760405163d9b3955760e01b81526001600160a01b0382166004820152602401610e05565b5f6110e06112cf565b9050801561114c575f61110e8360016110f76111f3565b6111019190613e43565b65ffffffffffff16611424565b90508181101561114a57604051636121770b60e11b81526001600160a01b03841660048201526024810182905260448101839052606401610e05565b505b610e1a8787878786611bb2565b5f6060805f805f606061116a611dcc565b611172611df8565b604080515f80825260208201909252600f60f81b9b939a50919850469750309650945092509050565b5f6111a885858585611e25565b6111d0576040516394ab6c0760e01b81526001600160a01b0384166004820152602401610e05565b6111ea85848660405180602001604052805f8152506118af565b95945050505050565b5f7f00000000000000000000000000000000000000000000000000000000000000006001600160a01b03166391ddadf46040518163ffffffff1660e01b8152600401602060405180830381865afa92505050801561126e575060408051601f3d908101601f1916820190925261126b91810190613e69565b60015b610ee0576109f8611eae565b5f611286848484611eb8565b90505b9392505050565b5f61129b600a611f4b565b6001600160d01b0316905090565b6112b1611534565b610a7a81611f8f565b5f6111ea858585856113da565b5f6001610a63565b5f6109f860075490565b5f306112e36109e5565b6001600160a01b03161461130a57604051637485328f60e11b815260040160405180910390fd5b5063bc197c8160e01b95945050505050565b5f8181526004602052604081205461135090600160d01b810463ffffffff1690600160a01b900465ffffffffffff16613e84565b65ffffffffffff1692915050565b611366611534565b5f80856001600160a01b0316858585604051611383929190613ea3565b5f6040518083038185875af1925050503d805f81146113bd576040519150601f19603f3d011682016040523d82523d5f602084013e6113c2565b606091505b50915091506113d18282611ff8565b50505050505050565b5f848484846040516020016113f29493929190613f42565b60408051601f19818403018152919052805160209091012095945050505050565b61141b611534565b610a7a81612014565b5f611289838361143e60408051602081019091525f815290565b611eb8565b61144b611534565b610a7a816120b0565b5f3061145e6109e5565b6001600160a01b03161461148557604051637485328f60e11b815260040160405180910390fd5b5063f23a6e6160e01b95945050505050565b604051632394e7a360e21b8152600481018290525f90610a63906001600160a01b037f00000000000000000000000000000000000000000000000000000000000000001690638e539e8c90602401602060405180830381865afa158015611500573d5f803e3d5ffd5b505050506040513d601f19601f820116820180604052508101906115249190613f8c565b61152d84611036565b60646120f1565b3361153d6109e5565b6001600160a01b031614611566576040516347096e4760e01b8152336004820152602401610e05565b3061156f6109e5565b6001600160a01b0316146115ab575f803660405161158e929190613ea3565b604051809103902090505b806115a460056121a1565b0361159957505b565b6064808211156115da5760405163243e544560e01b81526004810183905260248101829052604401610e05565b5f6115e3611290565b90506116026115f06111f3565b6115f98561220e565b600a9190612245565b505060408051828152602081018590527f0553476bf02ef2726e8ce5ced78d63e26e602e4a2257b1f559418e24b4633997910160405180910390a1505050565b5f81600781111561165557611655613743565b600160ff919091161b92915050565b5f8061166f84610db5565b90505f8361167c83611642565b1603611289578381846040516331b75e4d60e01b8152600401610e0593929190613fa3565b5f611099868686868661225f565b81546001600160801b03600160801b8204811691811660018301909116036116db576116db60416123f0565b6001600160801b038082165f90815260018086016020526040909120939093558354919092018216600160801b029116179055565b61171d8585858585612401565b5050505050565b5f8061172f83612491565b9050600581600781111561174557611745613743565b146117505792915050565b5f838152600c60205260409081902054600b549151632c258a9f60e11b81526004810182905290916001600160a01b03169063584b153e90602401602060405180830381865afa1580156117a6573d5f803e3d5ffd5b505050506040513d601f19601f820116820180604052508101906117ca9190613fc5565b156117d9575060059392505050565b600b54604051632ab0f52960e01b8152600481018390526001600160a01b0390911690632ab0f52990602401602060405180830381865afa158015611820573d5f803e3d5ffd5b505050506040513d601f19601f820116820180604052508101906118449190613fc5565b15611853575060079392505050565b5060029392505050565b5f8061186884610db5565b600781111561187957611879613743565b1480156112895750505f91825260046020526040909120546001600160a01b0391821691161490565b5f6111ea858585856125c2565b5f6111ea858585856118cb60408051602081019091525f815290565b61199d565b5f610e1a856119977f3e83946653575f9a39005e1545185629e92736b7528ab20ca3816f315424a8118a8a8a6119228c6001600160a01b03165f90815260026020526040902080546001810190915590565b8b516020808e01919091208c518d83012060405161197c98979695949301968752602087019590955260ff9390931660408601526001600160a01b03919091166060850152608084015260a083015260c082015260e00190565b60405160208183030381529060405280519060200120612659565b84612685565b5f6119ac86610b6d6001611642565b505f6119c1866119bb89610d83565b85611eb8565b90505f6119d188888885886126f5565b905083515f03611a2757866001600160a01b03167fb8e138887d0aa13bab447e82de9d5c1777041ecd21ca36ba824ff1e6c07ddda489888489604051611a1a9493929190613fe4565b60405180910390a2610e1a565b866001600160a01b03167fe2babfbac5889a709b63bb7f598b324e08bc5a4fb9ec647fb3cbc9ec07eb87128988848989604051611a6895949392919061400b565b60405180910390a2979650505050505050565b5f805f611a87856127f1565b9250925050838265ffffffffffff161115611ab457611aaf611aa885612849565b869061287b565b611ab6565b805b6001600160d01b031695945050505050565b6008546040805165ffffffffffff928316815291831660208301527fc565b045403dc03c2eea82b81a0465edad9e2e7fc4d97e11421c209da93d7a93910160405180910390a16008805465ffffffffffff191665ffffffffffff92909216919091179055565b80515f906034811015611b45576001915050610a63565b60131981840101516001600160b01b03198116692370726f706f7365723d60b01b14611b7657600192505050610a63565b5f80611b8686602a86038661291d565b91509150811580610e1a5750866001600160a01b0316816001600160a01b031614979650505050505050565b5f611bc686868686805190602001206112ba565b905084518651141580611bdb57508351865114155b80611be557508551155b15611c1a57855184518651604051630447b05d60e41b8152600481019390935260248301919091526044820152606401610e05565b5f81815260046020526040902054600160a01b900465ffffffffffff1615611c635780611c4682610db5565b6040516331b75e4d60e01b8152610e059291905f90600401613fa3565b5f611c6c610da3565b611c746111f3565b65ffffffffffff16611c869190614044565b90505f611ca060085463ffffffff600160301b9091041690565b5f84815260046020526040902080546001600160a01b0319166001600160a01b038716178155909150611cd283612849565b815465ffffffffffff91909116600160a01b0265ffffffffffff60a01b19909116178155611cff826129c6565b815463ffffffff91909116600160d01b0263ffffffff60d01b1990911617815588517f7d84a6263ae0d98d3329bd7b46bb4e8d6f98cd35a7adb45c274c8b7fd5ebd5e090859087908c908c906001600160401b03811115611d6257611d62613428565b604051908082528060200260200182016040528015611d9557816020015b6060815260200190600190039081611d805790505b508c89611da28a82614044565b8e604051611db899989796959493929190614057565b60405180910390a150505095945050505050565b60606109f87f00000000000000000000000000000000000000000000000000000000000000005f6129f6565b60606109f87f000000000000000000000000000000000000000000000000000000000000000060016129f6565b5f6111ea836119977ff2aad550cf55f045cb27e9c559f9889fdfb6e6cdaa032301d6ea397784ae51d7888888611e778a6001600160a01b03165f90815260026020526040902080546001810190915590565b60408051602081019690965285019390935260ff90911660608401526001600160a01b0316608083015260a082015260c00161197c565b5f6109f843612849565b5f7f0000000000000000000000000000000000000000000000000000000000000000604051630748d63560e31b81526001600160a01b038681166004830152602482018690529190911690633a46b1a890604401602060405180830381865afa158015611f27573d5f803e3d5ffd5b505050506040513d601f19601f820116820180604052508101906112869190613f8c565b80545f908015611f8757611f7183611f6460018461412c565b5f91825260209091200190565b54600160301b90046001600160d01b0316611289565b5f9392505050565b600b54604080516001600160a01b03928316815291831660208301527f08f74ea46ef7894f65eabfb5e6e695de773a000b47c529ab559178069b226401910160405180910390a1600b80546001600160a01b0319166001600160a01b0392909216919091179055565b60608261200d5761200882612a9f565b610a63565b5080610a63565b8063ffffffff165f0361203c5760405163f1cfbf0560e01b81525f6004820152602401610e05565b6008546040805163ffffffff600160301b9093048316815291831660208301527f7e3f7f0708a84de9203036abaa450dccc85ad5ff52f78c170f3edb55cf5e8828910160405180910390a16008805463ffffffff909216600160301b0269ffffffff00000000000019909216919091179055565b60075460408051918252602082018390527fccb45da8d5717e6c4544694297c4ba5cf151d455c9bb0ed4fc7a38411bc05461910160405180910390a1600755565b5f805f6120fe8686612ac7565b91509150815f03612122578381816121185761211861413f565b0492505050611289565b8184116121395761213960038515026011186123f0565b5f848688095f868103871696879004966002600389028118808a02820302808a02820302808a02820302808a02820302808a02820302808a02909103029181900381900460010185841190960395909502919093039390930492909217029150509392505050565b80545f906001600160801b0380821691600160801b90041681036121c9576121c960316123f0565b6001600160801b038181165f908152600185810160205260408220805492905585546fffffffffffffffffffffffffffffffff19169301909116919091179092555090565b5f6001600160d01b03821115612241576040516306dfcc6560e41b815260d0600482015260248101839052604401610e05565b5090565b5f80612252858585612ae3565b915091505b935093915050565b5f80600b5f9054906101000a90046001600160a01b03166001600160a01b031663f27a0c926040518163ffffffff1660e01b8152600401602060405180830381865afa1580156122b1573d5f803e3d5ffd5b505050506040513d601f19601f820116820180604052508101906122d59190613f8c565b90505f3060601b6bffffffffffffffffffffffff19168418600b5460405163b1c5f42760e01b81529192506001600160a01b03169063b1c5f42790612326908a908a908a905f908890600401614153565b602060405180830381865afa158015612341573d5f803e3d5ffd5b505050506040513d601f19601f820116820180604052508101906123659190613f8c565b5f898152600c602052604080822092909255600b5491516308f2a0bb60e41b81526001600160a01b0390921691638f2a0bb0916123af918b918b918b919088908a906004016141a0565b5f604051808303815f87803b1580156123c6575f80fd5b505af11580156123d8573d5f803e3d5ffd5b50505050610fe282426123eb9190614044565b612849565b634e487b715f52806020526024601cfd5b600b546001600160a01b031663e38335e5348686865f3060601b6bffffffffffffffffffffffff191688186040518763ffffffff1660e01b815260040161244c959493929190614153565b5f604051808303818588803b158015612463575f80fd5b505af1158015612475573d5f803e3d5ffd5b5050505f9687525050600c602052505060408320929092555050565b5f818152600460205260408120805460ff600160f01b8204811691600160f81b90041681156124c557506007949350505050565b80156124d657506002949350505050565b5f6124e086610d83565b9050805f0361250557604051636ad0607560e01b815260048101879052602401610e05565b5f61250e6111f3565b65ffffffffffff16905080821061252b57505f9695505050505050565b5f6125358861131c565b905081811061254c57506001979650505050505050565b61255588612c33565b158061257457505f888152600960205260409020805460019091015411155b1561258757506003979650505050505050565b5f8881526004602052604090206001015465ffffffffffff165f036125b457506004979650505050505050565b506005979650505050505050565b5f806125d086868686612c69565b5f818152600c60205260409020549091508015610c1157600b5460405163c4d252f560e01b8152600481018390526001600160a01b039091169063c4d252f5906024015f604051808303815f87803b15801561262a575f80fd5b505af115801561263c573d5f803e3d5ffd5b5050505f838152600c602052604081205550509050949350505050565b5f610a63612665612d18565b8360405161190160f01b8152600281019290925260228201526042902090565b5f836001600160a01b03163b5f036126e3575f806126a38585612e41565b5090925090505f8160038111156126bc576126bc613743565b1480156126da5750856001600160a01b0316826001600160a01b0316145b92505050611289565b6126ee848484612e8a565b9050611289565b5f8581526009602090815260408083206001600160a01b03881684526003810190925282205460ff1615612747576040516371c6af4960e01b81526001600160a01b0387166004820152602401610e05565b6001600160a01b0386165f9081526003820160205260409020805460ff1916600117905560ff85166127905783815f015f8282546127859190614044565b909155506127e69050565b5f1960ff8616016127ae5783816001015f8282546127859190614044565b60011960ff8616016127cd5783816002015f8282546127859190614044565b6040516303599be160e11b815260040160405180910390fd5b509195945050505050565b80545f908190819080820361280f575f805f93509350935050610f03565b5f61281f86611f6460018561412c565b546001955065ffffffffffff81169450600160301b90046001600160d01b03169250610f03915050565b5f65ffffffffffff821115612241576040516306dfcc6560e41b81526030600482015260248101839052604401610e05565b81545f90818160058111156128d7575f61289484612f60565b61289e908561412c565b5f8881526020902090915081015465ffffffffffff90811690871610156128c7578091506128d5565b6128d2816001614044565b92505b505b5f6128e4878785856130b8565b90508015612911576128fb87611f6460018461412c565b54600160301b90046001600160d01b0316610e1a565b505f9695505050505050565b5f80845183118061292d57508284115b1561293c57505f905080612257565b5f612948856001614044565b84118015612970575061060f60f31b6129648787016020015190565b6001600160f01b031916145b90505f61298082151560026141f7565b61298b906028614044565b905080612998878761412c565b036129b9575f806129aa898989613117565b90965094506122579350505050565b5f80935093505050612257565b5f63ffffffff821115612241576040516306dfcc6560e41b81526020600482015260248101839052604401610e05565b606060ff8314612a1057612a09836131d8565b9050610a63565b818054612a1c90613d6f565b80601f0160208091040260200160405190810160405280929190818152602001828054612a4890613d6f565b8015612a935780601f10612a6a57610100808354040283529160200191612a93565b820191905f5260205f20905b815481529060010190602001808311612a7657829003601f168201915b50505050509050610a63565b805115612aae57805160208201fd5b60405163d6bda27560e01b815260040160405180910390fd5b5f805f1983850993909202808410938190039390930393915050565b82545f9081908015612bd9575f612aff87611f6460018561412c565b805490915065ffffffffffff80821691600160301b90046001600160d01b0316908816821115612b4257604051632520601d60e01b815260040160405180910390fd5b8765ffffffffffff168265ffffffffffff1603612b7b57825465ffffffffffff16600160301b6001600160d01b03891602178355612bcb565b6040805180820190915265ffffffffffff808a1682526001600160d01b03808a1660208085019182528d54600181018f555f8f81529190912094519151909216600160301b029216919091179101555b945085935061225792505050565b50506040805180820190915265ffffffffffff80851682526001600160d01b0380851660208085019182528854600181018a555f8a815291822095519251909316600160301b029190931617920191909155905081612257565b5f81815260096020526040812060028101546001820154612c549190614044565b612c606109ae85610d83565b11159392505050565b5f80612c77868686866112ba565b9050612cc581612c876007611642565b612c916006611642565b612c9b6002611642565b6001612ca860078261420e565b612cb3906002614307565b612cbd919061412c565b181818611664565b505f818152600460205260409081902080546001600160f81b0316600160f81b179055517f789cf55be980739dad1d0699b93b58e806b51c9d96619bfa8fe0a28abaa7b30c90610d729083815260200190565b5f306001600160a01b037f000000000000000000000000000000000000000000000000000000000000000016148015612d7057507f000000000000000000000000000000000000000000000000000000000000000046145b15612d9a57507f000000000000000000000000000000000000000000000000000000000000000090565b6109f8604080517f8b73c3c69bb8fe3d512ecc4cf759cc79239f7b179b0ffacaa9a75d522b39400f60208201527f0000000000000000000000000000000000000000000000000000000000000000918101919091527f000000000000000000000000000000000000000000000000000000000000000060608201524660808201523060a08201525f9060c00160405160208183030381529060405280519060200120905090565b5f805f8351604103612e78576020840151604085015160608601515f1a612e6a88828585613215565b955095509550505050612e83565b505081515f91506002905b9250925092565b5f805f856001600160a01b03168585604051602401612eaa929190614315565b60408051601f198184030181529181526020820180516001600160e01b0316630b135d3f60e11b17905251612edf919061432d565b5f60405180830381855afa9150503d805f8114612f17576040519150601f19603f3d011682016040523d82523d5f602084013e612f1c565b606091505b5091509150818015612f3057506020815110155b801561109957508051630b135d3f60e11b90612f559083016020908101908401613f8c565b149695505050505050565b5f60018211612f6d575090565b816001600160801b8210612f865760809190911c9060401b5b680100000000000000008210612fa15760409190911c9060201b5b6401000000008210612fb85760209190911c9060101b5b620100008210612fcd5760109190911c9060081b5b6101008210612fe15760089190911c9060041b5b60108210612ff45760049190911c9060021b5b600482106130005760011b5b600302600190811c908185816130185761301861413f565b048201901c905060018185816130305761303061413f565b048201901c905060018185816130485761304861413f565b048201901c905060018185816130605761306061413f565b048201901c905060018185816130785761307861413f565b048201901c905060018185816130905761309061413f565b048201901c90506130af8185816130a9576130a961413f565b04821190565b90039392505050565b5f5b8183101561310f575f6130cd84846132dd565b5f8781526020902090915065ffffffffffff86169082015465ffffffffffff1611156130fb57809250613109565b613106816001614044565b93505b506130ba565b509392505050565b5f808481613126866001614044565b8511801561314e575061060f60f31b6131428388016020015190565b6001600160f01b031916145b90505f61315e82151560026141f7565b90505f8061316c838a614044565b90505b878110156131c7575f61318d6131888784016020015190565b6132f7565b9050600f8160ff1611156131ac575f8097509750505050505050612257565b6131b76010846141f7565b60ff90911601915060010161316f565b506001999098509650505050505050565b60605f6131e48361336f565b6040805160208082528183019092529192505f91906020820181803683375050509182525060208101929092525090565b5f80807f7fffffffffffffffffffffffffffffff5d576e7357a4501ddfe92f46681b20a084111561324e57505f915060039050826132d3565b604080515f808252602082018084528a905260ff891692820192909252606081018790526080810186905260019060a0016020604051602081039080840390855afa15801561329f573d5f803e3d5ffd5b5050604051601f1901519150506001600160a01b0381166132ca57505f9250600191508290506132d3565b92505f91508190505b9450945094915050565b5f6132eb6002848418614343565b61128990848416614044565b5f60f882901c602f811180156133105750603a8160ff16105b1561331e57602f1901610a63565b60608160ff16118015613334575060678160ff16105b156133425760561901610a63565b60408160ff16118015613358575060478160ff16105b156133665760361901610a63565b5060ff92915050565b5f60ff8216601f811115610a6357604051632cd44ac360e21b815260040160405180910390fd5b5f602082840312156133a6575f80fd5b81356001600160e01b031981168114611289575f80fd5b5f602082840312156133cd575f80fd5b5035919050565b5f81518084528060208401602086015e5f602082860101526020601f19601f83011685010191505092915050565b602081525f61128960208301846133d4565b6001600160a01b0381168114610a7a575f80fd5b634e487b7160e01b5f52604160045260245ffd5b604051601f8201601f191681016001600160401b038111828210171561346457613464613428565b604052919050565b5f6001600160401b0382111561348457613484613428565b50601f01601f191660200190565b5f6134a461349f8461346c565b61343c565b90508281528383830111156134b7575f80fd5b828260208301375f602084830101529392505050565b5f82601f8301126134dc575f80fd5b61128983833560208501613492565b5f805f80608085870312156134fe575f80fd5b843561350981613414565b9350602085013561351981613414565b92506040850135915060608501356001600160401b0381111561353a575f80fd5b613546878288016134cd565b91505092959194509250565b5f6001600160401b0382111561356a5761356a613428565b5060051b60200190565b5f82601f830112613583575f80fd5b8135602061359361349f83613552565b8083825260208201915060208460051b8701019350868411156135b4575f80fd5b602086015b848110156135d95780356135cc81613414565b83529183019183016135b9565b509695505050505050565b5f82601f8301126135f3575f80fd5b8135602061360361349f83613552565b8083825260208201915060208460051b870101935086841115613624575f80fd5b602086015b848110156135d95780358352918301918301613629565b5f82601f83011261364f575f80fd5b8135602061365f61349f83613552565b82815260059290921b8401810191818101908684111561367d575f80fd5b8286015b848110156135d95780356001600160401b0381111561369e575f80fd5b6136ac8986838b01016134cd565b845250918301918301613681565b5f805f80608085870312156136cd575f80fd5b84356001600160401b03808211156136e3575f80fd5b6136ef88838901613574565b95506020870135915080821115613704575f80fd5b613710888389016135e4565b94506040870135915080821115613725575f80fd5b5061373287828801613640565b949793965093946060013593505050565b634e487b7160e01b5f52602160045260245ffd5b6008811061377357634e487b7160e01b5f52602160045260245ffd5b9052565b60208101610a638284613757565b5f8060408385031215613796575f80fd5b8235915060208301356137a881613414565b809150509250929050565b803560ff81168114610ee0575f80fd5b5f80604083850312156137d4575f80fd5b823591506137e4602084016137b3565b90509250929050565b5f8083601f8401126137fd575f80fd5b5081356001600160401b03811115613813575f80fd5b60208301915083602082850101111561382a575f80fd5b9250929050565b5f805f805f805f60c0888a031215613847575f80fd5b87359650613857602089016137b3565b9550604088013561386781613414565b945060608801356001600160401b0380821115613882575f80fd5b61388e8b838c016137ed565b909650945060808a01359150808211156138a6575f80fd5b6138b28b838c016134cd565b935060a08a01359150808211156138c7575f80fd5b506138d48a828b016134cd565b91505092959891949750929550565b5f805f805f608086880312156138f7575f80fd5b85359450613907602087016137b3565b935060408601356001600160401b0380821115613922575f80fd5b61392e89838a016137ed565b90955093506060880135915080821115613946575f80fd5b50613953888289016134cd565b9150509295509295909350565b65ffffffffffff81168114610a7a575f80fd5b5f60208284031215613983575f80fd5b813561128981613960565b5f805f80606085870312156139a1575f80fd5b843593506139b1602086016137b3565b925060408501356001600160401b038111156139cb575f80fd5b6139d7878288016137ed565b95989497509550505050565b5f805f80608085870312156139f6575f80fd5b84356001600160401b0380821115613a0c575f80fd5b613a1888838901613574565b95506020870135915080821115613a2d575f80fd5b613a39888389016135e4565b94506040870135915080821115613a4e575f80fd5b613a5a88838901613640565b93506060870135915080821115613a6f575f80fd5b508501601f81018713613a80575f80fd5b61354687823560208401613492565b5f60208284031215613a9f575f80fd5b813561128981613414565b5f815180845260208085019450602084015f5b83811015613ad957815187529582019590820190600101613abd565b509495945050505050565b60ff60f81b8816815260e060208201525f613b0260e08301896133d4565b8281036040840152613b1481896133d4565b606084018890526001600160a01b038716608085015260a0840186905283810360c08501529050613b458185613aaa565b9a9950505050505050505050565b5f805f8060808587031215613b66575f80fd5b84359350613b76602086016137b3565b92506040850135613b8681613414565b915060608501356001600160401b0381111561353a575f80fd5b5f805f60608486031215613bb2575f80fd5b8335613bbd81613414565b92506020840135915060408401356001600160401b03811115613bde575f80fd5b613bea868287016134cd565b9150509250925092565b5f805f805f60a08688031215613c08575f80fd5b8535613c1381613414565b94506020860135613c2381613414565b935060408601356001600160401b0380821115613c3e575f80fd5b613c4a89838a016135e4565b94506060880135915080821115613c5f575f80fd5b613c6b89838a016135e4565b93506080880135915080821115613946575f80fd5b5f805f8060608587031215613c93575f80fd5b8435613c9e81613414565b93506020850135925060408501356001600160401b038111156139cb575f80fd5b5f60208284031215613ccf575f80fd5b813563ffffffff81168114611289575f80fd5b5f8060408385031215613cf3575f80fd5b8235613cfe81613414565b946020939093013593505050565b5f805f805f60a08688031215613d20575f80fd5b8535613d2b81613414565b94506020860135613d3b81613414565b9350604086013592506060860135915060808601356001600160401b03811115613d63575f80fd5b613953888289016134cd565b600181811c90821680613d8357607f821691505b602082108103613da157634e487b7160e01b5f52602260045260245ffd5b50919050565b634e487b7160e01b5f52603260045260245ffd5b5f60208284031215613dcb575f80fd5b81516001600160401b03811115613de0575f80fd5b8201601f81018413613df0575f80fd5b8051613dfe61349f8261346c565b818152856020838501011115613e12575f80fd5b8160208401602083015e5f91810160200191909152949350505050565b634e487b7160e01b5f52601160045260245ffd5b65ffffffffffff828116828216039080821115613e6257613e62613e2f565b5092915050565b5f60208284031215613e79575f80fd5b815161128981613960565b65ffffffffffff818116838216019080821115613e6257613e62613e2f565b818382375f9101908152919050565b5f815180845260208085019450602084015f5b83811015613ad95781516001600160a01b031687529582019590820190600101613ec5565b5f8282518085526020808601955060208260051b840101602086015f5b84811015613f3557601f19868403018952613f238383516133d4565b98840198925090830190600101613f07565b5090979650505050505050565b608081525f613f546080830187613eb2565b8281036020840152613f668187613aaa565b90508281036040840152613f7a8186613eea565b91505082606083015295945050505050565b5f60208284031215613f9c575f80fd5b5051919050565b83815260608101613fb76020830185613757565b826040830152949350505050565b5f60208284031215613fd5575f80fd5b81518015158114611289575f80fd5b84815260ff84166020820152826040820152608060608201525f61109960808301846133d4565b85815260ff8516602082015283604082015260a060608201525f61403260a08301856133d4565b8281036080840152610fe281856133d4565b80820180821115610a6357610a63613e2f565b5f6101208b8352602060018060a01b038c168185015281604085015261407f8285018c613eb2565b91508382036060850152614093828b613aaa565b915083820360808501528189518084528284019150828160051b850101838c015f5b838110156140e357601f198784030185526140d18383516133d4565b948601949250908501906001016140b5565b505086810360a08801526140f7818c613eea565b9450505050508560c08401528460e084015282810361010084015261411c81856133d4565b9c9b505050505050505050505050565b81810381811115610a6357610a63613e2f565b634e487b7160e01b5f52601260045260245ffd5b60a081525f61416560a0830188613eb2565b82810360208401526141778188613aaa565b9050828103604084015261418b8187613eea565b60608401959095525050608001529392505050565b60c081525f6141b260c0830189613eb2565b82810360208401526141c48189613aaa565b905082810360408401526141d88188613eea565b60608401969096525050608081019290925260a0909101529392505050565b8082028115828204841417610a6357610a63613e2f565b60ff8181168382160190811115610a6357610a63613e2f565b600181815b8085111561426157815f190482111561424757614247613e2f565b8085161561425457918102915b93841c939080029061422c565b509250929050565b5f8261427757506001610a63565b8161428357505f610a63565b816001811461429957600281146142a3576142bf565b6001915050610a63565b60ff8411156142b4576142b4613e2f565b50506001821b610a63565b5060208310610133831016604e8410600b84101617156142e2575081810a610a63565b6142ec8383614227565b805f19048211156142ff576142ff613e2f565b029392505050565b5f61128960ff841683614269565b828152604060208201525f61128660408301846133d4565b5f82518060208501845e5f920191825250919050565b5f8261435d57634e487b7160e01b5f52601260045260245ffd5b50049056fea264697066735822122066f2c097cae3e6bdabe0629fd7fb9be1cd761a96d8b44114cba1996e34d600d164736f6c63430008190033",
  "immutableReferences": {
    "4650": [
      {
        "length": 32,
        "start": 2497
      },
      {
        "length": 32,
        "start": 3625
      },
      {
        "length": 32,
        "start": 4598
      },
      {
        "length": 32,
        "start": 5307
      },
      {
        "length": 32,
        "start": 7867
      }
    ],
    "9849": [
      {
        "length": 32,
        "start": 11640
      }
    ],
    "9851": [
      {
        "length": 32,
        "start": 11598
      }
    ],
    "9853": [
      {
        "length": 32,
        "start": 11556
      }
    ],
    "9855": [
      {
        "length": 32,
        "start": 11721
      }
    ],
    "9857": [
      {
        "length": 32,
        "start": 11761
      }
    ],
    "9860": [
      {
        "length": 32,
        "start": 7635
      }
    ],
    "9863": [
      {
        "length": 32,
        "start": 7679
      }
    ]
  },
  "source": "// SPDX-License-Identifier: MIT\npragma solidity ^0.8.25;\nimport \"./FractionTokenLite.sol\";\nimport { IVotes } from \"@openzeppelin/contracts/governance/utils/IVotes.sol\";\nimport { Nonces } from \"@openzeppelin/contracts/utils/Nonces.sol\";\nimport { AccessControl } from \"@openzeppelin/contracts/access/AccessControl.sol\";\nimport { Pausable } from \"@openzeppelin/contracts/utils/Pausable.sol\";\nimport { ReentrancyGuard } from \"@openzeppelin/contracts/utils/ReentrancyGuard.sol\";\nimport { SafeCast } from \"@openzeppelin/contracts/utils/math/SafeCast.sol\";\nimport { Math } from \"@openzeppelin/contracts/utils/math/Math.sol\";\n\nimport { ERC20 } from \"@openzeppelin/contracts/token/ERC20/ERC20.sol\";\nimport { ERC20Permit } from \"@openzeppelin/contracts/token/ERC20/extensions/ERC20Permit.sol\";\nimport { ERC20Votes } from \"@openzeppelin/contracts/token/ERC20/extensions/ERC20Votes.sol\";\n\nimport { TimelockController } from \"@openzeppelin/contracts/governance/TimelockController.sol\";\nimport { Governor } from \"@openzeppelin/contracts/governance/Governor.sol\";\nimport { GovernorSettings } from \"@openzeppelin/contracts/governance/extensions/GovernorSettings.sol\";\nimport { GovernorCountingSimple } from \"@openzeppelin/contracts/governance/extensions/GovernorCountingSimple.sol\";\nimport { GovernorVotes } from \"@openzeppelin/contracts/governance/extensions/GovernorVotes.sol\";\nimport { GovernorVotesQuorumFraction } from \"@openzeppelin/contracts/governance/extensions/GovernorVotesQuorumFraction.sol\";\nimport { GovernorTimelockControl } from \"@openzeppelin/contracts/governance/extensions/GovernorTimelockControl.sol\";\n\ninterface IFractionTokenLite {\n  function setDistributor(address distributor) external;\n  function setWhitelist(address account, bool allowed) external;\n\n  function DEFAULT_ADMIN_ROLE() external view returns (bytes32);\n  function PAUSER_ROLE() external view returns (bytes32);\n  function WHITELIST_ADMIN_ROLE() external view returns (bytes32);\n\n  function grantRole(bytes32 role, address account) external;\n  function revokeRole(bytes32 role, address account) external;\n}\n\n\n\ninterface IRentDistributorHook {\n  function onTokenTransfer(address from, address to, uint256 amount) external;\n}\n\ninterface IRentAccounting {\n  function totalDividendsAccrued() external view returns (uint256);\n  function totalDividendsClaimed() external view returns (uint256);\n}\n\ninterface IRentAccountingFull is IRentAccounting {\n  function pendingUndistributed() external view returns (uint256);\n}\n\n/*//////////////////////////////////////////////////////////////\n                        FRACTION TOKEN\n//////////////////////////////////////////////////////////////*/\ncontract FractionToken is ERC20, ERC20Permit, ERC20Votes, AccessControl, Pausable {\n  bytes32 public constant PAUSER_ROLE = keccak256(\"PAUSER_ROLE\");\n  bytes32 public constant WHITELIST_ADMIN_ROLE = keccak256(\"WHITELIST_ADMIN_ROLE\");\n\n  bool public transfersRestricted;\n  mapping(address => bool) public isWhitelisted;\n\n  address public distributor;\n\n  error DistributorAlreadySet();\n  error TransfersRestricted();\n  error ZeroAddress();\n\n  event DistributorSet(address indexed distributor);\n  event TransfersRestrictionSet(bool restricted);\n  event WhitelistSet(address indexed account, bool allowed);\n\n  constructor(\n    string memory name_,\n    string memory symbol_,\n    address admin_,\n    address initialHolder_,\n    uint256 initialSupply_\n  ) ERC20(name_, symbol_) ERC20Permit(name_) {\n    if (admin_ == address(0) || initialHolder_ == address(0)) revert ZeroAddress();\n\n    _grantRole(DEFAULT_ADMIN_ROLE, admin_);\n    _grantRole(PAUSER_ROLE, admin_);\n    _grantRole(WHITELIST_ADMIN_ROLE, admin_);\n\n    transfersRestricted = false;\n\n    isWhitelisted[admin_] = true;\n    isWhitelisted[initialHolder_] = true;\n\n    _mint(initialHolder_, initialSupply_);\n  }\n\n  function pause() external onlyRole(PAUSER_ROLE) { _pause(); }\n  function unpause() external onlyRole(PAUSER_ROLE) { _unpause(); }\n\n  function setTransfersRestricted(bool restricted) external onlyRole(WHITELIST_ADMIN_ROLE) {\n    transfersRestricted = restricted;\n    emit TransfersRestrictionSet(restricted);\n  }\n\n  function setWhitelist(address account, bool allowed) external onlyRole(WHITELIST_ADMIN_ROLE) {\n    if (account == address(0)) revert ZeroAddress();\n    isWhitelisted[account] = allowed;\n    emit WhitelistSet(account, allowed);\n  }\n\n  function setDistributor(address distributor_) external onlyRole(DEFAULT_ADMIN_ROLE) {\n    if (distributor_ == address(0)) revert ZeroAddress();\n    if (distributor != address(0)) revert DistributorAlreadySet();\n    distributor = distributor_;\n    emit DistributorSet(distributor_);\n  }\n\n  function _update(address from, address to, uint256 value)\n    internal\n    override(ERC20, ERC20Votes)\n    whenNotPaused\n  {\n    if (transfersRestricted) {\n      if (from == address(0)) {\n        if (!isWhitelisted[to]) revert TransfersRestricted();\n      } else if (to == address(0)) {\n        if (!isWhitelisted[from]) revert TransfersRestricted();\n      } else {\n        if (!isWhitelisted[from] || !isWhitelisted[to]) revert TransfersRestricted();\n      }\n    }\n\n    super._update(from, to, value);\n\n    if (distributor != address(0)) {\n      IRentDistributorHook(distributor).onTokenTransfer(from, to, value);\n    }\n  }\n\n  function nonces(address owner)\n    public\n    view\n    override(ERC20Permit, Nonces)\n    returns (uint256)\n  {\n    return super.nonces(owner);\n  }\n}\n\n/*//////////////////////////////////////////////////////////////\n                          PROPERTY VAULT (ETH)\n//////////////////////////////////////////////////////////////*/\ncontract PropertyVault is AccessControl, Pausable, ReentrancyGuard {\n  bytes32 public constant PROPERTY_MANAGER_ROLE = keccak256(\"PROPERTY_MANAGER_ROLE\");\n  bytes32 public constant GOVERNANCE_ROLE = keccak256(\"GOVERNANCE_ROLE\");\n\n  address public distributor;\n  uint16 public reserveBps;\n\n  error DistributorAlreadySet();\n  error ZeroAddress();\n  error InvalidBps();\n  error InsufficientUnencumberedBalance();\n  error EthTransferFailed();\n\n  event DistributorSet(address indexed distributor);\n  event ReserveBpsSet(uint16 bps);\n  event IncomeDeposited(address indexed from, uint256 amount, uint256 reserved, uint256 distributed);\n  event GovernancePayment(address indexed to, uint256 amount, string memo);\n  event DividendPaid(address indexed to, uint256 amount);\n\n  constructor(address admin_, address propertyManager_) {\n    if (admin_ == address(0) || propertyManager_ == address(0)) revert ZeroAddress();\n\n    _grantRole(DEFAULT_ADMIN_ROLE, admin_);\n    _grantRole(PROPERTY_MANAGER_ROLE, propertyManager_);\n    _grantRole(GOVERNANCE_ROLE, admin_);\n\n    reserveBps = 0;\n  }\n\n  function pause() external onlyRole(DEFAULT_ADMIN_ROLE) { _pause(); }\n  function unpause() external onlyRole(DEFAULT_ADMIN_ROLE) { _unpause(); }\n\n  function setDistributor(address distributor_) external onlyRole(DEFAULT_ADMIN_ROLE) {\n    if (distributor_ == address(0)) revert ZeroAddress();\n    if (distributor != address(0)) revert DistributorAlreadySet();\n    distributor = distributor_;\n    emit DistributorSet(distributor_);\n  }\n\n  function setReserveBps(uint16 bps) external onlyRole(GOVERNANCE_ROLE) {\n    if (bps > 10_000) revert InvalidBps();\n    reserveBps = bps;\n    emit ReserveBpsSet(bps);\n  }\n\n  function depositIncome() external payable onlyRole(PROPERTY_MANAGER_ROLE) whenNotPaused nonReentrant {\n    require(distributor != address(0), \"Distributor not set\");\n    uint256 amount = msg.value;\n    require(amount > 0, \"amount=0\");\n\n    uint256 reserved = Math.mulDiv(amount, reserveBps, 10_000);\n    uint256 distributed = amount - reserved;\n    RentDistributor(distributor).notifyRent(distributed);\n\n    emit IncomeDeposited(msg.sender, amount, reserved, distributed);\n  }\n\n  function payDividend(address payable to, uint256 amount) external whenNotPaused nonReentrant {\n    require(msg.sender == distributor, \"only distributor\");\n    if (amount == 0) return;\n\n    (bool ok, ) = to.call{value: amount}(\"\");\n    if (!ok) revert EthTransferFailed();\n\n    emit DividendPaid(to, amount);\n  }\n\n  function executeGovernancePayment(address payable to, uint256 amount, string calldata memo)\n    external\n    onlyRole(GOVERNANCE_ROLE)\n    whenNotPaused\n    nonReentrant\n  {\n    if (to == address(0)) revert ZeroAddress();\n    require(distributor != address(0), \"Distributor not set\");\n    require(amount > 0, \"amount=0\");\n\n    uint256 balance = address(this).balance;\n\n    uint256 accrued = IRentAccounting(distributor).totalDividendsAccrued();\n    uint256 claimed = IRentAccounting(distributor).totalDividendsClaimed();\n    uint256 pending = IRentAccountingFull(distributor).pendingUndistributed();\n    uint256 owed = (accrued + pending) - claimed;\n\n    if (balance < owed) revert InsufficientUnencumberedBalance();\n    uint256 available = balance - owed;\n\n    if (amount > available) revert InsufficientUnencumberedBalance();\n\n    (bool ok, ) = to.call{value: amount}(\"\");\n    if (!ok) revert EthTransferFailed();\n\n    emit GovernancePayment(to, amount, memo);\n  }\n}\n\n/*//////////////////////////////////////////////////////////////\n                        RENT DISTRIBUTOR (ETH)\n//////////////////////////////////////////////////////////////*/\ncontract RentDistributor is IRentDistributorHook, IRentAccounting, ReentrancyGuard {\n  using SafeCast for int256;\n  uint256 private constant MAGNIFICATION = 2 ** 128;\n\n  FractionToken public immutable sharesToken;\n  PropertyVault public immutable vault;\n\n  uint256 public magnifiedDividendPerShare;\n  mapping(address => int256) public magnifiedDividendCorrections;\n  mapping(address => uint256) public withdrawnDividends;\n\n  uint256 public pendingUndistributed;\n  uint256 public override totalDividendsAccrued;\n  uint256 public override totalDividendsClaimed;\n\n  error OnlyVault();\n  error OnlySharesToken();\n\n  event RentNotified(uint256 amountDistributed, uint256 newMagnifiedDividendPerShare);\n  event DividendClaimed(address indexed account, uint256 amount);\n\n  constructor(address sharesToken_, address vault_) {\n    require(sharesToken_ != address(0) && vault_ != address(0), \"zero\");\n    sharesToken = FractionToken(sharesToken_);\n    vault = PropertyVault(vault_);\n  }\n\n  modifier onlyVault() {\n    if (msg.sender != address(vault)) revert OnlyVault();\n    _;\n  }\n\n  modifier onlySharesToken() {\n    if (msg.sender != address(sharesToken)) revert OnlySharesToken();\n    _;\n  }\n\n  function notifyRent(uint256 amount) external onlyVault {\n    if (amount == 0) return;\n\n    uint256 supply = sharesToken.totalSupply();\n    if (supply == 0) {\n      pendingUndistributed += amount;\n      return;\n    }\n\n    uint256 distributable = amount + pendingUndistributed;\n    pendingUndistributed = 0;\n\n    magnifiedDividendPerShare += (distributable * MAGNIFICATION) / supply;\n    totalDividendsAccrued += distributable;\n\n    emit RentNotified(distributable, magnifiedDividendPerShare);\n  }\n\n  function onTokenTransfer(address from, address to, uint256 amount) external onlySharesToken {\n    if (amount == 0) return;\n    int256 magCorrection = SafeCast.toInt256(magnifiedDividendPerShare * amount);\n\n    if (from == address(0)) {\n      magnifiedDividendCorrections[to] -= magCorrection;\n    } else if (to == address(0)) {\n      magnifiedDividendCorrections[from] += magCorrection;\n    } else {\n      magnifiedDividendCorrections[from] += magCorrection;\n      magnifiedDividendCorrections[to] -= magCorrection;\n    }\n  }\n\n  function withdrawableDividendOf(address account) public view returns (uint256) {\n    uint256 accumulative = accumulativeDividendOf(account);\n    uint256 alreadyWithdrawn = withdrawnDividends[account];\n    if (accumulative <= alreadyWithdrawn) return 0;\n    return accumulative - alreadyWithdrawn;\n  }\n\n  function accumulativeDividendOf(address account) public view returns (uint256) {\n    uint256 bal = sharesToken.balanceOf(account);\n    int256 magnified = SafeCast.toInt256(magnifiedDividendPerShare * bal);\n    int256 corrected = magnified + magnifiedDividendCorrections[account];\n\n    if (corrected <= 0) return 0;\n    return uint256(corrected) / MAGNIFICATION;\n  }\n\n  function claim() external nonReentrant {\n    uint256 withdrawable = withdrawableDividendOf(msg.sender);\n    if (withdrawable == 0) return;\n\n    withdrawnDividends[msg.sender] += withdrawable;\n    totalDividendsClaimed += withdrawable;\n\n    vault.payDividend(payable(msg.sender), withdrawable);\n\n    emit DividendClaimed(msg.sender, withdrawable);\n  }\n}\n\n/*//////////////////////////////////////////////////////////////\n                      PROPERTY GOVERNOR\n//////////////////////////////////////////////////////////////*/\ncontract PropertyGovernor is\n  Governor,\n  GovernorSettings,\n  GovernorCountingSimple,\n  GovernorVotes,\n  GovernorVotesQuorumFraction,\n  GovernorTimelockControl\n{\n  constructor(\n    IVotes token_,\n    TimelockController timelock_,\n    uint48 votingDelayBlocks_,\n    uint32 votingPeriodBlocks_,\n    uint256 proposalThresholdTokens_,\n    uint256 quorumPercent_\n  )\n    Governor(\"PropertyGovernor\")\n    GovernorSettings(votingDelayBlocks_, votingPeriodBlocks_, proposalThresholdTokens_)\n    GovernorVotes(token_)\n    GovernorVotesQuorumFraction(quorumPercent_)\n    GovernorTimelockControl(timelock_)\n  {}\n\n  function votingDelay() public view override(Governor, GovernorSettings) returns (uint256) {\n    return super.votingDelay();\n  }\n\n  function votingPeriod() public view override(Governor, GovernorSettings) returns (uint256) {\n    return super.votingPeriod();\n  }\n\n  function proposalThreshold() public view override(Governor, GovernorSettings) returns (uint256) {\n    return super.proposalThreshold();\n  }\n\n  function state(uint256 proposalId)\n    public\n    view\n    override(Governor, GovernorTimelockControl)\n    returns (ProposalState)\n  {\n    return super.state(proposalId);\n  }\n\n  function proposalNeedsQueuing(uint256 proposalId)\n    public\n    view\n    override(Governor, GovernorTimelockControl)\n    returns (bool)\n  {\n    return super.proposalNeedsQueuing(proposalId);\n  }\n\n  function _queueOperations(\n    uint256 proposalId,\n    address[] memory targets,\n    uint256[] memory values,\n    bytes[] memory calldatas,\n    bytes32 descriptionHash\n  )\n    internal\n    override(Governor, GovernorTimelockControl)\n    returns (uint48)\n  {\n    return super._queueOperations(proposalId, targets, values, calldatas, descriptionHash);\n  }\n\n  function _executeOperations(\n    uint256 proposalId,\n    address[] memory targets,\n    uint256[] memory values,\n    bytes[] memory calldatas,\n    bytes32 descriptionHash\n  )\n    internal\n    override(Governor, GovernorTimelockControl)\n  {\n    super._executeOperations(proposalId, targets, values, calldatas, descriptionHash);\n  }\n\n  function _cancel(\n    address[] memory targets,\n    uint256[] memory values,\n    bytes[] memory calldatas,\n    bytes32 descriptionHash\n  )\n    internal\n    override(Governor, GovernorTimelockControl)\n    returns (uint256)\n  {\n    return super._cancel(targets, values, calldatas, descriptionHash);\n  }\n\n  function _executor()\n    internal\n    view\n    override(Governor, GovernorTimelockControl)\n    returns (address)\n  {\n    return super._executor();\n  }\n}\n\n/*//////////////////////////////////////////////////////////////\n                       REAL ESTATE DAO (Factory)\n//////////////////////////////////////////////////////////////*/\ncontract RealEstateDAO {\n  struct CreatePropertyArgs {\n    string name;\n    string symbol;\n    address admin;\n    address initialHolder;\n    uint256 initialSupply;\n    address propertyManager;\n    uint16 reserveBps;\n    uint256 timelockDelaySeconds;\n    uint48 votingDelayBlocks;\n    uint32 votingPeriodBlocks;\n    uint256 proposalThresholdTokens;\n    uint256 quorumPercent;\n  }\n\n  struct CreatePropertyLiteArgs {\n    string name;\n    string symbol;\n    address admin;\n    address initialHolder;\n    uint256 initialSupply;\n    address propertyManager;\n    uint16 reserveBps;\n  }\n\n\n  event PropertyCreated(\n    address indexed token,\n    address indexed vault,\n    address indexed distributor,\n    address timelock,\n    address governor\n  );\n\n  //  :        \n  function _emptyAddressArray() internal pure returns (address[] memory) {\n    return new address[](0); // Correct: array of size 0\n  }\n\n  function _anyoneExecutors() internal pure returns (address[] memory arr) {\n    arr = new address[](1); // Correct: array of size 1\n    arr[0] = address(0);\n  }\n\n  function createProperty(CreatePropertyArgs calldata a)\n    external\n    returns (address token, address vault, address distributor, address timelock, address governor)\n  {\n    return _createProperty(a);\n  }\n\n\n  function _createProperty(CreatePropertyArgs memory a)\n    internal\n    returns (address token, address vault, address distributor, address timelock, address governor)\n  {\n    require(\n      a.admin != address(0) &&\n      a.initialHolder != address(0) &&\n      a.propertyManager != address(0),\n      \"zero\"\n    );\n\n    FractionToken t = new FractionToken(a.name, a.symbol, address(this), a.initialHolder, a.initialSupply);\n    PropertyVault v = new PropertyVault(address(this), a.propertyManager);\n    RentDistributor d = new RentDistributor(address(t), address(v));\n\n    t.setDistributor(address(d));\n    v.setDistributor(address(d));\n\n    t.setWhitelist(a.admin, true);\n    v.setReserveBps(a.reserveBps);\n\n    TimelockController tl = new TimelockController(\n      a.timelockDelaySeconds,\n      _emptyAddressArray(),\n      _anyoneExecutors(),\n      address(this)\n    );\n\n    PropertyGovernor g = new PropertyGovernor(\n      IVotes(address(t)),\n      tl,\n      a.votingDelayBlocks,\n      a.votingPeriodBlocks,\n      a.proposalThresholdTokens,\n      a.quorumPercent\n    );\n\n    tl.grantRole(tl.PROPOSER_ROLE(), address(g));\n    tl.grantRole(tl.CANCELLER_ROLE(), a.admin);\n\n    tl.grantRole(tl.DEFAULT_ADMIN_ROLE(), a.admin);\n    tl.revokeRole(tl.DEFAULT_ADMIN_ROLE(), address(this));\n\n    v.grantRole(v.GOVERNANCE_ROLE(), address(tl));\n    v.revokeRole(v.GOVERNANCE_ROLE(), address(this));\n\n    t.grantRole(t.DEFAULT_ADMIN_ROLE(), a.admin);\n    t.grantRole(t.PAUSER_ROLE(), a.admin);\n    t.grantRole(t.WHITELIST_ADMIN_ROLE(), a.admin);\n\n    t.revokeRole(t.PAUSER_ROLE(), address(this));\n    t.revokeRole(t.WHITELIST_ADMIN_ROLE(), address(this));\n    t.revokeRole(t.DEFAULT_ADMIN_ROLE(), address(this));\n\n    v.grantRole(v.DEFAULT_ADMIN_ROLE(), a.admin);\n    v.revokeRole(v.DEFAULT_ADMIN_ROLE(), address(this));\n\n    emit PropertyCreated(address(t), address(v), address(d), address(tl), address(g));\n\n    return (address(t), address(v), address(d), address(tl), address(g));\n  }\n\n  function createPropertyLite(CreatePropertyLiteArgs calldata a)\n    external\n    returns (address token, address vault, address distributor)\n  {\n    return _createPropertyLite(a);\n  }\n\n\n  function _createPropertyLite(CreatePropertyLiteArgs memory a)\n    internal\n    returns (address token, address vault, address distributor)\n  {\n    require(\n      a.admin != address(0) &&\n      a.initialHolder != address(0) &&\n      a.propertyManager != address(0),\n      \"zero\"\n    );\n\n    FractionToken t = new FractionToken(a.name, a.symbol, address(this), a.initialHolder, a.initialSupply);\n    PropertyVault v = new PropertyVault(address(this), a.propertyManager);\n    RentDistributor d = new RentDistributor(address(t), address(v));\n\n    t.setDistributor(address(d));\n    v.setDistributor(address(d));\n\n    t.setWhitelist(a.admin, true);\n    v.setReserveBps(a.reserveBps);\n\n    // Governance handled by admin directly (no timelock/governor)\n    v.grantRole(v.GOVERNANCE_ROLE(), a.admin);\n    v.revokeRole(v.GOVERNANCE_ROLE(), address(this));\n\n    t.grantRole(t.DEFAULT_ADMIN_ROLE(), a.admin);\n    t.grantRole(t.PAUSER_ROLE(), a.admin);\n    t.grantRole(t.WHITELIST_ADMIN_ROLE(), a.admin);\n\n    t.revokeRole(t.PAUSER_ROLE(), address(this));\n    t.revokeRole(t.WHITELIST_ADMIN_ROLE(), address(this));\n    t.revokeRole(t.DEFAULT_ADMIN_ROLE(), address(this));\n\n    v.grantRole(v.DEFAULT_ADMIN_ROLE(), a.admin);\n    v.revokeRole(v.DEFAULT_ADMIN_ROLE(), address(this));\n\n    emit PropertyCreated(address(t), address(v), address(d), address(0), address(0));\n\n    return (address(t), address(v), address(d));\n  }\n\n\n  /// @notice Finalize a \"lite\" property after deploying the child contracts (token/vault/distributor)\n  ///         with `admin_ = address(this)` (the DAO) so the DAO can wire roles and settings.\n  /// @dev This avoids deploying 3 contracts inside one tx, which can hit gas / initcode limits on dev chains.\n  function finalizePropertyLite(\n    address token,\n    address vault,\n    address distributor,\n    address admin,\n    uint16 reserveBps\n  ) external returns (address tokenOut, address vaultOut, address distributorOut) {\n    require(msg.sender == admin, \"only admin\");\n    require(token != address(0) && vault != address(0) && distributor != address(0) && admin != address(0), \"zero addr\");\n\n    IFractionTokenLite t = IFractionTokenLite(token);\n    PropertyVault v = PropertyVault(vault);\n\n    // Wire distributor\n    t.setDistributor(distributor);\n    v.setDistributor(distributor);\n\n    // Allow admin to receive/transfer even when transfers are restricted\n    t.setWhitelist(admin, true);\n\n    // Reserve / governance\n    v.setReserveBps(reserveBps);\n\n    // Hand over vault governance to the admin\n    v.grantRole(v.GOVERNANCE_ROLE(), admin);\n    v.revokeRole(v.GOVERNANCE_ROLE(), address(this));\n\n    // Hand over token admin roles to the admin\n    t.grantRole(t.DEFAULT_ADMIN_ROLE(), admin);\n    t.grantRole(t.PAUSER_ROLE(), admin);\n    t.grantRole(t.WHITELIST_ADMIN_ROLE(), admin);\n\n    // Optional: drop DAO roles on the token\n    t.revokeRole(t.PAUSER_ROLE(), address(this));\n    t.revokeRole(t.WHITELIST_ADMIN_ROLE(), address(this));\n    t.revokeRole(t.DEFAULT_ADMIN_ROLE(), address(this));\n\n    emit PropertyCreated(token, vault, distributor, address(0), address(0));\n    return (token, vault, distributor);\n  }\n\n\n}",
  "sourcePath": "C:\\Users\\moham\\Desktop\\course\\15-BlockChain\\brix\\brix-truffle-frontend-web\\brix\\contracts\\RealEstateDAO.fixed2.sol",
  "compiler": {
    "name": "solc",
    "version": "0.8.25+commit.b61c2a91.Emscripten.clang"
  },
  "schemaVersion": "3.4.16",
  "updatedAt": "2025-12-18T07:42:45.043Z",
  "devdoc": {
    "errors": {
      "CheckpointUnorderedInsertion()": [
        {
          "details": "A value was attempted to be inserted on a past checkpoint."
        }
      ],
      "FailedCall()": [
        {
          "details": "A call to an address target failed. The target may have reverted."
        }
      ],
      "GovernorAlreadyCastVote(address)": [
        {
          "details": "The vote was already cast."
        }
      ],
      "GovernorAlreadyQueuedProposal(uint256)": [
        {
          "details": "The proposal has already been queued."
        }
      ],
      "GovernorDisabledDeposit()": [
        {
          "details": "Token deposits are disabled in this contract."
        }
      ],
      "GovernorInsufficientProposerVotes(address,uint256,uint256)": [
        {
          "details": "The `proposer` does not have the required votes to create a proposal."
        }
      ],
      "GovernorInvalidProposalLength(uint256,uint256,uint256)": [
        {
          "details": "Empty proposal or a mismatch between the parameters length for a proposal call."
        }
      ],
      "GovernorInvalidQuorumFraction(uint256,uint256)": [
        {
          "details": "The quorum set is not a valid fraction."
        }
      ],
      "GovernorInvalidSignature(address)": [
        {
          "details": "The provided signature is not valid for the expected `voter`. If the `voter` is a contract, the signature is not valid using {IERC1271-isValidSignature}."
        }
      ],
      "GovernorInvalidVoteParams()": [
        {
          "details": "The provided params buffer is not supported by the counting module."
        }
      ],
      "GovernorInvalidVoteType()": [
        {
          "details": "The vote type used is not valid for the corresponding counting module."
        }
      ],
      "GovernorInvalidVotingPeriod(uint256)": [
        {
          "details": "The voting period set is not a valid period."
        }
      ],
      "GovernorNonexistentProposal(uint256)": [
        {
          "details": "The `proposalId` doesn't exist."
        }
      ],
      "GovernorNotQueuedProposal(uint256)": [
        {
          "details": "The proposal hasn't been queued yet."
        }
      ],
      "GovernorOnlyExecutor(address)": [
        {
          "details": "The `account` is not the governance executor."
        }
      ],
      "GovernorQueueNotImplemented()": [
        {
          "details": "Queue operation is not implemented for this governor. Execute should be called directly."
        }
      ],
      "GovernorRestrictedProposer(address)": [
        {
          "details": "The `proposer` is not allowed to create a proposal."
        }
      ],
      "GovernorUnableToCancel(uint256,address)": [
        {
          "details": "The given `account` is unable to cancel the proposal with given `proposalId`."
        }
      ],
      "GovernorUnexpectedProposalState(uint256,uint8,bytes32)": [
        {
          "details": "The current state of a proposal is not the required for performing an operation. The `expectedStates` is a bitmap with the bits enabled for each ProposalState enum position counting from right to left. NOTE: If `expectedState` is `bytes32(0)`, the proposal is expected to not be in any state (i.e. not exist). This is the case when a proposal that is expected to be unset is already initiated (the proposal is duplicated). See {Governor-_encodeStateBitmap}."
        }
      ],
      "InvalidAccountNonce(address,uint256)": [
        {
          "details": "The nonce used for an `account` is not the expected current nonce."
        }
      ],
      "SafeCastOverflowedUintDowncast(uint8,uint256)": [
        {
          "details": "Value doesn't fit in an uint of `bits` size."
        }
      ]
    },
    "events": {
      "EIP712DomainChanged()": {
        "details": "MAY be emitted to signal that the domain could have changed."
      },
      "ProposalCanceled(uint256)": {
        "details": "Emitted when a proposal is canceled."
      },
      "ProposalCreated(uint256,address,address[],uint256[],string[],bytes[],uint256,uint256,string)": {
        "details": "Emitted when a proposal is created."
      },
      "ProposalExecuted(uint256)": {
        "details": "Emitted when a proposal is executed."
      },
      "ProposalQueued(uint256,uint256)": {
        "details": "Emitted when a proposal is queued."
      },
      "TimelockChange(address,address)": {
        "details": "Emitted when the timelock controller used for proposal execution is modified."
      },
      "VoteCast(address,uint256,uint8,uint256,string)": {
        "details": "Emitted when a vote is cast without params. Note: `support` values should be seen as buckets. Their interpretation depends on the voting module used."
      },
      "VoteCastWithParams(address,uint256,uint8,uint256,string,bytes)": {
        "details": "Emitted when a vote is cast with params. Note: `support` values should be seen as buckets. Their interpretation depends on the voting module used. `params` are additional encoded parameters. Their interpretation  also depends on the voting module used."
      }
    },
    "kind": "dev",
    "methods": {
      "CLOCK_MODE()": {
        "details": "Machine-readable description of the clock as specified in ERC-6372."
      },
      "COUNTING_MODE()": {
        "details": "A description of the possible `support` values for {castVote} and the way these votes are counted, meant to be consumed by UIs to show correct vote options and interpret the results. The string is a URL-encoded sequence of key-value pairs that each describe one aspect, for example `support=bravo&quorum=for,abstain`. There are 2 standard keys: `support` and `quorum`. - `support=bravo` refers to the vote options 0 = Against, 1 = For, 2 = Abstain, as in `GovernorBravo`. - `quorum=bravo` means that only For votes are counted towards quorum. - `quorum=for,abstain` means that both For and Abstain votes are counted towards quorum. If a counting module makes use of encoded `params`, it should  include this under a `params` key with a unique name that describes the behavior. For example: - `params=fractional` might refer to a scheme where votes are divided fractionally between for/against/abstain. - `params=erc721` might refer to a scheme where specific NFTs are delegated to vote. NOTE: The string can be decoded by the standard https://developer.mozilla.org/en-US/docs/Web/API/URLSearchParams[`URLSearchParams`] JavaScript class."
      },
      "cancel(address[],uint256[],bytes[],bytes32)": {
        "details": "Cancel a proposal. A proposal is cancellable by the proposer, but only while it is Pending state, i.e. before the vote starts. Emits a {ProposalCanceled} event."
      },
      "castVote(uint256,uint8)": {
        "details": "Cast a vote Emits a {VoteCast} event."
      },
      "castVoteBySig(uint256,uint8,address,bytes)": {
        "details": "Cast a vote using the voter's signature, including ERC-1271 signature support. Emits a {VoteCast} event."
      },
      "castVoteWithReason(uint256,uint8,string)": {
        "details": "Cast a vote with a reason Emits a {VoteCast} event."
      },
      "castVoteWithReasonAndParams(uint256,uint8,string,bytes)": {
        "details": "Cast a vote with a reason and additional encoded parameters Emits a {VoteCast} or {VoteCastWithParams} event depending on the length of params."
      },
      "castVoteWithReasonAndParamsBySig(uint256,uint8,address,string,bytes,bytes)": {
        "details": "Cast a vote with a reason and additional encoded parameters using the voter's signature, including ERC-1271 signature support. Emits a {VoteCast} or {VoteCastWithParams} event depending on the length of params."
      },
      "clock()": {
        "details": "Clock (as specified in ERC-6372) is set to match the token's clock. Fallback to block numbers if the token does not implement ERC-6372."
      },
      "eip712Domain()": {
        "details": "returns the fields and values that describe the domain separator used by this contract for EIP-712 signature."
      },
      "execute(address[],uint256[],bytes[],bytes32)": {
        "details": "Execute a successful proposal. This requires the quorum to be reached, the vote to be successful, and the deadline to be reached. Depending on the governor it might also be required that the proposal was queued and that some delay passed. Emits a {ProposalExecuted} event. NOTE: Some modules can modify the requirements for execution, for example by adding an additional timelock."
      },
      "getProposalId(address[],uint256[],bytes[],bytes32)": {
        "details": "Function used to get the proposal id from the proposal details."
      },
      "getVotes(address,uint256)": {
        "details": "Voting power of an `account` at a specific `timepoint`. Note: this can be implemented in a number of ways, for example by reading the delegated balance from one (or multiple), {ERC20Votes} tokens."
      },
      "getVotesWithParams(address,uint256,bytes)": {
        "details": "Voting power of an `account` at a specific `timepoint` given additional encoded parameters."
      },
      "hasVoted(uint256,address)": {
        "details": "Returns whether `account` has cast a vote on `proposalId`."
      },
      "hashProposal(address[],uint256[],bytes[],bytes32)": {
        "details": "See {IGovernor-hashProposal}. The proposal id is produced by hashing the ABI encoded `targets` array, the `values` array, the `calldatas` array and the descriptionHash (bytes32 which itself is the keccak256 hash of the description string). This proposal id can be produced from the proposal data which is part of the {ProposalCreated} event. It can even be computed in advance, before the proposal is submitted. Note that the chainId and the governor address are not part of the proposal id computation. Consequently, the same proposal (with same operation and same description) will have the same id if submitted on multiple governors across multiple networks. This also means that in order to execute the same operation twice (on the same governor) the proposer will have to change the description in order to avoid proposal id conflicts."
      },
      "name()": {
        "details": "Name of the governor instance (used in building the EIP-712 domain separator)."
      },
      "nonces(address)": {
        "details": "Returns the next unused nonce for an address."
      },
      "onERC1155BatchReceived(address,address,uint256[],uint256[],bytes)": {
        "details": "See {IERC1155Receiver-onERC1155BatchReceived}. Receiving tokens is disabled if the governance executor is other than the governor itself (eg. when using with a timelock)."
      },
      "onERC1155Received(address,address,uint256,uint256,bytes)": {
        "details": "See {IERC1155Receiver-onERC1155Received}. Receiving tokens is disabled if the governance executor is other than the governor itself (eg. when using with a timelock)."
      },
      "onERC721Received(address,address,uint256,bytes)": {
        "details": "See {IERC721Receiver-onERC721Received}. Receiving tokens is disabled if the governance executor is other than the governor itself (eg. when using with a timelock)."
      },
      "proposalDeadline(uint256)": {
        "details": "Timepoint at which votes close. If using block number, votes close at the end of this block, so it is possible to cast a vote during this block."
      },
      "proposalEta(uint256)": {
        "details": "The time when a queued proposal becomes executable (\"ETA\"). Unlike {proposalSnapshot} and {proposalDeadline}, this doesn't use the governor clock, and instead relies on the executor's clock which may be different. In most cases this will be a timestamp."
      },
      "proposalProposer(uint256)": {
        "details": "The account that created a proposal."
      },
      "proposalSnapshot(uint256)": {
        "details": "Timepoint used to retrieve user's votes and quorum. If using block number (as per Compound's Comp), the snapshot is performed at the end of this block. Hence, voting for this proposal starts at the beginning of the following block."
      },
      "proposalVotes(uint256)": {
        "details": "Accessor to the internal vote counts."
      },
      "propose(address[],uint256[],bytes[],string)": {
        "details": "See {IGovernor-propose}. This function has opt-in frontrunning protection, described in {_isValidDescriptionForProposer}."
      },
      "queue(address[],uint256[],bytes[],bytes32)": {
        "details": "Queue a proposal. Some governors require this step to be performed before execution can happen. If queuing is not necessary, this function may revert. Queuing a proposal requires the quorum to be reached, the vote to be successful, and the deadline to be reached. Emits a {ProposalQueued} event."
      },
      "quorum(uint256)": {
        "details": "Returns the quorum for a timepoint, in terms of number of votes: `supply * numerator / denominator`."
      },
      "quorumDenominator()": {
        "details": "Returns the quorum denominator. Defaults to 100, but may be overridden."
      },
      "quorumNumerator()": {
        "details": "Returns the current quorum numerator. See {quorumDenominator}."
      },
      "quorumNumerator(uint256)": {
        "details": "Returns the quorum numerator at a specific timepoint. See {quorumDenominator}."
      },
      "relay(address,uint256,bytes)": {
        "details": "Relays a transaction or function call to an arbitrary target. In cases where the governance executor is some contract other than the governor itself, like when using a timelock, this function can be invoked in a governance proposal to recover tokens or Ether that was sent to the governor contract by mistake. Note that if the executor is simply the governor itself, use of `relay` is redundant."
      },
      "setProposalThreshold(uint256)": {
        "details": "Update the proposal threshold. This operation can only be performed through a governance proposal. Emits a {ProposalThresholdSet} event."
      },
      "setVotingDelay(uint48)": {
        "details": "Update the voting delay. This operation can only be performed through a governance proposal. Emits a {VotingDelaySet} event."
      },
      "setVotingPeriod(uint32)": {
        "details": "Update the voting period. This operation can only be performed through a governance proposal. Emits a {VotingPeriodSet} event."
      },
      "supportsInterface(bytes4)": {
        "details": "Returns true if this contract implements the interface defined by `interfaceId`. See the corresponding https://eips.ethereum.org/EIPS/eip-165#how-interfaces-are-identified[ERC section] to learn more about how these ids are created. This function call must use less than 30 000 gas."
      },
      "timelock()": {
        "details": "Public accessor to check the address of the timelock"
      },
      "token()": {
        "details": "The token that voting power is sourced from."
      },
      "updateQuorumNumerator(uint256)": {
        "details": "Changes the quorum numerator. Emits a {QuorumNumeratorUpdated} event. Requirements: - Must be called through a governance proposal. - New numerator must be smaller or equal to the denominator."
      },
      "updateTimelock(address)": {
        "details": "Public endpoint to update the underlying timelock instance. Restricted to the timelock itself, so updates must be proposed, scheduled, and executed through governance proposals. CAUTION: It is not recommended to change the timelock while there are other queued governance proposals."
      },
      "version()": {
        "details": "Version of the governor instance (used in building the EIP-712 domain separator). Default: \"1\""
      }
    },
    "version": 1
  },
  "userdoc": {
    "kind": "user",
    "methods": {
      "COUNTING_MODE()": {
        "notice": "module:voting"
      },
      "getProposalId(address[],uint256[],bytes[],bytes32)": {
        "notice": "module:core"
      },
      "getVotes(address,uint256)": {
        "notice": "module:reputation"
      },
      "getVotesWithParams(address,uint256,bytes)": {
        "notice": "module:reputation"
      },
      "hasVoted(uint256,address)": {
        "notice": "module:voting"
      },
      "name()": {
        "notice": "module:core"
      },
      "proposalDeadline(uint256)": {
        "notice": "module:core"
      },
      "proposalEta(uint256)": {
        "notice": "module:core"
      },
      "proposalProposer(uint256)": {
        "notice": "module:core"
      },
      "proposalSnapshot(uint256)": {
        "notice": "module:core"
      },
      "version()": {
        "notice": "module:core"
      }
    },
    "version": 1
  }
}