{
  "contractName": "RealEstateDAO",
  "abi": [
    {
      "anonymous": false,
      "inputs": [
        {
          "indexed": true,
          "internalType": "address",
          "name": "token",
          "type": "address"
        },
        {
          "indexed": true,
          "internalType": "address",
          "name": "vault",
          "type": "address"
        },
        {
          "indexed": true,
          "internalType": "address",
          "name": "distributor",
          "type": "address"
        },
        {
          "indexed": false,
          "internalType": "address",
          "name": "timelock",
          "type": "address"
        },
        {
          "indexed": false,
          "internalType": "address",
          "name": "governor",
          "type": "address"
        }
      ],
      "name": "PropertyCreated",
      "type": "event"
    },
    {
      "inputs": [
        {
          "components": [
            {
              "internalType": "string",
              "name": "name",
              "type": "string"
            },
            {
              "internalType": "string",
              "name": "symbol",
              "type": "string"
            },
            {
              "internalType": "address",
              "name": "admin",
              "type": "address"
            },
            {
              "internalType": "address",
              "name": "initialHolder",
              "type": "address"
            },
            {
              "internalType": "uint256",
              "name": "initialSupply",
              "type": "uint256"
            },
            {
              "internalType": "address",
              "name": "propertyManager",
              "type": "address"
            },
            {
              "internalType": "uint16",
              "name": "reserveBps",
              "type": "uint16"
            },
            {
              "internalType": "uint256",
              "name": "timelockDelaySeconds",
              "type": "uint256"
            },
            {
              "internalType": "uint48",
              "name": "votingDelayBlocks",
              "type": "uint48"
            },
            {
              "internalType": "uint32",
              "name": "votingPeriodBlocks",
              "type": "uint32"
            },
            {
              "internalType": "uint256",
              "name": "proposalThresholdTokens",
              "type": "uint256"
            },
            {
              "internalType": "uint256",
              "name": "quorumPercent",
              "type": "uint256"
            }
          ],
          "internalType": "struct RealEstateDAO.CreatePropertyArgs",
          "name": "a",
          "type": "tuple"
        }
      ],
      "name": "createProperty",
      "outputs": [
        {
          "internalType": "address",
          "name": "token",
          "type": "address"
        },
        {
          "internalType": "address",
          "name": "vault",
          "type": "address"
        },
        {
          "internalType": "address",
          "name": "distributor",
          "type": "address"
        },
        {
          "internalType": "address",
          "name": "timelock",
          "type": "address"
        },
        {
          "internalType": "address",
          "name": "governor",
          "type": "address"
        }
      ],
      "stateMutability": "nonpayable",
      "type": "function"
    },
    {
      "inputs": [
        {
          "components": [
            {
              "internalType": "string",
              "name": "name",
              "type": "string"
            },
            {
              "internalType": "string",
              "name": "symbol",
              "type": "string"
            },
            {
              "internalType": "address",
              "name": "admin",
              "type": "address"
            },
            {
              "internalType": "address",
              "name": "initialHolder",
              "type": "address"
            },
            {
              "internalType": "uint256",
              "name": "initialSupply",
              "type": "uint256"
            },
            {
              "internalType": "address",
              "name": "propertyManager",
              "type": "address"
            },
            {
              "internalType": "uint16",
              "name": "reserveBps",
              "type": "uint16"
            }
          ],
          "internalType": "struct RealEstateDAO.CreatePropertyLiteArgs",
          "name": "a",
          "type": "tuple"
        }
      ],
      "name": "createPropertyLite",
      "outputs": [
        {
          "internalType": "address",
          "name": "token",
          "type": "address"
        },
        {
          "internalType": "address",
          "name": "vault",
          "type": "address"
        },
        {
          "internalType": "address",
          "name": "distributor",
          "type": "address"
        }
      ],
      "stateMutability": "nonpayable",
      "type": "function"
    },
    {
      "inputs": [
        {
          "internalType": "address",
          "name": "token",
          "type": "address"
        },
        {
          "internalType": "address",
          "name": "vault",
          "type": "address"
        },
        {
          "internalType": "address",
          "name": "distributor",
          "type": "address"
        },
        {
          "internalType": "address",
          "name": "admin",
          "type": "address"
        },
        {
          "internalType": "uint16",
          "name": "reserveBps",
          "type": "uint16"
        }
      ],
      "name": "finalizePropertyLite",
      "outputs": [
        {
          "internalType": "address",
          "name": "tokenOut",
          "type": "address"
        },
        {
          "internalType": "address",
          "name": "vaultOut",
          "type": "address"
        },
        {
          "internalType": "address",
          "name": "distributorOut",
          "type": "address"
        }
      ],
      "stateMutability": "nonpayable",
      "type": "function"
    }
  ],
  "bytecode": "0x6080604052348015600e575f80fd5b5061e5ec8061001c5f395ff3fe608060405234801561000f575f80fd5b506004361061003f575f3560e01c80634e177527146100435780639de2d4d714610085578063f041e88a146100d2575b5f80fd5b6100566100513660046122db565b6100e5565b604080516001600160a01b03948516815292841660208401529216918101919091526060015b60405180910390f35b610098610093366004612319565b610106565b604080516001600160a01b03968716815294861660208601529285169284019290925283166060830152909116608082015260a00161007c565b6100566100e036600461237d565b61012e565b5f80806100f96100f4856124c8565b61098b565b9250925092509193909250565b5f8080808061011c610117876125a7565b6113ff565b939a9299509097509550909350915050565b5f8080336001600160a01b0386161461017b5760405162461bcd60e51b815260206004820152600a60248201526937b7363c9030b236b4b760b11b60448201526064015b60405180910390fd5b6001600160a01b0388161580159061019b57506001600160a01b03871615155b80156101af57506001600160a01b03861615155b80156101c357506001600160a01b03851615155b6101fb5760405162461bcd60e51b81526020600482015260096024820152683d32b9379030b2323960b91b6044820152606401610172565b6040516375619ab560e01b81526001600160a01b038781166004830152899189918316906375619ab5906024015f604051808303815f87803b15801561023f575f80fd5b505af1158015610251573d5f803e3d5ffd5b50506040516375619ab560e01b81526001600160a01b038b81166004830152841692506375619ab591506024015f604051808303815f87803b158015610295575f80fd5b505af11580156102a7573d5f803e3d5ffd5b50506040516353d6fd5960e01b81526001600160a01b038a8116600483015260016024830152851692506353d6fd5991506044015f604051808303815f87803b1580156102f2575f80fd5b505af1158015610304573d5f803e3d5ffd5b5050604051638873980560e01b815261ffff891660048201526001600160a01b0384169250638873980591506024015f604051808303815f87803b15801561034a575f80fd5b505af115801561035c573d5f803e3d5ffd5b50505050806001600160a01b0316632f2ff15d826001600160a01b031663f36c8f5c6040518163ffffffff1660e01b8152600401602060405180830381865afa1580156103ab573d5f803e3d5ffd5b505050506040513d601f19601f820116820180604052508101906103cf91906126a4565b896040518363ffffffff1660e01b81526004016103ed9291906126bb565b5f604051808303815f87803b158015610404575f80fd5b505af1158015610416573d5f803e3d5ffd5b50505050806001600160a01b031663d547741f826001600160a01b031663f36c8f5c6040518163ffffffff1660e01b8152600401602060405180830381865afa158015610465573d5f803e3d5ffd5b505050506040513d601f19601f8201168201806040525081019061048991906126a4565b306040518363ffffffff1660e01b81526004016104a79291906126bb565b5f604051808303815f87803b1580156104be575f80fd5b505af11580156104d0573d5f803e3d5ffd5b50505050816001600160a01b0316632f2ff15d836001600160a01b031663a217fddf6040518163ffffffff1660e01b8152600401602060405180830381865afa15801561051f573d5f803e3d5ffd5b505050506040513d601f19601f8201168201806040525081019061054391906126a4565b896040518363ffffffff1660e01b81526004016105619291906126bb565b5f604051808303815f87803b158015610578575f80fd5b505af115801561058a573d5f803e3d5ffd5b50505050816001600160a01b0316632f2ff15d836001600160a01b031663e63ab1e96040518163ffffffff1660e01b8152600401602060405180830381865afa1580156105d9573d5f803e3d5ffd5b505050506040513d601f19601f820116820180604052508101906105fd91906126a4565b896040518363ffffffff1660e01b815260040161061b9291906126bb565b5f604051808303815f87803b158015610632575f80fd5b505af1158015610644573d5f803e3d5ffd5b50505050816001600160a01b0316632f2ff15d836001600160a01b03166354202c4e6040518163ffffffff1660e01b8152600401602060405180830381865afa158015610693573d5f803e3d5ffd5b505050506040513d601f19601f820116820180604052508101906106b791906126a4565b896040518363ffffffff1660e01b81526004016106d59291906126bb565b5f604051808303815f87803b1580156106ec575f80fd5b505af11580156106fe573d5f803e3d5ffd5b50505050816001600160a01b031663d547741f836001600160a01b031663e63ab1e96040518163ffffffff1660e01b8152600401602060405180830381865afa15801561074d573d5f803e3d5ffd5b505050506040513d601f19601f8201168201806040525081019061077191906126a4565b306040518363ffffffff1660e01b815260040161078f9291906126bb565b5f604051808303815f87803b1580156107a6575f80fd5b505af11580156107b8573d5f803e3d5ffd5b50505050816001600160a01b031663d547741f836001600160a01b03166354202c4e6040518163ffffffff1660e01b8152600401602060405180830381865afa158015610807573d5f803e3d5ffd5b505050506040513d601f19601f8201168201806040525081019061082b91906126a4565b306040518363ffffffff1660e01b81526004016108499291906126bb565b5f604051808303815f87803b158015610860575f80fd5b505af1158015610872573d5f803e3d5ffd5b50505050816001600160a01b031663d547741f836001600160a01b031663a217fddf6040518163ffffffff1660e01b8152600401602060405180830381865afa1580156108c1573d5f803e3d5ffd5b505050506040513d601f19601f820116820180604052508101906108e591906126a4565b306040518363ffffffff1660e01b81526004016109039291906126bb565b5f604051808303815f87803b15801561091a575f80fd5b505af115801561092c573d5f803e3d5ffd5b5050604080515f80825260208201526001600160a01b03808d1694508d811693508e16917f64d1914b802020abf6e0713b562890e3c18fcdf7693d03cab93f8b3651ab81d9910160405180910390a45097989697509495945050505050565b5f805f806001600160a01b031684604001516001600160a01b0316141580156109c0575060608401516001600160a01b031615155b80156109d8575060a08401516001600160a01b031615155b610a0d5760405162461bcd60e51b8152600401610172906020808252600490820152637a65726f60e01b604082015260600190565b5f845f015185602001513087606001518860800151604051610a2e9061229a565b610a3c959493929190612700565b604051809103905ff080158015610a55573d5f803e3d5ffd5b5090505f308660a00151604051610a6b906122a7565b6001600160a01b03928316815291166020820152604001604051809103905ff080158015610a9b573d5f803e3d5ffd5b5090505f8282604051610aad906122b4565b6001600160a01b03928316815291166020820152604001604051809103905ff080158015610add573d5f803e3d5ffd5b506040516375619ab560e01b81526001600160a01b038083166004830152919250908416906375619ab5906024015f604051808303815f87803b158015610b22575f80fd5b505af1158015610b34573d5f803e3d5ffd5b50506040516375619ab560e01b81526001600160a01b038481166004830152851692506375619ab591506024015f604051808303815f87803b158015610b78575f80fd5b505af1158015610b8a573d5f803e3d5ffd5b5050505060408781015190516353d6fd5960e01b81526001600160a01b03918216600482015260016024820152908416906353d6fd59906044015f604051808303815f87803b158015610bdb575f80fd5b505af1158015610bed573d5f803e3d5ffd5b5050505060c0870151604051638873980560e01b815261ffff90911660048201526001600160a01b038316906388739805906024015f604051808303815f87803b158015610c39575f80fd5b505af1158015610c4b573d5f803e3d5ffd5b50505050816001600160a01b0316632f2ff15d836001600160a01b031663f36c8f5c6040518163ffffffff1660e01b8152600401602060405180830381865afa158015610c9a573d5f803e3d5ffd5b505050506040513d601f19601f82011682018060405250810190610cbe91906126a4565b89604001516040518363ffffffff1660e01b8152600401610ce09291906126bb565b5f604051808303815f87803b158015610cf7575f80fd5b505af1158015610d09573d5f803e3d5ffd5b50505050816001600160a01b031663d547741f836001600160a01b031663f36c8f5c6040518163ffffffff1660e01b8152600401602060405180830381865afa158015610d58573d5f803e3d5ffd5b505050506040513d601f19601f82011682018060405250810190610d7c91906126a4565b306040518363ffffffff1660e01b8152600401610d9a9291906126bb565b5f604051808303815f87803b158015610db1575f80fd5b505af1158015610dc3573d5f803e3d5ffd5b50505050826001600160a01b0316632f2ff15d846001600160a01b031663a217fddf6040518163ffffffff1660e01b8152600401602060405180830381865afa158015610e12573d5f803e3d5ffd5b505050506040513d601f19601f82011682018060405250810190610e3691906126a4565b89604001516040518363ffffffff1660e01b8152600401610e589291906126bb565b5f604051808303815f87803b158015610e6f575f80fd5b505af1158015610e81573d5f803e3d5ffd5b50505050826001600160a01b0316632f2ff15d846001600160a01b031663e63ab1e96040518163ffffffff1660e01b8152600401602060405180830381865afa158015610ed0573d5f803e3d5ffd5b505050506040513d601f19601f82011682018060405250810190610ef491906126a4565b89604001516040518363ffffffff1660e01b8152600401610f169291906126bb565b5f604051808303815f87803b158015610f2d575f80fd5b505af1158015610f3f573d5f803e3d5ffd5b50505050826001600160a01b0316632f2ff15d846001600160a01b03166354202c4e6040518163ffffffff1660e01b8152600401602060405180830381865afa158015610f8e573d5f803e3d5ffd5b505050506040513d601f19601f82011682018060405250810190610fb291906126a4565b89604001516040518363ffffffff1660e01b8152600401610fd49291906126bb565b5f604051808303815f87803b158015610feb575f80fd5b505af1158015610ffd573d5f803e3d5ffd5b50505050826001600160a01b031663d547741f846001600160a01b031663e63ab1e96040518163ffffffff1660e01b8152600401602060405180830381865afa15801561104c573d5f803e3d5ffd5b505050506040513d601f19601f8201168201806040525081019061107091906126a4565b306040518363ffffffff1660e01b815260040161108e9291906126bb565b5f604051808303815f87803b1580156110a5575f80fd5b505af11580156110b7573d5f803e3d5ffd5b50505050826001600160a01b031663d547741f846001600160a01b03166354202c4e6040518163ffffffff1660e01b8152600401602060405180830381865afa158015611106573d5f803e3d5ffd5b505050506040513d601f19601f8201168201806040525081019061112a91906126a4565b306040518363ffffffff1660e01b81526004016111489291906126bb565b5f604051808303815f87803b15801561115f575f80fd5b505af1158015611171573d5f803e3d5ffd5b50505050826001600160a01b031663d547741f846001600160a01b031663a217fddf6040518163ffffffff1660e01b8152600401602060405180830381865afa1580156111c0573d5f803e3d5ffd5b505050506040513d601f19601f820116820180604052508101906111e491906126a4565b306040518363ffffffff1660e01b81526004016112029291906126bb565b5f604051808303815f87803b158015611219575f80fd5b505af115801561122b573d5f803e3d5ffd5b50505050816001600160a01b0316632f2ff15d836001600160a01b031663a217fddf6040518163ffffffff1660e01b8152600401602060405180830381865afa15801561127a573d5f803e3d5ffd5b505050506040513d601f19601f8201168201806040525081019061129e91906126a4565b89604001516040518363ffffffff1660e01b81526004016112c09291906126bb565b5f604051808303815f87803b1580156112d7575f80fd5b505af11580156112e9573d5f803e3d5ffd5b50505050816001600160a01b031663d547741f836001600160a01b031663a217fddf6040518163ffffffff1660e01b8152600401602060405180830381865afa158015611338573d5f803e3d5ffd5b505050506040513d601f19601f8201168201806040525081019061135c91906126a4565b306040518363ffffffff1660e01b815260040161137a9291906126bb565b5f604051808303815f87803b158015611391575f80fd5b505af11580156113a3573d5f803e3d5ffd5b5050604080515f80825260208201526001600160a01b03808616945086811693508716917f64d1914b802020abf6e0713b562890e3c18fcdf7693d03cab93f8b3651ab81d9910160405180910390a49196909550909350915050565b5f805f805f806001600160a01b031686604001516001600160a01b031614158015611436575060608601516001600160a01b031615155b801561144e575060a08601516001600160a01b031615155b6114835760405162461bcd60e51b8152600401610172906020808252600490820152637a65726f60e01b604082015260600190565b5f865f015187602001513089606001518a608001516040516114a49061229a565b6114b2959493929190612700565b604051809103905ff0801580156114cb573d5f803e3d5ffd5b5090505f308860a001516040516114e1906122a7565b6001600160a01b03928316815291166020820152604001604051809103905ff080158015611511573d5f803e3d5ffd5b5090505f8282604051611523906122b4565b6001600160a01b03928316815291166020820152604001604051809103905ff080158015611553573d5f803e3d5ffd5b506040516375619ab560e01b81526001600160a01b038083166004830152919250908416906375619ab5906024015f604051808303815f87803b158015611598575f80fd5b505af11580156115aa573d5f803e3d5ffd5b50506040516375619ab560e01b81526001600160a01b038481166004830152851692506375619ab591506024015f604051808303815f87803b1580156115ee575f80fd5b505af1158015611600573d5f803e3d5ffd5b5050505060408981015190516353d6fd5960e01b81526001600160a01b03918216600482015260016024820152908416906353d6fd59906044015f604051808303815f87803b158015611651575f80fd5b505af1158015611663573d5f803e3d5ffd5b5050505060c0890151604051638873980560e01b815261ffff90911660048201526001600160a01b038316906388739805906024015f604051808303815f87803b1580156116af575f80fd5b505af11580156116c1573d5f803e3d5ffd5b505050505f8960e001516116df604080515f81526020810190915290565b6116e7612242565b306040516116f4906122c1565b611701949392919061278c565b604051809103905ff08015801561171a573d5f803e3d5ffd5b5090505f84828c61010001518d61012001518e61014001518f6101600151604051611744906122ce565b6001600160a01b03968716815295909416602086015265ffffffffffff909216604085015263ffffffff166060840152608083015260a082015260c001604051809103905ff08015801561179a573d5f803e3d5ffd5b509050816001600160a01b0316632f2ff15d836001600160a01b0316638f61f4f56040518163ffffffff1660e01b8152600401602060405180830381865afa1580156117e8573d5f803e3d5ffd5b505050506040513d601f19601f8201168201806040525081019061180c91906126a4565b836040518363ffffffff1660e01b815260040161182a9291906126bb565b5f604051808303815f87803b158015611841575f80fd5b505af1158015611853573d5f803e3d5ffd5b50505050816001600160a01b0316632f2ff15d836001600160a01b031663b08e51c06040518163ffffffff1660e01b8152600401602060405180830381865afa1580156118a2573d5f803e3d5ffd5b505050506040513d601f19601f820116820180604052508101906118c691906126a4565b8d604001516040518363ffffffff1660e01b81526004016118e89291906126bb565b5f604051808303815f87803b1580156118ff575f80fd5b505af1158015611911573d5f803e3d5ffd5b50505050816001600160a01b0316632f2ff15d836001600160a01b031663a217fddf6040518163ffffffff1660e01b8152600401602060405180830381865afa158015611960573d5f803e3d5ffd5b505050506040513d601f19601f8201168201806040525081019061198491906126a4565b8d604001516040518363ffffffff1660e01b81526004016119a69291906126bb565b5f604051808303815f87803b1580156119bd575f80fd5b505af11580156119cf573d5f803e3d5ffd5b50505050816001600160a01b031663d547741f836001600160a01b031663a217fddf6040518163ffffffff1660e01b8152600401602060405180830381865afa158015611a1e573d5f803e3d5ffd5b505050506040513d601f19601f82011682018060405250810190611a4291906126a4565b306040518363ffffffff1660e01b8152600401611a609291906126bb565b5f604051808303815f87803b158015611a77575f80fd5b505af1158015611a89573d5f803e3d5ffd5b50505050836001600160a01b0316632f2ff15d856001600160a01b031663f36c8f5c6040518163ffffffff1660e01b8152600401602060405180830381865afa158015611ad8573d5f803e3d5ffd5b505050506040513d601f19601f82011682018060405250810190611afc91906126a4565b846040518363ffffffff1660e01b8152600401611b1a9291906126bb565b5f604051808303815f87803b158015611b31575f80fd5b505af1158015611b43573d5f803e3d5ffd5b50505050836001600160a01b031663d547741f856001600160a01b031663f36c8f5c6040518163ffffffff1660e01b8152600401602060405180830381865afa158015611b92573d5f803e3d5ffd5b505050506040513d601f19601f82011682018060405250810190611bb691906126a4565b306040518363ffffffff1660e01b8152600401611bd49291906126bb565b5f604051808303815f87803b158015611beb575f80fd5b505af1158015611bfd573d5f803e3d5ffd5b50505050846001600160a01b0316632f2ff15d866001600160a01b031663a217fddf6040518163ffffffff1660e01b8152600401602060405180830381865afa158015611c4c573d5f803e3d5ffd5b505050506040513d601f19601f82011682018060405250810190611c7091906126a4565b8d604001516040518363ffffffff1660e01b8152600401611c929291906126bb565b5f604051808303815f87803b158015611ca9575f80fd5b505af1158015611cbb573d5f803e3d5ffd5b50505050846001600160a01b0316632f2ff15d866001600160a01b031663e63ab1e96040518163ffffffff1660e01b8152600401602060405180830381865afa158015611d0a573d5f803e3d5ffd5b505050506040513d601f19601f82011682018060405250810190611d2e91906126a4565b8d604001516040518363ffffffff1660e01b8152600401611d509291906126bb565b5f604051808303815f87803b158015611d67575f80fd5b505af1158015611d79573d5f803e3d5ffd5b50505050846001600160a01b0316632f2ff15d866001600160a01b03166354202c4e6040518163ffffffff1660e01b8152600401602060405180830381865afa158015611dc8573d5f803e3d5ffd5b505050506040513d601f19601f82011682018060405250810190611dec91906126a4565b8d604001516040518363ffffffff1660e01b8152600401611e0e9291906126bb565b5f604051808303815f87803b158015611e25575f80fd5b505af1158015611e37573d5f803e3d5ffd5b50505050846001600160a01b031663d547741f866001600160a01b031663e63ab1e96040518163ffffffff1660e01b8152600401602060405180830381865afa158015611e86573d5f803e3d5ffd5b505050506040513d601f19601f82011682018060405250810190611eaa91906126a4565b306040518363ffffffff1660e01b8152600401611ec89291906126bb565b5f604051808303815f87803b158015611edf575f80fd5b505af1158015611ef1573d5f803e3d5ffd5b50505050846001600160a01b031663d547741f866001600160a01b03166354202c4e6040518163ffffffff1660e01b8152600401602060405180830381865afa158015611f40573d5f803e3d5ffd5b505050506040513d601f19601f82011682018060405250810190611f6491906126a4565b306040518363ffffffff1660e01b8152600401611f829291906126bb565b5f604051808303815f87803b158015611f99575f80fd5b505af1158015611fab573d5f803e3d5ffd5b50505050846001600160a01b031663d547741f866001600160a01b031663a217fddf6040518163ffffffff1660e01b8152600401602060405180830381865afa158015611ffa573d5f803e3d5ffd5b505050506040513d601f19601f8201168201806040525081019061201e91906126a4565b306040518363ffffffff1660e01b815260040161203c9291906126bb565b5f604051808303815f87803b158015612053575f80fd5b505af1158015612065573d5f803e3d5ffd5b50505050836001600160a01b0316632f2ff15d856001600160a01b031663a217fddf6040518163ffffffff1660e01b8152600401602060405180830381865afa1580156120b4573d5f803e3d5ffd5b505050506040513d601f19601f820116820180604052508101906120d891906126a4565b8d604001516040518363ffffffff1660e01b81526004016120fa9291906126bb565b5f604051808303815f87803b158015612111575f80fd5b505af1158015612123573d5f803e3d5ffd5b50505050836001600160a01b031663d547741f856001600160a01b031663a217fddf6040518163ffffffff1660e01b8152600401602060405180830381865afa158015612172573d5f803e3d5ffd5b505050506040513d601f19601f8201168201806040525081019061219691906126a4565b306040518363ffffffff1660e01b81526004016121b49291906126bb565b5f604051808303815f87803b1580156121cb575f80fd5b505af11580156121dd573d5f803e3d5ffd5b5050604080516001600160a01b0386811682528581166020830152808816945088811693508916917f64d1914b802020abf6e0713b562890e3c18fcdf7693d03cab93f8b3651ab81d9910160405180910390a4939a9299509097509550909350915050565b604080516001808252818301909252606091602080830190803683370190505090505f815f81518110612277576122776127d0565b60200260200101906001600160a01b031690816001600160a01b03168152505090565b613559806127e583390190565b61137480615d3e83390190565b610a50806170b283390190565b611d1580617b0283390190565b614da08061981783390190565b5f602082840312156122eb575f80fd5b813567ffffffffffffffff811115612301575f80fd5b820160e08185031215612312575f80fd5b9392505050565b5f60208284031215612329575f80fd5b813567ffffffffffffffff81111561233f575f80fd5b82016101808185031215612312575f80fd5b80356001600160a01b0381168114612367575f80fd5b919050565b803561ffff81168114612367575f80fd5b5f805f805f60a08688031215612391575f80fd5b61239a86612351565b94506123a860208701612351565b93506123b660408701612351565b92506123c460608701612351565b91506123d26080870161236c565b90509295509295909350565b634e487b7160e01b5f52604160045260245ffd5b60405160e0810167ffffffffffffffff81118282101715612415576124156123de565b60405290565b604051610180810167ffffffffffffffff81118282101715612415576124156123de565b5f82601f83011261244e575f80fd5b813567ffffffffffffffff80821115612469576124696123de565b604051601f8301601f19908116603f01168101908282118183101715612491576124916123de565b816040528381528660208588010111156124a9575f80fd5b836020870160208301375f602085830101528094505050505092915050565b5f60e082360312156124d8575f80fd5b6124e06123f2565b823567ffffffffffffffff808211156124f7575f80fd5b6125033683870161243f565b83526020850135915080821115612518575f80fd5b506125253682860161243f565b60208301525061253760408401612351565b604082015261254860608401612351565b60608201526080830135608082015261256360a08401612351565b60a082015261257460c0840161236c565b60c082015292915050565b803565ffffffffffff81168114612367575f80fd5b803563ffffffff81168114612367575f80fd5b5f61018082360312156125b8575f80fd5b6125c061241b565b823567ffffffffffffffff808211156125d7575f80fd5b6125e33683870161243f565b835260208501359150808211156125f8575f80fd5b506126053682860161243f565b60208301525061261760408401612351565b604082015261262860608401612351565b60608201526080830135608082015261264360a08401612351565b60a082015261265460c0840161236c565b60c082015260e083013560e082015261010061267181850161257f565b90820152610120612683848201612594565b90820152610140838101359082015261016092830135928101929092525090565b5f602082840312156126b4575f80fd5b5051919050565b9182526001600160a01b0316602082015260400190565b5f81518084528060208401602086015e5f602082860101526020601f19601f83011685010191505092915050565b60a081525f61271260a08301886126d2565b828103602084015261272481886126d2565b6001600160a01b03968716604085015294909516606083015250608001529392505050565b5f815180845260208085019450602084015f5b838110156127815781516001600160a01b03168752958201959082019060010161275c565b509495945050505050565b848152608060208201525f6127a46080830186612749565b82810360408401526127b68186612749565b91505060018060a01b038316606083015295945050505050565b634e487b7160e01b5f52603260045260245ffdfe610160604052348015610010575f80fd5b5060405161355938038061355983398101604081905261002f91610bba565b6040805180820190915260018152603160f81b602082015285908190818760036100598382610cc5565b5060046100668282610cc5565b506100769150839050600561020e565b6101205261008581600661020e565b61014052815160208084019190912060e052815190820120610100524660a05261011160e05161010051604080517f8b73c3c69bb8fe3d512ecc4cf759cc79239f7b179b0ffacaa9a75d522b39400f60208201529081019290925260608201524660808201523060a08201525f9060c00160405160208183030381529060405280519060200120905090565b60805250503060c052506001600160a01b038316158061013857506001600160a01b038216155b156101565760405163d92e233d60e01b815260040160405180910390fd5b6101605f84610240565b5061018b7f65d7a28e3265b37a6474929f336521b332c1681b933f6cb9f3376673440d862a84610240565b506101b67f28f5a99355973cc89255b8c4ac88405f27c78ded7608b040ee77a8bdf44d15e284610240565b50600c805461ff00191690556001600160a01b038084165f908152600d6020526040808220805460ff19908116600190811790925593861683529120805490921617905561020482826102eb565b5050505050610e5d565b5f6020835110156102295761022283610328565b905061023a565b816102348482610cc5565b5060ff90505b92915050565b5f828152600b602090815260408083206001600160a01b038516845290915281205460ff166102e4575f838152600b602090815260408083206001600160a01b03861684529091529020805460ff1916600117905561029c3390565b6001600160a01b0316826001600160a01b0316847f2f8788117e7eff1d82e926ec794901d17c78024a50270940304540a733656f0d60405160405180910390a450600161023a565b505f61023a565b6001600160a01b0382166103195760405163ec442f0560e01b81525f60048201526024015b60405180910390fd5b6103245f8383610365565b5050565b5f80829050601f81511115610352578260405163305a27a960e01b81526004016103109190610d84565b805161035d82610db9565b179392505050565b61036d6104f6565b600c54610100900460ff161561046b576001600160a01b0383166103c8576001600160a01b0382165f908152600d602052604090205460ff166103c357604051637be07bbd60e11b815260040160405180910390fd5b61046b565b6001600160a01b03821661040e576001600160a01b0383165f908152600d602052604090205460ff166103c357604051637be07bbd60e11b815260040160405180910390fd5b6001600160a01b0383165f908152600d602052604090205460ff16158061044d57506001600160a01b0382165f908152600d602052604090205460ff16155b1561046b57604051637be07bbd60e11b815260040160405180910390fd5b61047683838361051c565b600e546001600160a01b0316156104f157600e5460405163677ba3d360e01b81526001600160a01b0385811660048301528481166024830152604482018490529091169063677ba3d3906064015f604051808303815f87803b1580156104da575f80fd5b505af11580156104ec573d5f803e3d5ffd5b505050505b505050565b600c5460ff161561051a5760405163d93c066560e01b815260040160405180910390fd5b565b610527838383610582565b6001600160a01b038316610577575f61053f60025490565b90506001600160d01b038082111561057457604051630e58ae9360e11b81526004810183905260248101829052604401610310565b50505b6104f18383836106a8565b6001600160a01b0383166105ac578060025f8282546105a19190610df0565b9091555061061c9050565b6001600160a01b0383165f90815260208190526040902054818110156105fe5760405163391434e360e21b81526001600160a01b03851660048201526024810182905260448101839052606401610310565b6001600160a01b0384165f9081526020819052604090209082900390555b6001600160a01b03821661063857600280548290039055610656565b6001600160a01b0382165f9081526020819052604090208054820190555b816001600160a01b0316836001600160a01b03167fddf252ad1be2c89b69c2b068fc378daa952ba7f163c4a11628f55a4df523b3ef8360405161069b91815260200190565b60405180910390a3505050565b6001600160a01b0383166106d6576106d3600a610dba61073060201b176106ce84610742565b610779565b50505b6001600160a01b0382166106ff576106fc600a610dc56107ae60201b176106ce84610742565b50505b6001600160a01b038381165f908152600860205260408082205485841683529120546104f1929182169116836107b9565b5f61073b8284610e03565b9392505050565b5f6001600160d01b03821115610775576040516306dfcc6560e41b815260d0600482015260248101839052604401610310565b5090565b5f806107a1610786610909565b61079961079288610917565b868860201c565b87919061095e565b915091505b935093915050565b5f61073b8284610e2a565b816001600160a01b0316836001600160a01b0316141580156107da57505f81115b156104f1576001600160a01b03831615610872576001600160a01b0383165f9081526009602090815260408220829161082091906107ae901b610dc5176106ce86610742565b6001600160d01b031691506001600160d01b03169150846001600160a01b03165f805160206135398339815191528383604051610867929190918252602082015260400190565b60405180910390a250505b6001600160a01b038216156104f1576001600160a01b0382165f908152600960209081526040822082916108b39190610730901b610dba176106ce86610742565b6001600160d01b031691506001600160d01b03169150836001600160a01b03165f8051602061353983398151915283836040516108fa929190918252602082015260400190565b60405180910390a25050505050565b5f61091261096b565b905090565b80545f9080156109565761093d83610930600184610e4a565b5f91825260209091200190565b54660100000000000090046001600160d01b031661073b565b5f9392505050565b5f806107a1858585610975565b5f61091243610ad1565b82545f9081908015610a74575f61099187610930600185610e4a565b805490915065ffffffffffff80821691660100000000000090046001600160d01b03169088168211156109d757604051632520601d60e01b815260040160405180910390fd5b8765ffffffffffff168265ffffffffffff1603610a1357825465ffffffffffff1666010000000000006001600160d01b03891602178355610a66565b6040805180820190915265ffffffffffff808a1682526001600160d01b03808a1660208085019182528d54600181018f555f8f815291909120945191519092166601000000000000029216919091179101555b94508593506107a692505050565b50506040805180820190915265ffffffffffff80851682526001600160d01b0380851660208085019182528854600181018a555f8a81529182209551925190931666010000000000000291909316179201919091559050816107a6565b5f65ffffffffffff821115610775576040516306dfcc6560e41b81526030600482015260248101839052604401610310565b634e487b7160e01b5f52604160045260245ffd5b5f82601f830112610b26575f80fd5b81516001600160401b0380821115610b4057610b40610b03565b604051601f8301601f19908116603f01168101908282118183101715610b6857610b68610b03565b81604052838152866020858801011115610b80575f80fd5b8360208701602083015e5f602085830101528094505050505092915050565b80516001600160a01b0381168114610bb5575f80fd5b919050565b5f805f805f60a08688031215610bce575f80fd5b85516001600160401b0380821115610be4575f80fd5b610bf089838a01610b17565b96506020880151915080821115610c05575f80fd5b50610c1288828901610b17565b945050610c2160408701610b9f565b9250610c2f60608701610b9f565b9150608086015190509295509295909350565b600181811c90821680610c5657607f821691505b602082108103610c7457634e487b7160e01b5f52602260045260245ffd5b50919050565b601f8211156104f157805f5260205f20601f840160051c81016020851015610c9f5750805b601f840160051c820191505b81811015610cbe575f8155600101610cab565b5050505050565b81516001600160401b03811115610cde57610cde610b03565b610cf281610cec8454610c42565b84610c7a565b602080601f831160018114610d25575f8415610d0e5750858301515b5f19600386901b1c1916600185901b178555610d7c565b5f85815260208120601f198616915b82811015610d5357888601518255948401946001909101908401610d34565b5085821015610d7057878501515f19600388901b60f8161c191681555b505060018460011b0185555b505050505050565b602081525f82518060208401528060208501604085015e5f604082850101526040601f19601f83011684010191505092915050565b80516020808301519190811015610c74575f1960209190910360031b1b16919050565b634e487b7160e01b5f52601160045260245ffd5b8082018082111561023a5761023a610ddc565b6001600160d01b03818116838216019080821115610e2357610e23610ddc565b5092915050565b6001600160d01b03828116828216039080821115610e2357610e23610ddc565b8181038181111561023a5761023a610ddc565b60805160a05160c05160e05161010051610120516101405161268b610eae5f395f61135901525f61132c01525f61102401525f610ffc01525f610f5701525f610f8101525f610fab015261268b5ff3fe608060405234801561000f575f80fd5b506004361061024a575f3560e01c806370a08231116101405780639ab24eb0116100bf578063c3cda52011610084578063c3cda5201461054f578063d505accf14610562578063d547741f14610575578063dd62ed3e14610588578063e63ab1e9146105c0578063f1127ed8146105e7575f80fd5b80639ab24eb0146104fc578063a217fddf1461050f578063a9059cbb14610516578063bfe1092814610529578063c22dc7e71461053c575f80fd5b806384b0196e1161010557806384b0196e146104945780638e539e8c146104af57806391d14854146104c257806391ddadf4146104d557806395d89b41146104f4575f80fd5b806370a082311461042c57806375619ab5146104545780637ecebe00146104675780638423df791461047a5780638456cb591461048c575f80fd5b80633a46b1a8116101cc57806354202c4e1161019157806354202c4e1461037c578063587cde1e146103a35780635c19a95c146103e65780635c975abb146103f95780636fcfff4514610404575f80fd5b80633a46b1a8146103245780633af32abf146103375780633f4ba83a146103595780634bf5d7e91461036157806353d6fd5914610369575f80fd5b8063248a9ca311610212578063248a9ca3146102c35780632f2ff15d146102e5578063313ce567146102fa5780633644e5151461030957806336568abe14610311575f80fd5b806301ffc9a71461024e57806306fdde0314610276578063095ea7b31461028b57806318160ddd1461029e57806323b872dd146102b0575b5f80fd5b61026161025c3660046121ef565b610626565b60405190151581526020015b60405180910390f35b61027e61065c565b60405161026d9190612244565b610261610299366004612271565b6106ec565b6002545b60405190815260200161026d565b6102616102be366004612299565b610703565b6102a26102d13660046122d2565b5f908152600b602052604090206001015490565b6102f86102f33660046122e9565b610726565b005b6040516012815260200161026d565b6102a2610750565b6102f861031f3660046122e9565b61075e565b6102a2610332366004612271565b610796565b610261610345366004612313565b600d6020525f908152604090205460ff1681565b6102f86107d0565b61027e610805565b6102f861037736600461233b565b61087d565b6102a27f28f5a99355973cc89255b8c4ac88405f27c78ded7608b040ee77a8bdf44d15e281565b6103ce6103b1366004612313565b6001600160a01b039081165f908152600860205260409020541690565b6040516001600160a01b03909116815260200161026d565b6102f86103f4366004612313565b61092d565b600c5460ff16610261565b610417610412366004612313565b61093c565b60405163ffffffff909116815260200161026d565b6102a261043a366004612313565b6001600160a01b03165f9081526020819052604090205490565b6102f8610462366004612313565b610946565b6102a2610475366004612313565b6109eb565b600c5461026190610100900460ff1681565b6102f86109f5565b61049c610a27565b60405161026d9796959493929190612363565b6102a26104bd3660046122d2565b610a69565b6102616104d03660046122e9565b610a8d565b6104dd610ab7565b60405165ffffffffffff909116815260200161026d565b61027e610ac0565b6102a261050a366004612313565b610acf565b6102a25f81565b610261610524366004612271565b610aef565b600e546103ce906001600160a01b031681565b6102f861054a3660046123fa565b610afc565b6102f861055d366004612423565b610b7b565b6102f8610570366004612477565b610c3c565b6102f86105833660046122e9565b610d72565b6102a26105963660046124dc565b6001600160a01b039182165f90815260016020908152604080832093909416825291909152205490565b6102a27f65d7a28e3265b37a6474929f336521b332c1681b933f6cb9f3376673440d862a81565b6105fa6105f5366004612504565b610d96565b60408051825165ffffffffffff1681526020928301516001600160d01b0316928101929092520161026d565b5f6001600160e01b03198216637965db0b60e01b148061065657506301ffc9a760e01b6001600160e01b03198316145b92915050565b60606003805461066b90612541565b80601f016020809104026020016040519081016040528092919081815260200182805461069790612541565b80156106e25780601f106106b9576101008083540402835291602001916106e2565b820191905f5260205f20905b8154815290600101906020018083116106c557829003601f168201915b5050505050905090565b5f336106f9818585610dd0565b5060019392505050565b5f33610710858285610ddd565b61071b858585610e53565b506001949350505050565b5f828152600b602052604090206001015461074081610eb0565b61074a8383610eba565b50505050565b5f610759610f4b565b905090565b6001600160a01b03811633146107875760405163334bd91960e11b815260040160405180910390fd5b6107918282611074565b505050565b5f6107c06107a3836110df565b6001600160a01b0385165f9081526009602052604090209061112d565b6001600160d01b03169392505050565b7f65d7a28e3265b37a6474929f336521b332c1681b933f6cb9f3376673440d862a6107fa81610eb0565b6108026111dd565b50565b606061080f61122f565b65ffffffffffff1661081f610ab7565b65ffffffffffff1614610845576040516301bfc1c560e61b815260040160405180910390fd5b5060408051808201909152601d81527f6d6f64653d626c6f636b6e756d6265722666726f6d3d64656661756c74000000602082015290565b7f28f5a99355973cc89255b8c4ac88405f27c78ded7608b040ee77a8bdf44d15e26108a781610eb0565b6001600160a01b0383166108ce5760405163d92e233d60e01b815260040160405180910390fd5b6001600160a01b0383165f818152600d6020908152604091829020805460ff191686151590811790915591519182527f0aa5ec5ffdc7f6f9c4d0dded489d7450297155cb2f71cb771e02427f7dff4f51910160405180910390a2505050565b336109388183611239565b5050565b5f610656826112aa565b5f61095081610eb0565b6001600160a01b0382166109775760405163d92e233d60e01b815260040160405180910390fd5b600e546001600160a01b0316156109a1576040516396a8418f60e01b815260040160405180910390fd5b600e80546001600160a01b0319166001600160a01b0384169081179091556040517f86719c518c7d99ac94b3d405d462ea876ba5cd0a978461dc9a7c9862a9485886905f90a25050565b5f610656826112cb565b7f65d7a28e3265b37a6474929f336521b332c1681b933f6cb9f3376673440d862a610a1f81610eb0565b6108026112e8565b5f6060805f805f6060610a38611325565b610a40611352565b604080515f80825260208201909252600f60f81b9b939a50919850469750309650945092509050565b5f610a7e610a76836110df565b600a9061112d565b6001600160d01b031692915050565b5f918252600b602090815260408084206001600160a01b0393909316845291905290205460ff1690565b5f61075961122f565b60606004805461066b90612541565b6001600160a01b0381165f908152600960205260408120610a7e9061137f565b5f336106f9818585610e53565b7f28f5a99355973cc89255b8c4ac88405f27c78ded7608b040ee77a8bdf44d15e2610b2681610eb0565b600c80548315156101000261ff00199091161790556040517f284e583115033338d6dc38207ce916b2905a7ae4aa1e0b79a48345b0615fdfaf90610b6f90841515815260200190565b60405180910390a15050565b83421115610ba457604051632341d78760e11b8152600481018590526024015b60405180910390fd5b604080517fe48329057bfd03d55e49b547132e39cffd9c1820ad7b9d4c5307691425d15adf60208201526001600160a01b0388169181019190915260608101869052608081018590525f90610c1d90610c159060a001604051602081830303815290604052805190602001206113b6565b8585856113e2565b9050610c29818761140e565b610c338188611239565b50505050505050565b83421115610c605760405163313c898160e11b815260048101859052602401610b9b565b5f7f6e71edae12b1b97f4d1f60370fef10105fa2faae0126114a169c64845d6126c9888888610cab8c6001600160a01b03165f90815260076020526040902080546001810190915590565b6040805160208101969096526001600160a01b0394851690860152929091166060840152608083015260a082015260c0810186905260e0016040516020818303038152906040528051906020012090505f610d05826113b6565b90505f610d14828787876113e2565b9050896001600160a01b0316816001600160a01b031614610d5b576040516325c0072360e11b81526001600160a01b0380831660048301528b166024820152604401610b9b565b610d668a8a8a610dd0565b50505050505050505050565b5f828152600b6020526040902060010154610d8c81610eb0565b61074a8383611074565b604080518082019091525f8082526020820152610db38383611460565b9392505050565b5f610db3828461258d565b5f610db382846125b4565b6107918383836001611494565b6001600160a01b038381165f908152600160209081526040808320938616835292905220545f1981101561074a5781811015610e4557604051637dc7a0d960e11b81526001600160a01b03841660048201526024810182905260448101839052606401610b9b565b61074a84848484035f611494565b6001600160a01b038316610e7c57604051634b637e8f60e11b81525f6004820152602401610b9b565b6001600160a01b038216610ea55760405163ec442f0560e01b81525f6004820152602401610b9b565b610791838383611566565b61080281336116ed565b5f610ec58383610a8d565b610f44575f838152600b602090815260408083206001600160a01b03861684529091529020805460ff19166001179055610efc3390565b6001600160a01b0316826001600160a01b0316847f2f8788117e7eff1d82e926ec794901d17c78024a50270940304540a733656f0d60405160405180910390a4506001610656565b505f610656565b5f306001600160a01b037f000000000000000000000000000000000000000000000000000000000000000016148015610fa357507f000000000000000000000000000000000000000000000000000000000000000046145b15610fcd57507f000000000000000000000000000000000000000000000000000000000000000090565b610759604080517f8b73c3c69bb8fe3d512ecc4cf759cc79239f7b179b0ffacaa9a75d522b39400f60208201527f0000000000000000000000000000000000000000000000000000000000000000918101919091527f000000000000000000000000000000000000000000000000000000000000000060608201524660808201523060a08201525f9060c00160405160208183030381529060405280519060200120905090565b5f61107f8383610a8d565b15610f44575f838152600b602090815260408083206001600160a01b0386168085529252808320805460ff1916905551339286917ff6391f5c32d9c69d2a47ea670b442974b53935d1edc7fd64eb21e047a839171b9190a4506001610656565b5f806110e9610ab7565b90508065ffffffffffff16831061112457604051637669fc0f60e11b81526004810184905265ffffffffffff82166024820152604401610b9b565b610db383611726565b81545f9081816005811115611189575f6111468461175c565b61115090856125d4565b5f8881526020902090915081015465ffffffffffff908116908716101561117957809150611187565b6111848160016125e7565b92505b505b5f611196878785856118b4565b905080156111d0576111ba876111ad6001846125d4565b5f91825260209091200190565b54600160301b90046001600160d01b03166111d2565b5f5b979650505050505050565b6111e5611913565b600c805460ff191690557f5db9ee0a495bf2e6ff9c91a7834c1ba4fdd244a5e8aa4e537bd38aeae4b073aa335b6040516001600160a01b03909116815260200160405180910390a1565b5f61075943611726565b6001600160a01b038281165f8181526008602052604080822080548686166001600160a01b0319821681179092559151919094169392849290917f3134e8a2e6d97e929a7e54011ea5485d7d196dd5f0ba4d4ef95803e8e3fc257f9190a461079181836112a586611938565b611955565b6001600160a01b0381165f9081526009602052604081205461065690611abe565b6001600160a01b0381165f90815260076020526040812054610656565b6112f0611aee565b600c805460ff191660011790557f62e78cea01bee320cd4e420270b5ea74000d11b0c9f74754ebdbfc544b05a2586112123390565b60606107597f00000000000000000000000000000000000000000000000000000000000000006005611b12565b60606107597f00000000000000000000000000000000000000000000000000000000000000006006611b12565b80545f9080156113ae57611398836111ad6001846125d4565b54600160301b90046001600160d01b0316610db3565b5f9392505050565b5f6106566113c2610f4b565b8360405161190160f01b8152600281019290925260228201526042902090565b5f805f806113f288888888611bbb565b9250925092506114028282611c83565b50909695505050505050565b6001600160a01b0382165f908152600760205260409020805460018101909155818114610791576040516301d4b62360e61b81526001600160a01b038416600482015260248101829052604401610b9b565b604080518082019091525f80825260208201526001600160a01b0383165f908152600960205260409020610db39083611d3b565b6001600160a01b0384166114bd5760405163e602df0560e01b81525f6004820152602401610b9b565b6001600160a01b0383166114e657604051634a1406b160e11b81525f6004820152602401610b9b565b6001600160a01b038085165f908152600160209081526040808320938716835292905220829055801561074a57826001600160a01b0316846001600160a01b03167f8c5be1e5ebec7d5bd14f71427d1e84f3dd0314c0f7b2291e5b200ac8c7c3b9258460405161155891815260200190565b60405180910390a350505050565b61156e611aee565b600c54610100900460ff161561166c576001600160a01b0383166115c9576001600160a01b0382165f908152600d602052604090205460ff166115c457604051637be07bbd60e11b815260040160405180910390fd5b61166c565b6001600160a01b03821661160f576001600160a01b0383165f908152600d602052604090205460ff166115c457604051637be07bbd60e11b815260040160405180910390fd5b6001600160a01b0383165f908152600d602052604090205460ff16158061164e57506001600160a01b0382165f908152600d602052604090205460ff16155b1561166c57604051637be07bbd60e11b815260040160405180910390fd5b611677838383611da8565b600e546001600160a01b03161561079157600e5460405163677ba3d360e01b81526001600160a01b0385811660048301528481166024830152604482018490529091169063677ba3d3906064015f604051808303815f87803b1580156116db575f80fd5b505af1158015610c33573d5f803e3d5ffd5b6116f78282610a8d565b6109385760405163e2517d3f60e01b81526001600160a01b038216600482015260248101839052604401610b9b565b5f65ffffffffffff821115611758576040516306dfcc6560e41b81526030600482015260248101839052604401610b9b565b5090565b5f60018211611769575090565b816001600160801b82106117825760809190911c9060401b5b68010000000000000000821061179d5760409190911c9060201b5b64010000000082106117b45760209190911c9060101b5b6201000082106117c95760109190911c9060081b5b61010082106117dd5760089190911c9060041b5b601082106117f05760049190911c9060021b5b600482106117fc5760011b5b600302600190811c90818581611814576118146125fa565b048201901c9050600181858161182c5761182c6125fa565b048201901c90506001818581611844576118446125fa565b048201901c9050600181858161185c5761185c6125fa565b048201901c90506001818581611874576118746125fa565b048201901c9050600181858161188c5761188c6125fa565b048201901c90506118ab8185816118a5576118a56125fa565b04821190565b90039392505050565b5f5b8183101561190b575f6118c98484611e0e565b5f8781526020902090915065ffffffffffff86169082015465ffffffffffff1611156118f757809250611905565b6119028160016125e7565b93505b506118b6565b509392505050565b600c5460ff1661193657604051638dfc202b60e01b815260040160405180910390fd5b565b6001600160a01b0381165f90815260208190526040812054610656565b816001600160a01b0316836001600160a01b03161415801561197657505f81115b15610791576001600160a01b03831615611a1d576001600160a01b0383165f90815260096020526040812081906119b890610dc56119b386611e28565b611e5b565b6001600160d01b031691506001600160d01b03169150846001600160a01b03167fdec2bacdd2f05b59de34da9b523dff8be42e5e38e818c82fdb0bae774387a7248383604051611a12929190918252602082015260400190565b60405180910390a250505b6001600160a01b03821615610791576001600160a01b0382165f9081526009602052604081208190611a5590610dba6119b386611e28565b6001600160d01b031691506001600160d01b03169150836001600160a01b03167fdec2bacdd2f05b59de34da9b523dff8be42e5e38e818c82fdb0bae774387a7248383604051611aaf929190918252602082015260400190565b60405180910390a25050505050565b5f63ffffffff821115611758576040516306dfcc6560e41b81526020600482015260248101839052604401610b9b565b600c5460ff16156119365760405163d93c066560e01b815260040160405180910390fd5b606060ff8314611b2c57611b2583611e93565b9050610656565b818054611b3890612541565b80601f0160208091040260200160405190810160405280929190818152602001828054611b6490612541565b8015611baf5780601f10611b8657610100808354040283529160200191611baf565b820191905f5260205f20905b815481529060010190602001808311611b9257829003601f168201915b50505050509050610656565b5f80807f7fffffffffffffffffffffffffffffff5d576e7357a4501ddfe92f46681b20a0841115611bf457505f91506003905082611c79565b604080515f808252602082018084528a905260ff891692820192909252606081018790526080810186905260019060a0016020604051602081039080840390855afa158015611c45573d5f803e3d5ffd5b5050604051601f1901519150506001600160a01b038116611c7057505f925060019150829050611c79565b92505f91508190505b9450945094915050565b5f826003811115611c9657611c9661260e565b03611c9f575050565b6001826003811115611cb357611cb361260e565b03611cd15760405163f645eedf60e01b815260040160405180910390fd5b6002826003811115611ce557611ce561260e565b03611d065760405163fce698f760e01b815260048101829052602401610b9b565b6003826003811115611d1a57611d1a61260e565b03610938576040516335e2f38360e21b815260048101829052602401610b9b565b604080518082019091525f8082526020820152825f018263ffffffff1681548110611d6857611d68612622565b5f9182526020918290206040805180820190915291015465ffffffffffff81168252600160301b90046001600160d01b0316918101919091529392505050565b611db3838383611ed0565b6001600160a01b038316611e03575f611dcb60025490565b90506001600160d01b0380821115611e0057604051630e58ae9360e11b81526004810183905260248101829052604401610b9b565b50505b610791838383611ff6565b5f611e1c6002848418612636565b610db3908484166125e7565b5f6001600160d01b03821115611758576040516306dfcc6560e41b815260d0600482015260248101839052604401610b9b565b5f80611e86611e68610ab7565b611e7e611e748861137f565b868863ffffffff16565b87919061206b565b915091505b935093915050565b60605f611e9f83612078565b6040805160208082528183019092529192505f91906020820181803683375050509182525060208101929092525090565b6001600160a01b038316611efa578060025f828254611eef91906125e7565b90915550611f6a9050565b6001600160a01b0383165f9081526020819052604090205481811015611f4c5760405163391434e360e21b81526001600160a01b03851660048201526024810182905260448101839052606401610b9b565b6001600160a01b0384165f9081526020819052604090209082900390555b6001600160a01b038216611f8657600280548290039055611fa4565b6001600160a01b0382165f9081526020819052604090208054820190555b816001600160a01b0316836001600160a01b03167fddf252ad1be2c89b69c2b068fc378daa952ba7f163c4a11628f55a4df523b3ef83604051611fe991815260200190565b60405180910390a3505050565b6001600160a01b03831661201857612015600a610dba6119b384611e28565b50505b6001600160a01b03821661203a57612037600a610dc56119b384611e28565b50505b6001600160a01b038381165f9081526008602052604080822054858416835291205461079192918216911683611955565b5f80611e8685858561209f565b5f60ff8216601f81111561065657604051632cd44ac360e21b815260040160405180910390fd5b82545f9081908015612195575f6120bb876111ad6001856125d4565b805490915065ffffffffffff80821691600160301b90046001600160d01b03169088168211156120fe57604051632520601d60e01b815260040160405180910390fd5b8765ffffffffffff168265ffffffffffff160361213757825465ffffffffffff16600160301b6001600160d01b03891602178355612187565b6040805180820190915265ffffffffffff808a1682526001600160d01b03808a1660208085019182528d54600181018f555f8f81529190912094519151909216600160301b029216919091179101555b9450859350611e8b92505050565b50506040805180820190915265ffffffffffff80851682526001600160d01b0380851660208085019182528854600181018a555f8a815291822095519251909316600160301b029190931617920191909155905081611e8b565b5f602082840312156121ff575f80fd5b81356001600160e01b031981168114610db3575f80fd5b5f81518084528060208401602086015e5f602082860101526020601f19601f83011685010191505092915050565b602081525f610db36020830184612216565b80356001600160a01b038116811461226c575f80fd5b919050565b5f8060408385031215612282575f80fd5b61228b83612256565b946020939093013593505050565b5f805f606084860312156122ab575f80fd5b6122b484612256565b92506122c260208501612256565b9150604084013590509250925092565b5f602082840312156122e2575f80fd5b5035919050565b5f80604083850312156122fa575f80fd5b8235915061230a60208401612256565b90509250929050565b5f60208284031215612323575f80fd5b610db382612256565b8035801515811461226c575f80fd5b5f806040838503121561234c575f80fd5b61235583612256565b915061230a6020840161232c565b60ff60f81b881681525f602060e0602084015261238360e084018a612216565b8381036040850152612395818a612216565b606085018990526001600160a01b038816608086015260a0850187905284810360c0860152855180825260208088019350909101905f5b818110156123e8578351835292840192918401916001016123cc565b50909c9b505050505050505050505050565b5f6020828403121561240a575f80fd5b610db38261232c565b803560ff8116811461226c575f80fd5b5f805f805f8060c08789031215612438575f80fd5b61244187612256565b9550602087013594506040870135935061245d60608801612413565b92506080870135915060a087013590509295509295509295565b5f805f805f805f60e0888a03121561248d575f80fd5b61249688612256565b96506124a460208901612256565b955060408801359450606088013593506124c060808901612413565b925060a0880135915060c0880135905092959891949750929550565b5f80604083850312156124ed575f80fd5b6124f683612256565b915061230a60208401612256565b5f8060408385031215612515575f80fd5b61251e83612256565b9150602083013563ffffffff81168114612536575f80fd5b809150509250929050565b600181811c9082168061255557607f821691505b60208210810361257357634e487b7160e01b5f52602260045260245ffd5b50919050565b634e487b7160e01b5f52601160045260245ffd5b6001600160d01b038181168382160190808211156125ad576125ad612579565b5092915050565b6001600160d01b038281168282160390808211156125ad576125ad612579565b8181038181111561065657610656612579565b8082018082111561065657610656612579565b634e487b7160e01b5f52601260045260245ffd5b634e487b7160e01b5f52602160045260245ffd5b634e487b7160e01b5f52603260045260245ffd5b5f8261265057634e487b7160e01b5f52601260045260245ffd5b50049056fea2646970667358221220e2118986bbb7cc5d0ab7722528eba3f0600014eb09c2af382bb83227d2a0270f64736f6c63430008190033dec2bacdd2f05b59de34da9b523dff8be42e5e38e818c82fdb0bae774387a724608060405234801561000f575f80fd5b5060405161137438038061137483398101604081905261002e916101a8565b60016002556001600160a01b038216158061005057506001600160a01b038116155b1561006e5760405163d92e233d60e01b815260040160405180910390fd5b6100785f836100e4565b506100a37f5aa58c694aeb083df8754bf5e98675317e4137a5a8a2c6188d0228869e43da7e826100e4565b506100ce7f71840dc4906352362b0cdaf79870196c8e42acafade72d5d5a6d59291253ceb1836100e4565b50506003805461ffff60a01b19169055506101d9565b5f828152602081815260408083206001600160a01b038516845290915281205460ff16610184575f838152602081815260408083206001600160a01b03861684529091529020805460ff1916600117905561013c3390565b6001600160a01b0316826001600160a01b0316847f2f8788117e7eff1d82e926ec794901d17c78024a50270940304540a733656f0d60405160405180910390a4506001610187565b505f5b92915050565b80516001600160a01b03811681146101a3575f80fd5b919050565b5f80604083850312156101b9575f80fd5b6101c28361018d565b91506101d06020840161018d565b90509250929050565b61118e806101e65f395ff3fe608060405260043610610110575f3560e01c8063666995621161009d578063a217fddf11610062578063a217fddf14610305578063ba4b702914610318578063bfe1092814610320578063d547741f14610357578063f36c8f5c14610376575f80fd5b8063666995621461027557806375619ab5146102945780638456cb59146102b357806388739805146102c757806391d14854146102e6575f80fd5b806338925449116100e357806338925449146101c45780633f4ba83a146101f857806347e646561461020c5780635c975abb1461023f57806361175f4114610256575f80fd5b806301ffc9a714610114578063248a9ca3146101485780632f2ff15d1461018457806336568abe146101a5575b5f80fd5b34801561011f575f80fd5b5061013361012e366004610f56565b6103a9565b60405190151581526020015b60405180910390f35b348015610153575f80fd5b50610176610162366004610f7d565b5f9081526020819052604090206001015490565b60405190815260200161013f565b34801561018f575f80fd5b506101a361019e366004610fa8565b6103df565b005b3480156101b0575f80fd5b506101a36101bf366004610fa8565b610409565b3480156101cf575f80fd5b506003546101e590600160a01b900461ffff1681565b60405161ffff909116815260200161013f565b348015610203575f80fd5b506101a3610441565b348015610217575f80fd5b506101767f5aa58c694aeb083df8754bf5e98675317e4137a5a8a2c6188d0228869e43da7e81565b34801561024a575f80fd5b5060015460ff16610133565b348015610261575f80fd5b506101a3610270366004610fd6565b610456565b348015610280575f80fd5b506101a361028f366004611000565b610581565b34801561029f575f80fd5b506101a36102ae366004611082565b6108fe565b3480156102be575f80fd5b506101a36109a3565b3480156102d2575f80fd5b506101a36102e136600461109d565b6109b5565b3480156102f1575f80fd5b50610133610300366004610fa8565b610a5d565b348015610310575f80fd5b506101765f81565b6101a3610a85565b34801561032b575f80fd5b5060035461033f906001600160a01b031681565b6040516001600160a01b03909116815260200161013f565b348015610362575f80fd5b506101a3610371366004610fa8565b610c1b565b348015610381575f80fd5b506101767f71840dc4906352362b0cdaf79870196c8e42acafade72d5d5a6d59291253ceb181565b5f6001600160e01b03198216637965db0b60e01b14806103d957506301ffc9a760e01b6001600160e01b03198316145b92915050565b5f828152602081905260409020600101546103f981610c3f565b6104038383610c49565b50505050565b6001600160a01b03811633146104325760405163334bd91960e11b815260040160405180910390fd5b61043c8282610cd8565b505050565b5f61044b81610c3f565b610453610d41565b50565b61045e610d93565b610466610db9565b6003546001600160a01b031633146104b85760405162461bcd60e51b815260206004820152601060248201526f37b7363c903234b9ba3934b13aba37b960811b60448201526064015b60405180910390fd5b8015610573575f826001600160a01b0316826040515f6040518083038185875af1925050503d805f8114610507576040519150601f19603f3d011682016040523d82523d5f602084013e61050c565b606091505b505090508061052e57604051630db2c7f160e31b815260040160405180910390fd5b826001600160a01b03167fb70dbf0e62ac2891fc0dccea9117219168105932d8f1537152476ad5e9f7a19d8360405161056991815260200190565b60405180910390a2505b61057d6001600255565b5050565b7f71840dc4906352362b0cdaf79870196c8e42acafade72d5d5a6d59291253ceb16105ab81610c3f565b6105b3610d93565b6105bb610db9565b6001600160a01b0385166105e25760405163d92e233d60e01b815260040160405180910390fd5b6003546001600160a01b03166106305760405162461bcd60e51b8152602060048201526013602482015272111a5cdd1c9a589d5d1bdc881b9bdd081cd95d606a1b60448201526064016104af565b5f841161066a5760405162461bcd60e51b81526020600482015260086024820152670616d6f756e743d360c41b60448201526064016104af565b600354604080516338c0670b60e11b8152905147925f926001600160a01b0390911691637180ce16916004808201926020929091908290030181865afa1580156106b6573d5f803e3d5ffd5b505050506040513d601f19601f820116820180604052508101906106da91906110be565b90505f60035f9054906101000a90046001600160a01b03166001600160a01b0316639f13464e6040518163ffffffff1660e01b8152600401602060405180830381865afa15801561072d573d5f803e3d5ffd5b505050506040513d601f19601f8201168201806040525081019061075191906110be565b90505f60035f9054906101000a90046001600160a01b03166001600160a01b031663d3be64076040518163ffffffff1660e01b8152600401602060405180830381865afa1580156107a4573d5f803e3d5ffd5b505050506040513d601f19601f820116820180604052508101906107c891906110be565b90505f826107d683866110e9565b6107e091906110fc565b9050808510156108035760405163b4c7f31f60e01b815260040160405180910390fd5b5f61080e82876110fc565b9050808a11156108315760405163b4c7f31f60e01b815260040160405180910390fd5b5f8b6001600160a01b03168b6040515f6040518083038185875af1925050503d805f811461087a576040519150601f19603f3d011682016040523d82523d5f602084013e61087f565b606091505b50509050806108a157604051630db2c7f160e31b815260040160405180910390fd5b8b6001600160a01b03167ff085ae3b070f2b4f403b9097ddbcf41f776b168446c6c1da0e250cec2881cae48c8c8c6040516108de9392919061110f565b60405180910390a2505050505050506108f76001600255565b5050505050565b5f61090881610c3f565b6001600160a01b03821661092f5760405163d92e233d60e01b815260040160405180910390fd5b6003546001600160a01b031615610959576040516396a8418f60e01b815260040160405180910390fd5b600380546001600160a01b0319166001600160a01b0384169081179091556040517f86719c518c7d99ac94b3d405d462ea876ba5cd0a978461dc9a7c9862a9485886905f90a25050565b5f6109ad81610c3f565b610453610de1565b7f71840dc4906352362b0cdaf79870196c8e42acafade72d5d5a6d59291253ceb16109df81610c3f565b6127108261ffff161115610a065760405163c6cc5d7f60e01b815260040160405180910390fd5b6003805461ffff60a01b1916600160a01b61ffff8516908102919091179091556040519081527faab641f0d7360c2c6e65c716bc19638664d945b7cc8e2187c30c4f78c57186c19060200160405180910390a15050565b5f918252602082815260408084206001600160a01b0393909316845291905290205460ff1690565b7f5aa58c694aeb083df8754bf5e98675317e4137a5a8a2c6188d0228869e43da7e610aaf81610c3f565b610ab7610d93565b610abf610db9565b6003546001600160a01b0316610b0d5760405162461bcd60e51b8152602060048201526013602482015272111a5cdd1c9a589d5d1bdc881b9bdd081cd95d606a1b60448201526064016104af565b3480610b465760405162461bcd60e51b81526020600482015260086024820152670616d6f756e743d360c41b60448201526064016104af565b6003545f90610b64908390600160a01b900461ffff16612710610e1c565b90505f610b7182846110fc565b600354604051633c6890a960e11b8152600481018390529192506001600160a01b0316906378d12152906024015f604051808303815f87803b158015610bb5575f80fd5b505af1158015610bc7573d5f803e3d5ffd5b505060408051868152602081018690529081018490523392507f46e98b0dead97ac666d8190ee4ab27d1f103723d44fd43648307f27f40cd6acc915060600160405180910390a25050506104536001600255565b5f82815260208190526040902060010154610c3581610c3f565b6104038383610cd8565b6104538133610ecd565b5f610c548383610a5d565b610cd1575f838152602081815260408083206001600160a01b03861684529091529020805460ff19166001179055610c893390565b6001600160a01b0316826001600160a01b0316847f2f8788117e7eff1d82e926ec794901d17c78024a50270940304540a733656f0d60405160405180910390a45060016103d9565b505f6103d9565b5f610ce38383610a5d565b15610cd1575f838152602081815260408083206001600160a01b0386168085529252808320805460ff1916905551339286917ff6391f5c32d9c69d2a47ea670b442974b53935d1edc7fd64eb21e047a839171b9190a45060016103d9565b610d49610f06565b6001805460ff191690557f5db9ee0a495bf2e6ff9c91a7834c1ba4fdd244a5e8aa4e537bd38aeae4b073aa335b6040516001600160a01b03909116815260200160405180910390a1565b60015460ff1615610db75760405163d93c066560e01b815260040160405180910390fd5b565b6002805403610ddb57604051633ee5aeb560e01b815260040160405180910390fd5b60028055565b610de9610d93565b6001805460ff1916811790557f62e78cea01bee320cd4e420270b5ea74000d11b0c9f74754ebdbfc544b05a25833610d76565b5f805f610e298686610f29565b91509150815f03610e4d57838181610e4357610e43611144565b0492505050610ec6565b818411610e6457610e646003851502601118610f45565b5f848688095f868103871696879004966002600389028118808a02820302808a02820302808a02820302808a02820302808a02820302808a02909103029181900381900460010185841190960395909502919093039390930492909217029150505b9392505050565b610ed78282610a5d565b61057d5760405163e2517d3f60e01b81526001600160a01b0382166004820152602481018390526044016104af565b60015460ff16610db757604051638dfc202b60e01b815260040160405180910390fd5b5f805f1983850993909202808410938190039390930393915050565b634e487b715f52806020526024601cfd5b5f60208284031215610f66575f80fd5b81356001600160e01b031981168114610ec6575f80fd5b5f60208284031215610f8d575f80fd5b5035919050565b6001600160a01b0381168114610453575f80fd5b5f8060408385031215610fb9575f80fd5b823591506020830135610fcb81610f94565b809150509250929050565b5f8060408385031215610fe7575f80fd5b8235610ff281610f94565b946020939093013593505050565b5f805f8060608587031215611013575f80fd5b843561101e81610f94565b935060208501359250604085013567ffffffffffffffff80821115611041575f80fd5b818701915087601f830112611054575f80fd5b813581811115611062575f80fd5b886020828501011115611073575f80fd5b95989497505060200194505050565b5f60208284031215611092575f80fd5b8135610ec681610f94565b5f602082840312156110ad575f80fd5b813561ffff81168114610ec6575f80fd5b5f602082840312156110ce575f80fd5b5051919050565b634e487b7160e01b5f52601160045260245ffd5b808201808211156103d9576103d96110d5565b818103818111156103d9576103d96110d5565b83815260406020820152816040820152818360608301375f818301606090810191909152601f909201601f1916010192915050565b634e487b7160e01b5f52601260045260245ffdfea2646970667358221220a43339bff3b978064dac06a4089a850c93ad2e882a1a6e61611aac89ba21f86764736f6c6343000819003360c060405234801561000f575f80fd5b50604051610a50380380610a5083398101604081905261002e916100c2565b60015f556001600160a01b0382161580159061005257506001600160a01b03811615155b6100905760405162461bcd60e51b8152600401610087906020808252600490820152637a65726f60e01b604082015260600190565b60405180910390fd5b6001600160a01b039182166080521660a0526100f3565b80516001600160a01b03811681146100bd575f80fd5b919050565b5f80604083850312156100d3575f80fd5b6100dc836100a7565b91506100ea602084016100a7565b90509250929050565b60805160a0516109196101375f395f81816101de0152818161036d015261055101525f818161013c0152818161022301528181610419015261059801526109195ff3fe608060405234801561000f575f80fd5b50600436106100cb575f3560e01c80638009ba1f11610088578063a8b9d24011610063578063a8b9d2401461019e578063d3be6407146101b1578063de3aaf61146101ba578063fbfa77cf146101d9575f80fd5b80638009ba1f1461013757806397a06724146101765780639f13464e14610195575f80fd5b806327ce0147146100cf5780633a7960e0146100f55780634e71d92d146100fe578063677ba3d3146101085780637180ce161461011b57806378d1215214610124575b5f80fd5b6100e26100dd366004610799565b610200565b6040519081526020015b60405180910390f35b6100e260015481565b6101066102f5565b005b6101066101163660046107b9565b61040e565b6100e260055481565b6101066101323660046107f2565b610546565b61015e7f000000000000000000000000000000000000000000000000000000000000000081565b6040516001600160a01b0390911681526020016100ec565b6100e2610184366004610799565b60026020525f908152604090205481565b6100e260065481565b6100e26101ac366004610799565b6106da565b6100e260045481565b6100e26101c8366004610799565b60036020525f908152604090205481565b61015e7f000000000000000000000000000000000000000000000000000000000000000081565b6040516370a0823160e01b81526001600160a01b0382811660048301525f9182917f000000000000000000000000000000000000000000000000000000000000000016906370a0823190602401602060405180830381865afa158015610268573d5f803e3d5ffd5b505050506040513d601f19601f8201168201806040525081019061028c9190610809565b90505f6102a5826001546102a09190610834565b610722565b6001600160a01b0385165f90815260026020526040812054919250906102cb9083610851565b90505f81136102de57505f949350505050565b6102ec600160801b82610878565b95945050505050565b6102fd610756565b5f610307336106da565b9050805f036103165750610403565b335f9081526003602052604081208054839290610334908490610897565b925050819055508060065f82825461034c9190610897565b90915550506040516361175f4160e01b8152336004820152602481018290527f00000000000000000000000000000000000000000000000000000000000000006001600160a01b0316906361175f41906044015f604051808303815f87803b1580156103b6575f80fd5b505af11580156103c8573d5f803e3d5ffd5b50506040518381523392507f5efa67896a23b651b741b525caacba039c00ca7853be3de8eb1f4269e8669c56915060200160405180910390a2505b61040c60015f55565b565b336001600160a01b037f000000000000000000000000000000000000000000000000000000000000000016146104575760405163561da80f60e01b815260040160405180910390fd5b8015610541575f61046f826001546102a09190610834565b90506001600160a01b0384166104b1576001600160a01b0383165f90815260026020526040812080548392906104a69084906108aa565b9091555061053f9050565b6001600160a01b0383166104e6576001600160a01b0384165f90815260026020526040812080548392906104a6908490610851565b6001600160a01b0384165f908152600260205260408120805483929061050d908490610851565b90915550506001600160a01b0383165f90815260026020526040812080548392906105399084906108aa565b90915550505b505b505050565b336001600160a01b037f0000000000000000000000000000000000000000000000000000000000000000161461058f57604051638d1af8bd60e01b815260040160405180910390fd5b80156106d7575f7f00000000000000000000000000000000000000000000000000000000000000006001600160a01b03166318160ddd6040518163ffffffff1660e01b8152600401602060405180830381865afa1580156105f2573d5f803e3d5ffd5b505050506040513d601f19601f820116820180604052508101906106169190610809565b9050805f0361063c578160045f8282546106309190610897565b909155506106d7915050565b5f6004548361064b9190610897565b5f600455905081610660600160801b83610834565b61066a9190610878565b60015f82825461067a9190610897565b925050819055508060055f8282546106929190610897565b90915550506001546040805183815260208101929092527f6684e5868d13ee6ca97e62911d3f2bdf218d2d1acf971431798ea5bf99e15d37910160405180910390a150505b50565b5f806106e583610200565b6001600160a01b0384165f9081526003602052604090205490915080821161071057505f9392505050565b61071a81836108d0565b949350505050565b5f6001600160ff1b038211156107525760405163123baf0360e11b81526004810183905260240160405180910390fd5b5090565b60025f540361077857604051633ee5aeb560e01b815260040160405180910390fd5b60025f55565b80356001600160a01b0381168114610794575f80fd5b919050565b5f602082840312156107a9575f80fd5b6107b28261077e565b9392505050565b5f805f606084860312156107cb575f80fd5b6107d48461077e565b92506107e26020850161077e565b9150604084013590509250925092565b5f60208284031215610802575f80fd5b5035919050565b5f60208284031215610819575f80fd5b5051919050565b634e487b7160e01b5f52601160045260245ffd5b808202811582820484141761084b5761084b610820565b92915050565b8082018281125f83128015821682158216171561087057610870610820565b505092915050565b5f8261089257634e487b7160e01b5f52601260045260245ffd5b500490565b8082018082111561084b5761084b610820565b8181035f8312801583831316838312821617156108c9576108c9610820565b5092915050565b8181038181111561084b5761084b61082056fea2646970667358221220f538a9d9c767b378ae222c8731a81c42c02eaa8e49eebea5ae94f4b45ca4646564736f6c63430008190033608060405234801561000f575f80fd5b50604051611d15380380611d1583398101604081905261002e916102f4565b6100385f3061017b565b506001600160a01b03811615610054576100525f8261017b565b505b5f5b83518110156100e8576100a87fb09aa5aeb3702cfd50b6b62bc4532604938f21248a27a1d5ca736082b6819cc18583815181106100955761009561036d565b602002602001015161017b60201b60201c565b506100df7ffd643c72710c63c0180259aba6b2d05451e3591a24e58b62239378085726f7838583815181106100955761009561036d565b50600101610056565b505f5b82518110156101335761012a7fd8aa0f3194971a2a116679f7c2090f6939c8d4e01a2a8d7e41d55e5351469e638483815181106100955761009561036d565b506001016100eb565b506002849055604080515f8152602081018690527f11c24f4ead16507c69ac467fbd5e4eed5fb5c699626d2cc6d66421df253886d5910160405180910390a150505050610381565b5f828152602081815260408083206001600160a01b038516845290915281205460ff1661021b575f838152602081815260408083206001600160a01b03861684529091529020805460ff191660011790556101d33390565b6001600160a01b0316826001600160a01b0316847f2f8788117e7eff1d82e926ec794901d17c78024a50270940304540a733656f0d60405160405180910390a450600161021e565b505f5b92915050565b634e487b7160e01b5f52604160045260245ffd5b80516001600160a01b038116811461024e575f80fd5b919050565b5f82601f830112610262575f80fd5b815160206001600160401b038083111561027e5761027e610224565b8260051b604051601f19603f830116810181811084821117156102a3576102a3610224565b60405293845260208187018101949081019250878511156102c2575f80fd5b6020870191505b848210156102e9576102da82610238565b835291830191908301906102c9565b979650505050505050565b5f805f8060808587031215610307575f80fd5b845160208601519094506001600160401b0380821115610325575f80fd5b61033188838901610253565b94506040870151915080821115610346575f80fd5b5061035387828801610253565b92505061036260608601610238565b905092959194509250565b634e487b7160e01b5f52603260045260245ffd5b6119878061038e5f395ff3fe6080604052600436106101b2575f3560e01c80638065657f116100e7578063bc197c8111610087578063d547741f11610062578063d547741f14610546578063e38335e514610565578063f23a6e6114610578578063f27a0c92146105a3575f80fd5b8063bc197c81146104d1578063c4d252f5146104fc578063d45c44351461051b575f80fd5b806391d14854116100c257806391d148541461044d578063a217fddf1461046c578063b08e51c01461047f578063b1c5f427146104b2575f80fd5b80638065657f146103dc5780638f2a0bb0146103fb5780638f61f4f51461041a575f80fd5b80632ab0f5291161015257806336568abe1161012d57806336568abe14610353578063584b153e1461037257806364d62353146103915780637958004c146103b0575f80fd5b80632ab0f529146102f65780632f2ff15d1461031557806331d5075014610334575f80fd5b8063134008d31161018d578063134008d31461025357806313bc9f2014610266578063150b7a0214610285578063248a9ca3146102c8575f80fd5b806301d5062a146101bd57806301ffc9a7146101de57806307bd026514610212575f80fd5b366101b957005b5f80fd5b3480156101c8575f80fd5b506101dc6101d7366004611162565b6105b7565b005b3480156101e9575f80fd5b506101fd6101f83660046111d0565b61068b565b60405190151581526020015b60405180910390f35b34801561021d575f80fd5b506102457fd8aa0f3194971a2a116679f7c2090f6939c8d4e01a2a8d7e41d55e5351469e6381565b604051908152602001610209565b6101dc6102613660046111f7565b61069b565b348015610271575f80fd5b506101fd61028036600461125d565b61074d565b348015610290575f80fd5b506102af61029f366004611323565b630a85bd0160e11b949350505050565b6040516001600160e01b03199091168152602001610209565b3480156102d3575f80fd5b506102456102e236600461125d565b5f9081526020819052604090206001015490565b348015610301575f80fd5b506101fd61031036600461125d565b610772565b348015610320575f80fd5b506101dc61032f366004611386565b61077a565b34801561033f575f80fd5b506101fd61034e36600461125d565b6107a4565b34801561035e575f80fd5b506101dc61036d366004611386565b6107c8565b34801561037d575f80fd5b506101fd61038c36600461125d565b610800565b34801561039c575f80fd5b506101dc6103ab36600461125d565b610845565b3480156103bb575f80fd5b506103cf6103ca36600461125d565b6108b8565b60405161020991906113c4565b3480156103e7575f80fd5b506102456103f63660046111f7565b610900565b348015610406575f80fd5b506101dc61041536600461142a565b61093e565b348015610425575f80fd5b506102457fb09aa5aeb3702cfd50b6b62bc4532604938f21248a27a1d5ca736082b6819cc181565b348015610458575f80fd5b506101fd610467366004611386565b610aca565b348015610477575f80fd5b506102455f81565b34801561048a575f80fd5b506102457ffd643c72710c63c0180259aba6b2d05451e3591a24e58b62239378085726f78381565b3480156104bd575f80fd5b506102456104cc3660046114d2565b610af2565b3480156104dc575f80fd5b506102af6104eb3660046115ee565b63bc197c8160e01b95945050505050565b348015610507575f80fd5b506101dc61051636600461125d565b610b36565b348015610526575f80fd5b5061024561053536600461125d565b5f9081526001602052604090205490565b348015610551575f80fd5b506101dc610560366004611386565b610be0565b6101dc6105733660046114d2565b610c04565b348015610583575f80fd5b506102af610592366004611690565b63f23a6e6160e01b95945050505050565b3480156105ae575f80fd5b50600254610245565b7fb09aa5aeb3702cfd50b6b62bc4532604938f21248a27a1d5ca736082b6819cc16105e181610d85565b5f6105f0898989898989610900565b90506105fc8184610d92565b5f817f4cf4410cc57040e44862ef0f45f3dd5a5e02db8eb8add648d4b0e236f1d07dca8b8b8b8b8b8a60405161063796959493929190611717565b60405180910390a3831561068057807f20fda5fd27a1ea7bf5b9567f143ac5470bb059374a27e8f67cb44f946f6d03878560405161067791815260200190565b60405180910390a25b505050505050505050565b5f61069582610e23565b92915050565b7fd8aa0f3194971a2a116679f7c2090f6939c8d4e01a2a8d7e41d55e5351469e636106c6815f610aca565b6106d4576106d48133610e47565b5f6106e3888888888888610900565b90506106ef8185610e84565b6106fb88888888610ed2565b5f817fc2617efa69bab66782fa219543714338489c4e9e178271560a91b82c3f612b588a8a8a8a6040516107329493929190611753565b60405180910390a361074381610f46565b5050505050505050565b5f60025b61075a836108b8565b600381111561076b5761076b6113b0565b1492915050565b5f6003610751565b5f8281526020819052604090206001015461079481610d85565b61079e8383610f71565b50505050565b5f806107af836108b8565b60038111156107c0576107c06113b0565b141592915050565b6001600160a01b03811633146107f15760405163334bd91960e11b815260040160405180910390fd5b6107fb8282611000565b505050565b5f8061080b836108b8565b90506001816003811115610821576108216113b0565b148061083e5750600281600381111561083c5761083c6113b0565b145b9392505050565b333081146108765760405163e2850c5960e01b81526001600160a01b03821660048201526024015b60405180910390fd5b60025460408051918252602082018490527f11c24f4ead16507c69ac467fbd5e4eed5fb5c699626d2cc6d66421df253886d5910160405180910390a150600255565b5f81815260016020526040812054805f036108d557505f92915050565b600181036108e65750600392915050565b428111156108f75750600192915050565b50600292915050565b5f86868686868660405160200161091c96959493929190611717565b6040516020818303038152906040528051906020012090509695505050505050565b7fb09aa5aeb3702cfd50b6b62bc4532604938f21248a27a1d5ca736082b6819cc161096881610d85565b88871415806109775750888514155b156109a9576040516001624fcdef60e01b03198152600481018a9052602481018690526044810188905260640161086d565b5f6109ba8b8b8b8b8b8b8b8b610af2565b90506109c68184610d92565b5f5b8a811015610a7b5780827f4cf4410cc57040e44862ef0f45f3dd5a5e02db8eb8add648d4b0e236f1d07dca8e8e85818110610a0557610a05611784565b9050602002016020810190610a1a9190611798565b8d8d86818110610a2c57610a2c611784565b905060200201358c8c87818110610a4557610a45611784565b9050602002810190610a5791906117b1565b8c8b604051610a6b96959493929190611717565b60405180910390a36001016109c8565b508315610abd57807f20fda5fd27a1ea7bf5b9567f143ac5470bb059374a27e8f67cb44f946f6d038785604051610ab491815260200190565b60405180910390a25b5050505050505050505050565b5f918252602082815260408084206001600160a01b0393909316845291905290205460ff1690565b5f8888888888888888604051602001610b12989796959493929190611884565b60405160208183030381529060405280519060200120905098975050505050505050565b7ffd643c72710c63c0180259aba6b2d05451e3591a24e58b62239378085726f783610b6081610d85565b610b6982610800565b610ba55781610b786002611069565b610b826001611069565b604051635ead8eb560e01b8152600481019390935217602482015260440161086d565b5f828152600160205260408082208290555183917fbaa1eb22f2a492ba1a5fea61b8df4d27c6c8b5f3971e63bb58fa14ff72eedb7091a25050565b5f82815260208190526040902060010154610bfa81610d85565b61079e8383611000565b7fd8aa0f3194971a2a116679f7c2090f6939c8d4e01a2a8d7e41d55e5351469e63610c2f815f610aca565b610c3d57610c3d8133610e47565b8786141580610c4c5750878414155b15610c7e576040516001624fcdef60e01b0319815260048101899052602481018590526044810187905260640161086d565b5f610c8f8a8a8a8a8a8a8a8a610af2565b9050610c9b8185610e84565b5f5b89811015610d6f575f8b8b83818110610cb857610cb8611784565b9050602002016020810190610ccd9190611798565b90505f8a8a84818110610ce257610ce2611784565b905060200201359050365f8a8a86818110610cff57610cff611784565b9050602002810190610d1191906117b1565b91509150610d2184848484610ed2565b84867fc2617efa69bab66782fa219543714338489c4e9e178271560a91b82c3f612b5886868686604051610d589493929190611753565b60405180910390a350505050806001019050610c9d565b50610d7981610f46565b50505050505050505050565b610d8f8133610e47565b50565b610d9b826107a4565b15610dcc5781610daa5f611069565b604051635ead8eb560e01b81526004810192909252602482015260440161086d565b5f610dd660025490565b905080821015610e0357604051635433660960e01b8152600481018390526024810182905260440161086d565b610e0d8242611923565b5f93845260016020526040909320929092555050565b5f6001600160e01b03198216630271189760e51b148061069557506106958261108b565b610e518282610aca565b610e805760405163e2517d3f60e01b81526001600160a01b03821660048201526024810183905260440161086d565b5050565b610e8d8261074d565b610e9c5781610daa6002611069565b8015801590610eb15750610eaf81610772565b155b15610e805760405163121534c360e31b81526004810182905260240161086d565b5f80856001600160a01b0316858585604051610eef929190611942565b5f6040518083038185875af1925050503d805f8114610f29576040519150601f19603f3d011682016040523d82523d5f602084013e610f2e565b606091505b5091509150610f3d82826110bf565b50505050505050565b610f4f8161074d565b610f5e5780610daa6002611069565b5f90815260016020819052604090912055565b5f610f7c8383610aca565b610ff9575f838152602081815260408083206001600160a01b03861684529091529020805460ff19166001179055610fb13390565b6001600160a01b0316826001600160a01b0316847f2f8788117e7eff1d82e926ec794901d17c78024a50270940304540a733656f0d60405160405180910390a4506001610695565b505f610695565b5f61100b8383610aca565b15610ff9575f838152602081815260408083206001600160a01b0386168085529252808320805460ff1916905551339286917ff6391f5c32d9c69d2a47ea670b442974b53935d1edc7fd64eb21e047a839171b9190a4506001610695565b5f81600381111561107c5761107c6113b0565b600160ff919091161b92915050565b5f6001600160e01b03198216637965db0b60e01b148061069557506301ffc9a760e01b6001600160e01b0319831614610695565b6060826110d4576110cf826110db565b610695565b5080610695565b8051156110ea57805160208201fd5b60405163d6bda27560e01b815260040160405180910390fd5b80356001600160a01b0381168114611119575f80fd5b919050565b5f8083601f84011261112e575f80fd5b5081356001600160401b03811115611144575f80fd5b60208301915083602082850101111561115b575f80fd5b9250929050565b5f805f805f805f60c0888a031215611178575f80fd5b61118188611103565b96506020880135955060408801356001600160401b038111156111a2575f80fd5b6111ae8a828b0161111e565b989b979a50986060810135976080820135975060a09091013595509350505050565b5f602082840312156111e0575f80fd5b81356001600160e01b03198116811461083e575f80fd5b5f805f805f8060a0878903121561120c575f80fd5b61121587611103565b95506020870135945060408701356001600160401b03811115611236575f80fd5b61124289828a0161111e565b979a9699509760608101359660809091013595509350505050565b5f6020828403121561126d575f80fd5b5035919050565b634e487b7160e01b5f52604160045260245ffd5b604051601f8201601f191681016001600160401b03811182821017156112b0576112b0611274565b604052919050565b5f82601f8301126112c7575f80fd5b81356001600160401b038111156112e0576112e0611274565b6112f3601f8201601f1916602001611288565b818152846020838601011115611307575f80fd5b816020850160208301375f918101602001919091529392505050565b5f805f8060808587031215611336575f80fd5b61133f85611103565b935061134d60208601611103565b92506040850135915060608501356001600160401b0381111561136e575f80fd5b61137a878288016112b8565b91505092959194509250565b5f8060408385031215611397575f80fd5b823591506113a760208401611103565b90509250929050565b634e487b7160e01b5f52602160045260245ffd5b60208101600483106113e457634e487b7160e01b5f52602160045260245ffd5b91905290565b5f8083601f8401126113fa575f80fd5b5081356001600160401b03811115611410575f80fd5b6020830191508360208260051b850101111561115b575f80fd5b5f805f805f805f805f60c08a8c031215611442575f80fd5b89356001600160401b0380821115611458575f80fd5b6114648d838e016113ea565b909b50995060208c013591508082111561147c575f80fd5b6114888d838e016113ea565b909950975060408c01359150808211156114a0575f80fd5b506114ad8c828d016113ea565b9a9d999c50979a969997986060880135976080810135975060a0013595509350505050565b5f805f805f805f8060a0898b0312156114e9575f80fd5b88356001600160401b03808211156114ff575f80fd5b61150b8c838d016113ea565b909a50985060208b0135915080821115611523575f80fd5b61152f8c838d016113ea565b909850965060408b0135915080821115611547575f80fd5b506115548b828c016113ea565b999c989b509699959896976060870135966080013595509350505050565b5f82601f830112611581575f80fd5b813560206001600160401b0382111561159c5761159c611274565b8160051b6115ab828201611288565b92835284810182019282810190878511156115c4575f80fd5b83870192505b848310156115e3578235825291830191908301906115ca565b979650505050505050565b5f805f805f60a08688031215611602575f80fd5b61160b86611103565b945061161960208701611103565b935060408601356001600160401b0380821115611634575f80fd5b61164089838a01611572565b94506060880135915080821115611655575f80fd5b61166189838a01611572565b93506080880135915080821115611676575f80fd5b50611683888289016112b8565b9150509295509295909350565b5f805f805f60a086880312156116a4575f80fd5b6116ad86611103565b94506116bb60208701611103565b9350604086013592506060860135915060808601356001600160401b038111156116e3575f80fd5b611683888289016112b8565b81835281816020850137505f828201602090810191909152601f909101601f19169091010190565b60018060a01b038716815285602082015260a060408201525f61173e60a0830186886116ef565b60608301949094525060800152949350505050565b60018060a01b0385168152836020820152606060408201525f61177a6060830184866116ef565b9695505050505050565b634e487b7160e01b5f52603260045260245ffd5b5f602082840312156117a8575f80fd5b61083e82611103565b5f808335601e198436030181126117c6575f80fd5b8301803591506001600160401b038211156117df575f80fd5b60200191503681900382131561115b575f80fd5b5f838385526020808601955060208560051b830101845f5b8781101561187757848303601f19018952813536889003601e19018112611830575f80fd5b870184810190356001600160401b0381111561184a575f80fd5b803603821315611858575f80fd5b6118638582846116ef565b9a86019a945050509083019060010161180b565b5090979650505050505050565b60a080825281018890525f8960c08301825b8b8110156118c4576001600160a01b036118af84611103565b16825260209283019290910190600101611896565b5083810360208501528881526001600160fb1b038911156118e3575f80fd5b8860051b9150818a6020830137018281036020908101604085015261190b90820187896117f3565b60608401959095525050608001529695505050505050565b8082018082111561069557634e487b7160e01b5f52601160045260245ffd5b818382375f910190815291905056fea26469706673582212204ea5cd2c9a167f287e5a60205f4525efc8aa9d8c459f5e50c72c22f8d2b91b6664736f6c63430008190033610180604052348015610010575f80fd5b50604051614da0380380614da083398101604081905261002f91610737565b8481878686866040518060400160405280601081526020016f283937b832b93a3ca3b7bb32b93737b960811b8152508061006d61017460201b60201c565b610077825f61018f565b6101205261008681600161018f565b61014052815160208084019190912060e052815190820120610100524660a05261011260e05161010051604080517f8b73c3c69bb8fe3d512ecc4cf759cc79239f7b179b0ffacaa9a75d522b39400f60208201529081019290925260608201524660808201523060a08201525f9060c00160405160208183030381529060405280519060200120905090565b60805250503060c05260036101278282610842565b506101339050836101c1565b61013c82610227565b610145816102cb565b5050506001600160a01b03166101605261015e8161030c565b50610168816103a1565b50505050505050610991565b6040805180820190915260018152603160f81b602082015290565b5f6020835110156101aa576101a38361040a565b90506101bb565b816101b58482610842565b5060ff90505b92915050565b6008546040805165ffffffffffff928316815291831660208301527fc565b045403dc03c2eea82b81a0465edad9e2e7fc4d97e11421c209da93d7a93910160405180910390a16008805465ffffffffffff191665ffffffffffff92909216919091179055565b8063ffffffff165f036102545760405163f1cfbf0560e01b81525f60048201526024015b60405180910390fd5b6008546040805163ffffffff66010000000000009093048316815291831660208301527f7e3f7f0708a84de9203036abaa450dccc85ad5ff52f78c170f3edb55cf5e8828910160405180910390a16008805463ffffffff90921666010000000000000263ffffffff60301b19909216919091179055565b60075460408051918252602082018390527fccb45da8d5717e6c4544694297c4ba5cf151d455c9bb0ed4fc7a38411bc05461910160405180910390a1600755565b6064808211156103395760405163243e544560e01b8152600481018390526024810182905260440161024b565b5f610342610447565b905061036161034f610460565b610358856104da565b600a9190610511565b505060408051828152602081018590527f0553476bf02ef2726e8ce5ced78d63e26e602e4a2257b1f559418e24b4633997910160405180910390a1505050565b600b54604080516001600160a01b03928316815291831660208301527f08f74ea46ef7894f65eabfb5e6e695de773a000b47c529ab559178069b226401910160405180910390a1600b80546001600160a01b0319166001600160a01b0392909216919091179055565b5f80829050601f81511115610434578260405163305a27a960e01b815260040161024b9190610901565b805161043f82610936565b179392505050565b5f610452600a61052b565b6001600160d01b0316905090565b5f61046b6101605190565b6001600160a01b03166391ddadf46040518163ffffffff1660e01b8152600401602060405180830381865afa9250505080156104c4575060408051601f3d908101601f191682019092526104c191810190610959565b60015b6104d5576104d0610573565b905090565b919050565b5f6001600160d01b0382111561050d576040516306dfcc6560e41b815260d060048201526024810183905260440161024b565b5090565b5f8061051e85858561057d565b915091505b935093915050565b80545f90801561056a5761055183610544600184610972565b5f91825260209091200190565b54660100000000000090046001600160d01b031661056c565b5f5b9392505050565b5f6104d0436106d9565b82545f908190801561067c575f61059987610544600185610972565b805490915065ffffffffffff80821691660100000000000090046001600160d01b03169088168211156105df57604051632520601d60e01b815260040160405180910390fd5b8765ffffffffffff168265ffffffffffff160361061b57825465ffffffffffff1666010000000000006001600160d01b0389160217835561066e565b6040805180820190915265ffffffffffff808a1682526001600160d01b03808a1660208085019182528d54600181018f555f8f815291909120945191519092166601000000000000029216919091179101555b945085935061052392505050565b50506040805180820190915265ffffffffffff80851682526001600160d01b0380851660208085019182528854600181018a555f8a8152918220955192519093166601000000000000029190931617920191909155905081610523565b5f65ffffffffffff82111561050d576040516306dfcc6560e41b8152603060048201526024810183905260440161024b565b6001600160a01b038116811461071f575f80fd5b50565b805165ffffffffffff811681146104d5575f80fd5b5f805f805f8060c0878903121561074c575f80fd5b86516107578161070b565b60208801519096506107688161070b565b945061077660408801610722565b9350606087015163ffffffff8116811461078e575f80fd5b809350506080870151915060a087015190509295509295509295565b634e487b7160e01b5f52604160045260245ffd5b600181811c908216806107d257607f821691505b6020821081036107f057634e487b7160e01b5f52602260045260245ffd5b50919050565b601f82111561083d57805f5260205f20601f840160051c8101602085101561081b5750805b601f840160051c820191505b8181101561083a575f8155600101610827565b50505b505050565b81516001600160401b0381111561085b5761085b6107aa565b61086f8161086984546107be565b846107f6565b602080601f8311600181146108a2575f841561088b5750858301515b5f19600386901b1c1916600185901b1785556108f9565b5f85815260208120601f198616915b828110156108d0578886015182559484019460019091019084016108b1565b50858210156108ed57878501515f19600388901b60f8161c191681555b505060018460011b0185555b505050505050565b602081525f82518060208401528060208501604085015e5f604082850101526040601f19601f83011684010191505092915050565b805160208083015191908110156107f0575f1960209190910360031b1b16919050565b5f60208284031215610969575f80fd5b61056c82610722565b818103818111156101bb57634e487b7160e01b5f52601160045260245ffd5b60805160a05160c05160e05161010051610120516101405161016051614398610a085f395f81816109c101528181610e29015281816111f6015281816114bb0152611ebb01525f611dff01525f611dd301525f612df101525f612dc901525f612d2401525f612d4e01525f612d7801526143985ff3fe6080604052600436106102a8575f3560e01c80637ecebe001161016f578063bc197c81116100d8578063deaaa7cc11610092578063ece40cc11161006d578063ece40cc114610956578063f23a6e6114610975578063f8ce560a14610994578063fc0c546a146109b3575f80fd5b8063deaaa7cc146108e5578063e540d01d14610918578063eb9019d414610937575f80fd5b8063bc197c8114610813578063c01f9e3714610832578063c28bc2fa14610851578063c59057e414610864578063d33219b414610883578063dd4e2ba5146108a0575f80fd5b8063a7713a7011610129578063a7713a7014610758578063a890c9101461076c578063a8f8a6681461078b578063a9a95294146107aa578063ab58fb8e146107c9578063b58131b0146107ff575f80fd5b80637ecebe001461068157806384b0196e146106b55780638ff262e3146106dc57806391ddadf4146106fb57806397c3d334146107265780639a802a6d14610739575f80fd5b806343859632116102115780635b8d0e0d116101cb5780635b8d0e0d146105c75780635f398a14146105e657806360c4247f1461060557806379051887146106245780637b3c71d3146106435780637d5e81e214610662575f80fd5b806343859632146104ca578063452115d6146105125780634bf5d7e914610531578063544ffc9c1461054557806354fd4d501461057f57806356781388146105a8575f80fd5b8063160cbed711610262578063160cbed7146104065780632656227d146104255780632d63f693146104385780632fe3e261146104575780633932abb11461048a5780633e4f49e61461049e575f80fd5b806301ffc9a7146102e357806302a251a31461031757806306f3f9e61461034257806306fdde0314610361578063143489d014610382578063150b7a02146103ce575f80fd5b366102df57306102b66109e5565b6001600160a01b0316146102dd57604051637485328f60e11b815260040160405180910390fd5b005b5f80fd5b3480156102ee575f80fd5b506103026102fd366004613396565b6109fd565b60405190151581526020015b60405180910390f35b348015610322575f80fd5b50600854600160301b900463ffffffff165b60405190815260200161030e565b34801561034d575f80fd5b506102dd61035c3660046133bd565b610a69565b34801561036c575f80fd5b50610375610a7d565b60405161030e9190613402565b34801561038d575f80fd5b506103b661039c3660046133bd565b5f908152600460205260409020546001600160a01b031690565b6040516001600160a01b03909116815260200161030e565b3480156103d9575f80fd5b506103ed6103e83660046134eb565b610b0d565b6040516001600160e01b0319909116815260200161030e565b348015610411575f80fd5b506103346104203660046136ba565b610b4f565b6103346104333660046136ba565b610c1b565b348015610443575f80fd5b506103346104523660046133bd565b610d83565b348015610462575f80fd5b506103347f3e83946653575f9a39005e1545185629e92736b7528ab20ca3816f315424a81181565b348015610495575f80fd5b50610334610da3565b3480156104a9575f80fd5b506104bd6104b83660046133bd565b610db5565b60405161030e9190613777565b3480156104d5575f80fd5b506103026104e4366004613785565b5f8281526009602090815260408083206001600160a01b038516845260030190915290205460ff1692915050565b34801561051d575f80fd5b5061033461052c3660046136ba565b610dbf565b34801561053c575f80fd5b50610375610e25565b348015610550575f80fd5b5061056461055f3660046133bd565b610ee5565b6040805193845260208401929092529082015260600161030e565b34801561058a575f80fd5b506040805180820190915260018152603160f81b6020820152610375565b3480156105b3575f80fd5b506103346105c23660046137c3565b610f0a565b3480156105d2575f80fd5b506103346105e1366004613831565b610f31565b3480156105f1575f80fd5b506103346106003660046138e3565b610fee565b348015610610575f80fd5b5061033461061f3660046133bd565b611036565b34801561062f575f80fd5b506102dd61063e366004613973565b611042565b34801561064e575f80fd5b5061033461065d36600461398e565b611053565b34801561066d575f80fd5b5061033461067c3660046139e3565b6110a3565b34801561068c575f80fd5b5061033461069b366004613a8f565b6001600160a01b03165f9081526002602052604090205490565b3480156106c0575f80fd5b506106c9611159565b60405161030e9796959493929190613ae4565b3480156106e7575f80fd5b506103346106f6366004613b53565b61119b565b348015610706575f80fd5b5061070f6111f3565b60405165ffffffffffff909116815260200161030e565b348015610731575f80fd5b506064610334565b348015610744575f80fd5b50610334610753366004613ba0565b61127a565b348015610763575f80fd5b50610334611290565b348015610777575f80fd5b506102dd610786366004613a8f565b6112a9565b348015610796575f80fd5b506103346107a53660046136ba565b6112ba565b3480156107b5575f80fd5b506103026107c43660046133bd565b6112c7565b3480156107d4575f80fd5b506103346107e33660046133bd565b5f9081526004602052604090206001015465ffffffffffff1690565b34801561080a575f80fd5b506103346112cf565b34801561081e575f80fd5b506103ed61082d366004613bf4565b6112d9565b34801561083d575f80fd5b5061033461084c3660046133bd565b61131c565b6102dd61085f366004613c80565b61135e565b34801561086f575f80fd5b5061033461087e3660046136ba565b6113da565b34801561088e575f80fd5b50600b546001600160a01b03166103b6565b3480156108ab575f80fd5b506040805180820190915260208082527f737570706f72743d627261766f2671756f72756d3d666f722c6162737461696e90820152610375565b3480156108f0575f80fd5b506103347ff2aad550cf55f045cb27e9c559f9889fdfb6e6cdaa032301d6ea397784ae51d781565b348015610923575f80fd5b506102dd610932366004613cbf565b611413565b348015610942575f80fd5b50610334610951366004613ce2565b611424565b348015610961575f80fd5b506102dd6109703660046133bd565b611443565b348015610980575f80fd5b506103ed61098f366004613d0c565b611454565b34801561099f575f80fd5b506103346109ae3660046133bd565b611497565b3480156109be575f80fd5b507f00000000000000000000000000000000000000000000000000000000000000006103b6565b5f6109f8600b546001600160a01b031690565b905090565b5f6001600160e01b031982166366defe7760e11b1480610a2d57506001600160e01b031982166332a2ad4360e11b145b80610a4857506001600160e01b03198216630271189760e51b145b80610a6357506301ffc9a760e01b6001600160e01b03198316145b92915050565b610a71611534565b610a7a816115ad565b50565b606060038054610a8c90613d6f565b80601f0160208091040260200160405190810160405280929190818152602001828054610ab890613d6f565b8015610b035780601f10610ada57610100808354040283529160200191610b03565b820191905f5260205f20905b815481529060010190602001808311610ae657829003601f168201915b5050505050905090565b5f30610b176109e5565b6001600160a01b031614610b3e57604051637485328f60e11b815260040160405180910390fd5b50630a85bd0160e11b949350505050565b5f80610b5d868686866112ba565b9050610b7281610b6d6004611642565b611664565b505f610b8182888888886116a1565b905065ffffffffffff811615610bf8575f82815260046020908152604091829020600101805465ffffffffffff191665ffffffffffff85169081179091558251858152918201527f9a2e42fd6722813d69113e7d0079d3d940171428df7373df9c7f7617cfda2892910160405180910390a1610c11565b604051634844252360e11b815260040160405180910390fd5b5095945050505050565b5f80610c29868686866112ba565b9050610c4981610c396005611642565b610c436004611642565b17611664565b505f818152600460205260409020805460ff60f01b1916600160f01b17905530610c716109e5565b6001600160a01b031614610cfa575f5b8651811015610cf857306001600160a01b0316878281518110610ca657610ca6613da7565b60200260200101516001600160a01b031603610cf057610cf0858281518110610cd157610cd1613da7565b60200260200101518051906020012060056116af90919063ffffffff16565b600101610c81565b505b610d078187878787611710565b30610d106109e5565b6001600160a01b031614158015610d3c57506005546001600160801b03808216600160801b9092041614155b15610d46575f6005555b6040518181527f712ae1383f79ac853f8d882153778e0260ef8f03b504e2866e0593e04d2b291f906020015b60405180910390a195945050505050565b5f90815260046020526040902054600160a01b900465ffffffffffff1690565b5f6109f860085465ffffffffffff1690565b5f610a6382611724565b5f80610dcd868686866112ba565b905033610dda828261185d565b610e0e57604051638fe5d8a960e01b8152600481018390526001600160a01b03821660248201526044015b60405180910390fd5b610e1a878787876118a2565b979650505050505050565b60607f00000000000000000000000000000000000000000000000000000000000000006001600160a01b0316634bf5d7e96040518163ffffffff1660e01b81526004015f60405180830381865afa925050508015610ea457506040513d5f823e601f3d908101601f19168201604052610ea19190810190613dbb565b60015b610ee0575060408051808201909152601d81527f6d6f64653d626c6f636b6e756d6265722666726f6d3d64656661756c74000000602082015290565b919050565b5f818152600960205260409020805460018201546002909201549091905b9193909250565b5f80339050610f2984828560405180602001604052805f8152506118af565b949350505050565b5f610f7788888888888080601f0160208091040260200160405190810160405280939291908181526020018383808284375f920191909152508a92508991506118d09050565b610f9f576040516394ab6c0760e01b81526001600160a01b0387166004820152602401610e05565b610fe288878988888080601f0160208091040260200160405190810160405280939291908181526020018383808284375f920191909152508a925061199d915050565b98975050505050505050565b5f80339050610e1a87828888888080601f0160208091040260200160405190810160405280939291908181526020018383808284375f920191909152508a925061199d915050565b5f610a63600a83611a7b565b61104a611534565b610a7a81611ac8565b5f8033905061109986828787878080601f0160208091040260200160405190810160405280939291908181526020018383808284375f920191909152506118af92505050565b9695505050505050565b5f336110af8184611b2e565b6110d75760405163d9b3955760e01b81526001600160a01b0382166004820152602401610e05565b5f6110e06112cf565b9050801561114c575f61110e8360016110f76111f3565b6111019190613e43565b65ffffffffffff16611424565b90508181101561114a57604051636121770b60e11b81526001600160a01b03841660048201526024810182905260448101839052606401610e05565b505b610e1a8787878786611bb2565b5f6060805f805f606061116a611dcc565b611172611df8565b604080515f80825260208201909252600f60f81b9b939a50919850469750309650945092509050565b5f6111a885858585611e25565b6111d0576040516394ab6c0760e01b81526001600160a01b0384166004820152602401610e05565b6111ea85848660405180602001604052805f8152506118af565b95945050505050565b5f7f00000000000000000000000000000000000000000000000000000000000000006001600160a01b03166391ddadf46040518163ffffffff1660e01b8152600401602060405180830381865afa92505050801561126e575060408051601f3d908101601f1916820190925261126b91810190613e69565b60015b610ee0576109f8611eae565b5f611286848484611eb8565b90505b9392505050565b5f61129b600a611f4b565b6001600160d01b0316905090565b6112b1611534565b610a7a81611f8f565b5f6111ea858585856113da565b5f6001610a63565b5f6109f860075490565b5f306112e36109e5565b6001600160a01b03161461130a57604051637485328f60e11b815260040160405180910390fd5b5063bc197c8160e01b95945050505050565b5f8181526004602052604081205461135090600160d01b810463ffffffff1690600160a01b900465ffffffffffff16613e84565b65ffffffffffff1692915050565b611366611534565b5f80856001600160a01b0316858585604051611383929190613ea3565b5f6040518083038185875af1925050503d805f81146113bd576040519150601f19603f3d011682016040523d82523d5f602084013e6113c2565b606091505b50915091506113d18282611ff8565b50505050505050565b5f848484846040516020016113f29493929190613f42565b60408051601f19818403018152919052805160209091012095945050505050565b61141b611534565b610a7a81612014565b5f611289838361143e60408051602081019091525f815290565b611eb8565b61144b611534565b610a7a816120b0565b5f3061145e6109e5565b6001600160a01b03161461148557604051637485328f60e11b815260040160405180910390fd5b5063f23a6e6160e01b95945050505050565b604051632394e7a360e21b8152600481018290525f90610a63906001600160a01b037f00000000000000000000000000000000000000000000000000000000000000001690638e539e8c90602401602060405180830381865afa158015611500573d5f803e3d5ffd5b505050506040513d601f19601f820116820180604052508101906115249190613f8c565b61152d84611036565b60646120f1565b3361153d6109e5565b6001600160a01b031614611566576040516347096e4760e01b8152336004820152602401610e05565b3061156f6109e5565b6001600160a01b0316146115ab575f803660405161158e929190613ea3565b604051809103902090505b806115a460056121a1565b0361159957505b565b6064808211156115da5760405163243e544560e01b81526004810183905260248101829052604401610e05565b5f6115e3611290565b90506116026115f06111f3565b6115f98561220e565b600a9190612245565b505060408051828152602081018590527f0553476bf02ef2726e8ce5ced78d63e26e602e4a2257b1f559418e24b4633997910160405180910390a1505050565b5f81600781111561165557611655613743565b600160ff919091161b92915050565b5f8061166f84610db5565b90505f8361167c83611642565b1603611289578381846040516331b75e4d60e01b8152600401610e0593929190613fa3565b5f611099868686868661225f565b81546001600160801b03600160801b8204811691811660018301909116036116db576116db60416123f0565b6001600160801b038082165f90815260018086016020526040909120939093558354919092018216600160801b029116179055565b61171d8585858585612401565b5050505050565b5f8061172f83612491565b9050600581600781111561174557611745613743565b146117505792915050565b5f838152600c60205260409081902054600b549151632c258a9f60e11b81526004810182905290916001600160a01b03169063584b153e90602401602060405180830381865afa1580156117a6573d5f803e3d5ffd5b505050506040513d601f19601f820116820180604052508101906117ca9190613fc5565b156117d9575060059392505050565b600b54604051632ab0f52960e01b8152600481018390526001600160a01b0390911690632ab0f52990602401602060405180830381865afa158015611820573d5f803e3d5ffd5b505050506040513d601f19601f820116820180604052508101906118449190613fc5565b15611853575060079392505050565b5060029392505050565b5f8061186884610db5565b600781111561187957611879613743565b1480156112895750505f91825260046020526040909120546001600160a01b0391821691161490565b5f6111ea858585856125c2565b5f6111ea858585856118cb60408051602081019091525f815290565b61199d565b5f610e1a856119977f3e83946653575f9a39005e1545185629e92736b7528ab20ca3816f315424a8118a8a8a6119228c6001600160a01b03165f90815260026020526040902080546001810190915590565b8b516020808e01919091208c518d83012060405161197c98979695949301968752602087019590955260ff9390931660408601526001600160a01b03919091166060850152608084015260a083015260c082015260e00190565b60405160208183030381529060405280519060200120612659565b84612685565b5f6119ac86610b6d6001611642565b505f6119c1866119bb89610d83565b85611eb8565b90505f6119d188888885886126f5565b905083515f03611a2757866001600160a01b03167fb8e138887d0aa13bab447e82de9d5c1777041ecd21ca36ba824ff1e6c07ddda489888489604051611a1a9493929190613fe4565b60405180910390a2610e1a565b866001600160a01b03167fe2babfbac5889a709b63bb7f598b324e08bc5a4fb9ec647fb3cbc9ec07eb87128988848989604051611a6895949392919061400b565b60405180910390a2979650505050505050565b5f805f611a87856127f1565b9250925050838265ffffffffffff161115611ab457611aaf611aa885612849565b869061287b565b611ab6565b805b6001600160d01b031695945050505050565b6008546040805165ffffffffffff928316815291831660208301527fc565b045403dc03c2eea82b81a0465edad9e2e7fc4d97e11421c209da93d7a93910160405180910390a16008805465ffffffffffff191665ffffffffffff92909216919091179055565b80515f906034811015611b45576001915050610a63565b60131981840101516001600160b01b03198116692370726f706f7365723d60b01b14611b7657600192505050610a63565b5f80611b8686602a86038661291d565b91509150811580610e1a5750866001600160a01b0316816001600160a01b031614979650505050505050565b5f611bc686868686805190602001206112ba565b905084518651141580611bdb57508351865114155b80611be557508551155b15611c1a57855184518651604051630447b05d60e41b8152600481019390935260248301919091526044820152606401610e05565b5f81815260046020526040902054600160a01b900465ffffffffffff1615611c635780611c4682610db5565b6040516331b75e4d60e01b8152610e059291905f90600401613fa3565b5f611c6c610da3565b611c746111f3565b65ffffffffffff16611c869190614044565b90505f611ca060085463ffffffff600160301b9091041690565b5f84815260046020526040902080546001600160a01b0319166001600160a01b038716178155909150611cd283612849565b815465ffffffffffff91909116600160a01b0265ffffffffffff60a01b19909116178155611cff826129c6565b815463ffffffff91909116600160d01b0263ffffffff60d01b1990911617815588517f7d84a6263ae0d98d3329bd7b46bb4e8d6f98cd35a7adb45c274c8b7fd5ebd5e090859087908c908c906001600160401b03811115611d6257611d62613428565b604051908082528060200260200182016040528015611d9557816020015b6060815260200190600190039081611d805790505b508c89611da28a82614044565b8e604051611db899989796959493929190614057565b60405180910390a150505095945050505050565b60606109f87f00000000000000000000000000000000000000000000000000000000000000005f6129f6565b60606109f87f000000000000000000000000000000000000000000000000000000000000000060016129f6565b5f6111ea836119977ff2aad550cf55f045cb27e9c559f9889fdfb6e6cdaa032301d6ea397784ae51d7888888611e778a6001600160a01b03165f90815260026020526040902080546001810190915590565b60408051602081019690965285019390935260ff90911660608401526001600160a01b0316608083015260a082015260c00161197c565b5f6109f843612849565b5f7f0000000000000000000000000000000000000000000000000000000000000000604051630748d63560e31b81526001600160a01b038681166004830152602482018690529190911690633a46b1a890604401602060405180830381865afa158015611f27573d5f803e3d5ffd5b505050506040513d601f19601f820116820180604052508101906112869190613f8c565b80545f908015611f8757611f7183611f6460018461412c565b5f91825260209091200190565b54600160301b90046001600160d01b0316611289565b5f9392505050565b600b54604080516001600160a01b03928316815291831660208301527f08f74ea46ef7894f65eabfb5e6e695de773a000b47c529ab559178069b226401910160405180910390a1600b80546001600160a01b0319166001600160a01b0392909216919091179055565b60608261200d5761200882612a9f565b610a63565b5080610a63565b8063ffffffff165f0361203c5760405163f1cfbf0560e01b81525f6004820152602401610e05565b6008546040805163ffffffff600160301b9093048316815291831660208301527f7e3f7f0708a84de9203036abaa450dccc85ad5ff52f78c170f3edb55cf5e8828910160405180910390a16008805463ffffffff909216600160301b0269ffffffff00000000000019909216919091179055565b60075460408051918252602082018390527fccb45da8d5717e6c4544694297c4ba5cf151d455c9bb0ed4fc7a38411bc05461910160405180910390a1600755565b5f805f6120fe8686612ac7565b91509150815f03612122578381816121185761211861413f565b0492505050611289565b8184116121395761213960038515026011186123f0565b5f848688095f868103871696879004966002600389028118808a02820302808a02820302808a02820302808a02820302808a02820302808a02909103029181900381900460010185841190960395909502919093039390930492909217029150509392505050565b80545f906001600160801b0380821691600160801b90041681036121c9576121c960316123f0565b6001600160801b038181165f908152600185810160205260408220805492905585546fffffffffffffffffffffffffffffffff19169301909116919091179092555090565b5f6001600160d01b03821115612241576040516306dfcc6560e41b815260d0600482015260248101839052604401610e05565b5090565b5f80612252858585612ae3565b915091505b935093915050565b5f80600b5f9054906101000a90046001600160a01b03166001600160a01b031663f27a0c926040518163ffffffff1660e01b8152600401602060405180830381865afa1580156122b1573d5f803e3d5ffd5b505050506040513d601f19601f820116820180604052508101906122d59190613f8c565b90505f3060601b6bffffffffffffffffffffffff19168418600b5460405163b1c5f42760e01b81529192506001600160a01b03169063b1c5f42790612326908a908a908a905f908890600401614153565b602060405180830381865afa158015612341573d5f803e3d5ffd5b505050506040513d601f19601f820116820180604052508101906123659190613f8c565b5f898152600c602052604080822092909255600b5491516308f2a0bb60e41b81526001600160a01b0390921691638f2a0bb0916123af918b918b918b919088908a906004016141a0565b5f604051808303815f87803b1580156123c6575f80fd5b505af11580156123d8573d5f803e3d5ffd5b50505050610fe282426123eb9190614044565b612849565b634e487b715f52806020526024601cfd5b600b546001600160a01b031663e38335e5348686865f3060601b6bffffffffffffffffffffffff191688186040518763ffffffff1660e01b815260040161244c959493929190614153565b5f604051808303818588803b158015612463575f80fd5b505af1158015612475573d5f803e3d5ffd5b5050505f9687525050600c602052505060408320929092555050565b5f818152600460205260408120805460ff600160f01b8204811691600160f81b90041681156124c557506007949350505050565b80156124d657506002949350505050565b5f6124e086610d83565b9050805f0361250557604051636ad0607560e01b815260048101879052602401610e05565b5f61250e6111f3565b65ffffffffffff16905080821061252b57505f9695505050505050565b5f6125358861131c565b905081811061254c57506001979650505050505050565b61255588612c33565b158061257457505f888152600960205260409020805460019091015411155b1561258757506003979650505050505050565b5f8881526004602052604090206001015465ffffffffffff165f036125b457506004979650505050505050565b506005979650505050505050565b5f806125d086868686612c69565b5f818152600c60205260409020549091508015610c1157600b5460405163c4d252f560e01b8152600481018390526001600160a01b039091169063c4d252f5906024015f604051808303815f87803b15801561262a575f80fd5b505af115801561263c573d5f803e3d5ffd5b5050505f838152600c602052604081205550509050949350505050565b5f610a63612665612d18565b8360405161190160f01b8152600281019290925260228201526042902090565b5f836001600160a01b03163b5f036126e3575f806126a38585612e41565b5090925090505f8160038111156126bc576126bc613743565b1480156126da5750856001600160a01b0316826001600160a01b0316145b92505050611289565b6126ee848484612e8a565b9050611289565b5f8581526009602090815260408083206001600160a01b03881684526003810190925282205460ff1615612747576040516371c6af4960e01b81526001600160a01b0387166004820152602401610e05565b6001600160a01b0386165f9081526003820160205260409020805460ff1916600117905560ff85166127905783815f015f8282546127859190614044565b909155506127e69050565b5f1960ff8616016127ae5783816001015f8282546127859190614044565b60011960ff8616016127cd5783816002015f8282546127859190614044565b6040516303599be160e11b815260040160405180910390fd5b509195945050505050565b80545f908190819080820361280f575f805f93509350935050610f03565b5f61281f86611f6460018561412c565b546001955065ffffffffffff81169450600160301b90046001600160d01b03169250610f03915050565b5f65ffffffffffff821115612241576040516306dfcc6560e41b81526030600482015260248101839052604401610e05565b81545f90818160058111156128d7575f61289484612f60565b61289e908561412c565b5f8881526020902090915081015465ffffffffffff90811690871610156128c7578091506128d5565b6128d2816001614044565b92505b505b5f6128e4878785856130b8565b90508015612911576128fb87611f6460018461412c565b54600160301b90046001600160d01b0316610e1a565b505f9695505050505050565b5f80845183118061292d57508284115b1561293c57505f905080612257565b5f612948856001614044565b84118015612970575061060f60f31b6129648787016020015190565b6001600160f01b031916145b90505f61298082151560026141f7565b61298b906028614044565b905080612998878761412c565b036129b9575f806129aa898989613117565b90965094506122579350505050565b5f80935093505050612257565b5f63ffffffff821115612241576040516306dfcc6560e41b81526020600482015260248101839052604401610e05565b606060ff8314612a1057612a09836131d8565b9050610a63565b818054612a1c90613d6f565b80601f0160208091040260200160405190810160405280929190818152602001828054612a4890613d6f565b8015612a935780601f10612a6a57610100808354040283529160200191612a93565b820191905f5260205f20905b815481529060010190602001808311612a7657829003601f168201915b50505050509050610a63565b805115612aae57805160208201fd5b60405163d6bda27560e01b815260040160405180910390fd5b5f805f1983850993909202808410938190039390930393915050565b82545f9081908015612bd9575f612aff87611f6460018561412c565b805490915065ffffffffffff80821691600160301b90046001600160d01b0316908816821115612b4257604051632520601d60e01b815260040160405180910390fd5b8765ffffffffffff168265ffffffffffff1603612b7b57825465ffffffffffff16600160301b6001600160d01b03891602178355612bcb565b6040805180820190915265ffffffffffff808a1682526001600160d01b03808a1660208085019182528d54600181018f555f8f81529190912094519151909216600160301b029216919091179101555b945085935061225792505050565b50506040805180820190915265ffffffffffff80851682526001600160d01b0380851660208085019182528854600181018a555f8a815291822095519251909316600160301b029190931617920191909155905081612257565b5f81815260096020526040812060028101546001820154612c549190614044565b612c606109ae85610d83565b11159392505050565b5f80612c77868686866112ba565b9050612cc581612c876007611642565b612c916006611642565b612c9b6002611642565b6001612ca860078261420e565b612cb3906002614307565b612cbd919061412c565b181818611664565b505f818152600460205260409081902080546001600160f81b0316600160f81b179055517f789cf55be980739dad1d0699b93b58e806b51c9d96619bfa8fe0a28abaa7b30c90610d729083815260200190565b5f306001600160a01b037f000000000000000000000000000000000000000000000000000000000000000016148015612d7057507f000000000000000000000000000000000000000000000000000000000000000046145b15612d9a57507f000000000000000000000000000000000000000000000000000000000000000090565b6109f8604080517f8b73c3c69bb8fe3d512ecc4cf759cc79239f7b179b0ffacaa9a75d522b39400f60208201527f0000000000000000000000000000000000000000000000000000000000000000918101919091527f000000000000000000000000000000000000000000000000000000000000000060608201524660808201523060a08201525f9060c00160405160208183030381529060405280519060200120905090565b5f805f8351604103612e78576020840151604085015160608601515f1a612e6a88828585613215565b955095509550505050612e83565b505081515f91506002905b9250925092565b5f805f856001600160a01b03168585604051602401612eaa929190614315565b60408051601f198184030181529181526020820180516001600160e01b0316630b135d3f60e11b17905251612edf919061432d565b5f60405180830381855afa9150503d805f8114612f17576040519150601f19603f3d011682016040523d82523d5f602084013e612f1c565b606091505b5091509150818015612f3057506020815110155b801561109957508051630b135d3f60e11b90612f559083016020908101908401613f8c565b149695505050505050565b5f60018211612f6d575090565b816001600160801b8210612f865760809190911c9060401b5b680100000000000000008210612fa15760409190911c9060201b5b6401000000008210612fb85760209190911c9060101b5b620100008210612fcd5760109190911c9060081b5b6101008210612fe15760089190911c9060041b5b60108210612ff45760049190911c9060021b5b600482106130005760011b5b600302600190811c908185816130185761301861413f565b048201901c905060018185816130305761303061413f565b048201901c905060018185816130485761304861413f565b048201901c905060018185816130605761306061413f565b048201901c905060018185816130785761307861413f565b048201901c905060018185816130905761309061413f565b048201901c90506130af8185816130a9576130a961413f565b04821190565b90039392505050565b5f5b8183101561310f575f6130cd84846132dd565b5f8781526020902090915065ffffffffffff86169082015465ffffffffffff1611156130fb57809250613109565b613106816001614044565b93505b506130ba565b509392505050565b5f808481613126866001614044565b8511801561314e575061060f60f31b6131428388016020015190565b6001600160f01b031916145b90505f61315e82151560026141f7565b90505f8061316c838a614044565b90505b878110156131c7575f61318d6131888784016020015190565b6132f7565b9050600f8160ff1611156131ac575f8097509750505050505050612257565b6131b76010846141f7565b60ff90911601915060010161316f565b506001999098509650505050505050565b60605f6131e48361336f565b6040805160208082528183019092529192505f91906020820181803683375050509182525060208101929092525090565b5f80807f7fffffffffffffffffffffffffffffff5d576e7357a4501ddfe92f46681b20a084111561324e57505f915060039050826132d3565b604080515f808252602082018084528a905260ff891692820192909252606081018790526080810186905260019060a0016020604051602081039080840390855afa15801561329f573d5f803e3d5ffd5b5050604051601f1901519150506001600160a01b0381166132ca57505f9250600191508290506132d3565b92505f91508190505b9450945094915050565b5f6132eb6002848418614343565b61128990848416614044565b5f60f882901c602f811180156133105750603a8160ff16105b1561331e57602f1901610a63565b60608160ff16118015613334575060678160ff16105b156133425760561901610a63565b60408160ff16118015613358575060478160ff16105b156133665760361901610a63565b5060ff92915050565b5f60ff8216601f811115610a6357604051632cd44ac360e21b815260040160405180910390fd5b5f602082840312156133a6575f80fd5b81356001600160e01b031981168114611289575f80fd5b5f602082840312156133cd575f80fd5b5035919050565b5f81518084528060208401602086015e5f602082860101526020601f19601f83011685010191505092915050565b602081525f61128960208301846133d4565b6001600160a01b0381168114610a7a575f80fd5b634e487b7160e01b5f52604160045260245ffd5b604051601f8201601f191681016001600160401b038111828210171561346457613464613428565b604052919050565b5f6001600160401b0382111561348457613484613428565b50601f01601f191660200190565b5f6134a461349f8461346c565b61343c565b90508281528383830111156134b7575f80fd5b828260208301375f602084830101529392505050565b5f82601f8301126134dc575f80fd5b61128983833560208501613492565b5f805f80608085870312156134fe575f80fd5b843561350981613414565b9350602085013561351981613414565b92506040850135915060608501356001600160401b0381111561353a575f80fd5b613546878288016134cd565b91505092959194509250565b5f6001600160401b0382111561356a5761356a613428565b5060051b60200190565b5f82601f830112613583575f80fd5b8135602061359361349f83613552565b8083825260208201915060208460051b8701019350868411156135b4575f80fd5b602086015b848110156135d95780356135cc81613414565b83529183019183016135b9565b509695505050505050565b5f82601f8301126135f3575f80fd5b8135602061360361349f83613552565b8083825260208201915060208460051b870101935086841115613624575f80fd5b602086015b848110156135d95780358352918301918301613629565b5f82601f83011261364f575f80fd5b8135602061365f61349f83613552565b82815260059290921b8401810191818101908684111561367d575f80fd5b8286015b848110156135d95780356001600160401b0381111561369e575f80fd5b6136ac8986838b01016134cd565b845250918301918301613681565b5f805f80608085870312156136cd575f80fd5b84356001600160401b03808211156136e3575f80fd5b6136ef88838901613574565b95506020870135915080821115613704575f80fd5b613710888389016135e4565b94506040870135915080821115613725575f80fd5b5061373287828801613640565b949793965093946060013593505050565b634e487b7160e01b5f52602160045260245ffd5b6008811061377357634e487b7160e01b5f52602160045260245ffd5b9052565b60208101610a638284613757565b5f8060408385031215613796575f80fd5b8235915060208301356137a881613414565b809150509250929050565b803560ff81168114610ee0575f80fd5b5f80604083850312156137d4575f80fd5b823591506137e4602084016137b3565b90509250929050565b5f8083601f8401126137fd575f80fd5b5081356001600160401b03811115613813575f80fd5b60208301915083602082850101111561382a575f80fd5b9250929050565b5f805f805f805f60c0888a031215613847575f80fd5b87359650613857602089016137b3565b9550604088013561386781613414565b945060608801356001600160401b0380821115613882575f80fd5b61388e8b838c016137ed565b909650945060808a01359150808211156138a6575f80fd5b6138b28b838c016134cd565b935060a08a01359150808211156138c7575f80fd5b506138d48a828b016134cd565b91505092959891949750929550565b5f805f805f608086880312156138f7575f80fd5b85359450613907602087016137b3565b935060408601356001600160401b0380821115613922575f80fd5b61392e89838a016137ed565b90955093506060880135915080821115613946575f80fd5b50613953888289016134cd565b9150509295509295909350565b65ffffffffffff81168114610a7a575f80fd5b5f60208284031215613983575f80fd5b813561128981613960565b5f805f80606085870312156139a1575f80fd5b843593506139b1602086016137b3565b925060408501356001600160401b038111156139cb575f80fd5b6139d7878288016137ed565b95989497509550505050565b5f805f80608085870312156139f6575f80fd5b84356001600160401b0380821115613a0c575f80fd5b613a1888838901613574565b95506020870135915080821115613a2d575f80fd5b613a39888389016135e4565b94506040870135915080821115613a4e575f80fd5b613a5a88838901613640565b93506060870135915080821115613a6f575f80fd5b508501601f81018713613a80575f80fd5b61354687823560208401613492565b5f60208284031215613a9f575f80fd5b813561128981613414565b5f815180845260208085019450602084015f5b83811015613ad957815187529582019590820190600101613abd565b509495945050505050565b60ff60f81b8816815260e060208201525f613b0260e08301896133d4565b8281036040840152613b1481896133d4565b606084018890526001600160a01b038716608085015260a0840186905283810360c08501529050613b458185613aaa565b9a9950505050505050505050565b5f805f8060808587031215613b66575f80fd5b84359350613b76602086016137b3565b92506040850135613b8681613414565b915060608501356001600160401b0381111561353a575f80fd5b5f805f60608486031215613bb2575f80fd5b8335613bbd81613414565b92506020840135915060408401356001600160401b03811115613bde575f80fd5b613bea868287016134cd565b9150509250925092565b5f805f805f60a08688031215613c08575f80fd5b8535613c1381613414565b94506020860135613c2381613414565b935060408601356001600160401b0380821115613c3e575f80fd5b613c4a89838a016135e4565b94506060880135915080821115613c5f575f80fd5b613c6b89838a016135e4565b93506080880135915080821115613946575f80fd5b5f805f8060608587031215613c93575f80fd5b8435613c9e81613414565b93506020850135925060408501356001600160401b038111156139cb575f80fd5b5f60208284031215613ccf575f80fd5b813563ffffffff81168114611289575f80fd5b5f8060408385031215613cf3575f80fd5b8235613cfe81613414565b946020939093013593505050565b5f805f805f60a08688031215613d20575f80fd5b8535613d2b81613414565b94506020860135613d3b81613414565b9350604086013592506060860135915060808601356001600160401b03811115613d63575f80fd5b613953888289016134cd565b600181811c90821680613d8357607f821691505b602082108103613da157634e487b7160e01b5f52602260045260245ffd5b50919050565b634e487b7160e01b5f52603260045260245ffd5b5f60208284031215613dcb575f80fd5b81516001600160401b03811115613de0575f80fd5b8201601f81018413613df0575f80fd5b8051613dfe61349f8261346c565b818152856020838501011115613e12575f80fd5b8160208401602083015e5f91810160200191909152949350505050565b634e487b7160e01b5f52601160045260245ffd5b65ffffffffffff828116828216039080821115613e6257613e62613e2f565b5092915050565b5f60208284031215613e79575f80fd5b815161128981613960565b65ffffffffffff818116838216019080821115613e6257613e62613e2f565b818382375f9101908152919050565b5f815180845260208085019450602084015f5b83811015613ad95781516001600160a01b031687529582019590820190600101613ec5565b5f8282518085526020808601955060208260051b840101602086015f5b84811015613f3557601f19868403018952613f238383516133d4565b98840198925090830190600101613f07565b5090979650505050505050565b608081525f613f546080830187613eb2565b8281036020840152613f668187613aaa565b90508281036040840152613f7a8186613eea565b91505082606083015295945050505050565b5f60208284031215613f9c575f80fd5b5051919050565b83815260608101613fb76020830185613757565b826040830152949350505050565b5f60208284031215613fd5575f80fd5b81518015158114611289575f80fd5b84815260ff84166020820152826040820152608060608201525f61109960808301846133d4565b85815260ff8516602082015283604082015260a060608201525f61403260a08301856133d4565b8281036080840152610fe281856133d4565b80820180821115610a6357610a63613e2f565b5f6101208b8352602060018060a01b038c168185015281604085015261407f8285018c613eb2565b91508382036060850152614093828b613aaa565b915083820360808501528189518084528284019150828160051b850101838c015f5b838110156140e357601f198784030185526140d18383516133d4565b948601949250908501906001016140b5565b505086810360a08801526140f7818c613eea565b9450505050508560c08401528460e084015282810361010084015261411c81856133d4565b9c9b505050505050505050505050565b81810381811115610a6357610a63613e2f565b634e487b7160e01b5f52601260045260245ffd5b60a081525f61416560a0830188613eb2565b82810360208401526141778188613aaa565b9050828103604084015261418b8187613eea565b60608401959095525050608001529392505050565b60c081525f6141b260c0830189613eb2565b82810360208401526141c48189613aaa565b905082810360408401526141d88188613eea565b60608401969096525050608081019290925260a0909101529392505050565b8082028115828204841417610a6357610a63613e2f565b60ff8181168382160190811115610a6357610a63613e2f565b600181815b8085111561426157815f190482111561424757614247613e2f565b8085161561425457918102915b93841c939080029061422c565b509250929050565b5f8261427757506001610a63565b8161428357505f610a63565b816001811461429957600281146142a3576142bf565b6001915050610a63565b60ff8411156142b4576142b4613e2f565b50506001821b610a63565b5060208310610133831016604e8410600b84101617156142e2575081810a610a63565b6142ec8383614227565b805f19048211156142ff576142ff613e2f565b029392505050565b5f61128960ff841683614269565b828152604060208201525f61128660408301846133d4565b5f82518060208501845e5f920191825250919050565b5f8261435d57634e487b7160e01b5f52601260045260245ffd5b50049056fea264697066735822122066f2c097cae3e6bdabe0629fd7fb9be1cd761a96d8b44114cba1996e34d600d164736f6c63430008190033a2646970667358221220a128e17ed296926d2461333663f0b6ec63e1909870ceeefc9b81772f7cc6180f64736f6c63430008190033",
  "immutableReferences": {},
  "source": "// SPDX-License-Identifier: MIT\npragma solidity ^0.8.25;\nimport \"./FractionTokenLite.sol\";\nimport { IVotes } from \"@openzeppelin/contracts/governance/utils/IVotes.sol\";\nimport { Nonces } from \"@openzeppelin/contracts/utils/Nonces.sol\";\nimport { AccessControl } from \"@openzeppelin/contracts/access/AccessControl.sol\";\nimport { Pausable } from \"@openzeppelin/contracts/utils/Pausable.sol\";\nimport { ReentrancyGuard } from \"@openzeppelin/contracts/utils/ReentrancyGuard.sol\";\nimport { SafeCast } from \"@openzeppelin/contracts/utils/math/SafeCast.sol\";\nimport { Math } from \"@openzeppelin/contracts/utils/math/Math.sol\";\n\nimport { ERC20 } from \"@openzeppelin/contracts/token/ERC20/ERC20.sol\";\nimport { ERC20Permit } from \"@openzeppelin/contracts/token/ERC20/extensions/ERC20Permit.sol\";\nimport { ERC20Votes } from \"@openzeppelin/contracts/token/ERC20/extensions/ERC20Votes.sol\";\n\nimport { TimelockController } from \"@openzeppelin/contracts/governance/TimelockController.sol\";\nimport { Governor } from \"@openzeppelin/contracts/governance/Governor.sol\";\nimport { GovernorSettings } from \"@openzeppelin/contracts/governance/extensions/GovernorSettings.sol\";\nimport { GovernorCountingSimple } from \"@openzeppelin/contracts/governance/extensions/GovernorCountingSimple.sol\";\nimport { GovernorVotes } from \"@openzeppelin/contracts/governance/extensions/GovernorVotes.sol\";\nimport { GovernorVotesQuorumFraction } from \"@openzeppelin/contracts/governance/extensions/GovernorVotesQuorumFraction.sol\";\nimport { GovernorTimelockControl } from \"@openzeppelin/contracts/governance/extensions/GovernorTimelockControl.sol\";\n\ninterface IFractionTokenLite {\n  function setDistributor(address distributor) external;\n  function setWhitelist(address account, bool allowed) external;\n\n  function DEFAULT_ADMIN_ROLE() external view returns (bytes32);\n  function PAUSER_ROLE() external view returns (bytes32);\n  function WHITELIST_ADMIN_ROLE() external view returns (bytes32);\n\n  function grantRole(bytes32 role, address account) external;\n  function revokeRole(bytes32 role, address account) external;\n}\n\n\n\ninterface IRentDistributorHook {\n  function onTokenTransfer(address from, address to, uint256 amount) external;\n}\n\ninterface IRentAccounting {\n  function totalDividendsAccrued() external view returns (uint256);\n  function totalDividendsClaimed() external view returns (uint256);\n}\n\ninterface IRentAccountingFull is IRentAccounting {\n  function pendingUndistributed() external view returns (uint256);\n}\n\n/*//////////////////////////////////////////////////////////////\n                        FRACTION TOKEN\n//////////////////////////////////////////////////////////////*/\ncontract FractionToken is ERC20, ERC20Permit, ERC20Votes, AccessControl, Pausable {\n  bytes32 public constant PAUSER_ROLE = keccak256(\"PAUSER_ROLE\");\n  bytes32 public constant WHITELIST_ADMIN_ROLE = keccak256(\"WHITELIST_ADMIN_ROLE\");\n\n  bool public transfersRestricted;\n  mapping(address => bool) public isWhitelisted;\n\n  address public distributor;\n\n  error DistributorAlreadySet();\n  error TransfersRestricted();\n  error ZeroAddress();\n\n  event DistributorSet(address indexed distributor);\n  event TransfersRestrictionSet(bool restricted);\n  event WhitelistSet(address indexed account, bool allowed);\n\n  constructor(\n    string memory name_,\n    string memory symbol_,\n    address admin_,\n    address initialHolder_,\n    uint256 initialSupply_\n  ) ERC20(name_, symbol_) ERC20Permit(name_) {\n    if (admin_ == address(0) || initialHolder_ == address(0)) revert ZeroAddress();\n\n    _grantRole(DEFAULT_ADMIN_ROLE, admin_);\n    _grantRole(PAUSER_ROLE, admin_);\n    _grantRole(WHITELIST_ADMIN_ROLE, admin_);\n\n    transfersRestricted = false;\n\n    isWhitelisted[admin_] = true;\n    isWhitelisted[initialHolder_] = true;\n\n    _mint(initialHolder_, initialSupply_);\n  }\n\n  function pause() external onlyRole(PAUSER_ROLE) { _pause(); }\n  function unpause() external onlyRole(PAUSER_ROLE) { _unpause(); }\n\n  function setTransfersRestricted(bool restricted) external onlyRole(WHITELIST_ADMIN_ROLE) {\n    transfersRestricted = restricted;\n    emit TransfersRestrictionSet(restricted);\n  }\n\n  function setWhitelist(address account, bool allowed) external onlyRole(WHITELIST_ADMIN_ROLE) {\n    if (account == address(0)) revert ZeroAddress();\n    isWhitelisted[account] = allowed;\n    emit WhitelistSet(account, allowed);\n  }\n\n  function setDistributor(address distributor_) external onlyRole(DEFAULT_ADMIN_ROLE) {\n    if (distributor_ == address(0)) revert ZeroAddress();\n    if (distributor != address(0)) revert DistributorAlreadySet();\n    distributor = distributor_;\n    emit DistributorSet(distributor_);\n  }\n\n  function _update(address from, address to, uint256 value)\n    internal\n    override(ERC20, ERC20Votes)\n    whenNotPaused\n  {\n    if (transfersRestricted) {\n      if (from == address(0)) {\n        if (!isWhitelisted[to]) revert TransfersRestricted();\n      } else if (to == address(0)) {\n        if (!isWhitelisted[from]) revert TransfersRestricted();\n      } else {\n        if (!isWhitelisted[from] || !isWhitelisted[to]) revert TransfersRestricted();\n      }\n    }\n\n    super._update(from, to, value);\n\n    if (distributor != address(0)) {\n      IRentDistributorHook(distributor).onTokenTransfer(from, to, value);\n    }\n  }\n\n  function nonces(address owner)\n    public\n    view\n    override(ERC20Permit, Nonces)\n    returns (uint256)\n  {\n    return super.nonces(owner);\n  }\n}\n\n/*//////////////////////////////////////////////////////////////\n                          PROPERTY VAULT (ETH)\n//////////////////////////////////////////////////////////////*/\ncontract PropertyVault is AccessControl, Pausable, ReentrancyGuard {\n  bytes32 public constant PROPERTY_MANAGER_ROLE = keccak256(\"PROPERTY_MANAGER_ROLE\");\n  bytes32 public constant GOVERNANCE_ROLE = keccak256(\"GOVERNANCE_ROLE\");\n\n  address public distributor;\n  uint16 public reserveBps;\n\n  error DistributorAlreadySet();\n  error ZeroAddress();\n  error InvalidBps();\n  error InsufficientUnencumberedBalance();\n  error EthTransferFailed();\n\n  event DistributorSet(address indexed distributor);\n  event ReserveBpsSet(uint16 bps);\n  event IncomeDeposited(address indexed from, uint256 amount, uint256 reserved, uint256 distributed);\n  event GovernancePayment(address indexed to, uint256 amount, string memo);\n  event DividendPaid(address indexed to, uint256 amount);\n\n  constructor(address admin_, address propertyManager_) {\n    if (admin_ == address(0) || propertyManager_ == address(0)) revert ZeroAddress();\n\n    _grantRole(DEFAULT_ADMIN_ROLE, admin_);\n    _grantRole(PROPERTY_MANAGER_ROLE, propertyManager_);\n    _grantRole(GOVERNANCE_ROLE, admin_);\n\n    reserveBps = 0;\n  }\n\n  function pause() external onlyRole(DEFAULT_ADMIN_ROLE) { _pause(); }\n  function unpause() external onlyRole(DEFAULT_ADMIN_ROLE) { _unpause(); }\n\n  function setDistributor(address distributor_) external onlyRole(DEFAULT_ADMIN_ROLE) {\n    if (distributor_ == address(0)) revert ZeroAddress();\n    if (distributor != address(0)) revert DistributorAlreadySet();\n    distributor = distributor_;\n    emit DistributorSet(distributor_);\n  }\n\n  function setReserveBps(uint16 bps) external onlyRole(GOVERNANCE_ROLE) {\n    if (bps > 10_000) revert InvalidBps();\n    reserveBps = bps;\n    emit ReserveBpsSet(bps);\n  }\n\n  function depositIncome() external payable onlyRole(PROPERTY_MANAGER_ROLE) whenNotPaused nonReentrant {\n    require(distributor != address(0), \"Distributor not set\");\n    uint256 amount = msg.value;\n    require(amount > 0, \"amount=0\");\n\n    uint256 reserved = Math.mulDiv(amount, reserveBps, 10_000);\n    uint256 distributed = amount - reserved;\n    RentDistributor(distributor).notifyRent(distributed);\n\n    emit IncomeDeposited(msg.sender, amount, reserved, distributed);\n  }\n\n  function payDividend(address payable to, uint256 amount) external whenNotPaused nonReentrant {\n    require(msg.sender == distributor, \"only distributor\");\n    if (amount == 0) return;\n\n    (bool ok, ) = to.call{value: amount}(\"\");\n    if (!ok) revert EthTransferFailed();\n\n    emit DividendPaid(to, amount);\n  }\n\n  function executeGovernancePayment(address payable to, uint256 amount, string calldata memo)\n    external\n    onlyRole(GOVERNANCE_ROLE)\n    whenNotPaused\n    nonReentrant\n  {\n    if (to == address(0)) revert ZeroAddress();\n    require(distributor != address(0), \"Distributor not set\");\n    require(amount > 0, \"amount=0\");\n\n    uint256 balance = address(this).balance;\n\n    uint256 accrued = IRentAccounting(distributor).totalDividendsAccrued();\n    uint256 claimed = IRentAccounting(distributor).totalDividendsClaimed();\n    uint256 pending = IRentAccountingFull(distributor).pendingUndistributed();\n    uint256 owed = (accrued + pending) - claimed;\n\n    if (balance < owed) revert InsufficientUnencumberedBalance();\n    uint256 available = balance - owed;\n\n    if (amount > available) revert InsufficientUnencumberedBalance();\n\n    (bool ok, ) = to.call{value: amount}(\"\");\n    if (!ok) revert EthTransferFailed();\n\n    emit GovernancePayment(to, amount, memo);\n  }\n}\n\n/*//////////////////////////////////////////////////////////////\n                        RENT DISTRIBUTOR (ETH)\n//////////////////////////////////////////////////////////////*/\ncontract RentDistributor is IRentDistributorHook, IRentAccounting, ReentrancyGuard {\n  using SafeCast for int256;\n  uint256 private constant MAGNIFICATION = 2 ** 128;\n\n  FractionToken public immutable sharesToken;\n  PropertyVault public immutable vault;\n\n  uint256 public magnifiedDividendPerShare;\n  mapping(address => int256) public magnifiedDividendCorrections;\n  mapping(address => uint256) public withdrawnDividends;\n\n  uint256 public pendingUndistributed;\n  uint256 public override totalDividendsAccrued;\n  uint256 public override totalDividendsClaimed;\n\n  error OnlyVault();\n  error OnlySharesToken();\n\n  event RentNotified(uint256 amountDistributed, uint256 newMagnifiedDividendPerShare);\n  event DividendClaimed(address indexed account, uint256 amount);\n\n  constructor(address sharesToken_, address vault_) {\n    require(sharesToken_ != address(0) && vault_ != address(0), \"zero\");\n    sharesToken = FractionToken(sharesToken_);\n    vault = PropertyVault(vault_);\n  }\n\n  modifier onlyVault() {\n    if (msg.sender != address(vault)) revert OnlyVault();\n    _;\n  }\n\n  modifier onlySharesToken() {\n    if (msg.sender != address(sharesToken)) revert OnlySharesToken();\n    _;\n  }\n\n  function notifyRent(uint256 amount) external onlyVault {\n    if (amount == 0) return;\n\n    uint256 supply = sharesToken.totalSupply();\n    if (supply == 0) {\n      pendingUndistributed += amount;\n      return;\n    }\n\n    uint256 distributable = amount + pendingUndistributed;\n    pendingUndistributed = 0;\n\n    magnifiedDividendPerShare += (distributable * MAGNIFICATION) / supply;\n    totalDividendsAccrued += distributable;\n\n    emit RentNotified(distributable, magnifiedDividendPerShare);\n  }\n\n  function onTokenTransfer(address from, address to, uint256 amount) external onlySharesToken {\n    if (amount == 0) return;\n    int256 magCorrection = SafeCast.toInt256(magnifiedDividendPerShare * amount);\n\n    if (from == address(0)) {\n      magnifiedDividendCorrections[to] -= magCorrection;\n    } else if (to == address(0)) {\n      magnifiedDividendCorrections[from] += magCorrection;\n    } else {\n      magnifiedDividendCorrections[from] += magCorrection;\n      magnifiedDividendCorrections[to] -= magCorrection;\n    }\n  }\n\n  function withdrawableDividendOf(address account) public view returns (uint256) {\n    uint256 accumulative = accumulativeDividendOf(account);\n    uint256 alreadyWithdrawn = withdrawnDividends[account];\n    if (accumulative <= alreadyWithdrawn) return 0;\n    return accumulative - alreadyWithdrawn;\n  }\n\n  function accumulativeDividendOf(address account) public view returns (uint256) {\n    uint256 bal = sharesToken.balanceOf(account);\n    int256 magnified = SafeCast.toInt256(magnifiedDividendPerShare * bal);\n    int256 corrected = magnified + magnifiedDividendCorrections[account];\n\n    if (corrected <= 0) return 0;\n    return uint256(corrected) / MAGNIFICATION;\n  }\n\n  function claim() external nonReentrant {\n    uint256 withdrawable = withdrawableDividendOf(msg.sender);\n    if (withdrawable == 0) return;\n\n    withdrawnDividends[msg.sender] += withdrawable;\n    totalDividendsClaimed += withdrawable;\n\n    vault.payDividend(payable(msg.sender), withdrawable);\n\n    emit DividendClaimed(msg.sender, withdrawable);\n  }\n}\n\n/*//////////////////////////////////////////////////////////////\n                      PROPERTY GOVERNOR\n//////////////////////////////////////////////////////////////*/\ncontract PropertyGovernor is\n  Governor,\n  GovernorSettings,\n  GovernorCountingSimple,\n  GovernorVotes,\n  GovernorVotesQuorumFraction,\n  GovernorTimelockControl\n{\n  constructor(\n    IVotes token_,\n    TimelockController timelock_,\n    uint48 votingDelayBlocks_,\n    uint32 votingPeriodBlocks_,\n    uint256 proposalThresholdTokens_,\n    uint256 quorumPercent_\n  )\n    Governor(\"PropertyGovernor\")\n    GovernorSettings(votingDelayBlocks_, votingPeriodBlocks_, proposalThresholdTokens_)\n    GovernorVotes(token_)\n    GovernorVotesQuorumFraction(quorumPercent_)\n    GovernorTimelockControl(timelock_)\n  {}\n\n  function votingDelay() public view override(Governor, GovernorSettings) returns (uint256) {\n    return super.votingDelay();\n  }\n\n  function votingPeriod() public view override(Governor, GovernorSettings) returns (uint256) {\n    return super.votingPeriod();\n  }\n\n  function proposalThreshold() public view override(Governor, GovernorSettings) returns (uint256) {\n    return super.proposalThreshold();\n  }\n\n  function state(uint256 proposalId)\n    public\n    view\n    override(Governor, GovernorTimelockControl)\n    returns (ProposalState)\n  {\n    return super.state(proposalId);\n  }\n\n  function proposalNeedsQueuing(uint256 proposalId)\n    public\n    view\n    override(Governor, GovernorTimelockControl)\n    returns (bool)\n  {\n    return super.proposalNeedsQueuing(proposalId);\n  }\n\n  function _queueOperations(\n    uint256 proposalId,\n    address[] memory targets,\n    uint256[] memory values,\n    bytes[] memory calldatas,\n    bytes32 descriptionHash\n  )\n    internal\n    override(Governor, GovernorTimelockControl)\n    returns (uint48)\n  {\n    return super._queueOperations(proposalId, targets, values, calldatas, descriptionHash);\n  }\n\n  function _executeOperations(\n    uint256 proposalId,\n    address[] memory targets,\n    uint256[] memory values,\n    bytes[] memory calldatas,\n    bytes32 descriptionHash\n  )\n    internal\n    override(Governor, GovernorTimelockControl)\n  {\n    super._executeOperations(proposalId, targets, values, calldatas, descriptionHash);\n  }\n\n  function _cancel(\n    address[] memory targets,\n    uint256[] memory values,\n    bytes[] memory calldatas,\n    bytes32 descriptionHash\n  )\n    internal\n    override(Governor, GovernorTimelockControl)\n    returns (uint256)\n  {\n    return super._cancel(targets, values, calldatas, descriptionHash);\n  }\n\n  function _executor()\n    internal\n    view\n    override(Governor, GovernorTimelockControl)\n    returns (address)\n  {\n    return super._executor();\n  }\n}\n\n/*//////////////////////////////////////////////////////////////\n                       REAL ESTATE DAO (Factory)\n//////////////////////////////////////////////////////////////*/\ncontract RealEstateDAO {\n  struct CreatePropertyArgs {\n    string name;\n    string symbol;\n    address admin;\n    address initialHolder;\n    uint256 initialSupply;\n    address propertyManager;\n    uint16 reserveBps;\n    uint256 timelockDelaySeconds;\n    uint48 votingDelayBlocks;\n    uint32 votingPeriodBlocks;\n    uint256 proposalThresholdTokens;\n    uint256 quorumPercent;\n  }\n\n  struct CreatePropertyLiteArgs {\n    string name;\n    string symbol;\n    address admin;\n    address initialHolder;\n    uint256 initialSupply;\n    address propertyManager;\n    uint16 reserveBps;\n  }\n\n\n  event PropertyCreated(\n    address indexed token,\n    address indexed vault,\n    address indexed distributor,\n    address timelock,\n    address governor\n  );\n\n  //  :        \n  function _emptyAddressArray() internal pure returns (address[] memory) {\n    return new address[](0); // Correct: array of size 0\n  }\n\n  function _anyoneExecutors() internal pure returns (address[] memory arr) {\n    arr = new address[](1); // Correct: array of size 1\n    arr[0] = address(0);\n  }\n\n  function createProperty(CreatePropertyArgs calldata a)\n    external\n    returns (address token, address vault, address distributor, address timelock, address governor)\n  {\n    return _createProperty(a);\n  }\n\n\n  function _createProperty(CreatePropertyArgs memory a)\n    internal\n    returns (address token, address vault, address distributor, address timelock, address governor)\n  {\n    require(\n      a.admin != address(0) &&\n      a.initialHolder != address(0) &&\n      a.propertyManager != address(0),\n      \"zero\"\n    );\n\n    FractionToken t = new FractionToken(a.name, a.symbol, address(this), a.initialHolder, a.initialSupply);\n    PropertyVault v = new PropertyVault(address(this), a.propertyManager);\n    RentDistributor d = new RentDistributor(address(t), address(v));\n\n    t.setDistributor(address(d));\n    v.setDistributor(address(d));\n\n    t.setWhitelist(a.admin, true);\n    v.setReserveBps(a.reserveBps);\n\n    TimelockController tl = new TimelockController(\n      a.timelockDelaySeconds,\n      _emptyAddressArray(),\n      _anyoneExecutors(),\n      address(this)\n    );\n\n    PropertyGovernor g = new PropertyGovernor(\n      IVotes(address(t)),\n      tl,\n      a.votingDelayBlocks,\n      a.votingPeriodBlocks,\n      a.proposalThresholdTokens,\n      a.quorumPercent\n    );\n\n    tl.grantRole(tl.PROPOSER_ROLE(), address(g));\n    tl.grantRole(tl.CANCELLER_ROLE(), a.admin);\n\n    tl.grantRole(tl.DEFAULT_ADMIN_ROLE(), a.admin);\n    tl.revokeRole(tl.DEFAULT_ADMIN_ROLE(), address(this));\n\n    v.grantRole(v.GOVERNANCE_ROLE(), address(tl));\n    v.revokeRole(v.GOVERNANCE_ROLE(), address(this));\n\n    t.grantRole(t.DEFAULT_ADMIN_ROLE(), a.admin);\n    t.grantRole(t.PAUSER_ROLE(), a.admin);\n    t.grantRole(t.WHITELIST_ADMIN_ROLE(), a.admin);\n\n    t.revokeRole(t.PAUSER_ROLE(), address(this));\n    t.revokeRole(t.WHITELIST_ADMIN_ROLE(), address(this));\n    t.revokeRole(t.DEFAULT_ADMIN_ROLE(), address(this));\n\n    v.grantRole(v.DEFAULT_ADMIN_ROLE(), a.admin);\n    v.revokeRole(v.DEFAULT_ADMIN_ROLE(), address(this));\n\n    emit PropertyCreated(address(t), address(v), address(d), address(tl), address(g));\n\n    return (address(t), address(v), address(d), address(tl), address(g));\n  }\n\n  function createPropertyLite(CreatePropertyLiteArgs calldata a)\n    external\n    returns (address token, address vault, address distributor)\n  {\n    return _createPropertyLite(a);\n  }\n\n\n  function _createPropertyLite(CreatePropertyLiteArgs memory a)\n    internal\n    returns (address token, address vault, address distributor)\n  {\n    require(\n      a.admin != address(0) &&\n      a.initialHolder != address(0) &&\n      a.propertyManager != address(0),\n      \"zero\"\n    );\n\n    FractionToken t = new FractionToken(a.name, a.symbol, address(this), a.initialHolder, a.initialSupply);\n    PropertyVault v = new PropertyVault(address(this), a.propertyManager);\n    RentDistributor d = new RentDistributor(address(t), address(v));\n\n    t.setDistributor(address(d));\n    v.setDistributor(address(d));\n\n    t.setWhitelist(a.admin, true);\n    v.setReserveBps(a.reserveBps);\n\n    // Governance handled by admin directly (no timelock/governor)\n    v.grantRole(v.GOVERNANCE_ROLE(), a.admin);\n    v.revokeRole(v.GOVERNANCE_ROLE(), address(this));\n\n    t.grantRole(t.DEFAULT_ADMIN_ROLE(), a.admin);\n    t.grantRole(t.PAUSER_ROLE(), a.admin);\n    t.grantRole(t.WHITELIST_ADMIN_ROLE(), a.admin);\n\n    t.revokeRole(t.PAUSER_ROLE(), address(this));\n    t.revokeRole(t.WHITELIST_ADMIN_ROLE(), address(this));\n    t.revokeRole(t.DEFAULT_ADMIN_ROLE(), address(this));\n\n    v.grantRole(v.DEFAULT_ADMIN_ROLE(), a.admin);\n    v.revokeRole(v.DEFAULT_ADMIN_ROLE(), address(this));\n\n    emit PropertyCreated(address(t), address(v), address(d), address(0), address(0));\n\n    return (address(t), address(v), address(d));\n  }\n\n\n  /// @notice Finalize a \"lite\" property after deploying the child contracts (token/vault/distributor)\n  ///         with `admin_ = address(this)` (the DAO) so the DAO can wire roles and settings.\n  /// @dev This avoids deploying 3 contracts inside one tx, which can hit gas / initcode limits on dev chains.\n  function finalizePropertyLite(\n    address token,\n    address vault,\n    address distributor,\n    address admin,\n    uint16 reserveBps\n  ) external returns (address tokenOut, address vaultOut, address distributorOut) {\n    require(msg.sender == admin, \"only admin\");\n    require(token != address(0) && vault != address(0) && distributor != address(0) && admin != address(0), \"zero addr\");\n\n    IFractionTokenLite t = IFractionTokenLite(token);\n    PropertyVault v = PropertyVault(vault);\n\n    // Wire distributor\n    t.setDistributor(distributor);\n    v.setDistributor(distributor);\n\n    // Allow admin to receive/transfer even when transfers are restricted\n    t.setWhitelist(admin, true);\n\n    // Reserve / governance\n    v.setReserveBps(reserveBps);\n\n    // Hand over vault governance to the admin\n    v.grantRole(v.GOVERNANCE_ROLE(), admin);\n    v.revokeRole(v.GOVERNANCE_ROLE(), address(this));\n\n    // Hand over token admin roles to the admin\n    t.grantRole(t.DEFAULT_ADMIN_ROLE(), admin);\n    t.grantRole(t.PAUSER_ROLE(), admin);\n    t.grantRole(t.WHITELIST_ADMIN_ROLE(), admin);\n\n    // Optional: drop DAO roles on the token\n    t.revokeRole(t.PAUSER_ROLE(), address(this));\n    t.revokeRole(t.WHITELIST_ADMIN_ROLE(), address(this));\n    t.revokeRole(t.DEFAULT_ADMIN_ROLE(), address(this));\n\n    emit PropertyCreated(token, vault, distributor, address(0), address(0));\n    return (token, vault, distributor);\n  }\n\n\n}",
  "sourcePath": "C:\\Users\\moham\\Desktop\\course\\15-BlockChain\\brix\\brix-truffle-frontend-web\\brix\\contracts\\RealEstateDAO.fixed2.sol",
  "compiler": {
    "name": "solc",
    "version": "0.8.25+commit.b61c2a91.Emscripten.clang"
  },
  "schemaVersion": "3.4.16",
  "updatedAt": "2025-12-18T07:42:48.677Z",
  "networkType": "ethereum",
  "devdoc": {
    "kind": "dev",
    "methods": {
      "finalizePropertyLite(address,address,address,address,uint16)": {
        "details": "This avoids deploying 3 contracts inside one tx, which can hit gas / initcode limits on dev chains."
      }
    },
    "version": 1
  },
  "userdoc": {
    "kind": "user",
    "methods": {
      "finalizePropertyLite(address,address,address,address,uint16)": {
        "notice": "Finalize a \"lite\" property after deploying the child contracts (token/vault/distributor)         with `admin_ = address(this)` (the DAO) so the DAO can wire roles and settings."
      }
    },
    "version": 1
  }
}