{
  "contractName": "RentDistributor",
  "abi": [
    {
      "inputs": [
        {
          "internalType": "address",
          "name": "sharesToken_",
          "type": "address"
        },
        {
          "internalType": "address",
          "name": "vault_",
          "type": "address"
        }
      ],
      "stateMutability": "nonpayable",
      "type": "constructor"
    },
    {
      "inputs": [],
      "name": "OnlySharesToken",
      "type": "error"
    },
    {
      "inputs": [],
      "name": "OnlyVault",
      "type": "error"
    },
    {
      "inputs": [],
      "name": "ReentrancyGuardReentrantCall",
      "type": "error"
    },
    {
      "inputs": [
        {
          "internalType": "uint256",
          "name": "value",
          "type": "uint256"
        }
      ],
      "name": "SafeCastOverflowedUintToInt",
      "type": "error"
    },
    {
      "anonymous": false,
      "inputs": [
        {
          "indexed": true,
          "internalType": "address",
          "name": "account",
          "type": "address"
        },
        {
          "indexed": false,
          "internalType": "uint256",
          "name": "amount",
          "type": "uint256"
        }
      ],
      "name": "DividendClaimed",
      "type": "event"
    },
    {
      "anonymous": false,
      "inputs": [
        {
          "indexed": false,
          "internalType": "uint256",
          "name": "amountDistributed",
          "type": "uint256"
        },
        {
          "indexed": false,
          "internalType": "uint256",
          "name": "newMagnifiedDividendPerShare",
          "type": "uint256"
        }
      ],
      "name": "RentNotified",
      "type": "event"
    },
    {
      "inputs": [
        {
          "internalType": "address",
          "name": "",
          "type": "address"
        }
      ],
      "name": "magnifiedDividendCorrections",
      "outputs": [
        {
          "internalType": "int256",
          "name": "",
          "type": "int256"
        }
      ],
      "stateMutability": "view",
      "type": "function"
    },
    {
      "inputs": [],
      "name": "magnifiedDividendPerShare",
      "outputs": [
        {
          "internalType": "uint256",
          "name": "",
          "type": "uint256"
        }
      ],
      "stateMutability": "view",
      "type": "function"
    },
    {
      "inputs": [],
      "name": "pendingUndistributed",
      "outputs": [
        {
          "internalType": "uint256",
          "name": "",
          "type": "uint256"
        }
      ],
      "stateMutability": "view",
      "type": "function"
    },
    {
      "inputs": [],
      "name": "sharesToken",
      "outputs": [
        {
          "internalType": "contract FractionToken",
          "name": "",
          "type": "address"
        }
      ],
      "stateMutability": "view",
      "type": "function"
    },
    {
      "inputs": [],
      "name": "totalDividendsAccrued",
      "outputs": [
        {
          "internalType": "uint256",
          "name": "",
          "type": "uint256"
        }
      ],
      "stateMutability": "view",
      "type": "function"
    },
    {
      "inputs": [],
      "name": "totalDividendsClaimed",
      "outputs": [
        {
          "internalType": "uint256",
          "name": "",
          "type": "uint256"
        }
      ],
      "stateMutability": "view",
      "type": "function"
    },
    {
      "inputs": [],
      "name": "vault",
      "outputs": [
        {
          "internalType": "contract PropertyVault",
          "name": "",
          "type": "address"
        }
      ],
      "stateMutability": "view",
      "type": "function"
    },
    {
      "inputs": [
        {
          "internalType": "address",
          "name": "",
          "type": "address"
        }
      ],
      "name": "withdrawnDividends",
      "outputs": [
        {
          "internalType": "uint256",
          "name": "",
          "type": "uint256"
        }
      ],
      "stateMutability": "view",
      "type": "function"
    },
    {
      "inputs": [
        {
          "internalType": "uint256",
          "name": "amount",
          "type": "uint256"
        }
      ],
      "name": "notifyRent",
      "outputs": [],
      "stateMutability": "nonpayable",
      "type": "function"
    },
    {
      "inputs": [
        {
          "internalType": "address",
          "name": "from",
          "type": "address"
        },
        {
          "internalType": "address",
          "name": "to",
          "type": "address"
        },
        {
          "internalType": "uint256",
          "name": "amount",
          "type": "uint256"
        }
      ],
      "name": "onTokenTransfer",
      "outputs": [],
      "stateMutability": "nonpayable",
      "type": "function"
    },
    {
      "inputs": [
        {
          "internalType": "address",
          "name": "account",
          "type": "address"
        }
      ],
      "name": "withdrawableDividendOf",
      "outputs": [
        {
          "internalType": "uint256",
          "name": "",
          "type": "uint256"
        }
      ],
      "stateMutability": "view",
      "type": "function"
    },
    {
      "inputs": [
        {
          "internalType": "address",
          "name": "account",
          "type": "address"
        }
      ],
      "name": "accumulativeDividendOf",
      "outputs": [
        {
          "internalType": "uint256",
          "name": "",
          "type": "uint256"
        }
      ],
      "stateMutability": "view",
      "type": "function"
    },
    {
      "inputs": [],
      "name": "claim",
      "outputs": [],
      "stateMutability": "nonpayable",
      "type": "function"
    }
  ],
  "bytecode": "0x60c060405234801561000f575f80fd5b50604051610a50380380610a5083398101604081905261002e916100c2565b60015f556001600160a01b0382161580159061005257506001600160a01b03811615155b6100905760405162461bcd60e51b8152600401610087906020808252600490820152637a65726f60e01b604082015260600190565b60405180910390fd5b6001600160a01b039182166080521660a0526100f3565b80516001600160a01b03811681146100bd575f80fd5b919050565b5f80604083850312156100d3575f80fd5b6100dc836100a7565b91506100ea602084016100a7565b90509250929050565b60805160a0516109196101375f395f81816101de0152818161036d015261055101525f818161013c0152818161022301528181610419015261059801526109195ff3fe608060405234801561000f575f80fd5b50600436106100cb575f3560e01c80638009ba1f11610088578063a8b9d24011610063578063a8b9d2401461019e578063d3be6407146101b1578063de3aaf61146101ba578063fbfa77cf146101d9575f80fd5b80638009ba1f1461013757806397a06724146101765780639f13464e14610195575f80fd5b806327ce0147146100cf5780633a7960e0146100f55780634e71d92d146100fe578063677ba3d3146101085780637180ce161461011b57806378d1215214610124575b5f80fd5b6100e26100dd366004610799565b610200565b6040519081526020015b60405180910390f35b6100e260015481565b6101066102f5565b005b6101066101163660046107b9565b61040e565b6100e260055481565b6101066101323660046107f2565b610546565b61015e7f000000000000000000000000000000000000000000000000000000000000000081565b6040516001600160a01b0390911681526020016100ec565b6100e2610184366004610799565b60026020525f908152604090205481565b6100e260065481565b6100e26101ac366004610799565b6106da565b6100e260045481565b6100e26101c8366004610799565b60036020525f908152604090205481565b61015e7f000000000000000000000000000000000000000000000000000000000000000081565b6040516370a0823160e01b81526001600160a01b0382811660048301525f9182917f000000000000000000000000000000000000000000000000000000000000000016906370a0823190602401602060405180830381865afa158015610268573d5f803e3d5ffd5b505050506040513d601f19601f8201168201806040525081019061028c9190610809565b90505f6102a5826001546102a09190610834565b610722565b6001600160a01b0385165f90815260026020526040812054919250906102cb9083610851565b90505f81136102de57505f949350505050565b6102ec600160801b82610878565b95945050505050565b6102fd610756565b5f610307336106da565b9050805f036103165750610403565b335f9081526003602052604081208054839290610334908490610897565b925050819055508060065f82825461034c9190610897565b90915550506040516361175f4160e01b8152336004820152602481018290527f00000000000000000000000000000000000000000000000000000000000000006001600160a01b0316906361175f41906044015f604051808303815f87803b1580156103b6575f80fd5b505af11580156103c8573d5f803e3d5ffd5b50506040518381523392507f5efa67896a23b651b741b525caacba039c00ca7853be3de8eb1f4269e8669c56915060200160405180910390a2505b61040c60015f55565b565b336001600160a01b037f000000000000000000000000000000000000000000000000000000000000000016146104575760405163561da80f60e01b815260040160405180910390fd5b8015610541575f61046f826001546102a09190610834565b90506001600160a01b0384166104b1576001600160a01b0383165f90815260026020526040812080548392906104a69084906108aa565b9091555061053f9050565b6001600160a01b0383166104e6576001600160a01b0384165f90815260026020526040812080548392906104a6908490610851565b6001600160a01b0384165f908152600260205260408120805483929061050d908490610851565b90915550506001600160a01b0383165f90815260026020526040812080548392906105399084906108aa565b90915550505b505b505050565b336001600160a01b037f0000000000000000000000000000000000000000000000000000000000000000161461058f57604051638d1af8bd60e01b815260040160405180910390fd5b80156106d7575f7f00000000000000000000000000000000000000000000000000000000000000006001600160a01b03166318160ddd6040518163ffffffff1660e01b8152600401602060405180830381865afa1580156105f2573d5f803e3d5ffd5b505050506040513d601f19601f820116820180604052508101906106169190610809565b9050805f0361063c578160045f8282546106309190610897565b909155506106d7915050565b5f6004548361064b9190610897565b5f600455905081610660600160801b83610834565b61066a9190610878565b60015f82825461067a9190610897565b925050819055508060055f8282546106929190610897565b90915550506001546040805183815260208101929092527f6684e5868d13ee6ca97e62911d3f2bdf218d2d1acf971431798ea5bf99e15d37910160405180910390a150505b50565b5f806106e583610200565b6001600160a01b0384165f9081526003602052604090205490915080821161071057505f9392505050565b61071a81836108d0565b949350505050565b5f6001600160ff1b038211156107525760405163123baf0360e11b81526004810183905260240160405180910390fd5b5090565b60025f540361077857604051633ee5aeb560e01b815260040160405180910390fd5b60025f55565b80356001600160a01b0381168114610794575f80fd5b919050565b5f602082840312156107a9575f80fd5b6107b28261077e565b9392505050565b5f805f606084860312156107cb575f80fd5b6107d48461077e565b92506107e26020850161077e565b9150604084013590509250925092565b5f60208284031215610802575f80fd5b5035919050565b5f60208284031215610819575f80fd5b5051919050565b634e487b7160e01b5f52601160045260245ffd5b808202811582820484141761084b5761084b610820565b92915050565b8082018281125f83128015821682158216171561087057610870610820565b505092915050565b5f8261089257634e487b7160e01b5f52601260045260245ffd5b500490565b8082018082111561084b5761084b610820565b8181035f8312801583831316838312821617156108c9576108c9610820565b5092915050565b8181038181111561084b5761084b61082056fea2646970667358221220f538a9d9c767b378ae222c8731a81c42c02eaa8e49eebea5ae94f4b45ca4646564736f6c63430008190033",
  "immutableReferences": {
    "17198": [
      {
        "length": 32,
        "start": 316
      },
      {
        "length": 32,
        "start": 547
      },
      {
        "length": 32,
        "start": 1049
      },
      {
        "length": 32,
        "start": 1432
      }
    ],
    "17201": [
      {
        "length": 32,
        "start": 478
      },
      {
        "length": 32,
        "start": 877
      },
      {
        "length": 32,
        "start": 1361
      }
    ]
  },
  "source": "// SPDX-License-Identifier: MIT\npragma solidity ^0.8.25;\nimport \"./FractionTokenLite.sol\";\nimport { IVotes } from \"@openzeppelin/contracts/governance/utils/IVotes.sol\";\nimport { Nonces } from \"@openzeppelin/contracts/utils/Nonces.sol\";\nimport { AccessControl } from \"@openzeppelin/contracts/access/AccessControl.sol\";\nimport { Pausable } from \"@openzeppelin/contracts/utils/Pausable.sol\";\nimport { ReentrancyGuard } from \"@openzeppelin/contracts/utils/ReentrancyGuard.sol\";\nimport { SafeCast } from \"@openzeppelin/contracts/utils/math/SafeCast.sol\";\nimport { Math } from \"@openzeppelin/contracts/utils/math/Math.sol\";\n\nimport { ERC20 } from \"@openzeppelin/contracts/token/ERC20/ERC20.sol\";\nimport { ERC20Permit } from \"@openzeppelin/contracts/token/ERC20/extensions/ERC20Permit.sol\";\nimport { ERC20Votes } from \"@openzeppelin/contracts/token/ERC20/extensions/ERC20Votes.sol\";\n\nimport { TimelockController } from \"@openzeppelin/contracts/governance/TimelockController.sol\";\nimport { Governor } from \"@openzeppelin/contracts/governance/Governor.sol\";\nimport { GovernorSettings } from \"@openzeppelin/contracts/governance/extensions/GovernorSettings.sol\";\nimport { GovernorCountingSimple } from \"@openzeppelin/contracts/governance/extensions/GovernorCountingSimple.sol\";\nimport { GovernorVotes } from \"@openzeppelin/contracts/governance/extensions/GovernorVotes.sol\";\nimport { GovernorVotesQuorumFraction } from \"@openzeppelin/contracts/governance/extensions/GovernorVotesQuorumFraction.sol\";\nimport { GovernorTimelockControl } from \"@openzeppelin/contracts/governance/extensions/GovernorTimelockControl.sol\";\n\ninterface IFractionTokenLite {\n  function setDistributor(address distributor) external;\n  function setWhitelist(address account, bool allowed) external;\n\n  function DEFAULT_ADMIN_ROLE() external view returns (bytes32);\n  function PAUSER_ROLE() external view returns (bytes32);\n  function WHITELIST_ADMIN_ROLE() external view returns (bytes32);\n\n  function grantRole(bytes32 role, address account) external;\n  function revokeRole(bytes32 role, address account) external;\n}\n\n\n\ninterface IRentDistributorHook {\n  function onTokenTransfer(address from, address to, uint256 amount) external;\n}\n\ninterface IRentAccounting {\n  function totalDividendsAccrued() external view returns (uint256);\n  function totalDividendsClaimed() external view returns (uint256);\n}\n\ninterface IRentAccountingFull is IRentAccounting {\n  function pendingUndistributed() external view returns (uint256);\n}\n\n/*//////////////////////////////////////////////////////////////\n                        FRACTION TOKEN\n//////////////////////////////////////////////////////////////*/\ncontract FractionToken is ERC20, ERC20Permit, ERC20Votes, AccessControl, Pausable {\n  bytes32 public constant PAUSER_ROLE = keccak256(\"PAUSER_ROLE\");\n  bytes32 public constant WHITELIST_ADMIN_ROLE = keccak256(\"WHITELIST_ADMIN_ROLE\");\n\n  bool public transfersRestricted;\n  mapping(address => bool) public isWhitelisted;\n\n  address public distributor;\n\n  error DistributorAlreadySet();\n  error TransfersRestricted();\n  error ZeroAddress();\n\n  event DistributorSet(address indexed distributor);\n  event TransfersRestrictionSet(bool restricted);\n  event WhitelistSet(address indexed account, bool allowed);\n\n  constructor(\n    string memory name_,\n    string memory symbol_,\n    address admin_,\n    address initialHolder_,\n    uint256 initialSupply_\n  ) ERC20(name_, symbol_) ERC20Permit(name_) {\n    if (admin_ == address(0) || initialHolder_ == address(0)) revert ZeroAddress();\n\n    _grantRole(DEFAULT_ADMIN_ROLE, admin_);\n    _grantRole(PAUSER_ROLE, admin_);\n    _grantRole(WHITELIST_ADMIN_ROLE, admin_);\n\n    transfersRestricted = false;\n\n    isWhitelisted[admin_] = true;\n    isWhitelisted[initialHolder_] = true;\n\n    _mint(initialHolder_, initialSupply_);\n  }\n\n  function pause() external onlyRole(PAUSER_ROLE) { _pause(); }\n  function unpause() external onlyRole(PAUSER_ROLE) { _unpause(); }\n\n  function setTransfersRestricted(bool restricted) external onlyRole(WHITELIST_ADMIN_ROLE) {\n    transfersRestricted = restricted;\n    emit TransfersRestrictionSet(restricted);\n  }\n\n  function setWhitelist(address account, bool allowed) external onlyRole(WHITELIST_ADMIN_ROLE) {\n    if (account == address(0)) revert ZeroAddress();\n    isWhitelisted[account] = allowed;\n    emit WhitelistSet(account, allowed);\n  }\n\n  function setDistributor(address distributor_) external onlyRole(DEFAULT_ADMIN_ROLE) {\n    if (distributor_ == address(0)) revert ZeroAddress();\n    if (distributor != address(0)) revert DistributorAlreadySet();\n    distributor = distributor_;\n    emit DistributorSet(distributor_);\n  }\n\n  function _update(address from, address to, uint256 value)\n    internal\n    override(ERC20, ERC20Votes)\n    whenNotPaused\n  {\n    if (transfersRestricted) {\n      if (from == address(0)) {\n        if (!isWhitelisted[to]) revert TransfersRestricted();\n      } else if (to == address(0)) {\n        if (!isWhitelisted[from]) revert TransfersRestricted();\n      } else {\n        if (!isWhitelisted[from] || !isWhitelisted[to]) revert TransfersRestricted();\n      }\n    }\n\n    super._update(from, to, value);\n\n    if (distributor != address(0)) {\n      IRentDistributorHook(distributor).onTokenTransfer(from, to, value);\n    }\n  }\n\n  function nonces(address owner)\n    public\n    view\n    override(ERC20Permit, Nonces)\n    returns (uint256)\n  {\n    return super.nonces(owner);\n  }\n}\n\n/*//////////////////////////////////////////////////////////////\n                          PROPERTY VAULT (ETH)\n//////////////////////////////////////////////////////////////*/\ncontract PropertyVault is AccessControl, Pausable, ReentrancyGuard {\n  bytes32 public constant PROPERTY_MANAGER_ROLE = keccak256(\"PROPERTY_MANAGER_ROLE\");\n  bytes32 public constant GOVERNANCE_ROLE = keccak256(\"GOVERNANCE_ROLE\");\n\n  address public distributor;\n  uint16 public reserveBps;\n\n  error DistributorAlreadySet();\n  error ZeroAddress();\n  error InvalidBps();\n  error InsufficientUnencumberedBalance();\n  error EthTransferFailed();\n\n  event DistributorSet(address indexed distributor);\n  event ReserveBpsSet(uint16 bps);\n  event IncomeDeposited(address indexed from, uint256 amount, uint256 reserved, uint256 distributed);\n  event GovernancePayment(address indexed to, uint256 amount, string memo);\n  event DividendPaid(address indexed to, uint256 amount);\n\n  constructor(address admin_, address propertyManager_) {\n    if (admin_ == address(0) || propertyManager_ == address(0)) revert ZeroAddress();\n\n    _grantRole(DEFAULT_ADMIN_ROLE, admin_);\n    _grantRole(PROPERTY_MANAGER_ROLE, propertyManager_);\n    _grantRole(GOVERNANCE_ROLE, admin_);\n\n    reserveBps = 0;\n  }\n\n  function pause() external onlyRole(DEFAULT_ADMIN_ROLE) { _pause(); }\n  function unpause() external onlyRole(DEFAULT_ADMIN_ROLE) { _unpause(); }\n\n  function setDistributor(address distributor_) external onlyRole(DEFAULT_ADMIN_ROLE) {\n    if (distributor_ == address(0)) revert ZeroAddress();\n    if (distributor != address(0)) revert DistributorAlreadySet();\n    distributor = distributor_;\n    emit DistributorSet(distributor_);\n  }\n\n  function setReserveBps(uint16 bps) external onlyRole(GOVERNANCE_ROLE) {\n    if (bps > 10_000) revert InvalidBps();\n    reserveBps = bps;\n    emit ReserveBpsSet(bps);\n  }\n\n  function depositIncome() external payable onlyRole(PROPERTY_MANAGER_ROLE) whenNotPaused nonReentrant {\n    require(distributor != address(0), \"Distributor not set\");\n    uint256 amount = msg.value;\n    require(amount > 0, \"amount=0\");\n\n    uint256 reserved = Math.mulDiv(amount, reserveBps, 10_000);\n    uint256 distributed = amount - reserved;\n    RentDistributor(distributor).notifyRent(distributed);\n\n    emit IncomeDeposited(msg.sender, amount, reserved, distributed);\n  }\n\n  function payDividend(address payable to, uint256 amount) external whenNotPaused nonReentrant {\n    require(msg.sender == distributor, \"only distributor\");\n    if (amount == 0) return;\n\n    (bool ok, ) = to.call{value: amount}(\"\");\n    if (!ok) revert EthTransferFailed();\n\n    emit DividendPaid(to, amount);\n  }\n\n  function executeGovernancePayment(address payable to, uint256 amount, string calldata memo)\n    external\n    onlyRole(GOVERNANCE_ROLE)\n    whenNotPaused\n    nonReentrant\n  {\n    if (to == address(0)) revert ZeroAddress();\n    require(distributor != address(0), \"Distributor not set\");\n    require(amount > 0, \"amount=0\");\n\n    uint256 balance = address(this).balance;\n\n    uint256 accrued = IRentAccounting(distributor).totalDividendsAccrued();\n    uint256 claimed = IRentAccounting(distributor).totalDividendsClaimed();\n    uint256 pending = IRentAccountingFull(distributor).pendingUndistributed();\n    uint256 owed = (accrued + pending) - claimed;\n\n    if (balance < owed) revert InsufficientUnencumberedBalance();\n    uint256 available = balance - owed;\n\n    if (amount > available) revert InsufficientUnencumberedBalance();\n\n    (bool ok, ) = to.call{value: amount}(\"\");\n    if (!ok) revert EthTransferFailed();\n\n    emit GovernancePayment(to, amount, memo);\n  }\n}\n\n/*//////////////////////////////////////////////////////////////\n                        RENT DISTRIBUTOR (ETH)\n//////////////////////////////////////////////////////////////*/\ncontract RentDistributor is IRentDistributorHook, IRentAccounting, ReentrancyGuard {\n  using SafeCast for int256;\n  uint256 private constant MAGNIFICATION = 2 ** 128;\n\n  FractionToken public immutable sharesToken;\n  PropertyVault public immutable vault;\n\n  uint256 public magnifiedDividendPerShare;\n  mapping(address => int256) public magnifiedDividendCorrections;\n  mapping(address => uint256) public withdrawnDividends;\n\n  uint256 public pendingUndistributed;\n  uint256 public override totalDividendsAccrued;\n  uint256 public override totalDividendsClaimed;\n\n  error OnlyVault();\n  error OnlySharesToken();\n\n  event RentNotified(uint256 amountDistributed, uint256 newMagnifiedDividendPerShare);\n  event DividendClaimed(address indexed account, uint256 amount);\n\n  constructor(address sharesToken_, address vault_) {\n    require(sharesToken_ != address(0) && vault_ != address(0), \"zero\");\n    sharesToken = FractionToken(sharesToken_);\n    vault = PropertyVault(vault_);\n  }\n\n  modifier onlyVault() {\n    if (msg.sender != address(vault)) revert OnlyVault();\n    _;\n  }\n\n  modifier onlySharesToken() {\n    if (msg.sender != address(sharesToken)) revert OnlySharesToken();\n    _;\n  }\n\n  function notifyRent(uint256 amount) external onlyVault {\n    if (amount == 0) return;\n\n    uint256 supply = sharesToken.totalSupply();\n    if (supply == 0) {\n      pendingUndistributed += amount;\n      return;\n    }\n\n    uint256 distributable = amount + pendingUndistributed;\n    pendingUndistributed = 0;\n\n    magnifiedDividendPerShare += (distributable * MAGNIFICATION) / supply;\n    totalDividendsAccrued += distributable;\n\n    emit RentNotified(distributable, magnifiedDividendPerShare);\n  }\n\n  function onTokenTransfer(address from, address to, uint256 amount) external onlySharesToken {\n    if (amount == 0) return;\n    int256 magCorrection = SafeCast.toInt256(magnifiedDividendPerShare * amount);\n\n    if (from == address(0)) {\n      magnifiedDividendCorrections[to] -= magCorrection;\n    } else if (to == address(0)) {\n      magnifiedDividendCorrections[from] += magCorrection;\n    } else {\n      magnifiedDividendCorrections[from] += magCorrection;\n      magnifiedDividendCorrections[to] -= magCorrection;\n    }\n  }\n\n  function withdrawableDividendOf(address account) public view returns (uint256) {\n    uint256 accumulative = accumulativeDividendOf(account);\n    uint256 alreadyWithdrawn = withdrawnDividends[account];\n    if (accumulative <= alreadyWithdrawn) return 0;\n    return accumulative - alreadyWithdrawn;\n  }\n\n  function accumulativeDividendOf(address account) public view returns (uint256) {\n    uint256 bal = sharesToken.balanceOf(account);\n    int256 magnified = SafeCast.toInt256(magnifiedDividendPerShare * bal);\n    int256 corrected = magnified + magnifiedDividendCorrections[account];\n\n    if (corrected <= 0) return 0;\n    return uint256(corrected) / MAGNIFICATION;\n  }\n\n  function claim() external nonReentrant {\n    uint256 withdrawable = withdrawableDividendOf(msg.sender);\n    if (withdrawable == 0) return;\n\n    withdrawnDividends[msg.sender] += withdrawable;\n    totalDividendsClaimed += withdrawable;\n\n    vault.payDividend(payable(msg.sender), withdrawable);\n\n    emit DividendClaimed(msg.sender, withdrawable);\n  }\n}\n\n/*//////////////////////////////////////////////////////////////\n                      PROPERTY GOVERNOR\n//////////////////////////////////////////////////////////////*/\ncontract PropertyGovernor is\n  Governor,\n  GovernorSettings,\n  GovernorCountingSimple,\n  GovernorVotes,\n  GovernorVotesQuorumFraction,\n  GovernorTimelockControl\n{\n  constructor(\n    IVotes token_,\n    TimelockController timelock_,\n    uint48 votingDelayBlocks_,\n    uint32 votingPeriodBlocks_,\n    uint256 proposalThresholdTokens_,\n    uint256 quorumPercent_\n  )\n    Governor(\"PropertyGovernor\")\n    GovernorSettings(votingDelayBlocks_, votingPeriodBlocks_, proposalThresholdTokens_)\n    GovernorVotes(token_)\n    GovernorVotesQuorumFraction(quorumPercent_)\n    GovernorTimelockControl(timelock_)\n  {}\n\n  function votingDelay() public view override(Governor, GovernorSettings) returns (uint256) {\n    return super.votingDelay();\n  }\n\n  function votingPeriod() public view override(Governor, GovernorSettings) returns (uint256) {\n    return super.votingPeriod();\n  }\n\n  function proposalThreshold() public view override(Governor, GovernorSettings) returns (uint256) {\n    return super.proposalThreshold();\n  }\n\n  function state(uint256 proposalId)\n    public\n    view\n    override(Governor, GovernorTimelockControl)\n    returns (ProposalState)\n  {\n    return super.state(proposalId);\n  }\n\n  function proposalNeedsQueuing(uint256 proposalId)\n    public\n    view\n    override(Governor, GovernorTimelockControl)\n    returns (bool)\n  {\n    return super.proposalNeedsQueuing(proposalId);\n  }\n\n  function _queueOperations(\n    uint256 proposalId,\n    address[] memory targets,\n    uint256[] memory values,\n    bytes[] memory calldatas,\n    bytes32 descriptionHash\n  )\n    internal\n    override(Governor, GovernorTimelockControl)\n    returns (uint48)\n  {\n    return super._queueOperations(proposalId, targets, values, calldatas, descriptionHash);\n  }\n\n  function _executeOperations(\n    uint256 proposalId,\n    address[] memory targets,\n    uint256[] memory values,\n    bytes[] memory calldatas,\n    bytes32 descriptionHash\n  )\n    internal\n    override(Governor, GovernorTimelockControl)\n  {\n    super._executeOperations(proposalId, targets, values, calldatas, descriptionHash);\n  }\n\n  function _cancel(\n    address[] memory targets,\n    uint256[] memory values,\n    bytes[] memory calldatas,\n    bytes32 descriptionHash\n  )\n    internal\n    override(Governor, GovernorTimelockControl)\n    returns (uint256)\n  {\n    return super._cancel(targets, values, calldatas, descriptionHash);\n  }\n\n  function _executor()\n    internal\n    view\n    override(Governor, GovernorTimelockControl)\n    returns (address)\n  {\n    return super._executor();\n  }\n}\n\n/*//////////////////////////////////////////////////////////////\n                       REAL ESTATE DAO (Factory)\n//////////////////////////////////////////////////////////////*/\ncontract RealEstateDAO {\n  struct CreatePropertyArgs {\n    string name;\n    string symbol;\n    address admin;\n    address initialHolder;\n    uint256 initialSupply;\n    address propertyManager;\n    uint16 reserveBps;\n    uint256 timelockDelaySeconds;\n    uint48 votingDelayBlocks;\n    uint32 votingPeriodBlocks;\n    uint256 proposalThresholdTokens;\n    uint256 quorumPercent;\n  }\n\n  struct CreatePropertyLiteArgs {\n    string name;\n    string symbol;\n    address admin;\n    address initialHolder;\n    uint256 initialSupply;\n    address propertyManager;\n    uint16 reserveBps;\n  }\n\n\n  event PropertyCreated(\n    address indexed token,\n    address indexed vault,\n    address indexed distributor,\n    address timelock,\n    address governor\n  );\n\n  //  :        \n  function _emptyAddressArray() internal pure returns (address[] memory) {\n    return new address[](0); // Correct: array of size 0\n  }\n\n  function _anyoneExecutors() internal pure returns (address[] memory arr) {\n    arr = new address[](1); // Correct: array of size 1\n    arr[0] = address(0);\n  }\n\n  function createProperty(CreatePropertyArgs calldata a)\n    external\n    returns (address token, address vault, address distributor, address timelock, address governor)\n  {\n    return _createProperty(a);\n  }\n\n\n  function _createProperty(CreatePropertyArgs memory a)\n    internal\n    returns (address token, address vault, address distributor, address timelock, address governor)\n  {\n    require(\n      a.admin != address(0) &&\n      a.initialHolder != address(0) &&\n      a.propertyManager != address(0),\n      \"zero\"\n    );\n\n    FractionToken t = new FractionToken(a.name, a.symbol, address(this), a.initialHolder, a.initialSupply);\n    PropertyVault v = new PropertyVault(address(this), a.propertyManager);\n    RentDistributor d = new RentDistributor(address(t), address(v));\n\n    t.setDistributor(address(d));\n    v.setDistributor(address(d));\n\n    t.setWhitelist(a.admin, true);\n    v.setReserveBps(a.reserveBps);\n\n    TimelockController tl = new TimelockController(\n      a.timelockDelaySeconds,\n      _emptyAddressArray(),\n      _anyoneExecutors(),\n      address(this)\n    );\n\n    PropertyGovernor g = new PropertyGovernor(\n      IVotes(address(t)),\n      tl,\n      a.votingDelayBlocks,\n      a.votingPeriodBlocks,\n      a.proposalThresholdTokens,\n      a.quorumPercent\n    );\n\n    tl.grantRole(tl.PROPOSER_ROLE(), address(g));\n    tl.grantRole(tl.CANCELLER_ROLE(), a.admin);\n\n    tl.grantRole(tl.DEFAULT_ADMIN_ROLE(), a.admin);\n    tl.revokeRole(tl.DEFAULT_ADMIN_ROLE(), address(this));\n\n    v.grantRole(v.GOVERNANCE_ROLE(), address(tl));\n    v.revokeRole(v.GOVERNANCE_ROLE(), address(this));\n\n    t.grantRole(t.DEFAULT_ADMIN_ROLE(), a.admin);\n    t.grantRole(t.PAUSER_ROLE(), a.admin);\n    t.grantRole(t.WHITELIST_ADMIN_ROLE(), a.admin);\n\n    t.revokeRole(t.PAUSER_ROLE(), address(this));\n    t.revokeRole(t.WHITELIST_ADMIN_ROLE(), address(this));\n    t.revokeRole(t.DEFAULT_ADMIN_ROLE(), address(this));\n\n    v.grantRole(v.DEFAULT_ADMIN_ROLE(), a.admin);\n    v.revokeRole(v.DEFAULT_ADMIN_ROLE(), address(this));\n\n    emit PropertyCreated(address(t), address(v), address(d), address(tl), address(g));\n\n    return (address(t), address(v), address(d), address(tl), address(g));\n  }\n\n  function createPropertyLite(CreatePropertyLiteArgs calldata a)\n    external\n    returns (address token, address vault, address distributor)\n  {\n    return _createPropertyLite(a);\n  }\n\n\n  function _createPropertyLite(CreatePropertyLiteArgs memory a)\n    internal\n    returns (address token, address vault, address distributor)\n  {\n    require(\n      a.admin != address(0) &&\n      a.initialHolder != address(0) &&\n      a.propertyManager != address(0),\n      \"zero\"\n    );\n\n    FractionToken t = new FractionToken(a.name, a.symbol, address(this), a.initialHolder, a.initialSupply);\n    PropertyVault v = new PropertyVault(address(this), a.propertyManager);\n    RentDistributor d = new RentDistributor(address(t), address(v));\n\n    t.setDistributor(address(d));\n    v.setDistributor(address(d));\n\n    t.setWhitelist(a.admin, true);\n    v.setReserveBps(a.reserveBps);\n\n    // Governance handled by admin directly (no timelock/governor)\n    v.grantRole(v.GOVERNANCE_ROLE(), a.admin);\n    v.revokeRole(v.GOVERNANCE_ROLE(), address(this));\n\n    t.grantRole(t.DEFAULT_ADMIN_ROLE(), a.admin);\n    t.grantRole(t.PAUSER_ROLE(), a.admin);\n    t.grantRole(t.WHITELIST_ADMIN_ROLE(), a.admin);\n\n    t.revokeRole(t.PAUSER_ROLE(), address(this));\n    t.revokeRole(t.WHITELIST_ADMIN_ROLE(), address(this));\n    t.revokeRole(t.DEFAULT_ADMIN_ROLE(), address(this));\n\n    v.grantRole(v.DEFAULT_ADMIN_ROLE(), a.admin);\n    v.revokeRole(v.DEFAULT_ADMIN_ROLE(), address(this));\n\n    emit PropertyCreated(address(t), address(v), address(d), address(0), address(0));\n\n    return (address(t), address(v), address(d));\n  }\n\n\n  /// @notice Finalize a \"lite\" property after deploying the child contracts (token/vault/distributor)\n  ///         with `admin_ = address(this)` (the DAO) so the DAO can wire roles and settings.\n  /// @dev This avoids deploying 3 contracts inside one tx, which can hit gas / initcode limits on dev chains.\n  function finalizePropertyLite(\n    address token,\n    address vault,\n    address distributor,\n    address admin,\n    uint16 reserveBps\n  ) external returns (address tokenOut, address vaultOut, address distributorOut) {\n    require(msg.sender == admin, \"only admin\");\n    require(token != address(0) && vault != address(0) && distributor != address(0) && admin != address(0), \"zero addr\");\n\n    IFractionTokenLite t = IFractionTokenLite(token);\n    PropertyVault v = PropertyVault(vault);\n\n    // Wire distributor\n    t.setDistributor(distributor);\n    v.setDistributor(distributor);\n\n    // Allow admin to receive/transfer even when transfers are restricted\n    t.setWhitelist(admin, true);\n\n    // Reserve / governance\n    v.setReserveBps(reserveBps);\n\n    // Hand over vault governance to the admin\n    v.grantRole(v.GOVERNANCE_ROLE(), admin);\n    v.revokeRole(v.GOVERNANCE_ROLE(), address(this));\n\n    // Hand over token admin roles to the admin\n    t.grantRole(t.DEFAULT_ADMIN_ROLE(), admin);\n    t.grantRole(t.PAUSER_ROLE(), admin);\n    t.grantRole(t.WHITELIST_ADMIN_ROLE(), admin);\n\n    // Optional: drop DAO roles on the token\n    t.revokeRole(t.PAUSER_ROLE(), address(this));\n    t.revokeRole(t.WHITELIST_ADMIN_ROLE(), address(this));\n    t.revokeRole(t.DEFAULT_ADMIN_ROLE(), address(this));\n\n    emit PropertyCreated(token, vault, distributor, address(0), address(0));\n    return (token, vault, distributor);\n  }\n\n\n}",
  "sourcePath": "C:\\Users\\moham\\Desktop\\course\\15-BlockChain\\brix\\brix-truffle-frontend-web\\brix\\contracts\\RealEstateDAO.fixed2.sol",
  "compiler": {
    "name": "solc",
    "version": "0.8.25+commit.b61c2a91.Emscripten.clang"
  },
  "schemaVersion": "3.4.16",
  "updatedAt": "2025-12-18T07:42:45.150Z",
  "devdoc": {
    "errors": {
      "ReentrancyGuardReentrantCall()": [
        {
          "details": "Unauthorized reentrant call."
        }
      ],
      "SafeCastOverflowedUintToInt(uint256)": [
        {
          "details": "An uint value doesn't fit in an int of `bits` size."
        }
      ]
    },
    "kind": "dev",
    "methods": {},
    "version": 1
  },
  "userdoc": {
    "kind": "user",
    "methods": {},
    "version": 1
  }
}